S01200004564657369676E44656D6F2E6D6F742B
S10700006E37FFFF55
S11300045D355D355D355D355D355D355D355D3558
S11300145D355D355D355D355D35AB2D5D355D3502
S11300243C2D682C5D355D35413551355D355D3587
S1130034521B5D35821D5D355D355D355D355D3540
S11300445D355D355D355D355D355D355D355D3518
S11300545D355D355D355D355D355D355D355D3508
S11300645D355D355D355D355D355D355D355D35F8
S10F00745D355D355D355D355D355D3510
S10700C0EFFFE984DD
S10D00C4000000000000000000002E
S10500D8010120
S11300DA61EFC1C361CF201CAF02EFBDF044090038
S11300EA61F8EC070A00ADF044090071FF61F3EC12
S11300FA880100ADF044040061F8EC890300ADF016
S113010A44040071FF61F3EC560100ADF0440100B0
S113011A61F8EC430200ADF044010071FF61F3ECB5
S113012A3C0100ADF044000061F8EC040200EC4B21
S113013A0A00ADF044020061F8EC970200ADF04405
S113014A030061F8EC100300EC4B0A00ADF044061E
S113015A0061F8EC200900ADF044060071FF61D893
S113016AECD90800ADF044070061F8EC6D0900AD64
S113017AF044080061F8ECBA0900EC4B0A00ADF04F
S113018A440E0061F8ECFF0500ADF0440E0071FF67
S113019A61F3ECD20100ADF0440B0061F8EC7B048E
S11301AA00ADF0440B0071FF61D8EC020400ADF01D
S11301BA440C0061F8ECF40400ADF0440D0061F85D
S11301CAEC6D0500EC4B0A00ADF044100061F8EC4C
S11301DA230700ADF044100071FF61D8EC910600CA
S11301EAADF044110061F8ECB50700ADF04412001B
S11301FA61F8EC470800EC4B0A00A82444030061A8
S113020AE8EC170200E6BF02EFEC3F0200A8244420
S113021A040061E8EC2A0200E6BF02EFEC3F0200A8
S113022AA82444060061E8EC3F0200300500BF023E
S113023AEFEC4B0A00EC4B0A00A82444030061E8E3
S113024AEC560200F6BF02EFEC930200A824440421
S113025A0061E8EC690200F6BF02EFEC930200A821
S113026A2444010061E8EC7E0200300200BF02EF80
S113027AEC930200A82444060061E8EC93020030DF
S113028A0500BF02EFEC4B0A00EC4B0A00A8244419
S113029A010061E8ECBA0200300D00BF02EF30043D
S11302AAEFB8003082EFB802FCA75100EC0C03004F
S11302BAA82444040061E8ECCF0200300C00BF0219
S11302CAEFEC0C0300A82444030061E8ECE4020008
S11302DA300300BF02EFEC0C0300A82444050061BC
S11302EAE8ECF70200E6BF02EFEC0C0300A8244492
S11302FA060061E8EC0C0300300500BF02EFEC4B8A
S113030A0A00EC4B0A00A82444010061E8EC330318
S113031A00300E00BF02EF3004EFB8003082EFB8AD
S113032A02FCA75100EC850300A82444040061E8F8
S113033AEC480300300200BF02EFEC850300A82456
S113034A44030061E8EC5D0300300400BF02EFECF3
S113035A850300A82444050061E8EC700300E6BFA5
S113036A02EFEC850300A82444060061E8EC850347
S113037A00300500BF02EFEC4B0A00EC4B0A00A860
S113038A2444010061E8ECAC0300300F00BF02EF23
S113039A3004EFB8003082EFB802FCA75100ECFE3B
S11303AA0300A82444040061E8ECC10300300300FC
S11303BABF02EFECFE0300A82444030061E8ECD674
S11303CA0300300A00BF02EFECFE0300A824440530
S11303DA0061E8ECE90300E6BF02EFECFE0300A8C3
S11303EA2444060061E8ECFE0300300500BF02EF76
S11303FAEC4B0A00EC4B0A00A82444010061E8EC27
S113040A250400301000BF02EF3004EFB800308238
S113041AEFB802FCA75100EC770400A824440400B6
S113042A61E8EC3A0400300400BF02EFEC77040000
S113043AA82444030061E8EC4F0400300B00BF0217
S113044AEFEC770400A82444050061E8EC62040098
S113045AE6BF02EFEC770400A82444060061E8EC46
S113046A770400300500BF02EFEC4B0A00EC4B0A9C
S113047A00A82444010061E8EC9E0400301100BF86
S113048A02EF3004EFB8003082EFB802FCA7510043
S113049AECF00400A82444040061E8ECB30400303E
S11304AA0A00BF02EFECF00400A82444030061E848
S11304BAECC80400300C00BF02EFECF00400A824DE
S11304CA44050061E8ECDB0400E6BF02EFECF0044B
S11304DA00A82444060061E8ECF00400300500BFDB
S11304EA02EFEC4B0A00EC4B0A00A8244401006119
S11304FAE8EC170500301200BF02EF3004EFB80031
S113050A3082EFB802FCA75100EC690500A8244424
S113051A040061E8EC2C0500300B00BF02EFEC6923
S113052A0500A82444030061E8EC410500300200F8
S113053ABF02EFEC690500A82444050061E8EC5405
S113054A0500E6BF02EFEC690500A8244406006131
S113055AE8EC690500300500BF02EFEC4B0A00EC39
S113056A4B0A00A82444010061E8ECE605008F0464
S113057AEF9DF0705100BDEA8F05EF9DF0705100B8
S113058ABDE88F06EF9DF0705100BDF68F07EF9D11
S113059AF0705100BDF48F08EF9DF0705100BDF268
S11305AA8F09EF9DF0CDF10030C1EFB80030DECCF9
S11305BAB802ADEAB804ADE8B806ADF6B808ADF4C9
S11305CAB80AADF2B80CADF0B80EFC2C5100FC9D83
S11305DA4400300200BF02EFECFB0500A8244405E6
S11305EA0061E8ECFB0500300200BF02EFEC4B0AA5
S11305FA00EC4B0A00A82444010061E8EC780600E8
S113060A8F04EF9DF0705100BDEA8F05EF9DF070E5
S113061A5100BDE88F06EF9DF0705100BDF68F07BB
S113062AEF9DF0705100BDF48F08EF9DF0705100FA
S113063ABDF28F09EF9DF0CDF10030C1EFB8003063
S113064ADECCB802ADEAB804ADE8B806ADF6B8082F
S113065AADF4B80AADF2B80CADF0B80EFC2C5100EA
S113066AFC9D4400300300BF02EFEC8D0600A82471
S113067A44050061E8EC8D0600300300BF02EFEC8C
S113068A4B0A00EC4B0A00A82444010061E8EC0A76
S113069A07008F04EF9DF0705100BDEA8F05EF9DAE
S11306AAF0705100BDE88F06EF9DF0705100BDF661
S11306BA8F07EF9DF0705100BDF48F08EF9DF07025
S11306CA5100BDF28F09EF9DF0CDF10030C1EFB8B2
S11306DA0030DECCB802ADEAB804ADE8B806ADF62F
S11306EAB808ADF4B80AADF2B80CADF0B80EFC2CEB
S11306FA5100FC9D4400300400BF02EFEC1F0700C8
S113070AA82444050061E8EC1F0700300400BF0276
S113071AEFEC4B0A00EC4B0A00A82444010061E800
S113072AEC9C07008F04EF9DF0705100BDEA8F0521
S113073AEF9DF0705100BDE88F06EF9DF0705100F7
S113074ABDF68F07EF9DF0705100BDF48F08EF9D41
S113075AF0705100BDF28F09EF9DF0CDF10030C168
S113076AEFB80030DECCB802ADEAB804ADE8B8069A
S113077AADF6B808ADF4B80AADF2B80CADF0B80EDF
S113078AFC2C5100FC9D4400300A00BF02EFECB17E
S113079A0700A82444050061E8ECB10700300A0008
S11307AABF02EFEC4B0A00EC4B0A00A824440100F8
S11307BA61E8EC2E08008F04EF9DF0705100BDEA49
S11307CA8F05EF9DF0705100BDE88F06EF9DF07024
S11307DA5100BDF68F07EF9DF0705100BDF48F08EC
S11307EAEF9DF0705100BDF28F09EF9DF0CDF1003D
S11307FA30C1EFB80030DECCB802ADEAB804ADE8D7
S113080AB806ADF6B808ADF4B80AADF2B80CADF056
S113081AB80EFC2C5100FC9D4400300B00BF02EFC3
S113082AEC430800A82444050061E8EC43080030BE
S113083A0B00BF02EFEC4B0A00EC4B0A00A824445D
S113084A010061E8ECC008008F04EF9DF0705100CC
S113085ABDEA8F05EF9DF0705100BDE88F06EF9D4C
S113086AF0705100BDF68F07EF9DF0705100BDF492
S113087A8F08EF9DF0705100BDF28F09EF9DF0CD06
S113088AF10030C1EFB80030DECCB802ADEAB804EA
S113089AADE8B806ADF6B808ADF4B80AADF2B80CCE
S11308AAADF0B80EFC2C5100FC9D4400300C00BF86
S11308BA02EFECD50800A82444050061E8ECD50849
S11308CA00300C00BF02EFEC4B0A00EC4B0A00A804
S11308DA2444030061E8ECF40800AF02EFBDF0A67B
S11308EAF0ADF0BF02EFEC1C0900A8244404006137
S11308FAE8EC090900300900BF02EFEC1C0900A862
S113090A2444070061E8EC1C0900F6BF02EFEC4B33
S113091A0A00EC4B0A00A82444030061E8EC3B09F2
S113092A00AF02EFBDF0A6F0ADF0BF02EFEC69092B
S113093A00A82444040061E8EC560900AF02EFBDA4
S113094AF0B6F0ADF0BF02EFEC690900A824440741
S113095A0061E8EC690900F6BF02EFEC4B0A00EC0F
S113096A4B0A00A82444030061E8EC880900AF029A
S113097AEFBDF0A6F0ADF0BF02EFECB60900A82473
S113098A44040061E8ECA30900AF02EFBDF0B6F03D
S113099AADF0BF02EFECB60900A82444070061E8F1
S11309AAECB60900F6BF02EFEC4B0A00EC4B0A0066
S11309BAA82444030061E8ECD50900AF02EFBDF0B6
S11309CAA6F0ADF0BF02EFEC030A00A82444040029
S11309DA61E8ECF00900AF02EFBDF0B6F0ADF0BF8C
S11309EA02EFEC030A00A82444070061E8EC030AB6
S11309FA00F6BF02EFEC4B0A00EC4B0A00A82444B1
S1130A0A030061E8EC1C0A00300500BF02EFEC4A5F
S1130A1A0A00A82444040061E8EC370A00AF02EF94
S1130A2ABDF0B6F0ADF0BF02EFEC4A0A00A82444C8
S1130A3A070061E8EC4A0A00F6BF02EFEC4A0A0032
S1130A4A00AF02EFBDF044090061F8ECA61300AD53
S1130A5AF044090071FF61F3ECF10A00ADF04404BB
S1130A6A0061F8EC7E0C00ADF044040071FF61F300
S1130A7AECBF0A00ADF044010061F8ECA00B00AD34
S1130A8AF044010071FF61F3ECA50A00ADF04400E3
S1130A9A0061F8EC6D0B00EC5C1400ADF04402004C
S1130AAA61F8ECF90B00ADF044030061F8EC390C81
S1130ABA00EC5C1400ADF044060061F8EC7B110014
S1130ACAADF044060071FF61D8ECC21000ADF044E9
S1130ADA070061F8EC341200ADF044080061F8EC48
S1130AEAED1200EC5C1400ADF0440E0061F8EC0861
S1130AFA0E00ADF0440E0071FF61F3EC3B0B00AD48
S1130B0AF0440B0061F8ECF90C00ADF0440B0071F1
S1130B1AFF61D8ECB90C00ADF0440C0061F8EC4369
S1130B2A0D00ADF0440D0061F8EC8D0D00EC5C1481
S1130B3A00ADF044100061F8EC510F00ADF0441020
S1130B4A0071FF61D8EC830E00ADF044110061F826
S1130B5AECCC0F00ADF044120061F8EC471000EC45
S1130B6A5C14008FC0EF9DF0705100BDF28FBEEF90
S1130B7A9DF0CDF1003088EFB80030F8CCB802AD62
S1130B8AF2B804ADF0B806FC2C5100E6B800FC61DA
S1130B9A4200EC5C140051539F88EF51659F89EF22
S1130BAA51749F8AEF51209F8BEF51649F8CEF51B0
S1130BBA619F8DEF51749F8EEF51659F8FEF512F77
S1130BCA9F90EF51749F91EF51699F92EF516D9FDE
S1130BDA93EF51659F94EF510D9F95EF510A9F969C
S1130BEAEFF597EFE6B800FC614200EC5C140051A3
S1130BFA539F88EF51659F89EF51749F8AEF512063
S1130C0A9F8BEF51599F8CEF51659F8DEF51619FD7
S1130C1A8EEF51729F8FEF510D9F90EF510A9F9162
S1130C2AEFF592EFE6B800FC614200EC5C14005167
S1130C3A539F88EF51659F89EF51749F8AEF512022
S1130C4A9F8BEF514D9F8CEF516F9F8DEF516E9F8C
S1130C5A8EEF51749F8FEF51689F90EF510D9F91C2
S1130C6AEF510A9F92EFF593EFE6B800FC61420058
S1130C7AEC5C140051539F88EF51659F89EF5174BE
S1130C8A9F8AEF51209F8BEF51449F8CEF51619FB4
S1130C9A8DEF51799F8EEF510D9F8FEF510A9F90DF
S1130CAAEFF591EFE6B800FC614200EC5C140051E8
S1130CBA539F88EF51659F89EF51749F8AEF5120A2
S1130CCA9F8BEF51489F8CEF516F9F8DEF51759F0A
S1130CDA8EEF51729F8FEF510D9F90EF510A9F91A2
S1130CEAEFF592EFE6B800FC614200EC5C140051A7
S1130CFA539F88EF51659F89EF51749F8AEF512062
S1130D0A9F8BEF514D9F8CEF51699F8DEF516E9FD1
S1130D1A8EEF51759F8FEF51749F90EF51659F919C
S1130D2AEF510D9F92EF510A9F93EFF594EFE6B8B6
S1130D3A00FC614200EC5C140051539F88EF51653A
S1130D4A9F89EF51749F8AEF51209F8BEF51539FD4
S1130D5A8CEF51659F8DEF51639F8EEF516F9F8F7B
S1130D6AEF516E9F90EF51649F91EF510D9F92EF57
S1130D7A510A9F93EFF594EFE6B800FC614200EC48
S1130D8A5C1400A82444040061E8ECB60D008F0446
S1130D9AEF9DF0A4F08DF09F04EF9DF04AF063619B
S1130DAAE3ECE30D00F504EFECE30D00A82444039F
S1130DBA0061E8ECE30D008F04EF9DF0D4F061E8E4
S1130DCAECD70D0051639F04EFECE30D008F04EFA1
S1130DDA9DF0B4F08DF09F04EF8F04EF9DF0CDF1F8
S1130DEA003088EFB8003012CDB802ADF0B804FC78
S1130DFA2C5100E6B800FC614200EC5C1400A82403
S1130E0A44040061E8EC310E008F05EF9DF0A4F074
S1130E1A8DF09F05EF9DF04AF00C61E3EC5E0E0045
S1130E2AF505EFEC5E0E00A82444030061E8EC5ECD
S1130E3A0E008F05EF9DF0D4F061E8EC520E0051DC
S1130E4A0C9F05EFEC5E0E008F05EF9DF0B4F08D5C
S1130E5AF09F05EF8F05EF9DF0CDF1003088EFB8D4
S1130E6A003021CDB802ADF0B804FC2C5100E6B82C
S1130E7A00FC614200EC5C1400A82444040061E80C
S1130E8AECFF0E00511F9810511C9811511F981213
S1130E9A511E9813511F9814511E9815511F9816D4
S1130EAA511F9817511E9818511F9819511E981AB4
S1130EBA511F981B8F06EF9DF0A4F08DF09F06EF4B
S1130ECA9DF48F05EF9DF0CDF100B6F0AEF8BDF6B6
S1130EDA041000BDF206F0BDF0BDF2FAF28B9DF0EB
S1130EEA8DF44BF061E3ECFB0E00F506EFEC2C0FEE
S1130EFA00EC2C0F00A82444030061E8EC2C0F003A
S1130F0A8F06EF9DF0D4F061E8EC200F00510C9F9E
S1130F1A06EFEC2C0F008F06EF9DF0B4F08DF09FD6
S1130F2A06EF8F06EF9DF0CDF1003088EFB8003060
S1130F3A2DCDB802ADF0B804FC2C5100E6B800FC83
S1130F4A614200EC5C1400A82444040061E8EC7AD1
S1130F5A0F008F07EF9DF0A4F08DF09F07EF9DF02F
S1130F6A4AF01861E3ECA70F00F507EFECA70F00AE
S1130F7AA82444030061E8ECA70F008F07EF9DF053
S1130F8AD4F061E8EC9B0F0051189F07EFECA70F10
S1130F9A008F07EF9DF0B4F08DF09F07EF8F07EFF6
S1130FAA9DF0CDF1003088EFB8003037CDB802ADEE
S1130FBAF0B804FC2C5100E6B800FC614200EC5C79
S1130FCA1400A82444040061E8ECF50F008F08EF2C
S1130FDA9DF0A4F08DF09F08EF9DF04AF03B61E389
S1130FEAEC221000F508EFEC221000A824440300B8
S1130FFA61E8EC2210008F08EF9DF0D4F061E8EC70
S113100A161000513B9F08EFEC2210008F08EF9D49
S113101AF0B4F08DF09F08EF8F08EF9DF0CDF1004A
S113102A3088EFB8003042CDB802ADF0B804FC2CD9
S113103A5100E6B800FC614200EC5C1400A82444A8
S113104A040061E8EC7010008F09EF9DF0A4F08DA4
S113105AF09F09EF9DF04AF03B61E3EC9D1000F527
S113106A09EFEC9D1000A82444030061E8EC9D10EC
S113107A008F09EF9DF0D4F061E8EC911000513B28
S113108A9F09EFEC9D10008F09EF9DF0B4F08DF0ED
S113109A9F09EF8F09EF9DF0CDF1003088EFB8007A
S11310AA304FCDB802ADF0B804FC2C5100E6B800BC
S11310BAFC614200EC5C140051539F88EF51779F06
S11310CA89EF51699F8AEF51749F8BEF51639F8C0B
S11310DAEF51689F8DEF51209F8EEF51739F8FEFD1
S11310EA51749F90EF51619F91EF51749F92EF5108
S11310FA659F93EF51209F94EF513D9F95EF5120A7
S113110A9F96EF51309F97EF510D9F98EF510A9F89
S113111A99EFF59AEFE6B800FC614200C9F004FFC2
S113112AADF0BDF4FAF48B9DF25AF2FDADF0BDF6C2
S113113ADAF68DF2480000C9F004FFADF0BDF4FA06
S113114AF48B9DF25AF2FBADF0BDF6DAF68DF24855
S113115A0000C9F004FFADF0BDF4FAF48B9DF25A15
S113116AF2F7ADF0BDF6DAF68DF2480000EC5C1445
S113117A0051539F88EF51779F89EF51699F8AEFF6
S113118A51749F8BEF51639F8CEF51689F8DEF5180
S113119A209F8EEF51739F8FEF51749F90EF51618F
S11311AA9F91EF51749F92EF51659F93EF51209F46
S11311BA94EF513D9F95EF51209F96EF51319F97A0
S11311CAEF510D9F98EF510A9F99EFF59AEFE6B800
S11311DA00FC614200C9F004FFADF0BDF4FAF48BDF
S11311EA9DF25AF2FDADF0BDF6DAF68DF248000032
S11311FAC9F004FFADF0BDF4FAF48B9DF25AF2FB88
S113120AADF0BDF6DAF68DF2480000C9F004FFAD80
S113121AF0BDF4FAF48B9DF26AF208ADF0BDF6DA89
S113122AF68DF2480000EC5C140051539F88EF518C
S113123A779F89EF51699F8AEF51749F8BEF5163AE
S113124A9F8CEF51689F8DEF51209F8EEF51739FB2
S113125A8FEF51749F90EF51619F91EF51749F9258
S113126AEF51659F93EF51209F94EF513D9F95EF66
S113127A51209F96EF51329F97EF510D9F98EF514E
S113128A0A9F99EFF59AEFE6B800FC614200C9F0AB
S113129A04FFADF0BDF4FAF48B9DF26AF202ADF0EC
S11312AABDF6DAF68DF2480000C9F004FFADF0BDD0
S11312BAF4FAF48B9DF25AF2FBADF0BDF6DAF68D30
S11312CAF2480000C9F004FFADF0BDF4FAF48B9DB6
S11312DAF25AF2F7ADF0BDF6DAF68DF2480000ECF8
S11312EA5C140051539F88EF51779F89EF51699F8E
S11312FA8AEF51749F8BEF51639F8CEF51689F8DD6
S113130AEF51209F8EEF51739F8FEF51749F90EF8F
S113131A51619F91EF51749F92EF51659F93EF51E1
S113132A209F94EF513D9F95EF51209F96EF5133A3
S113133A9F97EF510D9F98EF510A9F99EFF59AEFF6
S113134AE6B800FC614200C9F004FFADF0BDF4FA4E
S113135AF48B9DF25AF2FDADF0BDF6DAF68DF24841
S113136A0000C9F004FFADF0BDF4FAF48B9DF26AF3
S113137AF204ADF0BDF6DAF68DF2480000C9F004C5
S113138AFFADF0BDF4FAF48B9DF25AF2F7ADF0BD5D
S113139AF6DAF68DF2480000EC5C140051539F888B
S11313AAEF51779F89EF51699F8AEF51749F8BEFB1
S11313BA51639F8CEF51689F8DEF51209F8EEF519F
S11313CA739F8FEF51749F90EF51619F91EF517406
S11313DA9F92EF51659F93EF51209F94EF513D9F48
S11313EA95EF51209F96EF51349F97EF510D9F9897
S11313FAEF510A9F99EFF59AEFE6B800FC614200B3
S113140AC9F004FFADF0BDF4FAF48B9DF26AF2025E
S113141AADF0BDF6DAF68DF2480000C9F004FFAD6E
S113142AF0BDF4FAF48B9DF26AF204ADF0BDF6DA7B
S113143AF68DF2480000C9F004FFADF0BDF4FAF4E9
S113144A8B9DF25AF2F7ADF0BDF6DAF68DF248004A
S113145A0000101C61EFC2C061CFD72004A808BDE8
S113146AF0B800A80ABDF0B802FCB315004AF001AE
S113147A61E8ECC31400A80ABDF001BDF0041AEF38
S113148ABDF0BDF2FAF2ABBDF0A1BDF2A80ABDF0FF
S113149A01BDF0041AEFBDF0BDF4DAF4ADF2780040
S11314AA00A80ABDF001BDF0040AEFBDF0BDF2DAEE
S11314BAF2F6780000EC021500A80ABDF001BDF0AE
S11314CA040AEFBDF0BDF4FAF4ABBDF0A1BDF2A875
S11314DA0ABDF001BDF0040AEFBDF0BDF4DAF4ADC3
S11314EAF2780000A80ABDF001BDF0041AEFBDF0BD
S11314FABDF2DAF2F6780000A80ABDF001BDF004E4
S113150A1AEFBDF0BDF4FAF4ABBDF044E20461E3B2
S113151AEC6A1500A80ABDF001BDF0041AEFBDF08B
S113152ABDF2DAF230E304780000A80ABDF001BD86
S113153AF0042AEFBDF0BDF4FAF4ABBDF0440000A8
S113154A61E8ECAE1500A80ABDF001BDF0042AEF6B
S113155ABDF0BDF2DAF2E6780000E4F0ECB0150072
S113156AA80ABDF001BDF0040AEFBDF0BDF4FAF417
S113157AABBDF044E20461E3ECAE1500A80ABDF089
S113158A01BDF0042AEFBDF0BDF2DAF2F6780000EC
S113159AA80ABDF001BDF0040AEFBDF0BDF4DAF407
S11315AAF6780000F4F01004D7A806BDF04403004E
S11315BA61F8EC631600ADF044030071FF61F3ECCB
S11315CAF41500ADF044010061F8EC371600ADF0F3
S11315DA44010071FF61F3EC4D1600ADF0440000C4
S11315EA61F8EC261600ECCE1600ADF04405006155
S11315FAF8EC8F1600ADF044050071FF61D8EC7960
S113160A1600ADF044060061F8ECA51600ADF044EE
S113161A070061F8ECBB1600ECCE1600A804BDF076
S113162ABDF2EAF2895C019DF0ECD11600A804BD72
S113163AF0BDF2FAF28B9DF0311A9DF05AF001ECEA
S113164AD11600A804BDF0BDF2FAF28B9DF0312A3E
S113165A9DF05AF001ECD11600A804BDF0BDF2FACF
S113166AF28B9DF0313A9DF05AF001ECD11600A8A4
S113167A04BDF0BDF2FAF28B9DF0314A9DF05AF0A6
S113168A01ECD11600A804BDF0BDF2FAF28B9DF06C
S113169A315A9DF05AF001ECD11600A804BDF0BDF0
S11316AAF2FAF28B9DF0316A9DF05AF001ECD116F0
S11316BA00A804BDF0BDF2FAF28B9DF0317A9DF0D8
S11316CAECD11600CDF0FFD72006880C314A9805D4
S11316DA880A9DF0980088059DF09802FC0317007B
S11316EA880C5C0F9805880A9DF0980088059DF07F
S11316FA9802FC0317001006D720028806D161F865
S113170AEC2B1700C9F007FFADF0BDF4FAF48B9D7A
S113171AF26AF201ADF0DAF48DF2480000EC4417F3
S113172A00C9F007FFADF0BDF4FAF48B9DF25AF24A
S113173AFEADF0DAF48DF2480000C9F007FFADF00F
S113174ABDF4FAF48B9DF25AF2FDADF0DAF48DF29F
S113175A480000C9F227FFC9F027FFADF0BDF4FA2B
S113176AF48B9DF05AF0F0ADF2BDF4DAF48DF04842
S113177A0000C9F007FFADF0BDF2FAF28B9DF05CF0
S113178A0F9DF28808705100BDF0314DBDF08DF205
S113179A6BF09DF09801C9F007FF88019DF2ADF046
S11317AABDF4DAF48DF2480000C9F007FFADF0BDCC
S11317BAF4FAF48B9DF26AF204ADF0DAF48DF2488D
S11317CA0000000000000000C9F007FFADF0BDF4FE
S11317DAFAF48B9DF25AF2FBADF0DAF48DF248007A
S11317EA000000C9F007FFADF0BDF4FAF48B9DF2D6
S11317FA6AF202ADF0DAF48DF24800001002D72042
S113180A04C9F0E6FFADF0BDF4FAF48B9DF26AF276
S113181A10ADF0DAF48DF248000030983AB800FCC2
S113182A1E1900F1980051039802FC0317003004B2
S113183A10B800FC1E1900F1980051039802FC0329
S113184A1700306400B800FC1E1900F19800510317
S113185A9802FC031700302800B800FC1E1900F196
S113186A980051029802FC031700302800B800FCC3
S113187A1E1900F1980051289802FCD2160030284B
S113188A00B800FC1E1900F19800510E9802FCD20F
S113189A1600302800B800FC1E1900F19800E198DF
S11318AA02FCD21600306806B800FC1E1900F19832
S11318BA0051069802FCD21600302800B800FC1E1B
S11318CA1900F1980051809802FCD21600302800C1
S11318DAB800FC1E19001004D7C9F0E2FFADF0BD30
S11318EAF4FAF48B9DF25AF2EFADF0DAF48DF24881
S11318FA0000C9F218FFA804BDF0ADF2BDF4DAF491
S113190AADF0780000C9F0B201ADF0BDF2DAF2E64A
S113191A780000D72002A806BDF0B800FCE318003E
S113192AEC2F190000C9F0E2FFADF0BDF2FAF28B18
S113193A9DF0314A9DF05AF00161F8EC2E1900FC31
S113194A3034001002D7C9F0F000ADF0BDF4FAF457
S113195A8B9DF26AF220ADF0DAF48DF2480000C9E8
S113196AF030FFADF0BDF2DAF2F1480000C9F0E759
S113197AFFADF0BDF4FAF48B9DF26AF201ADF0DA30
S113198AF48DF2480000C9F0E3FFADF0BDF4FAF4B7
S113199A8B9DF25AF2FEADF0DAF48DF2480000C9DA
S11319AAF0EFFFADF0BDF4FAF48B9DF26AF201ADEB
S11319BAF0DAF48DF2480000C9F0EBFFADF0BDF4A3
S11319CAFAF48B9DF26AF201ADF0DAF48DF2480072
S11319DA00C9F222FFC9F022FFADF0BDF4FAF48B7C
S11319EA9DF06AF007ADF2BDF4DAF48DF048000018
S11319FAC9F030FFADF0BDF2DAF25108480000C96F
S1131A0AF032FFADF0BDF4DAF45120480000C9F019
S1131A1A1000ADF0BDF2DAF2E1480000C9F011009D
S1131A2AADF0BDF4DAF451FF480000C9F01200AD7C
S1131A3AF0BDF2DAF2F1480000C9F031FFADF0BDB1
S1131A4AF4DAF4F1480000C9F030FFADF0BDF4FA5D
S1131A5AF48B9DF26AF201ADF0DAF48DF2480000DB
S1131A6AD7C9F0E3FFADF0BDF4FAF48B9DF25AF254
S1131A7AFEADF0DAF48DF2480000C9F0E7FFADF0EC
S1131A8ABDF4FAF48B9DF25AF2FEADF0DAF48DF25B
S1131A9A480000C9F030FFADF0BDF4FAF48B9DF2B2
S1131AAA6AF280ADF0DAF48DF2480000D7C9F0305A
S1131ABAFFADF0BDF4FAF48B9DF25AF27FADF0DA81
S1131ACAF48DF2480000C9F0E7FFADF0BDF4FAF472
S1131ADA8B9DF26AF201ADF0DAF48DF2480000C986
S1131AEAF0E3FFADF0BDF4FAF48B9DF25AF2FEADC9
S1131AFAF0DAF48DF2480000D7C9F030FFADF0BD3A
S1131B0AF4FAF48B9DF26AF201ADF0DAF48DF2483C
S1131B1A0000D7C9F030FFADF0BDF4FAF48B9DF2A2
S1131B2A5AF2FEADF0DAF48DF2480000D7C9F01F7C
S1131B3AFFADF0BDF4FAF48B9DF2A804BDF0BDF438
S1131B4ADAF48DF2480000D761CFC1C3C5C7C6C451
S1131B5AC2C061FC2002C9F0A0FFADF0BDF2DAF206
S1131B6A5110480000C9F0A1FFADF0BDF4FAF48B9E
S1131B7A9DF26AF280ADF0DAF48DF2480000C9F001
S1131B8AA4FFADF0BDF4FAF48B9DF25AF2EFADF076
S1131B9ADAF48DF2480000C9F0A1FFADF0BDF4FA01
S1131BAAF48B9DF25AF2BFADF0DAF48DF2480000DC
S1131BBAF6B800ECCC1B0000A800BDF0A6F0ADF00E
S1131BCAB800A800BDF044A00061E3ECC11B00C941
S1131BDAF0F300ADF0BDF2DAF2F1480000C9F0A466
S1131BEAFFADF0BDF4FAF48B9DF25AF2BFADF0DA10
S1131BFAF48DF2480000C9F0A1FFADF0BDF4FAF487
S1131C0A8B9DF25AF2FEADF0DAF48DF24800001020
S1131C1A02D72002C9F0A8FFADF0BDF2FAF28B9DFB
S1131C2AF098011002D7C9F0F000ADF0BDF4FAF44F
S1131C3A8B9DF26AF280ADF0DAF48DF2480000C9A5
S1131C4AF090FFADF0BDF2DAF2F6780000C9F0E7E1
S1131C5AFFADF0BDF4FAF48B9DF26AF204ADF0DA4A
S1131C6AF48DF2480000C9F0E3FFADF0BDF4FAF4D4
S1131C7A8B9DF25AF2FBADF0DAF48DF2480000C9FA
S1131C8AF0EFFFADF0BDF4FAF48B9DF25AF2FBAD1E
S1131C9AF0DAF48DF2480000C9F0EBFFADF0BDF4C0
S1131CAAFAF48B9DF26AF204ADF0DAF48DF248008C
S1131CBA00C9F090FFADF0BDF2DAF23020007800EE
S1131CCA00D7C9F2E3FFADF2BDF0FAF08B9DF45AE6
S1131CDAF4FBADF2DAF08DF4480000C9F2E7FFAD87
S1131CEAF2BDF0FAF08B9DF45AF4FBADF2DAF08D02
S1131CFAF4480000C9F490FFC9F290FFADF2BDF0B8
S1131D0AFAF0ABBDF28DF26C009DF08DF36C809D00
S1131D1AF1ADF4BDF2DAF2ADF0780000D7C9F2E71A
S1131D2AFFADF2BDF0FAF08B9DF46AF404ADF2DA79
S1131D3AF08DF4480000C9F2E3FFADF2BDF0FAF009
S1131D4A8B9DF45AF4FBADF2DAF08DF4480000C925
S1131D5AF490FFC9F290FFADF2BDF0FAF0ABBDF218
S1131D6A8DF25CFF9DF08DF35C7F9DF1ADF4BDF2C5
S1131D7ADAF2ADF0780000D761CFC1C3C5C761DF1D
S1131D8AC161CFAFBCEFBDF0A6F0ADF0BFBCEF8F21
S1131D9A3AEF9DF0A4F08DF09F3AEFAF3CEFBDF01F
S1131DAAA6F0ADF0BF3CEFAFBCEFBDF044F3016168
S1131DBAE3ECC61D00E5F4EFF6BFBCEF8F3AEF9DE6
S1131DCAF04AF06761E3ECDA1D00E5BAEFF53AEFA1
S1131DDAAF3CEFBDF044E70361E3ECEF1D00E5BF60
S1131DEAEFF6BF3CEF61DFC061CFC6C4C2C061FC7D
S1131DFAC9F001FFADF0BDF2DAF2F1480000C9F012
S1131E0A04FFADF0BDF2DAF2F1480000C9F007FFB1
S1131E1AADF0BDF2DAF2F1480000C9F03000ADF0DD
S1131E2ABDF2DAF25108480000C9F03400ADF0BD41
S1131E3AF2DAF2E1480000C9F04000ADF0BDF2DA8E
S1131E4AF25108480000C9F04100ADF0BDF2DAF2DF
S1131E5A5140480000C9F021FFADF0BDF2DAF25159
S1131E6A5F480000C9F024FFADF0BDF2DAF251F187
S1131E7A480000C9F025FFADF0BDF2DAF251FF487F
S1131E8A0000C9F027FFADF0BDF2DAF2F148000014
S1131E9AD7C9F0F000ADF0BDF4FAF48B9DF26AF202
S1131EAA80ADF0DAF48DF2480000C9F09DFFADF080
S1131EBABDF4FAF48B9DF25AF27FADF0DAF48DF2A6
S1131ECA480000C9F0E7FFADF0BDF4FAF48B9DF2C7
S1131EDA6AF202ADF0DAF48DF2480000C9F0E3FFC9
S1131EEAADF0BDF4FAF48B9DF25AF2FDADF0DAF4DA
S1131EFA8DF2480000C9F0EFFFADF0BDF4FAF48B9F
S1131F0A9DF26AF202ADF0DAF48DF2480000C9F0EB
S1131F1AEBFFADF0BDF4FAF48B9DF26AF202ADF078
S1131F2ADAF48DF2480000C9F09DFFADF0BDF2DA93
S1131F3AF25108480000C9F092FFADF0BDF4DAF49A
S1131F4AF1480000C9F093FFADF0BDF2DAF2F148AE
S1131F5A0000C9F094FFADF0BDF4DAF4F1480000D2
S1131F6AC9F095FFADF0BDF2DAF25102480000C99A
S1131F7AF096FFADF0BDF4DAF45111480000C9F04F
S1131F8A97FFADF0BDF2DAF25104480000C9F098A7
S1131F9AFFADF0BDF4DAF45117480000D7C9F09D3B
S1131FAAFFADF0BDF4FAF48B9DF26AF280ADF0DA7B
S1131FBAF48DF2480000D7C9F09DFFADF0BDF4FAE4
S1131FCAF48B9DF25AF27FADF0DAF48DF2480000F8
S1131FDAD72006F6B804C9F29EFFC9F09EFFADF0F9
S1131FEABDF4FAF48B9DF06AF001ADF2BDF4DAF4B3
S1131FFA8DF0480000F6B800F6B802EC182000008C
S113200AA800040100B800A80261D8A1B802A80275
S113201A440000A80061F8443F0161E3EC09200090
S113202AC9F09EFFADF0BDF2FAF28B9DF0311A9D14
S113203AF05AF00161E8EC4D2000300300B804ECDA
S113204A632100C9F092FFADF0BDF4FAF48B9DF25E
S113205AA80ABDF0BDF4DAF48DF2480000C9F09381
S113206AFFADF0BDF4FAF48B9DF2A80ABDF0DAF0E4
S113207A8DF2480100C9F094FFADF0BDF4FAF48B77
S113208A9DF2A80ABDF0DAF08DF2480200C9F09573
S113209AFFADF0BDF4FAF48B9DF2A80ABDF0DAF0B4
S11320AA8DF2480400C9F096FFADF0BDF4FAF48B42
S11320BA9DF2A80ABDF0DAF08DF2480300C9F09740
S11320CAFFADF0BDF4FAF48B9DF2A80ABDF0DAF084
S11320DA8DF2480500C9F098FFADF0BDF4FAF48B0F
S11320EA9DF2A80ABDF0DAF08DF2480600C9F29E04
S11320FAFFC9F09EFFADF0BDF4FAF48B9DF05AF0DF
S113210AFEADF2BDF4DAF48DF0480000F6B800F63C
S113211AB802EC2F210000A800040100B800A802AC
S113212A61D8A1B802A802440000A80061F8443F9B
S113213A0161E3EC202100C9F09EFFADF0BDF2FA83
S113214AF28B9DF0311A9DF05AF0014AF00161E8D0
S113215AEC632100300400B804A804BDF01006D7CB
S113216A2006F6B804C9F29EFFC9F09EFFADF0BD81
S113217AF4FAF48B9DF06AF001ADF2BDF4DAF48D51
S113218AF0480000F6B800F6B802ECA7210000A84F
S113219A00040100B800A80261D8A1B802A8024448
S11321AA0000A80061F8443F0161E3EC982100C9EA
S11321BAF09EFFADF0BDF2FAF28B9DF0311A9DF05C
S11321CA5AF00161E8ECDC2100300300B804ECCDDC
S11321DA2200C9F092FF880A9DF2ADF0BDF4DAF448
S11321EA8DF2480000C9F093FF880B9DF2ADF0BD53
S11321FAF4DAF48DF2480000C9F094FF880C9DF2D9
S113220AADF0BDF4DAF48DF2480000C9F095FF8808
S113221A0E9DF2ADF0BDF4DAF48DF2480000C9F077
S113222A96FF880D9DF2ADF0BDF4DAF48DF2480004
S113223A00C9F097FF880F9DF2ADF0BDF4DAF48D72
S113224AF2480000C9F098FF88109DF2ADF0BDF481
S113225ADAF48DF2480000C9F29EFFC9F09EFFAD80
S113226AF0BDF4FAF48B9DF05AF0FEADF2BDF4DA47
S113227AF48DF0480000F6B800F6B802EC99220092
S113228A00A800040100B800A80261D8A1B802A8F5
S113229A02440000A80061F8443F0161E3EC8A2289
S11322AA00C9F09EFFADF0BDF2FAF28B9DF0311A2F
S11322BA9DF05AF0014AF00161E8ECCD22003004A5
S11322CA00B804A804BDF01006D7C9F0F000ADF0B8
S11322DABDF4FAF48B9DF26AF204ADF0DAF48DF2ED
S11322EA48000000000000C9F02601ADF0BDF2DA92
S11322FAF2301000780000FC0A2300FC3E2800D7C4
S113230A61EFC161CFC9E82401C9F62401ADF6BD64
S113231AF0FAF0ABBDF68DF66C0C9DF48DF76C00FB
S113232A9DF5DAE8ADF4780000C9F4E6FFADF4BD32
S113233AF2FAF28B9DF66AF601ADF4BDF0DAF08D8D
S113234AF6480000C9F4E2FFADF4BDF2FAF28B9D3F
S113235AF65AF6FEADF4BDF0DAF08DF6480000C97F
S113236AF4E6FFADF4BDF2FAF28B9DF66AF602AD1D
S113237AF4BDF0DAF08DF6480000C9F4E2FFADF4DA
S113238ABDF2FAF28B9DF65AF6FDADF4BDF0DAF021
S113239A8DF6480000C9F4E6FFADF4BDF2FAF28BFB
S11323AA9DF66AF604ADF4BDF0DAF08DF648000045
S11323BAC9F4E2FFADF4BDF2FAF28B9DF65AF6FBCC
S11323CAADF4BDF0DAF08DF6480000C9F4EEFFADC5
S11323DAF4BDF2FAF28B9DF66AF601ADF4BDF0DAB9
S11323EAF08DF6480000C9F4EAFFADF4BDF2FAF242
S11323FA8B9DF66AF601ADF4BDF0DAF08DF648006D
S113240A00C9F4EEFFADF4BDF2FAF28B9DF66AF65A
S113241A02ADF4BDF0DAF08DF6480000C9F4EAFF23
S113242AADF4BDF2FAF28B9DF66AF602ADF4BDF094
S113243ADAF08DF6480000C9F41401ADF4BDF2DAFD
S113244AF2302280780000C9F41C01ADF4BDF0DA40
S113245AF0309780780000C9F444FFADF4BDF2DA95
S113246AF23000CE780000C9F67000C9F47000ADED
S113247AF4BDF0FAF08B9DF46AF404ADF6BDF2DA19
S113248AF28DF4480000C9F40E01ADF4BDF0DAF09F
S113249A300700780000C9F41601ADF4BDF2DAF28F
S11324AA302281780000C9F41E01ADF4BDF0DAF0DF
S11324BA309740780000C9F446FFADF4BDF2DAF271
S11324CA3000CE780000C9F62801C9F42801ADF419
S11324DABDF0FAF0ABBDF48DF46C049DF28DF56C8D
S11324EA009DF3ADF6BDF4DAF4ADF2780000C9F458
S11324FA3401C9F23401ADF2BDF0FAF0ABBDF2AD6C
S113250AF4BDF0DAF0ADF2780000C9F42A01C9F298
S113251A2A01ADF2BDF0FAF0ABBDF28DF26C049D66
S113252AF08DF36C009DF1ADF4BDF2DAF2ADF07802
S113253A0000C9F26000C9F06000ADF0BDF4FAF41D
S113254A8B9DF05AF0F7ADF2BDF4DAF48DF0480041
S113255A00C9F220FFC9F020FFADF0BDF4FAF48BF4
S113256A9DF06AF008ADF2BDF4DAF48DF04800008B
S113257AC9F26000C9F06000ADF0BDF4FAF48B9DB5
S113258AF05AF0FBADF2BDF4DAF48DF0480000C95C
S113259AF200FFC9F000FFADF0BDF4FAF48B9DF030
S11325AA6AF004ADF2BDF4DAF48DF0480000C9F221
S11325BA20FFC9F020FFADF0BDF4FAF48B9DF05A68
S11325CAF0FBADF2BDF4DAF48DF048000061EFC01F
S11325DA61CFD761EFC161CFC9E82801C9F62801E3
S11325EAADF6BDF0FAF0ABBDF68DF66C049DF48D34
S11325FAF76C009DF5DAE8ADF4780000C9F62A0113
S113260AC9F42A01ADF4BDF2FAF2ABBDF48DF46C4F
S113261A049DF28DF56C009DF3ADF6BDF4DAF4ADCC
S113262AF2780000C9F42201C9F22201ADF2BDF028
S113263AFAF0ABBDF28DF26C0C9DF08DF36C009D3B
S113264AF1ADF4BDF2DAF2ADF0780000C9F0E2FFC0
S113265AADF0BDF4FAF48B9DF25AF2FEADF0DAF461
S113266A8DF2480000C9F0E2FFADF0BDF4FAF48B34
S113267A9DF25AF2FDADF0DAF48DF2480000C9F089
S113268AE6FFADF0BDF4FAF48B9DF25AF2FEADF01A
S113269ADAF48DF2480000C9F0E6FFADF0BDF4FAB1
S11326AAF48B9DF25AF2FDADF0DAF48DF248000093
S11326BA61EFC061CFD7C9F4E6FFADF4BDF0FAF01B
S11326CA8B9DF66AF601ADF4BDF2DAF28DF6480096
S11326DA00C9F4E6FFADF4BDF0FAF08B9DF66AF694
S11326EA02ADF4BDF2DAF28DF6480000C9F624010F
S11326FAC9F42401ADF4BDF0FAF0ABBDF48DF46C69
S113270A0C9DF28DF56C009DF3ADF6BDF4DAF4ADD3
S113271AF2780000C9F42A01C9F22A01ADF2BDF027
S113272AFAF0ABBDF28DF25CFB9DF08DF35CFF9D7C
S113273AF1ADF4BDF2DAF2ADF0780000C9F0E2FFCF
S113274AADF0BDF4FAF48B9DF25AF2FEADF0DAF470
S113275A8DF2480000C9F0E2FFADF0BDF4FAF48B43
S113276A9DF25AF2FDADF0DAF48DF2480000D7205A
S113277A02F6B800A80844000061E8EC9227003089
S113278A8100B800ECA42700F6BF2CF0A808BDF01D
S113279ABF2AF0A806BDF0BF30F0A800BDF01002B1
S11327AAD72002F6B800A80844000061E8ECC42760
S11327BA00308100B800EC372800A806BDF0BF3607
S11327CAF0A808BDF0BF3CF0C9F0E6FFADF0BDF4D7
S11327DAFAF48B9DF26AF201ADF0DAF48DF2480054
S11327EA00C9F244FFAF36F0BDF0BDF4FAF48B9D94
S11327FAF0ADF2BDF4DAF48DF0480000AF36F0BD66
S113280AF0A6F0ADF0BF36F0AF3CF0BDF0B6F0ADD7
S113281AF0BF3CF0C9F0E6FFADF0BDF4FAF48B9DCD
S113282AF25AF2FEADF0DAF48DF2480000A800BDC7
S113283AF01002D761EFC1C361CFC9EA2401C9E824
S113284A2401FAE8ABBDE88DE86C019DF68DE96CCC
S113285A009DF7DAEAADF6780000C9F6E5FFADF6B1
S113286ABDF0FAF08B9DE86AE820ADF6BDF2DAF223
S113287A8DE8480000C9F6E1FFADF6BDF4FAF48B21
S113288A9DE85AE8DFADF6BDF0DAF08DE8480000BD
S113289AC9F6EDFFADF6BDF2FAF28B9DE86AE820BF
S11328AAADF6BDF4DAF48DE8480000C9F6E9FFADE7
S11328BAF6BDF0FAF08B9DE86AE820ADF6BDF2DACF
S11328CAF28DE8480000C9F60801ADF6BDF4DAF461
S11328DA300300780000C9F61001ADF6BDF0DAF055
S11328EA302100780000C9F61801ADF6BDF2DAF21B
S11328FA3007F0780000C9F610FFADF6BDF4DAF43B
S113290A30003E780000C9E82801C9F62801ADF66E
S113291ABDF0FAF0ABBDF68DF65CFF9DF48DF75C65
S113292AFE9DF5DAE8ADF4780000C9F62801C9F489
S113293A2801ADF4BDF2FAF2ABBDF48DF45CFE9D50
S113294AF28DF55CFF9DF3ADF6BDF4DAF4ADF278E1
S113295A0000C9F42A01C9F22A01ADF2BDF0FAF065
S113296AABBDF28DF26C019DF08DF36C009DF1AD5F
S113297AF4BDF2DAF2ADF0780000C9F221FFC9F031
S113298A21FFADF0BDF4FAF48B9DF06AF002ADF2CA
S113299ABDF4DAF48DF0480000C9F201FFC9F00170
S11329AAFFADF0BDF4FAF48B9DF06AF004ADF2BD0C
S11329BAF4DAF48DF0480000C9F221FFC9F021FFCE
S11329CAADF0BDF4FAF48B9DF05AF0FBADF2BDF410
S11329DADAF48DF0480000C9F201FFC9F001FFAD35
S11329EAF0BDF4FAF48B9DF06AF001ADF2BDF4DAAD
S11329FAF48DF0480000C9F221FFC9F021FFADF0BF
S1132A0ABDF4FAF48B9DF05AF0FEADF2BDF4DAF49B
S1132A1A8DF048000061EFC2C061CFD761EFC1C336
S1132A2A61CFC9EA2801C9E82801FAE8ABBDE88DF3
S1132A3AE85CFF9DF68DE95CFE9DF7DAEAADF6786F
S1132A4A0000C9E82801C9F62801ADF6BDF0FAF07C
S1132A5AABBDF68DF65CFE9DF48DF75CFF9DF5DA51
S1132A6AE8ADF4780000C9F62A01C9F42A01ADF4E4
S1132A7ABDF2FAF2ABBDF48DF46C019DF28DF56CE6
S1132A8A009DF3ADF6BDF4DAF4ADF2780000C9F4B2
S1132A9A2201C9F22201ADF2BDF0FAF0ABBDF28D0A
S1132AAAF26C019DF08DF36C009DF1ADF4BDF2DA88
S1132ABAF2ADF0780000C9F0E1FFADF0BDF4FAF42C
S1132ACA8B9DF25AF2DFADF0DAF48DF2480000C9B8
S1132ADAF0E5FFADF0BDF4FAF48B9DF25AF2DFADE6
S1132AEAF0DAF48DF248000061EFC2C061CFD7C9B1
S1132AFAF4E5FFADF4BDF0FAF08B9DF66AF620AD6D
S1132B0AF4BDF2DAF28DF6480000C9F62401C9F4DC
S1132B1A2401ADF4BDF0FAF0ABBDF48DF46C019D63
S1132B2AF28DF56C009DF3ADF6BDF4DAF4ADF278EE
S1132B3A0000C9F42A01C9F22A01ADF2BDF0FAF083
S1132B4AABBDF28DF25CFE9DF08DF35CFF9DF1ADA1
S1132B5AF4BDF2DAF2ADF0780000C9F0E1FFADF0AD
S1132B6ABDF4FAF48B9DF25AF2DFADF0DAF48DF289
S1132B7A480000D72002F6B800A80844000061E81B
S1132B8AEC972B00308100B800EC612C00A808BD3A
S1132B9AF2BF3AF0A808BDF2BF2EF0A806BDF2BFF4
S1132BAA3EF0A80ABDF2BF38F0C9F41001C9F21008
S1132BBA01ADF2BDF0FAF0ABBDF28DF26C019DF0FD
S1132BCA8DF36C009DF1ADF4BDF2DAF2ADF078004C
S1132BDA00C9F0E5FFADF0BDF4FAF48B9DF26AF298
S1132BEA20ADF0DAF48DF2480000AF3EF0BDF044B7
S1132BFA000061F8EC2D2C00C9F210FFAF3EF0BDC5
S1132C0AF0BDF4FAF48B9DF0ADF2BDF4DAF48DF074
S1132C1A480000AF3EF0BDF0A6F0ADF0BF3EF0ECC8
S1132C2A3C2C00C9F010FFADF0BDF2DAF251FF48B6
S1132C3A0000AF2EF0BDF0B6F0ADF0BF2EF0C9F033
S1132C4AE5FFADF0BDF4FAF48B9DF25AF2DFADF074
S1132C5ADAF48DF2480000A800BDF01002D761CF63
S1132C6AC1C3C5C761DFC1C3C5C761CF2004C9F0E9
S1132C7A0601ADF0BDF2FAF2ABBDF08DF05C079837
S1132C8A03C9F20E018803705100BDF0ADF2BDF420
S1132C9ADAF4ADF07800008803D161F8ECB42C00C2
S1132CAA88039DF09800FCAA2D00C9F046FFADF0F8
S1132CBABDF2FAF28B9DF09802AF2AF0BDF2AF2C66
S1132CCAF0BDF0ADF246F061E3EC1F2D00AF30F039
S1132CDABDF088029DF2ADF0BDF4DAF48DF248003D
S1132CEA00AF30F0BDF0A6F0ADF0BF30F0AF2CF07D
S1132CFABDF0A6F0ADF0BF2CF0AF2AF0BDF2AF2CB8
S1132D0AF0BDF0ADF246F061E8EC2C2D00FCA12DEB
S1132D1A00EC2C2D008802705100BDF0B800FCA50F
S1132D2A2D00100461DFC6C4C2C061CFC6C4C2C0CC
S1132D3A61FC61CFC1C3C5C761DFC1C3C5C761CF68
S1132D4AAF3CF0BDF044000061F8EC8F2D00C9F2ED
S1132D5A44FFAF36F0BDF0BDF4FAF48B9DF0ADF24A
S1132D6ABDF4DAF48DF0480000AF36F0BDF0A6F0F9
S1132D7AADF0BF36F0AF3CF0BDF0B6F0ADF0BF3CFD
S1132D8AF0EC932D00FCA62D0061DFC6C4C2C0611D
S1132D9ACFC6C4C2C061FCE541F0D7D7E577F0D706
S1132DAAD761CFC1C3C5C761DFC1C3C5C761EFC19D
S1132DBAC361CF2004C9F00001ADF0BDF4FAF4AB4D
S1132DCABDF08DF05C019803C9F4080188037051C1
S1132DDA00BDF0ADF4BDF6DAF6ADF0780000880374
S1132DEA4C0161E8EC002E0088039DF09800FC80F9
S1132DFA2F00EC682F00AF2EF0BDF044000061F8FC
S1132E0AEC852E00AF3AF0BDF0B1BDF2AF2EF0BDA5
S1132E1AF0ADF246F061F8EC4E2E00AF38F0BDF09A
S1132E2AC9F210FFADF2BDF4FAF48B9DF2ADF0BD18
S1132E3AF6DAF68DF2480000AF38F0BDF0A6F0AD30
S1132E4AF0BF38F0C9F210FFAF3EF0BDF0BDF4FA9E
S1132E5AF48B9DF0ADF2BDF6DAF68DF0480000AFC2
S1132E6A3EF0BDF0A6F0ADF0BF3EF0AF2EF0BDF0DF
S1132E7AB6F0ADF0BF2EF0EC682F00C9F01001AD2A
S1132E8AF0BDF2FAF2ABBDF08DF05C019DF28DF16A
S1132E9A5C009DF3ADF244000061F8EC472F00FC9E
S1132EAA812F00AF38F0BDF0C9F210FFADF2BDF4C6
S1132EBAFAF48B9DF2ADF0BDF6DAF68DF248000015
S1132ECAAF38F0BDF0A6F0ADF0BF38F0C9F210018A
S1132EDAC9F01001ADF0BDF4FAF4ABBDF08DF05CAD
S1132EEAFE9DE88DF15CFF9DE9ADF2BDF6DAF6AD23
S1132EFAE8780000C9F00001ADF0BDF2FAF2ABBD0A
S1132F0AF08DF05C409DEA8DF15C009DEBADEA44E6
S1132F1A000061E8EC682F00AF38F0BDF0C9F21088
S1132F2AFFADF2BDF4FAF48B9DF2ADF0BDF6DAF61C
S1132F3A8DF2480000FC7C2F00EC682F00AF38F0BB
S1132F4ABDF0C9F210FFADF2BDF4FAF48B9DF2ADF7
S1132F5AF0BDF6DAF68DF2480000FC7C2F0010046E
S1132F6A61EFC2C061DFC6C4C2C061CFC6C4C2C0F9
S1132F7A61FCF500EFD7D7F501EFD761EFC1C3C5FF
S1132F8A61CF2034C9F0F000ADF0BDF2FAF28B98AB
S1132F9A316C019830ADF0BDF4DAF48830480000A1
S1132FAAC9F0B601ADF0BDF2DAF2300400780000DF
S1132FBAC9F0B401ADF0BDF4DAF430FF0A780000C8
S1132FCAC9F0E6FFADF0BDF2FAF28B982F6C1098B7
S1132FDA2EADF0BDF4DAF4882E480000C9F0E2FF01
S1132FEAADF0BDF2FAF28B982D5CEF982CADF0BDE2
S1132FFAF4DAF4882C480000C9F0E6FFADF0BDF21B
S113300AFAF28B982B6C20982AADF0BDF4DAF48886
S113301A2A480000C9F0E2FFADF0BDF2FAF28B983B
S113302A295CDF9828ADF0BDF4DAF488284800005A
S113303AC9F0E5FFADF0BDF2FAF28B98276C8098DF
S113304A26ADF0BDF4DAF48826480000C9F0E1FFA1
S113305AADF0BDF2FAF28B98255C7F9824ADF0BDF1
S113306AF4DAF48824480000C9F0E6FFADF0BDF2B2
S113307AFAF28B98236C409822ADF0BDF4DAF48806
S113308A22480000C9F0E2FFADF0BDF2FAF28B98D3
S113309A215CBF9820ADF0BDF4DAF4882048000022
S11330AAC9F0E6FFADF0BDF2FAF28B981F6C809876
S11330BA1EADF0BDF4DAF4881E480000C9F0E2FF40
S11330CAADF0BDF2FAF28B981D5C7F981CADF0BD91
S11330DAF4DAF4881C480000C9F0E6FFADF0BDF24A
S11330EAFAF28B981B6C04981AADF0BDF4DAF488E2
S11330FA1A480000C9F0E2FFADF0BDF2FAF28B986B
S113310A195CFB9818ADF0BDF4DAF488184800008D
S113311AC9F0E7FFADF0BDF2FAF28B98176C80980C
S113312A16ADF0BDF4DAF48816480000C9F0E3FFDE
S113313AADF0BDF2FAF28B98155C7F9814ADF0BD30
S113314AF4DAF48814480000C9F0D4FFADF0BDF2F3
S113315AFAF28B98136C019812ADF0BDF4DAF48884
S113316A12480000C9F0D0FFADF0BDF2FAF28B9814
S113317A115CFE9810ADF0BDF4DAF4881048000032
S113318AC9F0D4FFADF0BDF2FAF28B980F6C029835
S113319A0EADF0BDF4DAF4880E480000C9F0D0FF91
S11331AAADF0BDF2FAF28B980D5CFD980CADF0BD52
S11331BAF4DAF4880C480000C9F0D4FFADF0BDF28B
S11331CAFAF28B980B6C04980AADF0BDF4DAF48821
S11331DA0A480000C9F0D0FFADF0BDF2FAF28B98AC
S11331EA095CFB9808ADF0BDF4DAF48808480000DD
S11331FAC9F0EEFFADF0BDF2FAF28B98075CEF98D6
S113320A06ADF0BDF4DAF48806480000C9F0EAFF16
S113321AADF0BDF2FAF28B98055CEF9804ADF0BDFF
S113322AF4DAF48804480000C9F0EEFFADF0BDF208
S113323AFAF28B98036C209802ADF0BDF4DAF488A4
S113324A02480000C9F0EAFFADF0BDF2FAF28B9829
S113325A016C209800ADF0BDF4DAF488004800004F
S113326AC9F09001ADF0BDF2DAF2F6780000C9F0C7
S113327A18FFADF0BDF4DAF430FFF978000030B885
S113328A01B832C9F0B801ADF0BDF2FAF2ABBDF043
S113329A8DF05CFE9DEC8DF15CFF9DEDA832BDF4D2
S11332AADAF4ADEC780000C9ECBA01C9F0BA01ADA0
S11332BAF0BDF2FAF2ABBDF08DF05CFE9DEA8DF141
S11332CA5CFF9DEBDAECADEA780000C9F09201AD3F
S11332DAF0BDF4DAF4300690780000C9F01AFFADB4
S11332EAF0BDF2DAF230FF0F780000C9EABE01C974
S11332FAF0BE01ADF0BDF4FAF4ABBDF08DF05CFDA7
S113330A9DE88DF15CFF9DE9DAEAADE8780000C931
S113331AE8BC01C9F0BC01ADF0BDF2FAF2ABBDF0F4
S113332A8DF05CFD9DF68DF15CFF9DF7DAE8ADF654
S113333A780000C9F6B801C9F0B801ADF0BDF4FAD5
S113334AF4ABBDF08DF05CFD9DF48DF15CFF9DF551
S113335AADF6BDF0DAF0ADF4780000C9F4BA01C9EB
S113336AF0BA01ADF0BDF2FAF2ABBDF08DF05CFD3E
S113337A9DF28DF15CFF9DF3ADF4BDF0DAF0ADF290
S113338A780000C9F27100C9F07100ADF0BDF4FA19
S113339AF48B9DF05AF0FDADF2BDF4DAF48DF048E9
S11333AA0000C9F221FFC9F021FFADF0BDF4FAF41F
S11333BA8B9DF06AF040ADF2BDF4DAF48DF048006A
S11333CA00103461EFC4C2C061CFD7C9F2E2FFADC5
S11333DAF2BDF0FAF08B9DF45AF4EFADF2DAF08D07
S11333EAF4480000C9F2E6FFADF2BDF0FAF08B9D95
S11333FAF45AF4EFADF2DAF08DF4480000C9F4B2ED
S113340A01C9F2B201ADF2BDF0FAF0ABBDF28DF230
S113341A6C019DF08DF36C009DF1ADF4BDF2DAF20E
S113342AADF0780000D7C9F4B401C9F2B401ADF221
S113343ABDF0FAF0ABBDF28DF26C019DF08DF36C28
S113344A009DF1ADF4BDF2DAF2ADF0780000C9F0F6
S113345AE6FFADF0BDF4FAF48B9DF26AF210ADF01A
S113346ADAF48DF2480000C9F0E2FFADF0BDF4FAD7
S113347AF48B9DF25AF2EFADF0DAF48DF2480000C3
S113348AD7C9F2E2FFADF2BDF0FAF08B9DF45AF41B
S113349ADFADF2DAF08DF4480000C9F2E6FFADF2CE
S11334AABDF0FAF08B9DF45AF4DFADF2DAF08DF444
S11334BA480000C9F4B201C9F2B201ADF2BDF0FA92
S11334CAF0ABBDF28DF26C029DF08DF36C009DF1B0
S11334DAADF4BDF2DAF2ADF0780000D7C9F4B40164
S11334EAC9F2B401ADF2BDF0FAF0ABBDF28DF26CE3
S11334FA029DF08DF36C009DF1ADF4BDF2DAF2ADEC
S113350AF0780000C9F0E6FFADF0BDF4FAF48B9D43
S113351AF26AF220ADF0DAF48DF2480000C9F0E262
S113352AFFADF0BDF4FAF48B9DF25AF2DFADF0DA96
S113353AF48DF2480000D761CFC1C3C5C7E6BFF610
S113354AEFC6C4C2C061FC61CFC1C3C5C7C6C4C289
S113355AC061FC61CFC1C3C5C7C6C4C2C061FCC9CE
S113356AF07700ADF0BDF2DAF2F1480000FC1C1C61
S113357A00FC5E1B00FCFA1D00FCD42200FC50195E
S113358A00FC852F00FC9B1E00FC301C00C9F0784F
S113359A00ADF0BDF2DAF2F1480000D72002717BE7
S11335AAFAFC693500E6B800BDF01002D7200EFC1B
S11335BA683700FC0A2300FCDD2500FC301C00FCF3
S11335CACC1C00FC9B1E00FCA71F00FC852F00FCE2
S11335DA8B3400FC3E2800FC262A00C9F001FFAD0A
S11335EAF0BDF4FAF48B9DF26AF220ADF0DAF48DB0
S11335FAF2480000FC09180051509F88EF516F9F50
S113360A89EF51749F8AEF51619F8BEF51749F8C9C
S113361AEF516F9F8DEF51209F8EEF514F9F8FEF88
S113362A51539F90EF51209F91EF51339F92EF5145
S113363A2E9F93EF51309F94EF510D9F95EF510AAE
S113364A9F96EFF597EFE6B800FC614200305765A4
S113365AB804306C63B806306F6DB80830650DB8BD
S113366A0A300A00B80CC9F00E00AEF8BDF0040E18
S113367A00BDF004F6FFB800300900B802FCAB271D
S113368A003042F0B800E6B802FC792700ADF0BF7A
S113369A78F0FC031B0000C9F030FFADF0BDF2FA6C
S11336AAF28B9DF0317A9DF0D4F061E8ECA13600FA
S11336BA3005FFB800300500B802FC651400D4F0E8
S11336CA61F8ECD93600300500B800FCDA000030A5
S11336DA05FFB800300400B802FC651400D4F06198
S11336EAF8ECF83600300300B800FCDA00003005C4
S11336FAFFB800300300B802FC651400D4F061F886
S113370AEC173700300400B800FCDA00003005FF7B
S113371AB800300200B802FC651400D4F061F8EC79
S113372A343700E6B800FCDA0000FCD348008F41C5
S113373AF09DF0D4F061F8EC643700F541F08F4263
S113374AF09DF09800FCCC37003042F0B800E6B89F
S113375A02FC792700ADF0BF78F0EC9C3600717A50
S113376AFAD76E37CBF8DCFE410061CF34D8003685
S113377A00EF61DF3600EF3002EF27311E4400000C
S113378ADD0EB161CF11A9BBA5A5A7A761DFEFED36
S113379A61CF3602EF30000061DF30AEF027311E10
S11337AA440000DD0AB161CFBBA7A761DFEFF16175
S11337BACFFCA6350000300000C1C1C1FCB73500FA
S11337CAEFFE200488084C2461E8ECF63700AF4287
S11337DAEFBDF088089DF2DAF048C1EFAF42EFBDC1
S11337EAF0A6F0ADF0BF42EFECAF380088084C0AFF
S11337FA61E8EC593800AF42EFBDF0B6F0ADF00421
S113380AC1EF168B9DF04AF00D61E8EC463800AF23
S113381A40EFBDF044000061E8EC463800AF42EFE7
S113382ABDF088089DF2DAF048C1EFAF42EFBDF06F
S113383AA6F0DAF0F148C1EFFCB63800F4F08DF0E6
S113384A9FC1EFF6BF42EFF6BF40EFECAF3800AFCF
S113385A40EFBDF044000061E8ECAF3800AF42EF3E
S113386ABDF044000061E8EC95380088084C2461F6
S113387AF8EC953800305CCDB800300700B802FC8B
S113388AAB2700E6BF40EFECAF3800AF42EFBDF024
S113389A88089DF2DAF048C1EFAF42EFBDF0A6F016
S11338AAADF0BF42EF88089DF01004D761EFC1C3A1
S11338BA61CF203CFCF94100ADF044000061F8EC12
S11338CAD641008FC2EF9DF0CDF100ADF044440023
S11338DA61F8ECF03A00ADF044440071FF61F3EC96
S11338EA463900ADF044320061F8EC6E3A00ADF0AE
S11338FA44320071FF61F3EC1F3900ADF04430002B
S113390A61F8ECAC3900ADF044310061F8EC0D3AE1
S113391A00ECB64100ADF044420061F8ECE13E002F
S113392AADF044420071FF61F3ECE93E00ADF044AE
S113393A330061F8ECA23A00ECB64100ADF0444B16
S113394A0061F8EC883F00ADF0444B0071FF61F36D
S113395AEC853900ADF044490061F8EC5F3F00ADF5
S113396AF044490071FF61F3EC7F4000ADF0444537
S113397A0061F8EC643E00ECB64100ADF0444D0041
S113398A61F8EC194100ADF0444D0071FF61D8ECC7
S113399A8C3B00ADF0444E0061F8EC7C4100ECB67F
S11339AA4100AF78EFBDF044010061E8ECC639008C
S11339BA5130982FF6BF78EFECCA39005133982F5B
S11339CA510D9830510A983151249F46EF51309F36
S11339DA47EFF548EF3046EFB800C9F03C00AEF8BF
S11339EABDF0043C00BDF004F3FFB802FC595100D9
S11339FA300700B800FCDA0000300500BF42EFECE3
S1133A0AD64100AF78EFBDF044000061E8EC273AF4
S1133A1A005130982FE6BF78EFEC2B3A00513398D7
S1133A2A2F510D9830510A983151249F46EF513144
S1133A3A9F47EFF548EF3046EFB800C9F23C00AEB5
S1133A4AF8BDF2043C00BDF204F3FFB802FC59517C
S1133A5A00300600B800FCDA0000300500BF42EF6F
S1133A6AECD6410030F8EFB80030C3EFB802FCA737
S1133A7A510051249F46EF51329F47EF51309F48DE
S1133A8AEF510D9F49EF510A9F4AEFF54BEF30056D
S1133A9A00BF42EFECD6410051249F46EF51339FB9
S1133AAA47EF51309F48EF51319F49EF51399F4AAF
S1133ABAEF51319F4BEF51319F4CEF51399F4DEFED
S1133ACA51309F4EEF51339F4FEF51389F50EF5172
S1133ADA0D9F51EF510A9F52EFF553EF300D00BF7E
S1133AEA42EFECD6410030F8EFB800FCCE5100ADFD
S1133AFAF044200061F3EC3F3B0051249F46EF5110
S1133B0A449F47EF51309F48EF510D9F49EF510AA7
S1133B1A9F4AEFF54BEF300500BF42EF3088EFB80C
S1133B2A0030F8EFB802FCA75100E6B800FC614285
S1133B3A00ECD64100F19800E19802FCD21600305C
S1133B4A6806B800FC1E1900F1980051809802FC1E
S1133B5AD21600306806B800FC1E190051249F468C
S1133B6AEF51449F47EF51339F48EF510D9F49EF5F
S1133B7A510A9F4AEFF54BEF300500BF42EFECD6EE
S1133B8A41008FC3EF9DF04AF03061E8EC143C0029
S1133B9AC9F004FFADF0BDF4FAF48B9DF25AF2FDBC
S1133BAAADF0BDF6DAF68DF2480000C9F004FFADB7
S1133BBAF0BDF4FAF48B9DF25AF2FBADF0BDF6DADD
S1133BCAF68DF2480000C9F004FFADF0BDF4FAF432
S1133BDA8B9DF25AF2F7ADF0BDF6DAF68DF2480093
S1133BEA00F57EEF51249F46EF514C9F47EF513029
S1133BFA9F48EF510D9F49EF510A9F4AEFF54BEF4A
S1133C0A300500BF42EFEC603E008FC3EF9DF04ADF
S1133C1AF03161E8EC9C3C00C9F004FFADF0BDF45E
S1133C2AFAF48B9DF25AF2FDADF0BDF6DAF68DF296
S1133C3A480000C9F004FFADF0BDF4FAF48B9DF21C
S1133C4A5AF2FBADF0BDF6DAF68DF2480000C9F07F
S1133C5A04FFADF0BDF4FAF48B9DF26AF208ADF0FC
S1133C6ABDF6DAF68DF2480000E57EEF51249F4650
S1133C7AEF514C9F47EF51309F48EF510D9F49EF49
S1133C8A510A9F4AEFF54BEF300500BF42EFEC6053
S1133C9A3E008FC3EF9DF04AF03261E8EC263D0006
S1133CAAC9F004FFADF0BDF4FAF48B9DF26AF20296
S1133CBAADF0BDF6DAF68DF2480000C9F004FFADA6
S1133CCAF0BDF4FAF48B9DF25AF2FBADF0BDF6DACC
S1133CDAF68DF2480000C9F004FFADF0BDF4FAF421
S1133CEA8B9DF25AF2F7ADF0BDF6DAF68DF2480082
S1133CFA0051029F7EEF51249F46EF514C9F47EF9C
S1133D0A51309F48EF510D9F49EF510A9F4AEFF5F1
S1133D1A4BEF300500BF42EFEC603E008FC3EF9DCE
S1133D2AF04AF03361E8ECB03D00C9F004FFADF0AD
S1133D3ABDF4FAF48B9DF25AF2FDADF0BDF6DAF653
S1133D4A8DF2480000C9F004FFADF0BDF4FAF48B1B
S1133D5A9DF26AF204ADF0BDF6DAF68DF24800007F
S1133D6AC9F004FFADF0BDF4FAF48B9DF25AF2F7F0
S1133D7AADF0BDF6DAF68DF248000051039F7EEFEE
S1133D8A51249F46EF514C9F47EF51309F48EF51C2
S1133D9A0D9F49EF510A9F4AEFF54BEF300500BFDB
S1133DAA42EFEC603E008FC3EF9DF04AF03461E8C5
S1133DBAEC3A3E00C9F004FFADF0BDF4FAF48B9D71
S1133DCAF26AF202ADF0BDF6DAF68DF2480000C9E5
S1133DDAF004FFADF0BDF4FAF48B9DF26AF204AD7F
S1133DEAF0BDF6DAF68DF2480000C9F004FFADF032
S1133DFABDF4FAF48B9DF25AF2F7ADF0BDF6DAF699
S1133E0A8DF248000051049F7EEF51249F46EF51E2
S1133E1A4C9F47EF51309F48EF510D9F49EF510A8C
S1133E2A9F4AEFF54BEF300500BF42EFEC603E00CE
S1133E3A51249F46EF514C9F47EF51329F48EF510F
S1133E4A0D9F49EF510A9F4AEFF54BEF300500BF2A
S1133E5A42EFECD64100ECD641008FC0EF9DF070E2
S1133E6A5100BDF48FF3EF9DF0705100BDF28FBE87
S1133E7AEF9DF0CDF100C9F63C00AEF8BDF6043C66
S1133E8A00BDF604D5FFB8003064CDB802ADF4B86D
S1133E9A04ADF2B806ADF0B808FC2C51003046EF78
S1133EAAB800C9F03C00AEF8BDF0043C00BDF00413
S1133EBAD5FFB802FCA75100C9F23C00AEF8BDF226
S1133ECA043C00BDF204D5FFB800FCCE5100ADF0AD
S1133EDABF42EFECD64100FC9D4400ECD64100FC05
S1133EEAD646008F82EF9DF0705100BDEA8F83EFB2
S1133EFA9DF0705100BDE88F84EF9DF0705100BDB4
S1133F0AF68F85EF9DF0705100BDF48F86EF9DF01A
S1133F1A705100BDF28F87EF9DF0CDF1003046EF6E
S1133F2AB8003077CDB802ADEAB804ADE8B806AD4A
S1133F3AF6B808ADF4B80AADF2B80CADF0B80EFC98
S1133F4A2C51003046EFB800FCCE5100ADF0BF4210
S1133F5AEFECD64100AF44EFBDF03046EFB8003085
S1133F6A90CDB802ADF0B804FC2C51003046EFB83D
S1133F7A00FCCE5100ADF0BF42EFECD641008FC336
S1133F8AEF9DF0CDF100ADF004D0FFBDF4BDF231E8
S1133F9A2DBDF0BDF2315DBDF026F2BDF006F4BDD3
S1133FAAF0313DBDF0BDF68FC4EF9DF0CDF100AD0B
S1133FBAF004D0FFBDF2BDF001BDF006F2BDF03150
S1133FCA5DBDF4ADF006F4BDF006F2BDF0ADF60643
S1133FDAF0BDF28FC5EF9DF0CDF100ADF004D0FF36
S1133FEABDF001BDF0312DBDF4ADF006F4BDF0AD68
S1133FFAF206F0BDF28FC6EF9DF0CDF100ADF004EC
S113400AD0FFBDF0ADF206F0BDF0B8368FC8EF9D13
S113401AF00CD098358FC7EF9DF0CDF100ADF004C8
S113402AD0FFBDF08DF061019DF031299DF1768DAF
S113403AF0610E9DF0768835610E98354C2061E367
S113404AEC6B40008835705100BDF03046EFB80083
S113405A309ACDB802ADF0B804FC2C5100ECD6412C
S113406A00A836BDF0B80088359DF09802FC7C4E55
S113407A00ECD641008FC3EF9DF0CDF100ADF00402
S113408AD0FFBDF4BDF2312DBDF0BDF2315DBDF0FE
S113409A26F2BDF006F4BDF0313DBDF0BDF68FC485
S11340AAEF9DF0CDF100ADF004D0FFBDF2BDF001FB
S11340BABDF006F2BDF0315DBDF4ADF006F4BDF01D
S11340CA06F2BDF0ADF606F0BDF28FC5EF9DF0CD58
S11340DAF100ADF004D0FFBDF001BDF0312DBDF407
S11340EAADF006F4BDF0ADF206F0BDF28FC6EF9D59
S11340FAF0CDF100ADF004D0FFBDF0ADF206F0BD95
S113410AF0B832BDF0B800FC904A00ECD641003059
S113411A0200B83AF6B838EC574100A838BDF001A5
S113412ABDF0312DBDF2ADF006F2B838A83A04C19B
S113413AEFBDF0BDF4FAF48B9DF0CDF100A838067A
S113414AF0BDF004D0FFB838A83AA1B83AA83A04A6
S113415AC1EFBDF0BDF6FAF68B9DF04AF00D61E8A9
S113416AEC254100A838BDF0B800FC564F00ECD647
S113417A410051249F46EF514E9F47EF51309F48CB
S113418AEF51329F49EF51349F4AEF51329F4BEF1F
S113419A51379F4CEF510D9F4DEF510A9F4EEFF54A
S11341AA4FEF300900BF42EFECD641008FC2EF9DBA
S11341BAF0CDF1003046EFB800309FCDB802ADF033
S11341CAB804FC2C5100300500BF42EF3046EFB86A
S11341DA00FCCE51003046EFB800ADF0B802FCAB9B
S11341EA2700F6BF42EF103C61EFC2C061CFD7206F
S11341FA0C30C1EFB800FCCE5100B6F0ADF004C1EA
S113420AEF168B9DF04AF00A61F8EC5742005124EC
S113421A98078FC2EF9DF0980851329809510D986A
S113422A0A510A980B30C1EFB800C9F00C00AEF875
S113423ABDF0040C00BDF004FBFFB802FCA751005A
S113424A300500BF42EFF6B804EC5A4200E6B8045F
S113425AA804BDF0100CD761EFC161CF2006A80CE9
S113426A44000061F8EC7F4200F6BF7CEFE6BF7AB7
S113427AEFF6BFBCEFAF7AEFBDF044000061F8EC93
S113428A394300F19800E19802FCD216003068061E
S113429AB800FC1E1900F1980051809802FCD2164D
S11342AA00306806B800FC1E1900AF7CEFBDF0B8F8
S11342BA04EC124300AF7CEFBDF0040800BDF2A881
S11342CA04BDF0ADF246F061E8ECEB4200F198006F
S11342DA51C09802FCD21600306806B800FC1E19B8
S11342EA00A8040488EFBDF0BDF2FAF28B9DF0E158
S11342FA98008DF09802FCD21600302800B800FC11
S113430A1E1900A804A1B804A804BDE83088EFB8AF
S113431A00FCCE5100B6F0B6F0ADE846F061D8EC38
S113432ABF4200AF7CEFBDF0A6F0ADF0BF7CEFAFAB
S113433A7CEFBDF0BDE83088EFB800FCCE5100AD8B
S113434AF004EFFFBDF0ADE846F061C8EC6E43003F
S113435A3088EFB800FCCE5100ADF044120061F38E
S113436AEC724300F6BF7AEF100661EFC061CFD753
S113437A2002C9F031FFADF0BDF2DAF2F1480000D3
S113438AFC6B1A0000C9F030FFADF0BDF2FAF28BF3
S113439A9DF0317A9DF0D4F061E8EC8F4300FC6B18
S11343AA1A0000C9F030FFADF0BDF2FAF28B9DF0AD
S11343BA317A9DF0D4F061E8ECAD430030C0EFB837
S11343CA00FC371B008FC0EF9DF0311A9DF09FC08F
S11343DAEFC9F031FFADF0BDF2DAF2E1480000FCBA
S11343EA6B1A0000C9F030FFADF0BDF2FAF28B9DF2
S11343FAF0317A9DF0D4F061E8ECEE4300FC6B1ADC
S113440A0000C9F030FFADF0BDF2FAF28B9DF03135
S113441A7A9DF0D4F061E8EC0C440030BEEFB800A9
S113442AFC371B008FBEEF9DF0312A9DF09FBEEF33
S113443AC9F031FFADF0BDF2DAF25102480000FCD6
S113444A6B1A0000C9F030FFADF0BDF2FAF28B9D91
S113445AF0317A9DF0D4F061E8EC4E4400FC6B1A1A
S113446A0000C9F030FFADF0BDF2FAF28B9DF031D5
S113447A7A9DF0D4F061E8EC6C440030F3EFB800B4
S113448AFC371B008FF3EF9DF0312A9DF09FF3EF69
S113449A1002D7201EF19813F19814F19815F19887
S11344AA16F19817F19818F582EFF583EFF584EF72
S11344BAF585EFF586EFF587EF5104981DF6B81ADE
S11344CAECEE4500AEF8BDF2041300BDF0A81A06DE
S11344DAF0BDF0BDF4FAF48B9DF2881D705100BD55
S11344EAF004C1EF168B9DF0768DF2610E9DF00CEF
S11344FAD09DF2AEF8BDF4041300BDF0A81A06F07C
S113450ABDF0BDF4DAF48DF2480000A81A0482EF73
S113451ABDF0BDF4FAF48B9DF2881D705100BDF014
S113452A04C1EF168B9DF0768DF2610E9DF00CD0CE
S113453A9DF2A81A0482EFBDF0BDF4DAF48DF248B4
S113454A0000881D9DF081981D705100BDF004C1C2
S113455AEF168B9DF04AF02C61E8EC784500A81A16
S113456AA1B81A881D9DF081981DECEE4500881D9E
S113457A705100BDF004C1EF168B9DF04AF00D6135
S113458AF8ECEE4500AEF8BDF2041300BDF0A81A2B
S113459A06F0BDF0BDF4FAF48B9DF031499DF2AEFC
S11345AAF8BDF4041300BDF0A81A06F0BDF0BDF47A
S11345BADAF48DF2480000A81A0482EFBDF0BDF2C5
S11345CAFAF28B9DF061019DF031299DF1768DF00F
S11345DA610E9DF2A81A0482EFBDF0BDF4DAF48DDF
S11345EAF2480000881D705100BDF004C1EF168B1B
S11345FA9DF04AF00D61E8ECCE44003082EFB80039
S113460AFC9B4700D4F061F8EC7A460088139DF0CD
S113461A981288149DF0981188159DF0980F8816A1
S113462A9DF0980E88179DF0980D88189DF0980CA7
S113463A5105981D51249F46EF51429F47EF51302F
S113464A9F48EF510D9F49EF510A9F4AEFF54BEFEF
S113465AA80CBDF0B800A80EBDF0B802A810BDF0B1
S113466AB80488129DF09806FC6A2100ECD346002F
S113467AF19819AEF8BDF2040800BDF0BDF4DAF4FD
S113468A302442780000DAF030320D780200300A21
S113469A00780400C9F01E00AEF8BDF0041E00BD87
S11346AAF004EAFFB800FCCE51008DF0981D3046A4
S11346BAEFB800C9F21E00AEF8BDF2041E00BDF246
S11346CA04EAFFB802FCA75100101ED7200AC9F059
S11346DA0A00AEF8BDF0040A00BDF004F9FFB80000
S11346EAFCDB1F0088099DF09F82EF88089DF09FDC
S11346FA83EF88069DF09F84EF88059DF09F85EFE0
S113470A88049DF09F86EF88039DF09F87EF30828F
S113471AEFB800FC244700100AD72004F6B802ECCC
S113472A8B4700A802BDF0A80806F0BDF0BDF2FA56
S113473AF28B9DF05C0F9801A802BDF0A80806F060
S113474ABDF0BDF4FAF48B9DF0314A9800A802BD7D
S113475AF0A80806F0BDF288009DF061019DF031D1
S113476A299DF1768DF0610E9DF0768801610E9D8A
S113477AF0ADF2BDF4DAF48DF0480000A802A1B855
S113478A02A80244050071FF61E3EC2D47001004FE
S113479AD72018301F00B800301C00B802301F00A0
S11347AAB804301E00B806301F00B808301E00B81E
S11347BA0A301F00B80C301F00B80E301E00B810A3
S11347CA301F00B812301E00B814301F00B816A8E3
S11347DA1CA1BDF0BDF2FAF28B9DF04AF00C61F314
S11347EAEC024800A81CA1BDF0BDF4FAF48B9DF0BC
S11347FAD4F061E8EC084800F4F0ECD04800A81CB6
S113480A040200BDF0BDF2FAF28B9DF0705100BDB6
S113481AF2A81CA1BDF0BDF4FAF48B9DF0CDF10011
S113482AADF001BDF0C9F41800AEF8BDF4041800E7
S113483ABDF406F0BDF004E8FFBDF0BDF4FAF4AB34
S113484ABDF0ADF246F071FF7177F161F3EC714896
S113485A00A81C040200BDF0BDF2FAF28B9DF0D44C
S113486AF061E8EC774800F4F0ECD04800A81C04A6
S113487A0300BDF0BDF4FAF48B9DF04AF01761E32E
S113488AEC944800F4F0ECD04800A81C040400BDE1
S113489AF0BDF2FAF28B9DF04AF03B61E3ECB148C9
S11348AA00F4F0ECD04800A81C040500BDF0BDF4E7
S11348BAFAF48B9DF04AF03B61E3ECCE4800F4F045
S11348CAECD04800E4F01018D720028FF4EF9DF0E2
S11348DAD4F061F8ECEC4800F5F4EFF6B800FC61AA
S11348EA42008FBAEF9DF0D4F061F8EC524900F51A
S11348FABAEFC9F001FFC9F201FFADF2BDF4FAF44F
S113490A8B9DF2317A9DF27AF2018DF231799DF220
S113491AADF0BDF4FAF48B9DF35AF37F8DF36BF289
S113492A9DF2ADF0DAF48DF2480000C9F001FFAD52
S113493AF0BDF2FAF28B9DF0317A9DF0D4F061E881
S113494AEC524900FC5C4A008FBFEF9DF0D4F06141
S113495AF8EC6A4900F5BFEFFC7A4300FC654C00A9
S113496AAF78EFBDF044000061E8EC594A008F7F4C
S113497AEF9DF0D4F061E8ECEA4900C9F004FFAD18
S113498AF0BDF4FAF48B9DF26AF202ADF0DAF48D1A
S113499AF2480000C9F004FFADF0BDF4FAF48B9DAF
S11349AAF25AF2FBADF0DAF48DF2480000C9F004D1
S11349BAFFADF0BDF4FAF48B9DF25AF2F7ADF0DADA
S11349CAF48DF248000051029F7EEFAF44EFBDF030
S11349DA441B0061E3EC594A00E57FEFEC594A00B5
S11349EA8F7FEF9DF04AF00161E8EC594A00C9F063
S11349FA04FFADF0BDF4FAF48B9DF25AF2FDADF06A
S1134A0ADAF48DF2480000C9F004FFADF0BDF4FAFF
S1134A1AF48B9DF26AF204ADF0DAF48DF2480000E8
S1134A2AC9F004FFADF0BDF4FAF48B9DF25AF2F723
S1134A3AADF0DAF48DF248000051039F7EEFAF44E3
S1134A4AEFBDF044170061F3EC594A00E57FEF101B
S1134A5A02D72002C9F08201ADF0BDF2FAF2ABBD71
S1134A6AF030001026F0B800BDF0314EBDF0BF445E
S1134A7AEFBDF004CEFFBDF0BF44EFFCE63400FC0A
S1134A8A8B34001002D7202C51069809C9F001FF73
S1134A9AADF0BDF4FAF48B9DF25AF2DFADF0DAF41C
S1134AAA8DF2480000C9F02C00AEF8BDF0042C00C9
S1134ABABDF004DDFFB800E6B802C9F22C00AEF876
S1134ACABDF2042C00BDF204DAFFB804FC7E2B000C
S1134ADA008F00EF9DF0D4F061E8ECDB4A00E500BA
S1134AEAEFC9F001FFADF0BDF4FAF48B9DF26AF25E
S1134AFA20ADF0DAF48DF2480000300A00B800FC68
S1134B0A1E1900C9F001FFADF0BDF4FAF48B9DF251
S1134B1A5AF2DFADF0DAF48DF24800005102980936
S1134B2AA830314EBDF08DF0980A88309DF05AF0C5
S1134B3A0F8DF0980BAEF8BDF2040900BDF0040322
S1134B4A00B80030F8EFB802FCA7510030F8EFB80B
S1134B5A00FCCE5100ADF0040300BDF0C9F42C00F2
S1134B6AAEF8BDF4042C00BDF404DDFFB800ADF0CA
S1134B7AB802C9F02C00AEF8BDF0042C00BDF00454
S1134B8ADAFFB804FC7E2B00008F00EF9DF0D4F00E
S1134B9A61E8EC934B00E500EFC9F001FFADF0BD0D
S1134BAAF4FAF48B9DF26AF220ADF0DAF48DF2484D
S1134BBA0000300A00B800FC1E190051049809C903
S1134BCAF001FFADF0BDF4FAF48B9DF25AF2DFADB9
S1134BDAF0DAF48DF2480000C9F02C00AEF8BDF00A
S1134BEA042C00BDF004DDFFB800E6B802C9F22CBB
S1134BFA00AEF8BDF2042C00BDF204DAFFB804FCDE
S1134C0A7E2B00008F00EF9DF0D4F061E8EC0E4C8F
S1134C1A00E500EFC9F001FFADF0BDF4FAF48B9D95
S1134C2AF26AF220ADF0DAF48DF2480000300A009C
S1134C3AB800FC1E190051249F46EF514A9F47EFC2
S1134C4A51309F48EF510D9F49EF510A9F4AEFF5A2
S1134C5A4BEF300500BF42EF102CD7202C51069899
S1134C6A09C9F001FFADF0BDF4FAF48B9DF25AF2D2
S1134C7ADFADF0DAF48DF2480000C9F02C00AEF88A
S1134C8ABDF0042C00BDF004DDFFB800E6B802C98B
S1134C9AF42C00AEF8BDF4042C00BDF404DAFFB819
S1134CAA04FC7E2B00008F00EF9DF0D4F061E8EC49
S1134CBAB04C00E500EFC9F001FFADF0BDF4FAF421
S1134CCA8B9DF26AF220ADF0DAF48DF248000030DE
S1134CDA0A00B800FC1E1900FCD64600F6BF42EFD3
S1134CEA51029809AF80EFBDF0314EBDF08DF098B6
S1134CFA0AAF80EFBDF05AF00F8DF0980B8F82EF58
S1134D0A9DF0980C8F83EF9DF0980D8F84EF9DF0A2
S1134D1A980E8F85EF9DF0980F8F86EF9DF098106F
S1134D2A8F87EF9DF098118F7EEF9DF09812AF4414
S1134D3AEFBDF08DF098138FC0EF9DF098148FBEDD
S1134D4AEF9DF0981551189816511B9817510A9807
S1134D5A18F19819F1981AF1981BF1981CC9F001E5
S1134D6AFFADF0BDF4FAF48B9DF25AF2DFADF0DA3E
S1134D7AF48DF2480000C9F02C00AEF8BDF0042C02
S1134D8A00BDF004DDFFB800301300B802C9F42CEA
S1134D9A00AEF8BDF4042C00BDF404DAFFB804FC38
S1134DAA7E2B00008F00EF9DF0D4F061E8ECAE4D4D
S1134DBA00E500EFC9F001FFADF0BDF4FAF48B9DF4
S1134DCAF26AF220ADF0DAF48DF2480000300A00FB
S1134DDAB800FC1E190051049809C9F001FFADF08E
S1134DEABDF4FAF48B9DF25AF2DFADF0DAF48DF2E7
S1134DFA480000C9F02C00AEF8BDF0042C00BDF048
S1134E0A04DDFFB800E6B802C9F42C00AEF8BDF41C
S1134E1A042C00BDF404DAFFB804FC7E2B00008FD6
S1134E2A00EF9DF0D4F061E8EC294E00E501EFE5CE
S1134E3A00EFC9F001FFADF0BDF4FAF48B9DF26AFC
S1134E4AF220ADF0DAF48DF2480000300A00B8001E
S1134E5AFC1E1900AF80EFBDF044002061F3EC7929
S1134E6A4E00AF80EFBDF0041000BDF0BF80EF101C
S1134E7A2CD720345103982AA838314EBDF08DF02E
S1134E8A982B88389DF05AF00F8DF0982CC9F001B0
S1134E9AFFADF0BDF4FAF48B9DF25AF2DFADF0DA0D
S1134EAAF48DF2480000E500EFE501EF883A70510D
S1134EBA00BDF0040300BDF0C9F23400AEF8BDF23F
S1134ECA043400BDF204F6FFB800ADF0B802C9F428
S1134EDA3400AEF8BDF4043400BDF404D3FFB804BE
S1134EEAFC7E2B00008F00EF9DF0D4F061E8ECEF1C
S1134EFA4E008F01EF9DF0D4F061E8ECEF4E00E52F
S1134F0A00EFE501EFC9F001FFADF0BDF4FAF48B4F
S1134F1A9DF26AF220ADF0DAF48DF2480000883A84
S1134F2A705100BDF0040300BDF0BF42EF3046EFFC
S1134F3AB80030A6CDB802AEF8BDF2040700BDF041
S1134F4A040300B804FC2C51001034D761EFC1C328
S1134F5AC561CF2054A85E04FF0FBDF0314DB85E81
S1134F6A5103984AA85E314EBDF08DF0984B885E85
S1134F7A9DF05AF00F8DF0984CC9F001FFADF0BDC9
S1134F8AF4FAF48B9DF25AF2DFADF0BDF6DAF68D3F
S1134F9AF2480000E500EFE501EFC9F05400AEF86D
S1134FAABDF0045400BDF004F6FFB800301100B897
S1134FBA02C9F45400AEF8BDF4045400BDF404D399
S1134FCAFFB804FC7E2B00008F00EF9DF0D4F06143
S1134FDAE8ECD24F008F01EF9DF0D4F061E8ECD2F7
S1134FEA4F00E500EFE501EFC9F001FFADF0BDF6B2
S1134FFAFAF68B9DF26AF220ADF0BDF4DAF48DF282
S113500A480000AF80EFBDF0A85E46F061E3EC4AC9
S113501A500051249F46EF514D9F47EF51329F480C
S113502AEF510D9F49EF510A9F4AEFF54BEF304676
S113503AEFB800FCCE5100ADF0BF42EFEC0A5100CC
S113504A882A9DF0705100BDF6882B9DF07051009E
S113505ABDE8882C9DF0705100BDEC882D9DF07040
S113506A5100B824882E9DF0705100B822882F9DD3
S113507AF0705100B82088309DF0705100B81E8835
S113508A319DF0705100B81C88329DF0705100BDFA
S113509AEA88339DF0705100BDF488349DF0705154
S11350AA00BDF288359DF0CDF1003046EFB80030EE
S11350BAAECDB802ADF6B804ADE8B806ADECB808A2
S11350CAA824BDF6B80AA822BDF6B80CA820BDF6D5
S11350DAB80EA81EBDF6B810A81CBDF6B812ADEAE3
S11350EAB814ADF4B816ADF2B818ADF0B81AFC2C71
S11350FA51003046EFB800FCCE5100ADF0BF42EF8C
S113510A105461EFC4C2C061CFD7A806BDF2FAF247
S113511AABBDF0DAF2A1780000ADF01288044800C1
S113512A00D72008A80EB800301451B802AEF8040B
S113513A0C00B804AEF8040C00040400B806FCF72A
S113514A5100A80CBDF2DAF2F14800001008D76148
S113515AEFC161CFA806BDF0BDF2EAF089D161F8CA
S113516AEC9F5100A6F2ADF21489D161E8EC6E51BC
S113517A00A808BDF4ADF4168B9DF6ADF2128DF6B7
S113518A480000A6F2A6F4D4F661E8EC7F51006167
S113519AEFC061CFD7ADF0BDF2EC7B5100A804BDDE
S11351AAF2A806BDF0ADF0168B9DF4ADF2128DF4A3
S11351BA480000A6F2A6F0D4F461E8ECAF5100A8C6
S11351CA04BDF0D7A804BDF2BDF0EAF289D161F8B2
S11351DAECF25100A6F0ADF01489D161E8ECDE518D
S11351EA00ADF026F2BDF0D7C9F00000D761EFC1D7
S11351FAC3C561CF20E0F6B82CAEF804DF00B814BA
S113520AA8EAA1BDEAA8EA168B9DF04AF02561F83E
S113521AEC4F5200D4F061F8ECFA5D008DF098007E
S113522AA8EEB802A8EC1261DAFBF8FF61792CAD9A
S113523AEAB8EAA1BDEAA8EA168B9DF04AF025610C
S113524AE8EC1E5200ADEA168B9DEC4AEC2561F897
S113525AEC855E00F19831984E88319837883198F8
S113526A364AEC2B61F8ECA552004AEC2B61F3ECBC
S113527AAD52004AEC2061F8EC8455004AEC2361F3
S113528AE8ECD35200FBF8FF61594EA6EAFAEA8B1E
S113529A9DEC4AEC2B61E8EC7452008DEC9836ECE8
S11352AA9552004AEC2D61F8ECC952004AEC30617F
S11352BAE8ECD35200FBF8FF615931EC955200FB3C
S11352CAF8FF615937EC955200ADEABDF04AEC2A71
S11352DA61F8ECD05D008DEC0CD09DF0F6B8384A3C
S11352EAF00961F3EC3553008DEC9DF2A838BDF05A
S11352FAADF001BDF0312DBDF4ADF006F4BDF0A65C
S113530AEACDF300ADF204D0FFBDF2ADF006F2BD72
S113531AF0FAEA8B9DF20CD09DF34AF30961E3ECAF
S113532AFA52008DF29DECADF0B8388837D161F8A5
S113533AEC415300F198314AEC2E61F8EC6F5D00B0
S113534AC9E8FFFF4AEC6861F8EC615D004AEC6C5D
S113535A61F8ECF655004AEC4C61F8ECF655008D10
S113536AEC982EF4F0ADEAA1B8EA882E4C6661F8FE
S113537AEC0F5600882E4C6661E3EC955500882E96
S113538A4C6F61F8EC686200882E4C6F61E3EC089C
S113539A5E00882E4C7361F8ECE56100882E4C732C
S11353AA61E3EC746500882E4C7561F8EC70670053
S11353BA882E4C7861E8ECAD5E0030F9CDB816A8B9
S11353CAF016ABB83CD4F061F8EC8E6100A8F01684
S11353DAAC02B83EA8F0040400B8F0882E4C6F6101
S11353EAF8ECA56100882E4C7561F8EC186600305B
S11353FA1000B832F6B834F19836FBF8FF300000E2
S113540A61293CBDF430000061D8B161293EBDF682
S113541A883C6BF49842883D6BF59843883E6BF65A
S113542A9844883F6BF79845A844317A9DF4300034
S113543A00BDF69DF58DF49DECADE844000061E8ED
S113544AEC835F00D4EC61E8EC835F00AEF804DF20
S113545A00BDEAADE8BDF0ADF0BDE8A83846E87194
S113546AFF7177E961D8ECE15500A83826E8BDEC6C
S113547A883676F1612E9DF088366BF0317A318F59
S113548ABDF0ADEC26F0B8168837D161E8ECF054DB
S113549A00A816B1B81E44000071FF61D8EC1F665B
S11354AA00A81EBDECADEAB82AADE8B82EA8ECBD3A
S11354BAE8A8EEBDEA51209800ADEAB802DAE8613C
S11354CADAB6ECADEC44FFFF61E8ECBF5400A82A5D
S11354DABDEAA82EBDE8A816BDF0A81E26F0B81687
S11354EAA82C06F0B82C8836D161E8EC435F00ADED
S11354FAE844000071FF61E3EC3E5500ADEABDECFF
S113550A06E8BDEAADE8B81EADECBDE8A8EEBDEC10
S113551AFAE88B9800ADECB802A8EC1261DAA6E8B6
S113552AADE846EA61E8EC1A5500A81EBDE8A82CC5
S113553A06E8B82C8837D161F8EC0A5200A816B1EB
S113554ABDE844000071FF61D8EC0A5200A8ECBD22
S113555AEAA8EEBDEC51209800ADECB802DAEA6193
S113556ADAB6E8ADE844FFFF61E8EC5F5500A81637
S113557A16A82C07B82CEC0A52008836D161E8EC3C
S113558A9552008DEC9836EC955200882E4C586151
S113559AF8EC706700882E4C5861F3EC495E008879
S11355AA2E4C4561F8EC2A5F00882E4C4761F8ECD2
S11355BAB95E00882ED161E8ECAD5E00C9E803004B
S11355CAADEAB8EAC9EA0ACEA83846E871FF7177A3
S11355DAE961C8EC745400F6B8168837D161E8EC6E
S11355EAF0540030FFFFB816ECF05400FAEA8C01CC
S11355FA982EA6EAE4F0ADEAA1B8EA882E4C6661D0
S113560AE8EC7E5300A4F0ADE8C9EC0000440000C5
S113561A71FF61D8EC816700F1982ED4F061F8EC3F
S113562ADA5E00A8F0040400BDEAA8F016ABB800DC
S113563AA8F016AC02B802FC8C67008DF0981E8D97
S113564AF1981F8DF298208DF398218DF498228D6C
S113565AF598238DF698248DF798258DF098168D54
S113566AF198178DF298188DF398198DF4981A8D6C
S113567AF5981B8DF6981C8DF7981DADEAB8F0F4D1
S113568AF08816980088179801881898028819983B
S113569A03881A9804881B9805881C9806881D98FC
S11356AA078DF098089809980A980B980C980D9801
S11356BA0EF1980FFC11A6008DF0D171FF61D8ECA0
S11356CA166500AEF8045A00BDF4A83806F4BDEA1B
S11356DAF4F0CDF6F088169800881798018818987F
S11356EA0288199803881A9804881B9805881C98B4
S11356FA06881D98078DF098089809980A980B98B7
S113570A0C980D8DF6980E513F980FFC2AA5008D22
S113571AF0F4F0D171FF61D8ECAE6200CDF3E0CDC4
S113572AF476CDF548CDF6378DF3980B8DF4980CB5
S113573A8DF5980D8DF6980E5142980FFC2AA50006
S113574AF6B8408DF0D171FF61D8EC3B5800ADE852
S113575AB82AA840BDE888169800881798018818BE
S113576A980288199803881A9804881B9805881C33
S113577A9806881D9807F19808F19809F1980A5132
S113578A20980B515F980C51A0980D5102980E5114
S113579A42980FFC6D98008DF0981E8DF1981F8D1C
S11357AAF298208DF398218DF498228DF598238D03
S11357BAF698248DF798258DF098168DF198178D03
S11357CAF298188DF398198DF4981A8DF5981B8D03
S11357DAF6981C8DF7981DADE8040A00BDE8CDF3D0
S11357EAE0CDF476CDF548CDF637881698008817BB
S11357FA98018818980288199803881A9804881BAB
S113580A9805881C9806882598078DF3980B8DF4BB
S113581A980C8DF5980D8DF6980EFC2AA5008DF03E
S113582AD171FF61C8EC605700ADE8B840A82ABD41
S113583AE8F4F0CDF6248816980088179801881899
S113584A980288199803881A9804881B9805881C52
S113585A9806881D98078DF098089809980A980B55
S113586A980C980D8DF6980E5140980FFC2AA500B5
S113587A8DF0D171FF61D8EC445900ADE8B82AA87B
S113588A40BDE888169800881798018818980288F5
S113589A199803881A9804881B9805881C980688FE
S11358AA1D9807F19808F19809F1980AF1980BF1F3
S11358BA980CF1980D5124980E5140980FFC6D984C
S11358CA008DF0981E8DF1981F8DF298208DF39813
S11358DA218DF498228DF598238DF698248DF798C6
S11358EA258DF098168DF198178DF298188DF398E6
S11358FA198DF4981A8DF5981B8DF6981C8DF798C6
S113590A1DA6E888169800881798018818980288AE
S113591A199803881A9804881B9805881C9806887D
S113592A259807FC2AA5008DF0D171FF61C8EC8D7A
S113593A5800ADE8B840A82ABDE8ADEC44000061BF
S113594AF8ECF16000A840BDECADE846EC71FF71DB
S113595A77ED61E3EC715900ADEC44FCFF71FF7122
S113596AC061C8ECA66500B6E8884ED161E8ECF1DE
S113597A6000E1984E984F882ED161F8ECFD6000E2
S113598AADEABDECC9F00000ADE846F071FF7177ED
S113599AF161D8EC635B00ADE8B83AADECB82AAD76
S11359AAEAB854ADF0BDECECEE5900A83A44000054
S11359BA61E8ECC95900884ED161F8EC3E5B00A855
S11359CA2ABDF6A6F6DAF6512E480000A82A0402E1
S11359DA00B82AA6ECA83A46EC71FF7177ED61D8B3
S11359EAEC535B0088169800881798018818980267
S11359FA88199803881A9804881B9805881C98069D
S1135A0A881D9807FC7CA900ADF0B826ADF2B82829
S1135A1AADF0BDE88827317B9DEA9DEBADE8B8007F
S1135A2AADEAB802FCDDA7008DF0981E8DF1981F2F
S1135A3A8DF298208DF398218DF498228DF5982370
S1135A4A8DF698248DF7982588169800881798015A
S1135A5A88189802881998038DF098088DF1980986
S1135A6A8DF2980A8DF3980B8DF4980C8DF5980D98
S1135A7A8DF6980E8DF7980FFC1981008DF0981603
S1135A8A8DF198178DF298188DF398198DF4981A48
S1135A9A8DF5981B8DF6981C8DF7981D8DF098003E
S1135AAA8DF198018DF298028DF398038DF4980480
S1135ABA8DF598058DF698068DF79807F19808F1F3
S1135ACA9809F1980AF1980BF1980CF1980D512460
S1135ADA980E5140980FFC3A82008DF0981E8DF171
S1135AEA981F8DF298208DF398218DF498228DF5C4
S1135AFA98238DF698248DF798258DF098168DF1B4
S1135B0A98178DF298188DF398198DF4981A8DF5C3
S1135B1A981B8DF6981C8DF7981DA82AA1BDF0A88C
S1135B2A2A1288260C30480000ADEC44000061F8C3
S1135B3AECB55900ADF0B82AA6ECA83A46EC71FFC8
S1135B4A7177ED61C8ECEE5900A82ABDECADE8B84E
S1135B5A50ADEAB852A854BDEAF4F0CDF61488164A
S1135B6A9800881798018818980288199803881A3F
S1135B7A9804881B9805881C9806881D98078DF038
S1135B8A98089809980A980B980C980D8DF6980E0F
S1135B9A5140980FFC2AA5008DF0D171FF61D8EC11
S1135BAA945C00ADECB1BDF4C9F20100ECD45B0025
S1135BBADAF6480000C9F20000B6F4ADF4A1BDF06B
S1135BCAADEA46F061C8EC145C00ADF4BDF6168B80
S1135BDA9DF14AF12E61F8ECC35B008DF2768DF1EA
S1135BEA610E9DF14AF13A61E8ECBA5B00ADF41238
S1135BFA5130480000C9F20100B6F4ADF4A1BDF079
S1135C0AADEA46F061D8ECD45B00ADF24400006121
S1135C1AF8EC945C00882ED161F8ECBD6500ADEC1B
S1135C2ABDF0ADEA46EC61D8EC4C5C00EC755C0066
S1135C3A128DF2480000B6F0ADEA46F061C8EC7580
S1135C4A5C00ADF0B1168B9DF2ADF04AF22E61E81C
S1135C5AEC3A5C001204FEFF168B480000B6F0B65C
S1135C6AF0ADEA46F061D8EC4C5C00FBF8FF6179D0
S1135C7A40ADECBDF2AEF8045A00BDECA83806EC0F
S1135C8A125131480000ADF2BDEC884FD161F8ECF5
S1135C9AD35C00ADECB1168B9DF24AF23061E8ECAC
S1135CAACA5C00ADEC04FEFFBDF0ADF0A1BDECB6DC
S1135CBAF0FAF08C019DF24AF23061F8ECB45C001F
S1135CCA4AF22E61F8EC406600882ED161F8ECDEC7
S1135CDA6000DAEC882E480000A84044000071FFF6
S1135CEA61D8EC276600ADEC040200BDF0DAEC5191
S1135CFA2B480100ADF0040A00B816C9EC0100AD46
S1135D0AEAB82AA840BDEAA816BDE8ADECB81EADAB
S1135D1AE8A1B816ADEAB800300A00B802FCBCAB78
