S01200004564657369676E44656D6F2E6D6F742B
S10700007738FFFF4B
S11300046636663666366636663666366636663608
S113001466366636663666366636B42E66366636B2
S1130024452E712D663666364A365A366636663637
S11300345B1C66368B1E66366636663666366636F0
S113004466366636663666366636663666366636C8
S113005466366636663666366636663666366636B8
S113006466366636663666366636663666366636A8
S10F0074663666366636663666366636D4
S10700C0EFFFE984DD
S10D00C4000000000000000000002E
S10500D8010120
S11300DA61EFC1C361CF201EAF02EFBDF044090036
S11300EA61F8EC070A00ADF044090071FF61F3EC12
S11300FA880100ADF044040061F8EC890300ADF016
S113010A44040071FF61F3EC560100ADF0440100B0
S113011A61F8EC430200ADF044010071FF61F3ECB5
S113012A3C0100ADF044000061F8EC040200EC4B21
S113013A0A00ADF044020061F8EC970200ADF04405
S113014A030061F8EC100300EC4B0A00ADF044061E
S113015A0061F8EC200900ADF044060071FF61D893
S113016AECD90800ADF044070061F8EC6D0900AD64
S113017AF044080061F8ECBA0900EC4B0A00ADF04F
S113018A440E0061F8ECFF0500ADF0440E0071FF67
S113019A61F3ECD20100ADF0440B0061F8EC7B048E
S11301AA00ADF0440B0071FF61D8EC020400ADF01D
S11301BA440C0061F8ECF40400ADF0440D0061F85D
S11301CAEC6D0500EC4B0A00ADF044100061F8EC4C
S11301DA230700ADF044100071FF61D8EC910600CA
S11301EAADF044110061F8ECB50700ADF04412001B
S11301FA61F8EC470800EC4B0A00A82644030061A6
S113020AE8EC170200E6BF02EFEC3F0200A826441E
S113021A040061E8EC2A0200E6BF02EFEC3F0200A8
S113022AA82644060061E8EC3F0200300500BF023C
S113023AEFEC4B0A00EC4B0A00A82644030061E8E1
S113024AEC560200F6BF02EFEC930200A82644041F
S113025A0061E8EC690200F6BF02EFEC930200A821
S113026A2644010061E8EC7E0200300200BF02EF7E
S113027AEC930200A82644060061E8EC93020030DD
S113028A0500BF02EFEC4B0A00EC4B0A00A8264417
S113029A010061E8ECBA0200300D00BF02EF30043D
S11302AAEFB8003082EFB802FC815200EC0C030074
S11302BAA82644040061E8ECCF0200300C00BF0217
S11302CAEFEC0C0300A82644030061E8ECE4020006
S11302DA300300BF02EFEC0C0300A82644050061BA
S11302EAE8ECF70200E6BF02EFEC0C0300A8264490
S11302FA060061E8EC0C0300300500BF02EFEC4B8A
S113030A0A00EC4B0A00A82644010061E8EC330316
S113031A00300E00BF02EF3004EFB8003082EFB8AD
S113032A02FC815200EC850300A82644040061E81B
S113033AEC480300300200BF02EFEC850300A82654
S113034A44030061E8EC5D0300300400BF02EFECF3
S113035A850300A82644050061E8EC700300E6BFA3
S113036A02EFEC850300A82644060061E8EC850345
S113037A00300500BF02EFEC4B0A00EC4B0A00A860
S113038A2644010061E8ECAC0300300F00BF02EF21
S113039A3004EFB8003082EFB802FC815200ECFE60
S11303AA0300A82644040061E8ECC10300300300FA
S11303BABF02EFECFE0300A82644030061E8ECD672
S11303CA0300300A00BF02EFECFE0300A82644052E
S11303DA0061E8ECE90300E6BF02EFECFE0300A8C3
S11303EA2644060061E8ECFE0300300500BF02EF74
S11303FAEC4B0A00EC4B0A00A82644010061E8EC25
S113040A250400301000BF02EF3004EFB800308238
S113041AEFB802FC815200EC770400A826440400D9
S113042A61E8EC3A0400300400BF02EFEC77040000
S113043AA82644030061E8EC4F0400300B00BF0215
S113044AEFEC770400A82644050061E8EC62040096
S113045AE6BF02EFEC770400A82644060061E8EC44
S113046A770400300500BF02EFEC4B0A00EC4B0A9C
S113047A00A82644010061E8EC9E0400301100BF84
S113048A02EF3004EFB8003082EFB802FC81520068
S113049AECF00400A82644040061E8ECB30400303C
S11304AA0A00BF02EFECF00400A82644030061E846
S11304BAECC80400300C00BF02EFECF00400A826DC
S11304CA44050061E8ECDB0400E6BF02EFECF0044B
S11304DA00A82644060061E8ECF00400300500BFD9
S11304EA02EFEC4B0A00EC4B0A00A8264401006117
S11304FAE8EC170500301200BF02EF3004EFB80031
S113050A3082EFB802FC815200EC690500A8264447
S113051A040061E8EC2C0500300B00BF02EFEC6923
S113052A0500A82644030061E8EC410500300200F6
S113053ABF02EFEC690500A82644050061E8EC5403
S113054A0500E6BF02EFEC690500A826440600612F
S113055AE8EC690500300500BF02EFEC4B0A00EC39
S113056A4B0A00A82644010061E8ECE605008F0462
S113057AEF9DF0705100BDEA8F05EF9DF0705100B8
S113058ABDE88F06EF9DF0705100BDF68F07EF9D11
S113059AF0705100BDF48F08EF9DF0705100BDF268
S11305AA8F09EF9DF0CDF10030C1EFB80030B8CD1E
S11305BAB802ADEAB804ADE8B806ADF6B808ADF4C9
S11305CAB80AADF2B80CADF0B80EFC065200FC4DF8
S11305DA4500300200BF02EFECFB0500A8264405E3
S11305EA0061E8ECFB0500300200BF02EFEC4B0AA5
S11305FA00EC4B0A00A82644010061E8EC780600E6
S113060A8F04EF9DF0705100BDEA8F05EF9DF070E5
S113061A5100BDE88F06EF9DF0705100BDF68F07BB
S113062AEF9DF0705100BDF48F08EF9DF0705100FA
S113063ABDF28F09EF9DF0CDF10030C1EFB8003063
S113064AB8CDB802ADEAB804ADE8B806ADF6B80854
S113065AADF4B80AADF2B80CADF0B80EFC0652000F
S113066AFC4D4500300300BF02EFEC8D0600A826BE
S113067A44050061E8EC8D0600300300BF02EFEC8C
S113068A4B0A00EC4B0A00A82644010061E8EC0A74
S113069A07008F04EF9DF0705100BDEA8F05EF9DAE
S11306AAF0705100BDE88F06EF9DF0705100BDF661
S11306BA8F07EF9DF0705100BDF48F08EF9DF07025
S11306CA5100BDF28F09EF9DF0CDF10030C1EFB8B2
S11306DA0030B8CDB802ADEAB804ADE8B806ADF654
S11306EAB808ADF4B80AADF2B80CADF0B80EFC0611
S11306FA5200FC4D4500300400BF02EFEC1F070016
S113070AA82644050061E8EC1F0700300400BF0274
S113071AEFEC4B0A00EC4B0A00A82644010061E8FE
S113072AEC9C07008F04EF9DF0705100BDEA8F0521
S113073AEF9DF0705100BDE88F06EF9DF0705100F7
S113074ABDF68F07EF9DF0705100BDF48F08EF9D41
S113075AF0705100BDF28F09EF9DF0CDF10030C168
S113076AEFB80030B8CDB802ADEAB804ADE8B806BF
S113077AADF6B808ADF4B80AADF2B80CADF0B80EDF
S113078AFC065200FC4D4500300A00BF02EFECB1F2
S113079A0700A82644050061E8ECB10700300A0006
S11307AABF02EFEC4B0A00EC4B0A00A826440100F6
S11307BA61E8EC2E08008F04EF9DF0705100BDEA49
S11307CA8F05EF9DF0705100BDE88F06EF9DF07024
S11307DA5100BDF68F07EF9DF0705100BDF48F08EC
S11307EAEF9DF0705100BDF28F09EF9DF0CDF1003D
S11307FA30C1EFB80030B8CDB802ADEAB804ADE8FC
S113080AB806ADF6B808ADF4B80AADF2B80CADF056
S113081AB80EFC065200FC4D4500300B00BF02EF37
S113082AEC430800A82644050061E8EC43080030BC
S113083A0B00BF02EFEC4B0A00EC4B0A00A826445B
S113084A010061E8ECC008008F04EF9DF0705100CC
S113085ABDEA8F05EF9DF0705100BDE88F06EF9D4C
S113086AF0705100BDF68F07EF9DF0705100BDF492
S113087A8F08EF9DF0705100BDF28F09EF9DF0CD06
S113088AF10030C1EFB80030B8CDB802ADEAB8040F
S113089AADE8B806ADF6B808ADF4B80AADF2B80CCE
S11308AAADF0B80EFC065200FC4D4500300C00BFFA
S11308BA02EFECD50800A82644050061E8ECD50847
S11308CA00300C00BF02EFEC4B0A00EC4B0A00A804
S11308DA2644030061E8ECF40800AF02EFBDF0A679
S11308EAF0ADF0BF02EFEC1C0900A8264404006135
S11308FAE8EC090900300900BF02EFEC1C0900A862
S113090A2644070061E8EC1C0900F6BF02EFEC4B31
S113091A0A00EC4B0A00A82644030061E8EC3B09F0
S113092A00AF02EFBDF0A6F0ADF0BF02EFEC69092B
S113093A00A82644040061E8EC560900AF02EFBDA2
S113094AF0B6F0ADF0BF02EFEC690900A82644073F
S113095A0061E8EC690900F6BF02EFEC4B0A00EC0F
S113096A4B0A00A82644030061E8EC880900AF0298
S113097AEFBDF0A6F0ADF0BF02EFECB60900A82671
S113098A44040061E8ECA30900AF02EFBDF0B6F03D
S113099AADF0BF02EFECB60900A82644070061E8EF
S11309AAECB60900F6BF02EFEC4B0A00EC4B0A0066
S11309BAA82644030061E8ECD50900AF02EFBDF0B4
S11309CAA6F0ADF0BF02EFEC030A00A82644040027
S11309DA61E8ECF00900AF02EFBDF0B6F0ADF0BF8C
S11309EA02EFEC030A00A82644070061E8EC030AB4
S11309FA00F6BF02EFEC4B0A00EC4B0A00A82644AF
S1130A0A030061E8EC1C0A00300500BF02EFEC4A5F
S1130A1A0A00A82644040061E8EC370A00AF02EF92
S1130A2ABDF0B6F0ADF0BF02EFEC4A0A00A82644C6
S1130A3A070061E8EC4A0A00F6BF02EFEC4A0A0032
S1130A4A00AF02EFBDF044090061F8ECAF1400AD49
S1130A5AF044090071FF61F3ECF10A00ADF04404BB
S1130A6A0061F8EC870D00ADF044040071FF61F3F6
S1130A7AECBF0A00ADF044010061F8ECA90C00AD2A
S1130A8AF044010071FF61F3ECA50A00ADF04400E3
S1130A9A0061F8EC6D0B00EC651500ADF044020042
S1130AAA61F8EC020D00ADF044030061F8EC420D6C
S1130ABA00EC651500ADF044060061F8EC84120000
S1130ACAADF044060071FF61D8ECCB1100ADF044DF
S1130ADA070061F8EC3D1300ADF044080061F8EC3E
S1130AEAF61300EC651500ADF0440E0061F8EC1144
S1130AFA0F00ADF0440E0071FF61F3EC3B0B00AD47
S1130B0AF0440B0061F8EC020E00ADF0440B0071E6
S1130B1AFF61D8ECC20D00ADF0440C0061F8EC4C56
S1130B2A0E00ADF0440D0061F8EC960E00EC65156C
S1130B3A00ADF044100061F8EC5A1000ADF0441016
S1130B4A0071FF61D8EC8C0F00ADF044110061F81C
S1130B5AECD51000ADF044120061F8EC501100EC31
S1130B6A651500C9F004FFADF0BDF4FAF48B9DF2EB
S1130B7A5AF2FDADF0BDF6DAF68DF2480000C9F07E
S1130B8A04FFADF0BDF4FAF48B9DF25AF2FBADF01A
S1130B9ABDF6DAF68DF2480000C9F004FFADF0BDE7
S1130BAAF4FAF48B9DF25AF2F7ADF0BDF6DAF68D4B
S1130BBAF248000030E803B800FC271A0030E803C2
S1130BCAB800FC271A0030E803B800FC271A00FC16
S1130BDA2A4400FC2A44008FC0EF9DF0981DC9F0F6
S1130BEA04FFADF0BDF4FAF48B9DF25AF2FDADF0B8
S1130BFABDF6DAF68DF2480000C9F004FFADF0BD87
S1130C0AF4FAF48B9DF25AF2FBADF0BDF6DAF68DE6
S1130C1AF2480000C9F004FFADF0BDF4FAF48B9D6C
S1130C2AF26AF208ADF0BDF6DAF68DF24800003049
S1130C3AE803B800FC271A0030E803B800FC271AB6
S1130C4A0030E803B800FC271A00FC2A44008FF39A
S1130C5AEF9DF0981C881D705100BDF0313DBDF028
S1130C6A312DBDF2ADF006F2BDF2881C705100BD03
S1130C7AF001BDF0312DBDF4ADF006F4BDF03088BD
S1130C8AEFB80030D2CDB802ADF2B804ADF0B80670
S1130C9AFC065200E6B800FC114300EC651500514D
S1130CAA539F88EF51659F89EF51749F8AEF5120B2
S1130CBA9F8BEF51649F8CEF51619F8DEF51749F0D
S1130CCA8EEF51659F8FEF512F9F90EF51749F9133
S1130CDAEF51699F92EF516D9F93EF51659F94EF86
S1130CEA510D9F95EF510A9F96EFF597EFE6B800DD
S1130CFAFC114300EC65150051539F88EF51659F21
S1130D0A89EF51749F8AEF51209F8BEF51599F8C21
S1130D1AEF51659F8DEF51619F8EEF51729F8FEF57
S1130D2A510D9F90EF510A9F91EFF592EFE6B800AB
S1130D3AFC114300EC65150051539F88EF51659FE0
S1130D4A89EF51749F8AEF51209F8BEF514D9F8CED
S1130D5AEF516F9F8DEF516E9F8EEF51749F8FEFFE
S1130D6A51689F90EF510D9F91EF510A9F92EFF5B1
S1130D7A93EFE6B800FC114300EC65150051539F4C
S1130D8A88EF51659F89EF51749F8AEF51209F8B99
S1130D9AEF51449F8CEF51619F8DEF51799F8EEFF4
S1130DAA510D9F8FEF510A9F90EFF591EFE6B8002E
S1130DBAFC114300EC65150051539F88EF51659F60
S1130DCA89EF51749F8AEF51209F8BEF51489F8C72
S1130DDAEF516F9F8DEF51759F8EEF51729F8FEF79
S1130DEA510D9F90EF510A9F91EFF592EFE6B800EB
S1130DFAFC114300EC65150051539F88EF51659F20
S1130E0A89EF51749F8AEF51209F8BEF514D9F8C2C
S1130E1AEF51699F8DEF516E9F8EEF51759F8FEF42
S1130E2A51749F90EF51659F91EF510D9F92EF512D
S1130E3A0A9F93EFF594EFE6B800FC114300EC65C2
S1130E4A150051539F88EF51659F89EF51749F8A0A
S1130E5AEF51209F8BEF51539F8CEF51659F8DEF7C
S1130E6A51639F8EEF516F9F8FEF516E9F90EF5199
S1130E7A649F91EF510D9F92EF510A9F93EFF5945E
S1130E8AEFE6B800FC114300EC651500A8264404FB
S1130E9A0061E8ECBF0E008F04EF9DF0A4F08DF022
S1130EAA9F04EF9DF04AF06361E3ECEC0E00F50455
S1130EBAEFECEC0E00A82644030061E8ECEC0E000B
S1130ECA8F04EF9DF0D4F061E8ECE00E0051639FCB
S1130EDA04EFECEC0E008F04EF9DF0B4F08DF09F5C
S1130EEA04EF8F04EF9DF0CDF1003088EFB80030A5
S1130EFAECCDB802ADF0B804FC065200E6B800FC2A
S1130F0A114300EC651500A82644040061E8EC3A94
S1130F1A0F008F05EF9DF0A4F08DF09F05EF9DF073
S1130F2A4AF00C61E3EC670F00F505EFEC670F007C
S1130F3AA82644030061E8EC670F008F05EF9DF0D3
S1130F4AD4F061E8EC5B0F00510C9F05EFEC670FDE
S1130F5A008F05EF9DF0B4F08DF09F05EF8F05EF3C
S1130F6A9DF0CDF1003088EFB80030FBCDB802AD6A
S1130F7AF0B804FC065200E6B800FC114300EC6524
S1130F8A1500A82644040061E8EC081000511F98D3
S1130F9A10511C9811511F9812511E9813511F98E1
S1130FAA14511E9815511F9816511F9817511E98BF
S1130FBA18511F9819511E981A511F981B8F06EF22
S1130FCA9DF0A4F08DF09F06EF9DF48F05EF9DF040
S1130FDACDF100B6F0AEF8BDF6041000BDF206F08D
S1130FEABDF0BDF2FAF28B9DF08DF44BF061E3ECA7
S1130FFA041000F506EFEC351000EC351000A826B5
S113100A44030061E8EC3510008F06EF9DF0D4F03C
S113101A61E8EC291000510C9F06EFEC3510008FA3
S113102A06EF9DF0B4F08DF09F06EF8F06EF9DF06A
S113103ACDF1003088EFB8003007CEB802ADF0B871
S113104A04FC065200E6B800FC114300EC651500E6
S113105AA82644040061E8EC8310008F07EF9DF092
S113106AA4F08DF09F07EF9DF04AF01861E3ECB00D
S113107A1000F507EFECB01000A82644030061E85D
S113108AECB010008F07EF9DF0D4F061E8ECA410E7
S113109A0051189F07EFECB010008F07EF9DF0B4D2
S11310AAF08DF09F07EF8F07EF9DF0CDF1003088A8
S11310BAEFB8003011CEB802ADF0B804FC06520005
S11310CAE6B800FC114300EC651500A826440400A8
S11310DA61E8ECFE10008F08EF9DF0A4F08DF09FFC
S11310EA08EF9DF04AF03B61E3EC2B1100F508EFA1
S11310FAEC2B1100A82644030061E8EC2B11008FA5
S113110A08EF9DF0D4F061E8EC1F1100513B9F08F1
S113111AEFEC2B11008F08EF9DF0B4F08DF09F08CF
S113112AEF8F08EF9DF0CDF1003088EFB800301C46
S113113ACEB802ADF0B804FC065200E6B800FC11C1
S113114A4300EC651500A82644040061E8EC791113
S113115A008F09EF9DF0A4F08DF09F09EF9DF04AEE
S113116AF03B61E3ECA61100F509EFECA61100A827
S113117A2644030061E8ECA611008F09EF9DF0D420
S113118AF061E8EC9A1100513B9F09EFECA61100BB
S113119A8F09EF9DF0B4F08DF09F09EF8F09EF9D51
S11311AAF0CDF1003088EFB8003029CEB802ADF0A6
S11311BAB804FC065200E6B800FC114300EC6515BD
S11311CA0051539F88EF51779F89EF51699F8AEFA6
S11311DA51749F8BEF51639F8CEF51689F8DEF5130
S11311EA209F8EEF51739F8FEF51749F90EF51613F
S11311FA9F91EF51749F92EF51659F93EF51209FF6
S113120A94EF513D9F95EF51209F96EF51309F9750
S113121AEF510D9F98EF510A9F99EFF59AEFE6B8AF
S113122A00FC114300C9F004FFADF0BDF4FAF48BDD
S113123A9DF25AF2FDADF0BDF6DAF68DF2480000E1
S113124AC9F004FFADF0BDF4FAF48B9DF25AF2FB37
S113125AADF0BDF6DAF68DF2480000C9F004FFAD30
S113126AF0BDF4FAF48B9DF25AF2F7ADF0BDF6DA5A
S113127AF68DF2480000EC65150051539F88EF5132
S113128A779F89EF51699F8AEF51749F8BEF51635E
S113129A9F8CEF51689F8DEF51209F8EEF51739F62
S11312AA8FEF51749F90EF51619F91EF51749F9208
S11312BAEF51659F93EF51209F94EF513D9F95EF16
S11312CA51209F96EF51319F97EF510D9F98EF51FF
S11312DA0A9F99EFF59AEFE6B800FC114300C9F0AA
S11312EA04FFADF0BDF4FAF48B9DF25AF2FDADF0B1
S11312FABDF6DAF68DF2480000C9F004FFADF0BD80
S113130AF4FAF48B9DF25AF2FBADF0BDF6DAF68DDF
S113131AF2480000C9F004FFADF0BDF4FAF48B9D65
S113132AF26AF208ADF0BDF6DAF68DF2480000EC86
S113133A65150051539F88EF51779F89EF51699F33
S113134A8AEF51749F8BEF51639F8CEF51689F8D85
S113135AEF51209F8EEF51739F8FEF51749F90EF3F
S113136A51619F91EF51749F92EF51659F93EF5191
S113137A209F94EF513D9F95EF51209F96EF513254
S113138A9F97EF510D9F98EF510A9F99EFF59AEFA6
S113139AE6B800FC114300C9F004FFADF0BDF4FA4D
S11313AAF48B9DF26AF202ADF0BDF6DAF68DF248DC
S11313BA0000C9F004FFADF0BDF4FAF48B9DF25AB3
S11313CAF2FBADF0BDF6DAF68DF2480000C9F0047E
S11313DAFFADF0BDF4FAF48B9DF25AF2F7ADF0BD0D
S11313EAF6DAF68DF2480000EC65150051539F8831
S11313FAEF51779F89EF51699F8AEF51749F8BEF61
S113140A51639F8CEF51689F8DEF51209F8EEF514E
S113141A739F8FEF51749F90EF51619F91EF5174B5
S113142A9F92EF51659F93EF51209F94EF513D9FF7
S113143A95EF51209F96EF51339F97EF510D9F9847
S113144AEF510A9F99EFF59AEFE6B800FC114300B1
S113145AC9F004FFADF0BDF4FAF48B9DF25AF2FD23
S113146AADF0BDF6DAF68DF2480000C9F004FFAD1E
S113147AF0BDF4FAF48B9DF26AF204ADF0BDF6DA2B
S113148AF68DF2480000C9F004FFADF0BDF4FAF499
S113149A8B9DF25AF2F7ADF0BDF6DAF68DF24800FA
S11314AA00EC65150051539F88EF51779F89EF51DE
S11314BA699F8AEF51749F8BEF51639F8CEF516838
S11314CA9F8DEF51209F8EEF51739F8FEF51749F21
S11314DA90EF51619F91EF51749F92EF51659F93E1
S11314EAEF51209F94EF513D9F95EF51209F96EF26
S11314FA51349F97EF510D9F98EF510A9F99EFF539
S113150A9AEFE6B800FC114300C9F004FFADF0BD40
S113151AF4FAF48B9DF26AF202ADF0BDF6DAF68DB6
S113152AF2480000C9F004FFADF0BDF4FAF48B9D53
S113153AF26AF204ADF0BDF6DAF68DF2480000C99B
S113154AF004FFADF0BDF4FAF48B9DF25AF2F7AD54
S113155AF0BDF6DAF68DF248000000101E61EFC203
S113156AC061CFD72004A808BDF0B800A80ABDF00E
S113157AB802FCBC16004AF00161E8ECCC1500A8DC
S113158A0ABDF001BDF0041AEFBDF0BDF2FAF2ABE8
S113159ABDF0A1BDF2A80ABDF001BDF0041AEFBD69
S11315AAF0BDF4DAF4ADF2780000A80ABDF001BD8A
S11315BAF0040AEFBDF0BDF2DAF2F6780000EC0BA3
S11315CA1600A80ABDF001BDF0040AEFBDF0BDF48F
S11315DAFAF4ABBDF0A1BDF2A80ABDF001BDF00456
S11315EA0AEFBDF0BDF4DAF4ADF2780000A80ABD42
S11315FAF001BDF0041AEFBDF0BDF2DAF2F678009C
S113160A00A80ABDF001BDF0041AEFBDF0BDF4FA5A
S113161AF4ABBDF044E20461E3EC731600A80ABD1E
S113162AF001BDF0041AEFBDF0BDF2DAF230E304C2
S113163A780000A80ABDF001BDF0042AEFBDF0BD90
S113164AF4FAF4ABBDF044000061E8ECB71600A864
S113165A0ABDF001BDF0042AEFBDF0BDF2DAF2E6EC
S113166A780000E4F0ECB91600A80ABDF001BDF058
S113167A040AEFBDF0BDF4FAF4ABBDF044E2046130
S113168AE3ECB71600A80ABDF001BDF0042AEFBDC9
S113169AF0BDF2DAF2F6780000A80ABDF001BDF056
S11316AA040AEFBDF0BDF4DAF4F6780000F4F010A1
S11316BA04D7A806BDF044030061F8EC6C1700AD2A
S11316CAF044030071FF61F3ECFD1600ADF0440130
S11316DA0061F8EC401700ADF044010071FF61F3BA
S11316EAEC561700ADF044000061F8EC2F1700EC3B
S11316FAD71700ADF044050061F8EC981700ADF077
S113170A44050071FF61D8EC821700ADF04406006D
S113171A61F8ECAE1700ADF044070061F8ECC417A9
S113172A00ECD71700A804BDF0BDF2EAF2895C0107
S113173A9DF0ECDA1700A804BDF0BDF2FAF28B9D15
S113174AF0311A9DF05AF001ECDA1700A804BDF042
S113175ABDF2FAF28B9DF0312A9DF05AF001ECDACF
S113176A1700A804BDF0BDF2FAF28B9DF0313A9D40
S113177AF05AF001ECDA1700A804BDF0BDF2FAF24F
S113178A8B9DF0314A9DF05AF001ECDA1700A80457
S113179ABDF0BDF2FAF28B9DF0315A9DF05AF00178
S11317AAECDA1700A804BDF0BDF2FAF28B9DF03111
S11317BA6A9DF05AF001ECDA1700A804BDF0BDF2F4
S11317CAFAF28B9DF0317A9DF0ECDA1700CDF0FF36
S11317DAD72006880C314A9805880A9DF098008813
S11317EA059DF09802FC0C1800880C5C0F9805887B
S11317FA0A9DF0980088059DF09802FC0C180010C8
S113180A06D720028806D161F8EC341800C9F0071B
S113181AFFADF0BDF4FAF48B9DF26AF201ADF0DA91
S113182AF48DF2480000EC4D1800C9F007FFADF042
S113183ABDF4FAF48B9DF25AF2FEADF0DAF48DF2AD
S113184A480000C9F007FFADF0BDF4FAF48B9DF22D
S113185A5AF2FDADF0DAF48DF2480000C9F227FF1E
S113186AC9F027FFADF0BDF4FAF48B9DF05AF0F0FD
S113187AADF2BDF4DAF48DF0480000C9F007FFAD0B
S113188AF0BDF2FAF28B9DF05C0F9DF2880870515C
S113189A00BDF0314DBDF08DF26BF09DF09801C999
S11318AAF007FF88019DF2ADF0BDF4DAF48DF24839
S11318BA0000C9F007FFADF0BDF4FAF48B9DF26A9B
S11318CAF204ADF0DAF48DF24800000000000000E2
S11318DA00C9F007FFADF0BDF4FAF48B9DF25AF299
S11318EAFBADF0DAF48DF24800000000C9F007FFFE
S11318FAADF0BDF4FAF48B9DF26AF202ADF0DAF4BB
S113190A8DF24800001002D72004C9F0E6FFADF0BA
S113191ABDF4FAF48B9DF26AF210ADF0DAF48DF2AA
S113192A48000030983AB800FC271A00F198005190
S113193A039802FC0C1800300410B800FC271A00A3
S113194AF1980051039802FC0C1800306400B800A6
S113195AFC271A00F1980051039802FC0C18003075
S113196A2800B800FC271A00F1980051029802FCDA
S113197A0C1800302800B800FC271A00F19800510E
S113198A289802FCDB1700302800B800FC271A004C
S113199AF19800510E9802FCDB1700302800B800B9
S11319AAFC271A00F19800E19802FCDB1700306862
S11319BA06B800FC271A00F1980051069802FCDBCD
S11319CA1700302800B800FC271A00F1980051804B
S11319DA9802FCDB1700302800B800FC271A001014
S11319EA04D7C9F0E2FFADF0BDF4FAF48B9DF25AC4
S11319FAF2EFADF0DAF48DF2480000C9F218FFA84C
S1131A0A04BDF0ADF2BDF4DAF4ADF0780000C9F02B
S1131A1AB201ADF0BDF2DAF2E6780000D72002A8EE
S1131A2A06BDF0B800FCEC1900EC381A0000C9F045
S1131A3AE2FFADF0BDF2FAF28B9DF0314A9DF05A05
S1131A4AF00161F8EC371A00FC3935001002D7C9E5
S1131A5AF0F000ADF0BDF4FAF48B9DF26AF220AD19
S1131A6AF0DAF48DF2480000C9F030FFADF0BDF2AF
S1131A7ADAF2F1480000C9F0E7FFADF0BDF4FAF478
S1131A8A8B9DF26AF201ADF0DAF48DF2480000C9D6
S1131A9AF0E3FFADF0BDF4FAF48B9DF25AF2FEAD19
S1131AAAF0DAF48DF2480000C9F0EFFFADF0BDF4AE
S1131ABAFAF48B9DF26AF201ADF0DAF48DF2480081
S1131ACA00C9F0EBFFADF0BDF4FAF48B9DF26AF2B3
S1131ADA01ADF0DAF48DF2480000C9F222FFC9F030
S1131AEA22FFADF0BDF4FAF48B9DF06AF007ADF273
S1131AFABDF4DAF48DF0480000C9F030FFADF0BD52
S1131B0AF2DAF25108480000C9F032FFADF0BDF430
S1131B1ADAF45120480000C9F01000ADF0BDF2DA41
S1131B2AF2E1480000C9F01100ADF0BDF4DAF45155
S1131B3AFF480000C9F01200ADF0BDF2DAF2F14834
S1131B4A0000C9F031FFADF0BDF4DAF4F148000049
S1131B5AC9F030FFADF0BDF4FAF48B9DF26AF201DC
S1131B6AADF0DAF48DF2480000D7C9F0E3FFADF026
S1131B7ABDF4FAF48B9DF25AF2FEADF0DAF48DF26A
S1131B8A480000C9F0E7FFADF0BDF4FAF48B9DF20A
S1131B9A5AF2FEADF0DAF48DF2480000C9F030FFD3
S1131BAAADF0BDF4FAF48B9DF26AF280ADF0DAF48A
S1131BBA8DF2480000D7C9F030FFADF0BDF4FAF455
S1131BCA8B9DF25AF27FADF0DAF48DF2480000C927
S1131BDAF0E7FFADF0BDF4FAF48B9DF26AF201ADC1
S1131BEAF0DAF48DF2480000C9F0E3FFADF0BDF479
S1131BFAFAF48B9DF25AF2FEADF0DAF48DF2480053
S1131C0A00D7C9F030FFADF0BDF4FAF48B9DF26A47
S1131C1AF201ADF0DAF48DF2480000D7C9F030FFD2
S1131C2AADF0BDF4FAF48B9DF25AF2FEADF0DAF49B
S1131C3A8DF2480000D7C9F01FFFADF0BDF4FAF4E5
S1131C4A8B9DF2A804BDF0BDF4DAF48DF2480000CD
S1131C5AD761CFC1C3C5C7C6C4C2C061FC2002C90B
S1131C6AF0A0FFADF0BDF2DAF25110480000C9F05D
S1131C7AA1FFADF0BDF4FAF48B9DF26AF280ADF0E7
S1131C8ADAF48DF2480000C9F0A4FFADF0BDF4FA0D
S1131C9AF48B9DF25AF2EFADF0DAF48DF2480000BB
S1131CAAC9F0A1FFADF0BDF4FAF48B9DF25AF2BF6C
S1131CBAADF0DAF48DF2480000F6B800ECD51C0059
S1131CCA00A800BDF0A6F0ADF0B800A800BDF0442D
S1131CDAA00061E3ECCA1C00C9F0F300ADF0BDF248
S1131CEADAF2F1480000C9F0A4FFADF0BDF4FAF449
S1131CFA8B9DF25AF2BFADF0DAF48DF2480000C9B6
S1131D0AF0A1FFADF0BDF4FAF48B9DF25AF2FEADE8
S1131D1AF0DAF48DF24800001002D72002C9F0A8C4
S1131D2AFFADF0BDF2FAF28B9DF098011002D7C90B
S1131D3AF0F000ADF0BDF4FAF48B9DF26AF280ADD6
S1131D4AF0DAF48DF2480000C9F090FFADF0BDF26C
S1131D5ADAF2F6780000C9F0E7FFADF0BDF4FAF460
S1131D6A8B9DF26AF204ADF0DAF48DF2480000C9F0
S1131D7AF0E3FFADF0BDF4FAF48B9DF25AF2FBAD39
S1131D8AF0DAF48DF2480000C9F0EFFFADF0BDF4CB
S1131D9AFAF48B9DF25AF2FBADF0DAF48DF24800B4
S1131DAA00C9F0EBFFADF0BDF4FAF48B9DF26AF2D0
S1131DBA04ADF0DAF48DF2480000C9F090FFADF0FA
S1131DCABDF2DAF2302000780000D7C9F2E3FFADA1
S1131DDAF2BDF0FAF08B9DF45AF4FBADF2DAF08D11
S1131DEAF4480000C9F2E7FFADF2BDF0FAF08B9DAA
S1131DFAF45AF4FBADF2DAF08DF4480000C9F49019
S1131E0AFFC9F290FFADF2BDF0FAF0ABBDF28DF26C
S1131E1A6C009DF08DF36C809DF1ADF4BDF2DAF2A5
S1131E2AADF0780000D7C9F2E7FFADF2BDF0FAF0E1
S1131E3A8B9DF46AF404ADF2DAF08DF4480000C91B
S1131E4AF2E3FFADF2BDF0FAF08B9DF45AF4FBAD68
S1131E5AF2DAF08DF4480000C9F490FFC9F290FF59
S1131E6AADF2BDF0FAF0ABBDF28DF25CFF9DF08DE0
S1131E7AF35C7F9DF1ADF4BDF2DAF2ADF0780000C7
S1131E8AD761CFC1C3C5C761DFC161CFAFBCEFBDE5
S1131E9AF0A6F0ADF0BFBCEF8F3AEF9DF0A4F08D41
S1131EAAF09F3AEFAF3CEFBDF0A6F0ADF0BF3CEFC8
S1131EBAAFBCEFBDF044F30161E3ECCF1E00E5F4DF
S1131ECAEFF6BFBCEF8F3AEF9DF04AF06761E3EC9F
S1131EDAE31E00E5BAEFF53AEFAF3CEFBDF044E795
S1131EEA0361E3ECF81E00E5BFEFF6BF3CEF61DFE8
S1131EFAC061CFC6C4C2C061FCC9F001FFADF0BD68
S1131F0AF2DAF2F1480000C9F004FFADF0BDF2DAEA
S1131F1AF2F1480000C9F007FFADF0BDF2DAF2F1C0
S1131F2A480000C9F03000ADF0BDF2DAF2510848B9
S1131F3A0000C9F03400ADF0BDF2DAF2E148000065
S1131F4AC9F04000ADF0BDF2DAF25108480000C908
S1131F5AF04100ADF0BDF2DAF25140480000C9F098
S1131F6A21FFADF0BDF2DAF2515F480000C9F02456
S1131F7AFFADF0BDF2DAF251F1480000C9F025FFD5
S1131F8AADF0BDF2DAF251FF480000C9F027FFAD07
S1131F9AF0BDF2DAF2F1480000D7C9F0F000ADF072
S1131FAABDF4FAF48B9DF26AF280ADF0DAF48DF2A4
S1131FBA480000C9F09DFFADF0BDF4FAF48B9DF220
S1131FCA5AF27FADF0DAF48DF2480000C9F0E7FF67
S1131FDAADF0BDF4FAF48B9DF26AF202ADF0DAF4D4
S1131FEA8DF2480000C9F0E3FFADF0BDF4FAF48BBA
S1131FFA9DF25AF2FDADF0DAF48DF2480000C9F010
S113200AEFFFADF0BDF4FAF48B9DF26AF202ADF083
S113201ADAF48DF2480000C9F0EBFFADF0BDF4FA32
S113202AF48B9DF26AF202ADF0DAF48DF248000004
S113203AC9F09DFFADF0BDF2DAF25108480000C9BB
S113204AF092FFADF0BDF4DAF4F1480000C9F09360
S113205AFFADF0BDF2DAF2F1480000C9F094FFAD29
S113206AF0BDF4DAF4F1480000C9F095FFADF0BD13
S113207AF2DAF25102480000C9F096FFADF0BDF45D
S113208ADAF45111480000C9F097FFADF0BDF2DA55
S113209AF25104480000C9F098FFADF0BDF4DAF437
S11320AA5117480000D7C9F09DFFADF0BDF4FAF40A
S11320BA8B9DF26AF280ADF0DAF48DF2480000D713
S11320CAC9F09DFFADF0BDF4FAF48B9DF25AF27F8C
S11320DAADF0DAF48DF2480000D72006F6B804C948
S11320EAF29EFFC9F09EFFADF0BDF4FAF48B9DF0A9
S11320FA6AF001ADF2BDF4DAF48DF0480000F6B8E6
S113210A00F6B802EC21210000A800040100B8007E
S113211AA80261D8A1B802A802440000A80061F884
S113212A443F0161E3EC122100C9F09EFFADF0BD0A
S113213AF2FAF28B9DF0311A9DF05AF00161E8EC43
S113214A562100300300B804EC6C2200C9F092FF57
S113215AADF0BDF4FAF48B9DF2A80ABDF0BDF4DA31
S113216AF48DF2480000C9F093FFADF0BDF4FAF41F
S113217A8B9DF2A80ABDF0DAF08DF2480100C9F08D
S113218A94FFADF0BDF4FAF48B9DF2A80ABDF0DA1F
S113219AF08DF2480200C9F095FFADF0BDF4FAF4EF
S11321AA8B9DF2A80ABDF0DAF08DF2480400C9F05A
S11321BA96FFADF0BDF4FAF48B9DF2A80ABDF0DAED
S11321CAF08DF2480300C9F097FFADF0BDF4FAF4BC
S11321DA8B9DF2A80ABDF0DAF08DF2480500C9F029
S11321EA98FFADF0BDF4FAF48B9DF2A80ABDF0DABB
S11321FAF08DF2480600C9F29EFFC9F09EFFADF0C9
S113220ABDF4FAF48B9DF05AF0FEADF2BDF4DAF4A3
S113221A8DF0480000F6B800F6B802EC3822000047
S113222AA800040100B800A80261D8A1B802A80253
S113223A440000A80061F8443F0161E3EC2922004C
S113224AC9F09EFFADF0BDF2FAF28B9DF0311A9DF2
S113225AF05AF0014AF00161E8EC6C220030040003
S113226AB804A804BDF01006D72006F6B804C9F2CB
S113227A9EFFC9F09EFFADF0BDF4FAF48B9DF06A9F
S113228AF001ADF2BDF4DAF48DF0480000F6B800BE
S113229AF6B802ECB0220000A800040100B800A8B5
S11322AA0261D8A1B802A802440000A80061F84457
S11322BA3F0161E3ECA12200C9F09EFFADF0BDF23B
S11322CAFAF28B9DF0311A9DF05AF00161E8ECE5BF
S11322DA2200300300B804ECD62300C9F092FF8828
S11322EA0A9DF2ADF0BDF4DAF48DF2480000C9F0AB
S11322FA93FF880B9DF2ADF0BDF4DAF48DF2480039
S113230A00C9F094FF880C9DF2ADF0BDF4DAF48DA7
S113231AF2480000C9F095FF880E9DF2ADF0BDF4B5
S113232ADAF48DF2480000C9F096FF880D9DF2ADEB
S113233AF0BDF4DAF48DF2480000C9F097FF880F73
S113234A9DF2ADF0BDF4DAF48DF2480000C9F098BC
S113235AFF88109DF2ADF0BDF4DAF48DF248000066
S113236AC9F29EFFC9F09EFFADF0BDF4FAF48B9D4D
S113237AF05AF0FEADF2BDF4DAF48DF0480000F63E
S113238AB800F6B802ECA2230000A800040100B8C1
S113239A00A80261D8A1B802A802440000A80061FA
S11323AAF8443F0161E3EC932300C9F09EFFADF0CA
S11323BABDF2FAF28B9DF0311A9DF05AF0014AF0FF
S11323CA0161E8ECD62300300400B804A804BDF087
S11323DA1006D7C9F0F000ADF0BDF4FAF48B9DF203
S11323EA6AF204ADF0DAF48DF2480000000000004D
S11323FAC9F02601ADF0BDF2DAF23010007800001F
S113240AFC132400FC472900D761EFC161CFC9E856
S113241A2401C9F62401ADF6BDF0FAF0ABBDF68D80
S113242AF66C0C9DF48DF76C009DF5DAE8ADF47842
S113243A0000C9F4E6FFADF4BDF2FAF28B9DF66A28
S113244AF601ADF4BDF0DAF08DF6480000C9F4E205
S113245AFFADF4BDF2FAF28B9DF65AF6FEADF4BD69
S113246AF0DAF08DF6480000C9F4E6FFADF4BDF2E7
S113247AFAF28B9DF66AF602ADF4BDF0DAF08DF647
S113248A480000C9F4E2FFADF4BDF2FAF28B9DF6FE
S113249A5AF6FDADF4BDF0DAF08DF6480000C9F441
S11324AAE6FFADF4BDF2FAF28B9DF66AF604ADF4DA
S11324BABDF0DAF08DF6480000C9F4E2FFADF4BDD0
S11324CAF2FAF28B9DF65AF6FBADF4BDF0DAF08D12
S11324DAF6480000C9F4EEFFADF4BDF2FAF28B9DA2
S11324EAF66AF601ADF4BDF0DAF08DF6480000C9DB
S11324FAF4EAFFADF4BDF2FAF28B9DF66AF601AD89
S113250AF4BDF0DAF08DF6480000C9F4EEFFADF43C
S113251ABDF2FAF28B9DF66AF602ADF4BDF0DAF07A
S113252A8DF6480000C9F4EAFFADF4BDF2FAF28B65
S113253A9DF66AF602ADF4BDF0DAF08DF6480000B5
S113254AC9F41401ADF4BDF2DAF230228078000045
S113255AC9F41C01ADF4BDF0DAF0309780780000BC
S113256AC9F444FFADF4BDF2DAF23000CE780000CB
S113257AC9F67000C9F47000ADF4BDF0FAF08B9D91
S113258AF46AF404ADF6BDF2DAF28DF4480000C937
S113259AF40E01ADF4BDF0DAF0300700780000C99A
S11325AAF41601ADF4BDF2DAF2302281780000C9E2
S11325BAF41E01ADF4BDF0DAF0309740780000C99A
S11325CAF446FFADF4BDF2DAF23000CE780000C969
S11325DAF62801C9F42801ADF4BDF0FAF0ABBDF454
S11325EA8DF46C049DF28DF56C009DF3ADF6BDF48B
S11325FADAF4ADF2780000C9F43401C9F23401AD59
S113260AF2BDF0FAF0ABBDF2ADF4BDF0DAF0ADF222
S113261A780000C9F42A01C9F22A01ADF2BDF0FA20
S113262AF0ABBDF28DF26C049DF08DF36C009DF15C
S113263AADF4BDF2DAF2ADF0780000C9F26000C977
S113264AF06000ADF0BDF4FAF48B9DF05AF0F7ADEA
S113265AF2BDF4DAF48DF0480000C9F220FFC9F0A3
S113266A20FFADF0BDF4FAF48B9DF06AF008ADF2E8
S113267ABDF4DAF48DF0480000C9F26000C9F060D4
S113268A00ADF0BDF4FAF48B9DF05AF0FBADF2BD47
S113269AF4DAF48DF0480000C9F200FFC9F000FF33
S11326AAADF0BDF4FAF48B9DF06AF004ADF2BDF41A
S11326BADAF48DF0480000C9F220FFC9F020FFAD1A
S11326CAF0BDF4FAF48B9DF05AF0FBADF2BDF4DAE6
S11326DAF48DF048000061EFC061CFD761EFC161AA
S11326EACFC9E82801C9F62801ADF6BDF0FAF0AB66
S11326FABDF68DF66C049DF48DF76C009DF5DAE851
S113270AADF4780000C9F62A01C9F42A01ADF4BD72
S113271AF2FAF2ABBDF48DF46C049DF28DF56C0003
S113272A9DF3ADF6BDF4DAF4ADF2780000C9F422F3
S113273A01C9F22201ADF2BDF0FAF0ABBDF28DF29D
S113274A6C0C9DF08DF36C009DF1ADF4BDF2DAF2E0
S113275AADF0780000C9F0E2FFADF0BDF4FAF48BF5
S113276A9DF25AF2FEADF0DAF48DF2480000C9F097
S113277AE2FFADF0BDF4FAF48B9DF25AF2FDADF02E
S113278ADAF48DF2480000C9F0E6FFADF0BDF4FAC0
S113279AF48B9DF25AF2FEADF0DAF48DF2480000A1
S11327AAC9F0E6FFADF0BDF4FAF48B9DF25AF2FDDE
S11327BAADF0DAF48DF248000061EFC061CFD7C9F9
S11327CAF4E6FFADF4BDF0FAF08B9DF66AF601ADBE
S11327DAF4BDF2DAF28DF6480000C9F4E6FFADF46E
S11327EABDF0FAF08B9DF66AF602ADF4BDF2DAF2A8
S11327FA8DF6480000C9F62401C9F42401ADF4BDDC
S113280AF0FAF0ABBDF48DF46C0C9DF28DF56C000E
S113281A9DF3ADF6BDF4DAF4ADF2780000C9F42AFA
S113282A01C9F22A01ADF2BDF0FAF0ABBDF28DF2A4
S113283A5CFB9DF08DF35CFF9DF1ADF4BDF2DAF221
S113284AADF0780000C9F0E2FFADF0BDF4FAF48B04
S113285A9DF25AF2FEADF0DAF48DF2480000C9F0A6
S113286AE2FFADF0BDF4FAF48B9DF25AF2FDADF03D
S113287ADAF48DF2480000D72002F6B800A808441A
S113288A000061E8EC9B2800308100B800ECAD2818
S113289A00F6BF2CF0A808BDF0BF2AF0A806BDF0C8
S11328AABF30F0A800BDF01002D72002F6B800A885
S11328BA0844000061E8ECCD2800308100B800EC3F
S11328CA402900A806BDF0BF36F0A808BDF0BF3CF9
S11328DAF0C9F0E6FFADF0BDF4FAF48B9DF26AF2AA
S11328EA01ADF0DAF48DF2480000C9F244FFAF36C4
S11328FAF0BDF0BDF4FAF48B9DF0ADF2BDF4DAF458
S113290A8DF0480000AF36F0BDF0A6F0ADF0BF364A
S113291AF0AF3CF0BDF0B6F0ADF0BF3CF0C9F0E664
S113292AFFADF0BDF4FAF48B9DF25AF2FEADF0DA83
S113293AF48DF2480000A800BDF01002D761EFC17F
S113294AC361CFC9EA2401C9E82401FAE8ABBDE8A6
S113295A8DE86C019DF68DE96C009DF7DAEAADF617
S113296A780000C9F6E5FFADF6BDF0FAF08B9DE8F4
S113297A6AE820ADF6BDF2DAF28DE8480000C9F63D
S113298AE1FFADF6BDF4FAF48B9DE85AE8DFADF643
S113299ABDF0DAF08DE8480000C9F6EDFFADF6BDEA
S11329AAF2FAF28B9DE86AE820ADF6BDF4DAF48D0A
S11329BAE8480000C9F6E9FFADF6BDF0FAF08B9DD0
S11329CAE86AE820ADF6BDF2DAF28DE8480000C9FB
S11329DAF60801ADF6BDF4DAF4300300780000C954
S11329EAF61001ADF6BDF0DAF0302100780000C926
S11329FAF61801ADF6BDF2DAF23007F0780000C934
S1132A0AF610FFADF6BDF4DAF430003E780000C9E2
S1132A1AE82801C9F62801ADF6BDF0FAF0ABBDF617
S1132A2A8DF65CFF9DF48DF75CFE9DF5DAE8ADF456
S1132A3A780000C9F62801C9F42801ADF4BDF2FAF8
S1132A4AF2ABBDF48DF45CFE9DF28DF55CFF9DF353
S1132A5AADF6BDF4DAF4ADF2780000C9F42A01C97E
S1132A6AF22A01ADF2BDF0FAF0ABBDF28DF26C01BF
S1132A7A9DF08DF36C009DF1ADF4BDF2DAF2ADF088
S1132A8A780000C9F221FFC9F021FFADF0BDF4FAC4
S1132A9AF48B9DF06AF002ADF2BDF4DAF48DF048DD
S1132AAA0000C9F201FFC9F001FFADF0BDF4FAF468
S1132ABA8B9DF06AF004ADF2BDF4DAF48DF04800AF
S1132ACA00C9F221FFC9F021FFADF0BDF4FAF48B7D
S1132ADA9DF05AF0FBADF2BDF4DAF48DF048000033
S1132AEAC9F201FFC9F001FFADF0BDF4FAF48B9D00
S1132AFAF06AF001ADF2BDF4DAF48DF0480000C9D1
S1132B0AF221FFC9F021FFADF0BDF4FAF48B9DF078
S1132B1A5AF0FEADF2BDF4DAF48DF048000061EF2C
S1132B2AC2C061CFD761EFC1C361CFC9EA2801C965
S1132B3AE82801FAE8ABBDE88DE85CFF9DF68DE96B
S1132B4A5CFE9DF7DAEAADF6780000C9E82801C907
S1132B5AF62801ADF6BDF0FAF0ABBDF68DF65CFED3
S1132B6A9DF48DF75CFF9DF5DAE8ADF4780000C9B1
S1132B7AF62A01C9F42A01ADF4BDF2FAF2ABBDF4A6
S1132B8A8DF46C019DF28DF56C009DF3ADF6BDF4E8
S1132B9ADAF4ADF2780000C9F42201C9F22201ADD7
S1132BAAF2BDF0FAF0ABBDF28DF26C019DF08DF33B
S1132BBA6C009DF1ADF4BDF2DAF2ADF0780000C913
S1132BCAF0E1FFADF0BDF4FAF48B9DF25AF2DFADF9
S1132BDAF0DAF48DF2480000C9F0E5FFADF0BDF477
S1132BEAFAF48B9DF25AF2DFADF0DAF48DF2480072
S1132BFA0061EFC2C061CFD7C9F4E5FFADF4BDF0FF
S1132C0AFAF08B9DF66AF620ADF4BDF2DAF28DF68F
S1132C1A480000C9F62401C9F42401ADF4BDF0FA50
S1132C2AF0ABBDF48DF46C019DF28DF56C009DF34F
S1132C3AADF6BDF4DAF4ADF2780000C9F42A01C99C
S1132C4AF22A01ADF2BDF0FAF0ABBDF28DF25CFEF0
S1132C5A9DF08DF35CFF9DF1ADF4BDF2DAF2ADF0B7
S1132C6A780000C9F0E1FFADF0BDF4FAF48B9DF2EF
S1132C7A5AF2DFADF0DAF48DF2480000D72002F6FA
S1132C8AB800A80844000061E8ECA02C00308100D8
S1132C9AB800EC6A2D00A808BDF2BF3AF0A808BD36
S1132CAAF2BF2EF0A806BDF2BF3EF0A80ABDF2BFDD
S1132CBA38F0C9F41001C9F21001ADF2BDF0FAF00E
S1132CCAABBDF28DF26C019DF08DF36C009DF1ADFC
S1132CDAF4BDF2DAF2ADF0780000C9F0E5FFADF028
S1132CEABDF4FAF48B9DF26AF220ADF0DAF48DF2B7
S1132CFA480000AF3EF0BDF044000061F8EC362D08
S1132D0A00C9F210FFAF3EF0BDF0BDF4FAF48B9D9A
S1132D1AF0ADF2BDF4DAF48DF0480000AF3EF0BD38
S1132D2AF0A6F0ADF0BF3EF0EC452D00C9F010FF5F
S1132D3AADF0BDF2DAF251FF480000AF2EF0BDF05B
S1132D4AB6F0ADF0BF2EF0C9F0E5FFADF0BDF4FA70
S1132D5AF48B9DF25AF2DFADF0DAF48DF2480000FA
S1132D6AA800BDF01002D761CFC1C3C5C761DFC1D6
S1132D7AC3C5C761CF2004C9F00601ADF0BDF2FA9C
S1132D8AF2ABBDF08DF05C079803C9F20E0188031B
S1132D9A705100BDF0ADF2BDF4DAF4ADF078000084
S1132DAA8803D161F8ECBD2D0088039DF09800FCDE
S1132DBAB32E00C9F046FFADF0BDF2FAF28B9DF0D6
S1132DCA9802AF2AF0BDF2AF2CF0BDF0ADF246F096
S1132DDA61E3EC282E00AF30F0BDF088029DF2AD1D
S1132DEAF0BDF4DAF48DF2480000AF30F0BDF0A67D
S1132DFAF0ADF0BF30F0AF2CF0BDF0A6F0ADF0BFEF
S1132E0A2CF0AF2AF0BDF2AF2CF0BDF0ADF246F0D3
S1132E1A61E8EC352E00FCAA2E00EC352E0088025F
S1132E2A705100BDF0B800FCAE2E00100461DFC67C
S1132E3AC4C2C061CFC6C4C2C061FC61CFC1C3C52C
S1132E4AC761DFC1C3C5C761CFAF3CF0BDF0440061
S1132E5A0061F8EC982E00C9F244FFAF36F0BDF0D9
S1132E6ABDF4FAF48B9DF0ADF2BDF4DAF48DF048BA
S1132E7A0000AF36F0BDF0A6F0ADF0BF36F0AF3CBF
S1132E8AF0BDF0B6F0ADF0BF3CF0EC9C2E00FCAF08
S1132E9A2E0061DFC6C4C2C061CFC6C4C2C061FC11
S1132EAAE541F0D7D7E577F0D7D761CFC1C3C5C716
S1132EBA61DFC1C3C5C761EFC1C361CF2004C9F0D3
S1132ECA0001ADF0BDF4FAF4ABBDF08DF05C0198ED
S1132EDA03C9F408018803705100BDF0ADF4BDF6CE
S1132EEADAF6ADF078000088034C0161E8EC092FAA
S1132EFA0088039DF09800FC893000EC713000AF23
S1132F0A2EF0BDF044000061F8EC8E2F00AF3AF0C9
S1132F1ABDF0B1BDF2AF2EF0BDF0ADF246F061F8EE
S1132F2AEC572F00AF38F0BDF0C9F210FFADF2BD77
S1132F3AF4FAF48B9DF2ADF0BDF6DAF68DF24800A0
S1132F4A00AF38F0BDF0A6F0ADF0BF38F0C9F2100A
S1132F5AFFAF3EF0BDF0BDF4FAF48B9DF0ADF2BDC7
S1132F6AF6DAF68DF0480000AF3EF0BDF0A6F0ADFB
S1132F7AF0BF3EF0AF2EF0BDF0B6F0ADF0BF2EF0CC
S1132F8AEC713000C9F01001ADF0BDF2FAF2ABBD3C
S1132F9AF08DF05C019DF28DF15C009DF3ADF2447D
S1132FAA000061F8EC503000FC8A3000AF38F0BD04
S1132FBAF0C9F210FFADF2BDF4FAF48B9DF2ADF054
S1132FCABDF6DAF68DF2480000AF38F0BDF0A6F08F
S1132FDAADF0BF38F0C9F21001C9F01001ADF0BD6F
S1132FEAF4FAF4ABBDF08DF05CFE9DE88DF15CFF64
S1132FFA9DE9ADF2BDF6DAF6ADE8780000C9F00055
S113300A01ADF0BDF2FAF2ABBDF08DF05C409DEA81
S113301A8DF15C009DEBADEA44000061E8EC71308F
S113302A00AF38F0BDF0C9F210FFADF2BDF4FAF406
S113303A8B9DF2ADF0BDF6DAF68DF2480000FC8500
S113304A3000EC713000AF38F0BDF0C9F210FFADBA
S113305AF2BDF4FAF48B9DF2ADF0BDF6DAF68DF218
S113306A480000FC853000100461EFC2C061DFC66D
S113307AC4C2C061CFC6C4C2C061FCF500EFD7D7D1
S113308AF501EFD761EFC1C3C561CF2034C9F0F0B0
S113309A00ADF0BDF2FAF28B98316C019830ADF0C4
S11330AABDF4DAF48830480000C9F0B601ADF0BDC9
S11330BAF2DAF2300400780000C9F0B401ADF0BDD0
S11330CAF4DAF430FF0A780000C9F0E6FFADF0BD87
S11330DAF2FAF28B982F6C10982EADF0BDF4DAF454
S11330EA882E480000C9F0E2FFADF0BDF2FAF28B77
S11330FA982D5CEF982CADF0BDF4DAF4882C4800D6
S113310A00C9F0E6FFADF0BDF2FAF28B982B6C2001
S113311A982AADF0BDF4DAF4882A480000C9F0E22E
S113312AFFADF0BDF2FAF28B98295CDF9828ADF076
S113313ABDF4DAF48828480000C9F0E5FFADF0BD13
S113314AF2FAF28B98276C809826ADF0BDF4DAF483
S113315A8826480000C9F0E1FFADF0BDF2FAF28B0F
S113316A98255C7F9824ADF0BDF4DAF488244800ED
S113317A00C9F0E6FFADF0BDF2FAF28B98236C4079
S113318A9822ADF0BDF4DAF48822480000C9F0E2CE
S113319AFFADF0BDF2FAF28B98215CBF9820ADF036
S11331AABDF4DAF48820480000C9F0E6FFADF0BDAA
S11331BAF2FAF28B981F6C80981EADF0BDF4DAF423
S11331CA881E480000C9F0E2FFADF0BDF2FAF28BA6
S11331DA981D5C7F981CADF0BDF4DAF4881C480095
S11331EA00C9F0E6FFADF0BDF2FAF28B981B6C044D
S11331FA981AADF0BDF4DAF4881A480000C9F0E26E
S113320AFFADF0BDF2FAF28B98195CFB9818ADF099
S113321ABDF4DAF48818480000C9F0E7FFADF0BD40
S113322AF2FAF28B98176C809816ADF0BDF4DAF4C2
S113323A8816480000C9F0E3FFADF0BDF2FAF28B3C
S113324A98155C7F9814ADF0BDF4DAF4881448003C
S113325A00C9F0D4FFADF0BDF2FAF28B98136C01F9
S113326A9812ADF0BDF4DAF48812480000C9F0D01F
S113327AFFADF0BDF2FAF28B98115CFE9810ADF036
S113328ABDF4DAF48810480000C9F0D4FFADF0BDEB
S113329AF2FAF28B980F6C02980EADF0BDF4DAF4E0
S11332AA880E480000C9F0D0FFADF0BDF2FAF28BE7
S11332BA980D5CFD980CADF0BDF4DAF4880C480066
S11332CA00C9F0D4FFADF0BDF2FAF28B980B6C048E
S11332DA980AADF0BDF4DAF4880A480000C9F0D0BF
S11332EAFFADF0BDF2FAF28B98095CFB9808ADF0D9
S11332FABDF4DAF48808480000C9F0EEFFADF0BD69
S113330AF2FAF28B98075CEF9806ADF0BDF4DAF4A2
S113331A8806480000C9F0EAFFADF0BDF2FAF28B64
S113332A98055CEF9804ADF0BDF4DAF4880448001B
S113333A00C9F0EEFFADF0BDF2FAF28B98036C20EF
S113334A9802ADF0BDF4DAF48802480000C9F0EA44
S113335AFFADF0BDF2FAF28B98016C209800ADF043
S113336ABDF4DAF48800480000C9F09001ADF0BD5C
S113337AF2DAF2F6780000C9F018FFADF0BDF4DA1B
S113338AF430FFF978000030B801B832C9F0B80156
S113339AADF0BDF2FAF2ABBDF08DF05CFE9DEC8DA2
S11333AAF15CFF9DEDA832BDF4DAF4ADEC780000CF
S11333BAC9ECBA01C9F0BA01ADF0BDF2FAF2ABBD7B
S11333CAF08DF05CFE9DEA8DF15CFF9DEBDAECADCD
S11333DAEA780000C9F09201ADF0BDF4DAF43006DF
S11333EA90780000C9F01AFFADF0BDF2DAF230FFAE
S11333FA0F780000C9EABE01C9F0BE01ADF0BDF400
S113340AFAF4ABBDF08DF05CFD9DE88DF15CFF9D97
S113341AE9DAEAADE8780000C9E8BC01C9F0BC0100
S113342AADF0BDF2FAF2ABBDF08DF05CFD9DF68D08
S113343AF15CFF9DF7DAE8ADF6780000C9F6B80149
S113344AC9F0B801ADF0BDF4FAF4ABBDF08DF05C8F
S113345AFD9DF48DF15CFF9DF5ADF6BDF0DAF0AD9E
S113346AF4780000C9F4BA01C9F0BA01ADF0BDF2AA
S113347AFAF2ABBDF08DF05CFD9DF28DF15CFF9D1F
S113348AF3ADF4BDF0DAF0ADF2780000C9F27100E0
S113349AC9F07100ADF0BDF4FAF48B9DF05AF0FD59
S11334AAADF2BDF4DAF48DF0480000C9F221FFC987
S11334BAF021FFADF0BDF4FAF48B9DF06AF040AD53
S11334CAF2BDF4DAF48DF0480000103461EFC4C29E
S11334DAC061CFD7C9F2E2FFADF2BDF0FAF08B9D1D
S11334EAF45AF4EFADF2DAF08DF4480000C9F2E6CA
S11334FAFFADF2BDF0FAF08B9DF45AF4EFADF2DAB7
S113350AF08DF4480000C9F4B201C9F2B201ADF277
S113351ABDF0FAF0ABBDF28DF26C019DF08DF36C47
S113352A009DF1ADF4BDF2DAF2ADF0780000D7C92E
S113353AF4B401C9F2B401ADF2BDF0FAF0ABBDF2D4
S113354A8DF26C019DF08DF36C009DF1ADF4BDF22A
S113355ADAF2ADF0780000C9F0E6FFADF0BDF4FA96
S113356AF48B9DF26AF210ADF0DAF48DF2480000A1
S113357AC9F0E2FFADF0BDF4FAF48B9DF25AF2EF12
S113358AADF0DAF48DF2480000D7C9F2E2FFADF2E9
S113359ABDF0FAF08B9DF45AF4DFADF2DAF08DF453
S11335AA480000C9F2E6FFADF2BDF0FAF08B9DF4D3
S11335BA5AF4DFADF2DAF08DF4480000C9F4B2012E
S11335CAC9F2B201ADF2BDF0FAF0ABBDF28DF26C04
S11335DA029DF08DF36C009DF1ADF4BDF2DAF2AD0B
S11335EAF0780000D7C9F4B401C9F2B401ADF2BD50
S11335FAF0FAF0ABBDF28DF26C029DF08DF36C0023
S113360A9DF1ADF4BDF2DAF2ADF0780000C9F0E64E
S113361AFFADF0BDF4FAF48B9DF26AF220ADF0DA54
S113362AF48DF2480000C9F0E2FFADF0BDF4FAF4FB
S113363A8B9DF25AF2DFADF0DAF48DF2480000D72E
S113364A61CFC1C3C5C7E6BFF6EFC6C4C2C061FC39
S113365A61CFC1C3C5C7C6C4C2C061FC61CFC1C3FF
S113366AC5C7C6C4C2C061FCC9F07700ADF0BDF2DB
S113367ADAF2F1480000FC251D00FC671C00FC037B
S113368A1F00FCDD2300FC591A00FC8E3000FCA448
S113369A1F00FC391D00C9F07800ADF0BDF2DAF262
S11336AAF1480000D72002717BFAFC723600E6B8B2
S11336BA00BDF01002D7200EFC713800FC13240060
S11336CAFCE62600FC391D00FCD51D00FCA41F00E5
S11336DAFCB02000FC8E3000FC943500FC47290025
S11336EAFC2F2B00C9F001FFADF0BDF4FAF48B9D59
S11336FAF26AF220ADF0DAF48DF2480000FC1219F5
S113370A0051509F88EF516F9F89EF51749F8AEF40
S113371A51619F8BEF51749F8CEF516F9F8DEF51C5
S113372A209F8EEF514F9F8FEF51539F90EF51205F
S113373A9F91EF51339F92EF512E9F93EF51309FF8
S113374A94EF510D9F95EF510A9F96EFF597EFE687
S113375AB800FC114300305765B804306C63B806EE
S113376A306F6DB80830650DB80A300A00B80CC954
S113377AF00E00AEF8BDF0040E00BDF004F6FFB87A
S113378A00300900B802FCB428003042F0B800E660
S113379AB802FC822800ADF0BF78F0FC0C1C0000D3
S11337AAC9F030FFADF0BDF2FAF28B9DF0317A9D8B
S11337BAF0D4F061E8ECAA37003005FFB800300510
S11337CA00B802FC6E1500D4F061F8ECE237003060
S11337DA0500B800FCDA00003005FFB80030040028
S11337EAB802FC6E1500D4F061F8EC01380030031D
S11337FA00B800FCDA00003005FFB800300300B856
S113380A02FC6E1500D4F061F8EC20380030040094
S113381AB800FCDA00003005FFB800300200B80234
S113382AFC6E1500D4F061F8EC3D3800E6B800FCF3
S113383ADA0000FC8349008F41F09DF0D4F061F86E
S113384AEC6D3800F541F08F42F09DF09800FCD5FC
S113385A38003042F0B800E6B802FC822800ADF025
S113386ABF78F0ECA53700717AFAD77738CBF8DC51
S113387AFE410061CF34D8003600EF61DF3600EF35
S113388A3002EF27311E440000DD0EB161CF11A9C9
S113389ABBA5A5A7A761DFEFED61CF3602EF300024
S11338AA0061DF30AEF027311E440000DD0AB16149
S11338BACFBBA7A761DFEFF161CFFCAF36000030C1
S11338CA0000C1C1C1FCC03600EFFE200488084CC8
S11338DA2461E8ECFF3800AF42EFBDF088089DF29E
S11338EADAF048C1EFAF42EFBDF0A6F0ADF0BF4247
S11338FAEFECB8390088084C0A61E8EC623900AF89
S113390A42EFBDF0B6F0ADF004C1EF168B9DF04A5C
S113391AF00D61E8EC4F3900AF40EFBDF044000010
S113392A61E8EC4F3900AF42EFBDF088089DF2DA46
S113393AF048C1EFAF42EFBDF0A6F0DAF0F148C1AA
S113394AEFFCBF3900F4F08DF09FC1EFF6BF42EFF0
S113395AF6BF40EFECB83900AF40EFBDF0440000C9
S113396A61E8ECB83900AF42EFBDF044000061E809
S113397AEC9E390088084C2461F8EC9E39003038F2
S113398ACEB800300700B802FCB42800E6BF40EF06
S113399AECB83900AF42EFBDF088089DF2DAF0487E
S11339AAC1EFAF42EFBDF0A6F0ADF0BF42EF880819
S11339BA9DF01004D761EFC1C361CF203C300200EF
S11339CAB83AFCA94200ADF044000061F8EC8A421E
S11339DA008FC2EF9DF0CDF100ADF044440061F8D0
S11339EAECFE3B00ADF044440071FF61F3EC543A41
S11339FA00ADF044320061F8EC7C3B00ADF0443297
S1133A0A0071FF61F3EC2D3A00ADF044300061F827
S1133A1AECBA3A00ADF044310061F8EC1B3B00EC1F
S1133A2A6A4200ADF044420061F8ECEF3F00ADF0A9
S1133A3A44420071FF61F3ECF73F00ADF0443300F8
S1133A4A61F8ECB03B00EC6A4200ADF0444B006113
S1133A5AF8EC964000ADF0444B0071FF61F3EC932F
S1133A6A3A00ADF044490061F8EC6D4000ADF04411
S1133A7A490071FF61F3EC7E4100ADF044450061F9
S1133A8AF8EC723F00EC6A4200ADF0444D0061F874
S1133A9AECDC4100ADF0444D0071FF61D8EC9A3C76
S1133AAA00ADF0444E0061F8EC3A4200EC6A420080
S1133ABAAF78EFBDF044010061E8ECD43A0051302C
S1133ACA982FF6BF78EFECD83A005133982F510D5E
S1133ADA9830510A983151249F46EF51309F47EF4D
S1133AEAF548EF3046EFB800C9F03C00AEF8BDF037
S1133AFA043C00BDF004F3FFB802FC335200300763
S1133B0A00B800FCDA0000300500BF42EFEC8A423C
S1133B1A00AF78EFBDF044000061E8EC353B00519A
S1133B2A30982FE6BF78EFEC393B005133982F5188
S1133B3A0D9830510A983151249F46EF51319F47CD
S1133B4AEFF548EF3046EFB800C9F23C00AEF8BDD5
S1133B5AF2043C00BDF204F3FFB802FC3352003015
S1133B6A0600B800FCDA0000300500BF42EFEC8A18
S1133B7A420030F8EFB80030C3EFB802FC815200BB
S1133B8A51249F46EF51329F47EF51309F48EF51DE
S1133B9A0D9F49EF510A9F4AEFF54BEF300500BFDD
S1133BAA42EFEC8A420051249F46EF51339F47EF7C
S1133BBA51309F48EF51319F49EF51399F4AEF5194
S1133BCA319F4BEF51319F4CEF51399F4DEF51309B
S1133BDA9F4EEF51339F4FEF51389F50EF510D9F36
S1133BEA51EF510A9F52EFF553EF300D00BF42EFE8
S1133BFAEC8A420030F8EFB800FCA85200ADF04459
S1133C0A200061F3EC4D3C0051249F46EF51449F40
S1133C1A47EF51309F48EF510D9F49EF510A9F4A90
S1133C2AEFF54BEF300500BF42EF3088EFB80030B4
S1133C3AF8EFB802FC815200E6B800FC114300EC2C
S1133C4A8A4200F19800E19802FCDB17003068060A
S1133C5AB800FC271A00F1980051809802FCDB177F
S1133C6A00306806B800FC271A0051249F46EF5119
S1133C7A449F47EF51339F48EF510D9F49EF510A33
S1133C8A9F4AEFF54BEF300500BF42EFEC8A420042
S1133C9A8FC3EF9DF04AF03061E8EC223D00C9F091
S1133CAA04FFADF0BDF4FAF48B9DF25AF2FDADF0C7
S1133CBABDF6DAF68DF2480000C9F004FFADF0BD96
S1133CCAF4FAF48B9DF25AF2FBADF0BDF6DAF68DF6
S1133CDAF2480000C9F004FFADF0BDF4FAF48B9D7C
S1133CEAF25AF2F7ADF0BDF6DAF68DF2480000F5B5
S1133CFA7EEF51249F46EF514C9F47EF51309F4826
S1133D0AEF510D9F49EF510A9F4AEFF54BEF3005EA
S1133D1A00BF42EFEC6E3F008FC3EF9DF04AF031D3
S1133D2A61E8ECAA3D00C9F004FFADF0BDF4FAF471
S1133D3A8B9DF25AF2FDADF0BDF6DAF68DF248002B
S1133D4A00C9F004FFADF0BDF4FAF48B9DF25AF207
S1133D5AFBADF0BDF6DAF68DF2480000C9F004FFB7
S1133D6AADF0BDF4FAF48B9DF26AF208ADF0BDF63B
S1133D7ADAF68DF2480000E57EEF51249F46EF51B2
S1133D8A4C9F47EF51309F48EF510D9F49EF510A1D
S1133D9A9F4AEFF54BEF300500BF42EFEC6E3F0050
S1133DAA8FC3EF9DF04AF03261E8EC343E00C9F06B
S1133DBA04FFADF0BDF4FAF48B9DF26AF202ADF0A1
S1133DCABDF6DAF68DF2480000C9F004FFADF0BD85
S1133DDAF4FAF48B9DF25AF2FBADF0BDF6DAF68DE5
S1133DEAF2480000C9F004FFADF0BDF4FAF48B9D6B
S1133DFAF25AF2F7ADF0BDF6DAF68DF24800005148
S1133E0A029F7EEF51249F46EF514C9F47EF51305A
S1133E1A9F48EF510D9F49EF510A9F4AEFF54BEF27
S1133E2A300500BF42EFEC6E3F008FC3EF9DF04AAE
S1133E3AF03361E8ECBE3E00C9F004FFADF0BDF416
S1133E4AFAF48B9DF25AF2FDADF0BDF6DAF68DF274
S1133E5A480000C9F004FFADF0BDF4FAF48B9DF2FA
S1133E6A6AF204ADF0BDF6DAF68DF2480000C9F044
S1133E7A04FFADF0BDF4FAF48B9DF25AF2F7ADF0FB
S1133E8ABDF6DAF68DF248000051039F7EEF512405
S1133E9A9F46EF514C9F47EF51309F48EF510D9F7A
S1133EAA49EF510A9F4AEFF54BEF300500BF42EF45
S1133EBAEC6E3F008FC3EF9DF04AF03461E8EC48A2
S1133ECA3F00C9F004FFADF0BDF4FAF48B9DF26A29
S1133EDAF202ADF0BDF6DAF68DF2480000C9F0043C
S1133EEAFFADF0BDF4FAF48B9DF26AF204ADF0BDB5
S1133EFAF6DAF68DF2480000C9F004FFADF0BDF41D
S1133F0AFAF48B9DF25AF2F7ADF0BDF6DAF68DF2B9
S1133F1A48000051049F7EEF51249F46EF514C9F65
S1133F2A47EF51309F48EF510D9F49EF510A9F4A7D
S1133F3AEFF54BEF300500BF42EFEC6E3F00512422
S1133F4A9F46EF514C9F47EF51329F48EF510D9FC7
S1133F5A49EF510A9F4AEFF54BEF300500BF42EF94
S1133F6AEC8A4200EC8A42008FC0EF9DF070510047
S1133F7ABDF48FF3EF9DF0705100BDF28FBEEF9D3B
S1133F8AF0CDF100C9F63C00AEF8BDF6043C00BD24
S1133F9AF604D5FFB8003040CEB802ADF4B804AD8B
S1133FAAF2B806ADF0B808FC0652003046EFB80085
S1133FBAC9F03C00AEF8BDF0043C00BDF004D5FFE6
S1133FCAB802FC815200C9F23C00AEF8BDF2043CCE
S1133FDA00BDF204D5FFB800FCA85200ADF0BF4200
S1133FEAEFEC8A4200FC4D4500EC8A4200FC86470D
S1133FFA008F82EF9DF0705100BDEA8F83EF9DF030
S113400A705100BDE88F84EF9DF0705100BDF68FAA
S113401A85EF9DF0705100BDF48F86EF9DF07051CD
S113402A00BDF28F87EF9DF0CDF1003046EFB80066
S113403A3053CEB802ADEAB804ADE8B806ADF6B866
S113404A08ADF4B80AADF2B80CADF0B80EFC0652DD
S113405A003046EFB800FCA85200ADF0BF42EFECC6
S113406A8A4200AF44EFBDF03046EFB800306CCE60
S113407AB802ADF0B804FC0652003046EFB800FCB2
S113408AA85200ADF0BF42EFEC8A4200F6B838F10C
S113409A9837ECD24000A838BDF001BDF0312DBDEF
S11340AAF2ADF006F2B838A83A04C1EFBDF0BDF497
S11340BAFAF48B9DF0CDF100A83806F0BDF004D0D7
S11340CAFFB838A83AA1B83AA83A04C1EFBDF0BD7E
S11340DAF6FAF68B9DF04AF02C61E8ECA04000A8B1
S11340EA3AA1B83AEC23410088379DF061019DF06A
S11340FA31299DF1768DF0610E9837A83A04C1EF03
S113410ABDF0BDF2FAF28B9DF0768837610E9DF010
S113411A0CD09837A83AA1B83AA83A04C1EFBDF02E
S113412ABDF4FAF48B9DF04AF00D61E8ECF240001C
S113413A88374C2061E3EC6A4100300500BF42EF46
S113414A51249F46EF514B9F47EF51329F48EF51FD
S113415A0D9F49EF510A9F4AEFF54BEFEC8A420053
S113416AA838BDF0B80088379DF09802FC3D4F008E
S113417AEC8A4200F6B834ECB74100A834BDF00129
S113418ABDF0312DBDF2ADF006F2B834A83A04C13F
S113419AEFBDF0BDF6FAF68B9DF0CDF100A834061A
S11341AAF0BDF004D0FFB834A83AA1B83AA83A044A
S11341BAC1EFBDF0BDF2FAF28B9DF04AF00D61E851
S11341CAEC854100A834BDF0B800FC564B00EC8ADB
S11341DA4200F6B832EC154200A832BDF001BDF037
S11341EA312DBDF2ADF006F2B832A83A04C1EFBDE2
S11341FAF0BDF4FAF48B9DF0CDF100A83206F0BDBF
S113420AF004D0FFB832A83AA1B83AA83A04C1EFE8
S113421ABDF0BDF6FAF68B9DF04AF00D61E8ECE3C9
S113422A4100A832BDF0B800FC575000EC8A4200A5
S113423ACDF01E8DF0705100BDF2CDF01ACDF10013
S113424A3046EFB8003076CEB802ADF2B804ADF01D
S113425AB806FC065200300900BF42EFEC8A42005D
S113426A8FC2EF9DF0CDF1003046EFB8003081CE19
S113427AB802ADF0B804FC065200300500BF42EFA4
S113428AAF42EFBDF03046EFB800ADF0B802FCB46F
S113429A2800F6BF42EF103C61EFC2C061CFD720BD
S11342AA0C30C1EFB800FCA85200B6F0ADF004C15E
S11342BAEF168B9DF04AF00A61F8EC07430051248B
S11342CA98078FC2EF9DF0980851329809510D98BA
S11342DA0A510A980B30C1EFB800C9F00C00AEF8C5
S11342EABDF0040C00BDF004FBFFB802FC815200CF
S11342FA300500BF42EFF6B804EC0A4300E6B804FE
S113430AA804BDF0100CD761EFC161CF2006A80C38
S113431A44000061F8EC2F4300F6BF7CEFE6BF7A55
S113432AEFF6BFBCEFAF7AEFBDF044000061F8ECE2
S113433AE94300F19800E19802FCDB1700306806B3
S113434AB800FC271A00F1980051809802FCDB1788
S113435A00306806B800FC271A00AF7CEFBDF0B83D
S113436A04ECC24300AF7CEFBDF0040800BDF2A820
S113437A04BDF0ADF246F061E8EC9B4300F198000D
S113438A51C09802FCDB1700306806B800FC271AF3
S113439A00A8040488EFBDF0BDF2FAF28B9DF0E1A7
S11343AA98008DF09802FCDB1700302800B800FC56
S11343BA271A00A804A1B804A804BDE83088EFB8F5
S11343CA00FCA85200B6F0B6F0ADE846F061D8ECAD
S11343DA6F4300AF7CEFBDF0A6F0ADF0BF7CEFAF4A
S11343EA7CEFBDF0BDE83088EFB800FCA85200AD00
S11343FAF004EFFFBDF0ADE846F061C8EC1E4400DE
S113440A3088EFB800FCA85200ADF044120061F302
S113441AEC224400F6BF7AEF100661EFC061CFD7F1
S113442A2002C9F031FFADF0BDF2DAF2F148000022
S113443AFC741B0000C9F030FFADF0BDF2FAF28B38
S113444A9DF0317A9DF0D4F061E8EC3F4400FC74AD
S113445A1B0000C9F030FFADF0BDF2FAF28B9DF0FB
S113446A317A9DF0D4F061E8EC5D440030C0EFB8D5
S113447A00FC401C008FC0EF9DF0311A9DF09FC0D4
S113448AEFC9F031FFADF0BDF2DAF2E1480000FC09
S113449A741B0000C9F030FFADF0BDF2FAF28B9D37
S11344AAF0317A9DF0D4F061E8EC9E4400FC741B70
S11344BA0000C9F030FFADF0BDF2FAF28B9DF03185
S11344CA7A9DF0D4F061E8ECBC440030BEEFB80049
S11344DAFC401C008FBEEF9DF0312A9DF09FBEEF79
S11344EAC9F031FFADF0BDF2DAF25102480000FC26
S11344FA741B0000C9F030FFADF0BDF2FAF28B9DD7
S113450AF0317A9DF0D4F061E8ECFE4400FC741BAF
S113451A0000C9F030FFADF0BDF2FAF28B9DF03124
S113452A7A9DF0D4F061E8EC1C450030F3EFB80052
S113453AFC401C008FF3EF9DF0312A9DF09FF3EFAE
S113454A1002D7201EF19813F19814F19815F198D6
S113455A16F19817F19818F582EFF583EFF584EFC1
S113456AF585EFF586EFF587EF5104981DF6B81A2D
S113457AEC9E4600AEF8BDF2041300BDF0A81A067C
S113458AF0BDF0BDF4FAF48B9DF2881D705100BDA4
S113459AF004C1EF168B9DF0768DF2610E9DF00C3E
S11345AAD09DF2AEF8BDF4041300BDF0A81A06F0CB
S11345BABDF0BDF4DAF48DF2480000A81A0482EFC3
S11345CABDF0BDF4FAF48B9DF2881D705100BDF064
S11345DA04C1EF168B9DF0768DF2610E9DF00CD01E
S11345EA9DF2A81A0482EFBDF0BDF4DAF48DF24804
S11345FA0000881D9DF081981D705100BDF004C112
S113460AEF168B9DF04AF02C61E8EC284600A81AB4
S113461AA1B81A881D9DF081981DEC9E4600881D3C
S113462A705100BDF004C1EF168B9DF04AF00D6184
S113463AF8EC9E4600AEF8BDF2041300BDF0A81AC9
S113464A06F0BDF0BDF4FAF48B9DF031499DF2AE4B
S113465AF8BDF4041300BDF0A81A06F0BDF0BDF4C9
S113466ADAF48DF2480000A81A0482EFBDF0BDF214
S113467AFAF28B9DF061019DF031299DF1768DF05E
S113468A610E9DF2A81A0482EFBDF0BDF4DAF48D2E
S113469AF2480000881D705100BDF004C1EF168B6A
S11346AA9DF04AF00D61E8EC7E45003082EFB800D7
S11346BAFC4B4800D4F061F8EC2A470088139DF0BB
S11346CA981288149DF0981188159DF0980F8816F1
S11346DA9DF0980E88179DF0980D88189DF0980CF7
S11346EA5105981D51249F46EF51429F47EF51307F
S11346FA9F48EF510D9F49EF510A9F4AEFF54BEF3F
S113470AA80CBDF0B800A80EBDF0B802A810BDF000
S113471AB80488129DF09806FC732200EC834700C3
S113472AF19819AEF8BDF2040800BDF0BDF4DAF44C
S113473A302442780000DAF030320D780200300A70
S113474A00780400C9F01E00AEF8BDF0041E00BDD6
S113475AF004EAFFB800FCA852008DF0981D304618
S113476AEFB800C9F21E00AEF8BDF2041E00BDF295
S113477A04EAFFB802FC815200101ED7200AC9F0CD
S113478A0A00AEF8BDF0040A00BDF004F9FFB8004F
S113479AFCE4200088099DF09F82EF88089DF09F21
S11347AA83EF88069DF09F84EF88059DF09F85EF2F
S11347BA88049DF09F86EF88039DF09F87EF3082DF
S11347CAEFB800FCD44700100AD72004F6B802EC6C
S11347DA3B4800A802BDF0A80806F0BDF0BDF2FAF5
S11347EAF28B9DF05C0F9801A802BDF0A80806F0B0
S11347FABDF0BDF4FAF48B9DF0314A9800A802BDCD
S113480AF0A80806F0BDF288009DF061019DF03120
S113481A299DF1768DF0610E9DF0768801610E9DD9
S113482AF0ADF2BDF4DAF48DF0480000A802A1B8A4
S113483A02A80244050071FF61E3ECDD470010049D
S113484AD72018301F00B800301C00B802301F00EF
S113485AB804301E00B806301F00B808301E00B86D
S113486A0A301F00B80C301F00B80E301E00B810F2
S113487A301F00B812301E00B814301F00B816A832
S113488A1CA1BDF0BDF2FAF28B9DF04AF00C61F363
S113489AECB24800A81CA1BDF0BDF4FAF48B9DF05B
S11348AAD4F061E8ECB84800F4F0EC804900A81CA4
S11348BA040200BDF0BDF2FAF28B9DF0705100BD06
S11348CAF2A81CA1BDF0BDF4FAF48B9DF0CDF10061
S11348DAADF001BDF0C9F41800AEF8BDF404180037
S11348EABDF406F0BDF004E8FFBDF0BDF4FAF4AB84
S11348FABDF0ADF246F071FF7177F161F3EC214935
S113490A00A81C040200BDF0BDF2FAF28B9DF0D49B
S113491AF061E8EC274900F4F0EC804900A81C0493
S113492A0300BDF0BDF4FAF48B9DF04AF01761E37D
S113493AEC444900F4F0EC804900A81C040400BDCE
S113494AF0BDF2FAF28B9DF04AF03B61E3EC614967
S113495A00F4F0EC804900A81C040500BDF0BDF485
S113496AFAF48B9DF04AF03B61E3EC7E4900F4F0E3
S113497AEC804900E4F01018D720028FF4EF9DF080
S113498AD4F061F8EC9C4900F5F4EFF6B800FC1198
S113499A43008FBAEF9DF0D4F061F8EC024A00F5B7
S11349AABAEFC9F001FFC9F201FFADF2BDF4FAF49E
S11349BA8B9DF2317A9DF27AF2018DF231799DF270
S11349CAADF0BDF4FAF48B9DF35AF37F8DF36BF2D9
S11349DA9DF2ADF0DAF48DF2480000C9F001FFADA2
S11349EAF0BDF2FAF28B9DF0317A9DF0D4F061E8D1
S11349FAEC024A00FC224B008FBFEF9DF0D4F06119
S1134A0AF8EC1A4A00F5BFEFFC2A4400FC2B4D00CF
S1134A1AAF78EFBDF044000061E8EC1F4B008F7FD4
S1134A2AEF9DF0D4F061E8ECA54A00C9F004FFADAB
S1134A3AF0BDF4FAF48B9DF26AF202ADF0DAF48D69
S1134A4AF2480000C9F004FFADF0BDF4FAF48B9DFE
S1134A5AF25AF2FBADF0DAF48DF2480000C9F00420
S1134A6AFFADF0BDF4FAF48B9DF25AF2F7ADF0DA29
S1134A7AF48DF248000051029F7EEFCDF01E8DF0B6
S1134A8A705100BDF2AF44EFBDF0ADF246F061C81B
S1134A9AEC1F4B00E57FEFEC1F4B008F7FEF9DF07F
S1134AAA4AF00161E8EC1F4B00C9F004FFADF0BD08
S1134ABAF4FAF48B9DF25AF2FDADF0DAF48DF24871
S1134ACA0000C9F004FFADF0BDF4FAF48B9DF26A5C
S1134ADAF204ADF0DAF48DF2480000C9F004FFAD37
S1134AEAF0BDF4FAF48B9DF25AF2F7ADF0DAF48DD4
S1134AFAF248000051039F7EEFCDF01A8DF07051F9
S1134B0A00BDF2AF44EFBDF0ADF246F061E3EC1F35
S1134B1A4B00E57FEF1002D72002C9F08201ADF005
S1134B2ABDF2FAF2ABBDF030001026F0B800BDF0C9
S1134B3A314EBDF0BF44EFBDF004CEFFBDF0BF441B
S1134B4AEFFCEF3500FC9435001002D7202C5106F7
S1134B5A9809C9F001FFADF0BDF4FAF48B9DF25A3D
S1134B6AF2DFADF0DAF48DF2480000C9F02C00AEA1
S1134B7AF8BDF0042C00BDF004DDFFB800E6B8026D
S1134B8AC9F22C00AEF8BDF2042C00BDF204DAFF1F
S1134B9AB804FC872C00008F00EF9DF0D4F061E884
S1134BAAECA14B00E500EFC9F001FFADF0BDF4FA4A
S1134BBAF48B9DF26AF220ADF0DAF48DF24800002B
S1134BCA300A00B800FC271A00C9F001FFADF0BD95
S1134BDAF4FAF48B9DF25AF2DFADF0DAF48DF2486E
S1134BEA000051029809A830314EBDF08DF0980AA0
S1134BFA88309DF05AF00F8DF0980BAEF8BDF20490
S1134C0A0900BDF0040300B80030F8EFB802FC81D3
S1134C1A520030F8EFB800FCA85200ADF0040300CB
S1134C2ABDF0C9F42C00AEF8BDF4042C00BDF404A4
S1134C3ADDFFB800ADF0B802C9F02C00AEF8BDF043
S1134C4A042C00BDF004DAFFB804FC872C00008FA2
S1134C5A00EF9DF0D4F061E8EC594C00E500EFC98F
S1134C6AF001FFADF0BDF4FAF48B9DF26AF220ADC7
S1134C7AF0DAF48DF2480000300A00B800FC271A72
S1134C8A0051049809C9F001FFADF0BDF4FAF48BA0
S1134C9A9DF25AF2DFADF0DAF48DF2480000C9F061
S1134CAA2C00AEF8BDF0042C00BDF004DDFFB80002
S1134CBAE6B802C9F22C00AEF8BDF2042C00BDF22B
S1134CCA04DAFFB804FC872C00008F00EF9DF0D4AF
S1134CDAF061E8ECD44C00E500EFC9F001FFADF057
S1134CEABDF4FAF48B9DF26AF220ADF0DAF48DF297
S1134CFA480000300A00B800FC271A0051249F46D5
S1134D0AEF514A9F47EF51309F48EF510D9F49EFAA
S1134D1A510A9F4AEFF54BEF300500BF42EF102CC2
S1134D2AD7202C51069809C9F001FFADF0BDF4FA59
S1134D3AF48B9DF25AF2DFADF0DAF48DF2480000FA
S1134D4AC9F02C00AEF8BDF0042C00BDF004DDFF60
S1134D5AB800E6B802C9F42C00AEF8BDF4042C007D
S1134D6ABDF404DAFFB804FC872C00008F00EF9D21
S1134D7AF0D4F061E8EC764D00E500EFC9F001FFEC
S1134D8AADF0BDF4FAF48B9DF26AF220ADF0DAF4D8
S1134D9A8DF2480000300A00B800FC271A00FC868D
S1134DAA4700F6BF42EF51029809AF80EFBDF031D8
S1134DBA8EBDF08DF0980AAF80EFBDF08DF0980BA0
S1134DCA8F82EF9DF0980C8F83EF9DF0980D8F845E
S1134DDAEF9DF0980E8F85EF9DF0980F8F86EF9DCB
S1134DEAF098108F87EF9DF098118F7EEF9DF098C1
S1134DFA12AF44EFBDF08DF098138FC0EF9DF09879
S1134E0A148FBEEF9DF09815510A9816F19817F170
S1134E1A9818F19819F1981AF1981BF1981CC9F08D
S1134E2A01FFADF0BDF4FAF48B9DF25AF2DFADF056
S1134E3ADAF48DF2480000C9F02C00AEF8BDF00493
S1134E4A2C00BDF004DDFFB800301300B802C9F429
S1134E5A2C00AEF8BDF4042C00BDF404DAFFB80447
S1134E6AFC872C00008F00EF9DF0D4F061E8EC6F12
S1134E7A4E00E500EFC9F001FFADF0BDF4FAF48B82
S1134E8A9DF26AF220ADF0DAF48DF2480000300A9D
S1134E9A00B800FC271A0051049809C9F001FFADB3
S1134EAAF0BDF4FAF48B9DF25AF2DFADF0DAF48D28
S1134EBAF2480000C9F02C00AEF8BDF0042C00BD85
S1134ECAF004DDFFB800E6B802C9F42C00AEF8BD60
S1134EDAF4042C00BDF404DAFFB804FC872C0000A7
S1134EEA8F00EF9DF0D4F061E8ECEA4E00E501EFA3
S1134EFAE500EFC9F001FFADF0BDF4FAF48B9DF2C1
S1134F0A6AF220ADF0DAF48DF2480000300A00B8F3
S1134F1A00FC271A00AF80EFBDF044002061F3ECD7
S1134F2A3A4F00AF80EFBDF0041000BDF0BF80EF30
S1134F3A102CD720345103982AA838314EBDF08D4D
S1134F4AF0982B88389DF05AF00F8DF0982CC9F000
S1134F5A01FFADF0BDF4FAF48B9DF25AF2DFADF025
S1134F6ADAF48DF2480000E500EFE501EF883A70C3
S1134F7A5100BDF0040300BDF0C9F23400AEF8BD1F
S1134F8AF2043400BDF204F6FFB800ADF0B802C969
S1134F9AF43400AEF8BDF4043400BDF404D3FFB80D
S1134FAA04FC872C00008F00EF9DF0D4F061E8EC3C
S1134FBAB04F008F01EF9DF0D4F061E8ECB04F00E0
S1134FCAE500EFE501EFC9F001FFADF0BDF4FAF435
S1134FDA8B9DF26AF220ADF0DAF48DF24800008873
S1134FEA3A705100BDF0040500BDF0BF42EF883AA3
S1134FFA705100BDF0040300BDF0AEF8BDF404071F
S113500A00BDF206F0BDF0BDF2DAF2510D4800001F
S113501A883A705100BDF0040400BDF0AEF80407EC
S113502A00BDF206F0BDF0BDF2DAF2510A48000002
S113503A3046EFB8003088CEB802AEF8040700BD97
S113504AF0040300B804FC0652001034D761EFC11F
S113505AC3C561CF204CA85604FF0FBDF0314DB82B
S113506A5651039842A856318EBDF08DF098438864
S113507A569DF09844C9F001FFADF0BDF4FAF48BE3
S113508A9DF25AF2DFADF0DAF48DF2480000E50041
S113509AEFE501EFC9F04C00AEF8BDF0044C00BDD9
S11350AAF004F6FFB800300D00B802C9F44C00AEA3
S11350BAF8BDF4044C00BDF404D3FFB804FC872CF7
S11350CA00008F00EF9DF0D4F061E8ECCC50008F23
S11350DA01EF9DF0D4F061E8ECCC5000E500EFE577
S11350EA01EFC9F001FFADF0BDF4FAF48B9DF26A49
S11350FAF220ADF0DAF48DF2480000AF80EFBDF093
S113510AA85646F061E3EC42510051249F46EF5100
S113511A4D9F47EF51329F48EF510D9F49EF510A76
S113512A9F4AEFF54BEF3046EFB800FCA85200ADAA
S113513AF0BF42EFECE4510088229DF0705100BDAB
S113514AF488239DF0705100BDF688249DF07051B7
S113515A00B81C88259DF0705100B81A88269DF065
S113516A705100B81888279DF0705100BDEC88284A
S113517A9DF0705100BDEA88299DF0705100BDE888
S113518A882A9DF0705100BDF2882B9DF0CDF10064
S113519A3046EFB8003090CEB802ADF4B804ADF69C
S11351AAB806A81CBDF4B808A81ABDF4B80AA81809
S11351BABDF4B80CADECB80EADEAB810ADE8B8124F
S11351CAADF2B814ADF0B816FC0652003046EFB88A
S11351DA00FCA85200ADF0BF42EF104C61EFC4C20C
S11351EAC061CFD7A806BDF2FAF2ABBDF0DAF2A1DC
S11351FA780000ADF0128804480000D72008A80EF1
S113520AB80030EE51B802AEF8040C00B804AEF897
S113521A040C00040400B806FCD15200A80CBDF228
S113522ADAF2F14800001008D761EFC161CFA8068D
S113523ABDF0BDF2EAF089D161F8EC795200A6F228
S113524AADF21489D161E8EC485200A808BDF4AD66
S113525AF4168B9DF6ADF2128DF6480000A6F2A65E
S113526AF4D4F661E8EC59520061EFC061CFD7ADCE
S113527AF0BDF2EC555200A804BDF2A806BDF0AD8B
S113528AF0168B9DF4ADF2128DF4480000A6F2A636
S113529AF0D4F461E8EC895200A804BDF0D7A8045C
S11352AABDF2BDF0EAF289D161F8ECCC5200A6F065
S11352BAADF01489D161E8ECB85200ADF026F2BD24
S11352CAF0D7C9F00000D761EFC1C3C561CF20E0B0
S11352DAF6B82CAEF804DF00B814A8EAA1BDEAA80F
S11352EAEA168B9DF04AF02561F8EC295300D4F0B4
S11352FA61F8ECD45E008DF09800A8EEB802A8EC30
S113530A1261DAFBF8FF61792CADEAB8EAA1BDEAC9
S113531AA8EA168B9DF04AF02561E8ECF85200AD34
S113532AEA168B9DEC4AEC2561F8EC5F5F00F19874
S113533A31984E88319837883198364AEC2B61F87F
S113534AEC7F53004AEC2B61F3EC8753004AEC20C0
S113535A61F8EC5E56004AEC2361E8ECAD5300FBBD
S113536AF8FF61594EA6EAFAEA8B9DEC4AEC2B61E6
S113537AE8EC4E53008DEC9836EC6F53004AEC2D52
S113538A61F8ECA353004AEC3061E8ECAD5300FB3E
S113539AF8FF615931EC6F5300FBF8FF615937ECA0
S11353AA6F5300ADEABDF04AEC2A61F8ECAA5E003C
S11353BA8DEC0CD09DF0F6B8384AF00961F3EC0F85
S11353CA54008DEC9DF2A838BDF0ADF001BDF0316A
S11353DA2DBDF4ADF006F4BDF0A6EACDF300ADF2AE
S11353EA04D0FFBDF2ADF006F2BDF0FAEA8B9DF2ED
S11353FA0CD09DF34AF30961E3ECD453008DF29D7A
S113540AECADF0B8388837D161F8EC1B5400F19848
S113541A314AEC2E61F8EC495E00C9E8FFFF4AEC18
S113542A6861F8EC3B5E004AEC6C61F8ECD056001B
S113543A4AEC4C61F8ECD056008DEC982EF4F0ADA1
S113544AEAA1B8EA882E4C6661F8ECE95600882E7F
S113545A4C6661E3EC6F5600882E4C6F61F8EC429F
S113546A6300882E4C6F61E3ECE25E00882E4C7375
S113547A61F8ECBF6200882E4C7361E3EC4E66005F
S113548A882E4C7561F8EC4A6800882E4C7861E8DD
S113549AEC875F0030D5CEB816A8F016ABB83CD46A
S11354AAF061F8EC686200A8F016AC02B83EA8F005
S11354BA040400B8F0882E4C6F61F8EC7F6200880F
S11354CA2E4C7561F8ECF26600301000B832F6B86A
S11354DA34F19836FBF8FF30000061293CBDF43002
S11354EA000061D8B161293EBDF6883C6BF498424C
S11354FA883D6BF59843883E6BF69844883F6BF772
S113550A9845A844317A9DF4300000BDF69DF58D86
S113551AF49DECADE844000061E8EC5D6000D4EC75
S113552A61E8EC5D6000AEF804DF00BDEAADE8BDF9
S113553AF0ADF0BDE8A83846E871FF7177E961D8A3
S113554AECBB5600A83826E8BDEC883676F1612E05
S113555A9DF088366BF0317A318FBDF0ADEC26F0D0
S113556AB8168837D161E8ECCA5500A816B1B81E36
S113557A44000071FF61D8ECF96600A81EBDECADC9
S113558AEAB82AADE8B82EA8ECBDE8A8EEBDEA51FF
S113559A209800ADEAB802DAE861DAB6ECADEC4478
S11355AAFFFF61E8EC995500A82ABDEAA82EBDE8D8
S11355BAA816BDF0A81E26F0B816A82C06F0B82C1A
S11355CA8836D161E8EC1D6000ADE844000071FF43
S11355DA61E3EC185600ADEABDEC06E8BDEAADE8B5
S11355EAB81EADECBDE8A8EEBDECFAE88B9800ADA8
S11355FAECB802A8EC1261DAA6E8ADE846EA61E87A
S113560AECF45500A81EBDE8A82C06E8B82C883787
S113561AD161F8ECE45200A816B1BDE84400007167
S113562AFF61D8ECE45200A8ECBDEAA8EEBDEC5147
S113563A209800ADECB802DAEA61DAB6E8ADE844DB
S113564AFFFF61E8EC395600A81616A82C07B82CF7
S113565AECE452008836D161E8EC6F53008DEC9883
S113566A36EC6F5300882E4C5861F8EC4A6800886F
S113567A2E4C5861F3EC235F00882E4C4561F8ECFC
S113568A046000882E4C4761F8EC935F00882ED1A1
S113569A61E8EC875F00C9E80300ADEAB8EAC9EA41
S11356AAE6CEA83846E871FF7177E961C8EC4E5531
S11356BA00F6B8168837D161E8ECCA550030FFFF06
S11356CAB816ECCA5500FAEA8C01982EA6EAE4F058
S11356DAADEAA1B8EA882E4C6661E8EC585400A4F5
S11356EAF0ADE8C9EC000044000071FF61D8EC5B3E
S11356FA6800F1982ED4F061F8ECB45F00A8F004C5
S113570A0400BDEAA8F016ABB800A8F016AC02B8BB
S113571A02FC6668008DF0981E8DF1981F8DF29830
S113572A208DF398218DF498228DF598238DF6987F
S113573A248DF798258DF098168DF198178DF29887
S113574A188DF398198DF4981A8DF5981B8DF6987F
S113575A1C8DF7981DADEAB8F0F4F0881698008805
S113576A1798018818980288199803881A9804883F
S113577A1B9805881C9806881D98078DF098089828
S113578A09980A980B980C980D980EF1980FFCEB4F
S113579AA6008DF0D171FF61D8ECF06500AEF80473
S11357AA5A00BDF4A83806F4BDEAF4F0CDF6F08840
S11357BA16980088179801881898028819980388F7
S11357CA1A9804881B9805881C9806881D98078DC2
S11357DAF098089809980A980B980C980D8DF698E1
S11357EA0E513F980FFC04A6008DF0F4F0D171FF1E
S11357FA61D8EC886300CDF3E0CDF476CDF548CDDD
S113580AF6378DF3980B8DF4980C8DF5980D8DF66B
S113581A980E5142980FFC04A600F6B8408DF0D1B8
S113582A71FF61D8EC155900ADE8B82AA840BDE863
S113583A8816980088179801881898028819980376
S113584A881A9804881B9805881C9806881D980746
S113585AF19808F19809F1980A5120980B515F9828
S113586A0C51A0980D5102980E5142980FFC479979
S113587A008DF0981E8DF1981F8DF298208DF39863
S113588A218DF498228DF598238DF698248DF79816
S113589A258DF098168DF198178DF298188DF39836
S11358AA198DF4981A8DF5981B8DF6981C8DF79816
S11358BA1DADE8040A00BDE8CDF3E0CDF476CDF5DC
S11358CA48CDF637881698008817980188189802E0
S11358DA88199803881A9804881B9805881C9806BE
S11358EA882598078DF3980B8DF4980C8DF5980DEF
S11358FA8DF6980EFC04A6008DF0D171FF61C8ECF8
S113590A3A5800ADE8B840A82ABDE8F4F0CDF62428
S113591A8816980088179801881898028819980395
S113592A881A9804881B9805881C9806881D980765
S113593A8DF098089809980A980B980C980D8DF68A
S113594A980E5140980FFC04A6008DF0D171FF61A6
S113595AD8EC1E5A00ADE8B82AA840BDE8881698C3
S113596A00881798018818980288199803881A9841
S113597A04881B9805881C9806881D9807F19808BE
S113598AF19809F1980AF1980BF1980CF1980D51D4
S113599A24980E5140980FFC4799008DF0981E8D5B
S11359AAF1981F8DF298208DF398218DF498228D09
S11359BAF598238DF698248DF798258DF098168DF1
S11359CAF198178DF298188DF398198DF4981A8D09
S11359DAF5981B8DF6981C8DF7981DA6E8881698DD
S11359EA00881798018818980288199803881A98C1
S11359FA04881B9805881C980688259807FC04A621
S1135A0A008DF0D171FF61C8EC675900ADE8B84068
S1135A1AA82ABDE8ADEC44000061F8ECCB6100A80B
S1135A2A40BDECADE846EC71FF7177ED61E3EC4BF8
S1135A3A5A00ADEC44FCFF71FF71C061C8EC80668A
S1135A4A00B6E8884ED161E8ECCB6100E1984E9843
S1135A5A4F882ED161F8ECD76100ADEABDECC9F0EC
S1135A6A0000ADE846F071FF7177F161D8EC3D5C56
S1135A7A00ADE8B83AADECB82AADEAB854ADF0BD19
S1135A8AECECC85A00A83A44000061E8ECA35A00B6
S1135A9A884ED161F8EC185C00A82ABDF6A6F6DA9D
S1135AAAF6512E480000A82A040200B82AA6ECA837
S1135ABA3A46EC71FF7177ED61D8EC2D5C008816DB
S1135ACA9800881798018818980288199803881AE0
S1135ADA9804881B9805881C9806881D9807FC5604
S1135AEAAA00ADF0B826ADF2B828ADF0BDE8882713
S1135AFA317B9DEA9DEBADE8B800ADEAB802FCB78C
S1135B0AA8008DF0981E8DF1981F8DF298208DF3C0
S1135B1A98218DF498228DF598238DF698248DF783
S1135B2A9825881698008817980188189802881961
S1135B3A98038DF098088DF198098DF2980A8DF3DF
S1135B4A980B8DF4980C8DF5980D8DF6980E8DF7AB
S1135B5A980FFCF381008DF098168DF198178DF249
S1135B6A98188DF398198DF4981A8DF5981B8DF65B
S1135B7A981C8DF7981D8DF098008DF198018DF27F
S1135B8A98028DF398038DF498048DF598058DF693
S1135B9A98068DF79807F19808F19809F1980AF18F
S1135BAA980BF1980CF1980D5124980E5140980FC6
S1135BBAFC1483008DF0981E8DF1981F8DF29820A5
S1135BCA8DF398218DF498228DF598238DF69824D7
S1135BDA8DF798258DF098168DF198178DF29818EF
S1135BEA8DF398198DF4981A8DF5981B8DF6981CD7
S1135BFA8DF7981DA82AA1BDF0A82A1288260C3070
S1135C0A480000ADEC44000061F8EC8F5A00ADF096
S1135C1AB82AA6ECA83A46EC71FF7177ED61C8EC94
S1135C2AC85A00A82ABDECADE8B850ADEAB852A8E3
S1135C3A54BDEAF4F0CDF614881698008817980132
S1135C4A8818980288199803881A9804881B980552
S1135C5A881C9806881D98078DF098089809980A50
S1135C6A980B980C980D8DF6980E5140980FFC04D9
S1135C7AA6008DF0D171FF61D8EC6E5D00ADECB178
S1135C8ABDF4C9F20100ECAE5C00DAF6480000C9C2
S1135C9AF20000B6F4ADF4A1BDF0ADEA46F061C875
S1135CAAECEE5C00ADF4BDF6168B9DF14AF12E6163
S1135CBAF8EC9D5C008DF2768DF1610E9DF14AF14E
S1135CCA3A61E8EC945C00ADF4125130480000C922
S1135CDAF20100B6F4ADF4A1BDF0ADEA46F061D824
S1135CEAECAE5C00ADF244000061F8EC6E5D008835
S1135CFA2ED161F8EC976600ADECBDF0ADEA46EC46
S1135D0A61D8EC265D00EC4F5D00128DF24800006C
S1135D1AB6F0ADEA46F061C8EC4F5D00ADF0B116DD
