S01200004564657369676E44656D6F2E6D6F742B
S10700000822FFFFD0
S113000485208520852085208520852085208520C0
S113001485208520852085208520852085208520B0
S11300248C1AB819852085204720792085208520BD
S1130034280D8520580F852085208520852085203E
S11300448520852085208520852085208520852080
S11300548520852085208520852085208520852070
S11300648520852085208520852085208520852060
S10F00748520852085208520852085209E
S10700C0EFFFE984DD
S10D00C4000000000000000000002E
S11300D82002AF00EFBDF044040061F8ECB8020060
S11300E8ADF044040071FF61F3EC360100ADF04457
S11300F8010061F8ECCB0100ADF044010071FF612F
S1130108F3EC1C0100ADF044000061F8EC8201003E
S1130118EC710400ADF044020061F8EC1A0200AD81
S1130128F044030061F8EC690200EC710400ADF0DE
S113013844070061F8EC930300ADF044070071FF35
S113014861F3EC680100ADF044050061F8ECFF02CE
S113015800ADF044060061F8EC460300EC710400BD
S1130168ADF044080061F8ECE00300ADF044090088
S113017861F8EC2D0400EC710400A8064403006146
S1130188E8EC9D0100AF00EFBDF0A6F0ADF0BF00B4
S1130198EFECC70100A80644040061E8ECB20100D2
S11301A8300400BF00EFECC70100A8064406006154
S11301B8E8ECC70100300500BF00EFEC710400EC67
S11301C8710400A80644030061E8ECE60100AF00EE
S11301D8EFBDF0A6F0ADF0BF00EFEC160200A806E4
S11301E844040061E8EC010200AF00EFBDF0B6F092
S11301F8ADF0BF00EFEC160200A80644060061E863
S1130208EC160200300500BF00EFEC710400EC713D
S11302180400A80644030061E8EC350200AF00EFCF
S1130228BDF0A6F0ADF0BF00EFEC650200A80644EF
S1130238040061E8EC500200AF00EFBDF0B6F0AD89
S1130248F0BF00EFEC650200A80644060061E8EC84
S1130258650200300500BF00EFEC710400EC710486
S113026800A80644030061E8EC840200AF00EFBD77
S1130278F0A6F0ADF0BF00EFECB40200A806440409
S11302880061E8EC9F0200AF00EFBDF0B6F0ADF0FE
S1130298BF00EFECB40200A80644060061E8ECB421
S11302A80200300500BF00EFEC710400EC7104009B
S11302B8A80644030061E8ECCB0200F6BF00EFECAB
S11302C8FB0200A80644040061E8ECE60200AF0063
S11302D8EFBDF0B6F0ADF0BF00EFECFB0200A806EE
S11302E844060061E8ECFB0200300500BF00EFECB7
S11302F8710400EC710400A80644030061E8EC1AD8
S11303080300AF00EFBDF0A6F0ADF0BF00EFEC4284
S11303180300A80644040061E8EC2F030030090038
S1130328BF00EFEC420300A80644070061E8EC4272
S11303380300F6BF00EFEC710400EC710400A8069A
S113034844030061E8EC610300AF00EFBDF0A6F0E0
S1130358ADF0BF00EFEC8F0300A80644040061E889
S1130368EC7C0300AF00EFBDF0B6F0ADF0BF00EFDA
S1130378EC8F0300A80644070061E8EC8F0300F63D
S1130388BF00EFEC710400EC710400A806440300FC
S113039861E8ECAE0300AF00EFBDF0A6F0ADF0BF2E
S11303A800EFECDC0300A80644040061E8ECC90390
S11303B800AF00EFBDF0B6F0ADF0BF00EFECDC032A
S11303C800A80644070061E8ECDC0300F6BF00EF70
S11303D8EC710400EC710400A80644030061E8EC25
S11303E8FB0300AF00EFBDF0A6F0ADF0BF00EFECEB
S11303F8290400A80644040061E8EC160400AF00D0
S1130408EFBDF0B6F0ADF0BF00EFEC290400A8068C
S113041844070061E8EC290400F6BF00EFEC71041E
S113042800EC710400A80644030061E8EC420400EF
S1130438300500BF00EFEC700400A8064404006116
S1130448E8EC5D0400AF00EFBDF0B6F0ADF0BF001E
S1130458EFEC700400A80644070061E8EC7004009F
S1130468F6BF00EFEC70040000AF00EFBDF04404E9
S11304780061F8EC8D0500ADF044040071FF61F3F0
S1130488ECCD0400ADF044010061F8EC360500AD94
S1130498F044010071FF61F3ECB30400ADF04400D3
S11304A80061F8EC190500EC380600ADF0440200D0
S11304B861F8EC530500ADF044030061F8EC7005F5
S11304C800EC380600ADF044070061F8ECE40500E0
S11304D8ADF044070071FF61F3ECFF0400ADF04494
S11304E8050061F8ECAA0500ADF044060061F8ECDB
S11304F8C70500EC380600ADF044080061F8EC01CB
S11305080600ADF044090061F8EC1E0600EC38065C
S11305180051309F6EEF510D9F6FEF510A9F70EF9E
S1130528F571EFE6B800FCAB2900EC380600513150
S11305389F6EEF510D9F6FEF510A9F70EFF571EFAA
S1130548E6B800FCAB2900EC38060051329F6EEF88
S1130558510D9F6FEF510A9F70EFF571EFE6B800E8
S1130568FCAB2900EC38060051339F6EEF510D9F08
S11305786FEF510A9F70EFF571EFE6B800FCAB29F5
S113058800EC38060051349F6EEF510D9F6FEF5108
S11305980A9F70EFF571EFE6B800FCAB2900EC3860
S11305A8060051359F6EEF510D9F6FEF510A9F70F2
S11305B8EFF571EFE6B800FCAB2900EC3806005102
S11305C8369F6EEF510D9F6FEF510A9F70EFF571D3
S11305D8EFE6B800FCAB2900EC38060051379F6EF3
S11305E8EF510D9F6FEF510A9F70EFF571EFE6B869
S11305F800FCAB2900EC38060051389F6EEF510D12
S11306089F6FEF510A9F70EFF571EFE6B800FCABEE
S11306182900EC38060051399F6EEF510D9F6FEF9A
S1130628510A9F70EFF571EFE6B800FCAB290000A2
S11306381002D72004A808BDF0B800A80ABDF0B875
S113064802FC8907004AF00161E8EC990600A80A4F
S1130658BDF001BDF00412EFBDF0BDF2FAF2ABBD7E
S1130668F0A1BDF2A80ABDF001BDF00412EFBDF07F
S1130678BDF4DAF4ADF2780000A80ABDF001BDF0CB
S11306880402EFBDF0BDF2DAF2F6780000ECD80609
S113069800A80ABDF001BDF00402EFBDF0BDF4FAF4
S11306A8F4ABBDF0A1BDF2A80ABDF001BDF004028F
S11306B8EFBDF0BDF4DAF4ADF2780000A80ABDF09D
S11306C801BDF00412EFBDF0BDF2DAF2F6780000D5
S11306D8A80ABDF001BDF00412EFBDF0BDF4FAF4B0
S11306E8ABBDF044E20461E3EC400700A80ABDF0A6
S11306F801BDF00412EFBDF0BDF2DAF230E3047884
S11307080000A80ABDF001BDF00422EFBDF0BDF45D
S1130718FAF4ABBDF044000061E8EC840700A80AD1
S1130728BDF001BDF00422EFBDF0BDF2DAF2E678C7
S11307380000E4F0EC860700A80ABDF001BDF0044F
S113074802EFBDF0BDF4FAF4ABBDF044E20461E39A
S1130758EC840700A80ABDF001BDF00422EFBDF047
S1130768BDF2DAF2F6780000A80ABDF001BDF00483
S113077802EFBDF0BDF4DAF4F6780000F4F01004EA
S1130788D7A806BDF044030061F8EC390800ADF0C1
S113079844030071FF61F3ECCA0700ADF0440100A3
S11307A861F8EC0D0800ADF044010071FF61F3EC51
S11307B8230800ADF044000061F8ECFC0700ECA449
S11307C80800ADF044050061F8EC650800ADF0449C
S11307D8050071FF61D8EC4F0800ADF044060061D4
S11307E8F8EC7B0800ADF044070061F8EC910800D0
S11307F8ECA40800A804BDF0BDF2EAF2895C019DEE
S1130808F0ECA70800A804BDF0BDF2FAF28B9DF045
S1130818311A9DF05AF001ECA70800A804BDF0BDF8
S1130828F2FAF28B9DF0312A9DF05AF001ECA708F8
S113083800A804BDF0BDF2FAF28B9DF0313A9DF0A8
S11308485AF001ECA70800A804BDF0BDF2FAF28B37
S11308589DF0314A9DF05AF001ECA70800A804BDA8
S1130868F0BDF2FAF28B9DF0315A9DF05AF001EC8A
S1130878A70800A804BDF0BDF2FAF28B9DF0316A16
S11308889DF05AF001ECA70800A804BDF0BDF2FAE7
S1130898F28B9DF0317A9DF0ECA70800CDF0FFD7DC
S11308A82006880C314A9805880A9DF09800880526
S11308B89DF09802FCD90800880C5C0F9805880AFA
S11308C89DF0980088059DF09802FCD90800100650
S11308D8D720028806D161F8EC010900C9F007FFA6
S11308E8ADF0BDF4FAF48B9DF26AF201ADF0DAF4DE
S11308F88DF2480000EC1A0900C9F007FFADF0BDFD
S1130908F4FAF48B9DF25AF2FEADF0DAF48DF24863
S11309180000C9F007FFADF0BDF4FAF48B9DF25A5C
S1130928F2FDADF0DAF48DF2480000C9F227FFC9F0
S1130938F027FFADF0BDF4FAF48B9DF05AF0F0AD5A
S1130948F2BDF4DAF48DF0480000C9F007FFADF009
S1130958BDF2FAF28B9DF05C0F9DF288087051008D
S1130968BDF0314DBDF08DF26BF09DF09801C9F0EA
S113097807FF88019DF2ADF0BDF4DAF48DF248006A
S113098800C9F007FFADF0BDF4FAF48B9DF26AF2EA
S113099804ADF0DAF48DF248000000000000000015
S11309A8C9F007FFADF0BDF4FAF48B9DF25AF2FBDF
S11309B8ADF0DAF48DF24800000000C9F007FFAD8D
S11309C8F0BDF4FAF48B9DF26AF202ADF0DAF48D1C
S11309D8F24800001002D72004C9F0E6FFADF0BDCC
S11309E8F4FAF48B9DF26AF210ADF0DAF48DF24861
S11309F8000030983AB800FCF40A00F1980051035A
S1130A089802FCD90800300410B800FCF40A00F17C
S1130A18980051039802FCD90800306400B800FC1F
S1130A28F40A00F1980051039802FCD90800302810
S1130A3800B800FCF40A00F1980051029802FCD9AD
S1130A480800302800B800FCF40A00F19800512886
S1130A589802FCA80800302800B800FCF40A00F149
S1130A689800510E9802FCA80800302800B800FC31
S1130A78F40A00F19800E19802FCA808003068061E
S1130A88B800FCF40A00F1980051069802FCA80882
S1130A9800302800B800FCF40A00F198005180984E
S1130AA802FCA80800302800B800FCF40A0010046E
S1130AB8D7C9F0E2FFADF0BDF4FAF48B9DF25AF217
S1130AC8EFADF0DAF48DF2480000C9F218FFA8047B
S1130AD8BDF0ADF2BDF4DAF4ADF0780000C9F0B2BF
S1130AE801ADF0BDF2DAF2E6780000D72002A806DC
S1130AF8BDF0B800FCB90A00EC050B0000C9F0E22F
S1130B08FFADF0BDF2FAF28B9DF0314A9DF05AF038
S1130B180161F8EC040B00FC361F001002D7C9F081
S1130B28F000ADF0BDF4FAF48B9DF26AF220ADF05A
S1130B38DAF48DF2480000C9F030FFADF0BDF2DA06
S1130B48F2F1480000C9F0E7FFADF0BDF4FAF48B08
S1130B589DF26AF201ADF0DAF48DF2480000C9F0B2
S1130B68E3FFADF0BDF4FAF48B9DF25AF2FEADF05A
S1130B78DAF48DF2480000C9F0EFFFADF0BDF4FAE5
S1130B88F48B9DF26AF201ADF0DAF48DF2480000BC
S1130B98C9F0EBFFADF0BDF4FAF48B9DF26AF201F3
S1130BA8ADF0DAF48DF2480000C9F222FFC9F02250
S1130BB8FFADF0BDF4FAF48B9DF06AF007ADF2BD19
S1130BC8F4DAF48DF0480000C9F030FFADF0BDF25E
S1130BD8DAF25108480000C9F032FFADF0BDF4DA8A
S1130BE8F45120480000C9F01000ADF0BDF2DAF26B
S1130BF8E1480000C9F01100ADF0BDF4DAF451FF8A
S1130C08480000C9F01200ADF0BDF2DAF2F1480074
S1130C1800C9F031FFADF0BDF4DAF4F1480000C9C1
S1130C28F030FFADF0BDF4FAF48B9DF26AF201AD39
S1130C38F0DAF48DF2480000D7C9F0E3FFADF0BD57
S1130C48F4FAF48B9DF25AF2FEADF0DAF48DF24820
S1130C580000C9F0E7FFADF0BDF4FAF48B9DF25A39
S1130C68F2FEADF0DAF48DF2480000C9F030FFADC1
S1130C78F0BDF4FAF48B9DF26AF280ADF0DAF48DEB
S1130C88F2480000D7C9F030FFADF0BDF4FAF48B98
S1130C989DF25AF27FADF0DAF48DF2480000C9F003
S1130CA8E7FFADF0BDF4FAF48B9DF26AF201ADF002
S1130CB8DAF48DF2480000C9F0E3FFADF0BDF4FAB0
S1130CC8F48B9DF25AF2FEADF0DAF48DF24800008E
S1130CD8D7C9F030FFADF0BDF4FAF48B9DF26AF297
S1130CE801ADF0DAF48DF2480000D7C9F030FFAD59
S1130CF8F0BDF4FAF48B9DF25AF2FEADF0DAF48DFD
S1130D08F2480000D7C9F01FFFADF0BDF4FAF48B28
S1130D189DF2A804BDF0BDF4DAF48DF2480000D7C2
S1130D2861CFC1C3C5C7C6C4C2C061FC2002C9F033
S1130D38A0FFADF0BDF2DAF25110480000C9F0A1ED
S1130D48FFADF0BDF4FAF48B9DF26AF280ADF0DAEF
S1130D58F48DF2480000C9F0A4FFADF0BDF4FAF434
S1130D688B9DF25AF2EFADF0DAF48DF2480000C927
S1130D78F0A1FFADF0BDF4FAF48B9DF25AF2BFADC9
S1130D88F0DAF48DF2480000F6B800ECA20D000089
S1130D98A800BDF0A6F0ADF0B800A800BDF044A0CE
S1130DA80061E3EC970D00C9F0F300ADF0BDF2DA91
S1130DB8F2F1480000C9F0A4FFADF0BDF4FAF48BD9
S1130DC89DF25AF2BFADF0DAF48DF2480000C9F092
S1130DD8A1FFADF0BDF4FAF48B9DF25AF2FEADF02A
S1130DE8DAF48DF24800001002D72002C9F0A8FFF7
S1130DF8ADF0BDF2FAF28B9DF098011002D7C9F05C
S1130E08F000ADF0BDF4FAF48B9DF26AF280ADF017
S1130E18DAF48DF2480000C9F090FFADF0BDF2DAC3
S1130E28F2F6780000C9F0E7FFADF0BDF4FAF48BF0
S1130E389DF26AF204ADF0DAF48DF2480000C9F0CC
S1130E48E3FFADF0BDF4FAF48B9DF25AF2FBADF07A
S1130E58DAF48DF2480000C9F0EFFFADF0BDF4FA02
S1130E68F48B9DF25AF2FBADF0DAF48DF2480000EF
S1130E78C9F0EBFFADF0BDF4FAF48B9DF26AF2040D
S1130E88ADF0DAF48DF2480000C9F090FFADF0BD82
S1130E98F2DAF230FF0F780000D7C9F2E3FFADF2BF
S1130EA8BDF0FAF08B9DF45AF4FBADF2DAF08DF450
S1130EB8480000C9F2E7FFADF2BDF0FAF08B9DF4EB
S1130EC85AF4FBADF2DAF08DF4480000C9F490FF4F
S1130ED8C9F290FFADF2BDF0FAF0ABBDF28DF26C41
S1130EE8009DF08DF36C809DF1ADF4BDF2DAF2ADA6
S1130EF8F0780000D7C9F2E7FFADF2BDF0FAF08B45
S1130F089DF46AF404ADF2DAF08DF4480000C9F2F5
S1130F18E3FFADF2BDF0FAF08B9DF45AF4FBADF2A9
S1130F28DAF08DF4480000C9F490FFC9F290FFADDF
S1130F38F2BDF0FAF0ABBDF28DF25CFF9DF08DF3DB
S1130F485C7F9DF1ADF4BDF2DAF2ADF0780000D724
S1130F5861CFC1C3C5C761DFC1C3C5C761CF2002A3
S1130F68AFA0EFBDF2A6F2ADF2BFA0EFBDF28DF2D5
S1130F785C039DF08DF35C009DF1ADF044000061CD
S1130F88E8EC940F00F6B800FCAB2900100261DF0E
S1130F98C6C4C2C061CFC6C4C2C061FCC9F004FFE4
S1130FA8ADF0BDF2DAF2F1480000C9F007FFADF088
S1130FB8BDF2DAF2F1480000C9F03000ADF0BDF23C
S1130FC8DAF25108480000C9F03400ADF0BDF2DA95
S1130FD8F2E1480000C9F04000ADF0BDF2DAF25188
S1130FE808480000C9F024FFADF0BDF2DAF251F16F
S1130FF8480000C9F025FFADF0BDF2DAF251FF4810
S11310080000C9F027FFADF0BDF2DAF2F1480000A4
S1131018D7C9F0F000ADF0BDF4FAF48B9DF26AF292
S113102880ADF0DAF48DF2480000C9F09DFFADF010
S1131038BDF4FAF48B9DF25AF27FADF0DAF48DF236
S1131048480000C9F0E7FFADF0BDF4FAF48B9DF257
S11310586AF202ADF0DAF48DF2480000C9F0E3FF59
S1131068ADF0BDF4FAF48B9DF25AF2FDADF0DAF46A
S11310788DF2480000C9F0EFFFADF0BDF4FAF48B2F
S11310889DF26AF202ADF0DAF48DF2480000C9F07C
S1131098EBFFADF0BDF4FAF48B9DF26AF202ADF009
S11310A8DAF48DF2480000C9F09DFFADF0BDF2DA24
S11310B8F25108480000C9F092FFADF0BDF4DAF42B
S11310C8F1480000C9F093FFADF0BDF2DAF2F1483F
S11310D80000C9F094FFADF0BDF4DAF4F148000063
S11310E8C9F095FFADF0BDF2DAF25102480000C92B
S11310F8F096FFADF0BDF4DAF45111480000C9F0E0
S113110897FFADF0BDF2DAF25104480000C9F09837
S1131118FFADF0BDF4DAF45117480000D7C9F09DCB
S1131128FFADF0BDF4FAF48B9DF26AF280ADF0DA0B
S1131138F48DF2480000D7C9F09DFFADF0BDF4FA74
S1131148F48B9DF25AF27FADF0DAF48DF248000088
S1131158D72006F6B804C9F29EFFC9F09EFFADF089
S1131168BDF4FAF48B9DF06AF001ADF2BDF4DAF443
S11311788DF0480000F6B800F6B802EC96110000AD
S1131188A800040100B800A80261D8A1B802A80206
S1131198440000A80061F8443F0161E3EC871100B2
S11311A8C9F09EFFADF0BDF2FAF28B9DF0311A9DA5
S11311B8F05AF00161E8ECCB1100300300B804ECFC
S11311C8E11200C9F092FFADF0BDF4FAF48B9DF280
S11311D8A80ABDF0BDF4DAF48DF2480000C9F09312
S11311E8FFADF0BDF4FAF48B9DF2A80ABDF0DAF075
S11311F88DF2480100C9F094FFADF0BDF4FAF48B08
S11312089DF2A80ABDF0DAF08DF2480200C9F09503
S1131218FFADF0BDF4FAF48B9DF2A80ABDF0DAF044
S11312288DF2480400C9F096FFADF0BDF4FAF48BD2
S11312389DF2A80ABDF0DAF08DF2480300C9F097D0
S1131248FFADF0BDF4FAF48B9DF2A80ABDF0DAF014
S11312588DF2480500C9F098FFADF0BDF4FAF48B9F
S11312689DF2A80ABDF0DAF08DF2480600C9F29E94
S1131278FFC9F09EFFADF0BDF4FAF48B9DF05AF06F
S1131288FEADF2BDF4DAF48DF0480000F6B800F6CD
S1131298B802ECAD120000A800040100B800A802CE
S11312A861D8A1B802A802440000A80061F8443F2C
S11312B80161E3EC9E1200C9F09EFFADF0BDF2FAA5
S11312C8F28B9DF0311A9DF05AF0014AF00161E861
S11312D8ECE11200300400B804A804BDF01006D7ED
S11312E82006F6B804C9F29EFFC9F09EFFADF0BD12
S11312F8F4FAF48B9DF06AF001ADF2BDF4DAF48DE2
S1131308F0480000F6B800F6B802EC25130000A86F
S113131800040100B800A80261D8A1B802A80244D8
S11313280000A80061F8443F0161E3EC161300C90A
S1131338F09EFFADF0BDF2FAF28B9DF0311A9DF0EC
S11313485AF00161E8EC5A1300300300B804EC4B7E
S11313581400C9F092FF880A9DF2ADF0BDF4DAF4E6
S11313688DF2480000C9F093FF880B9DF2ADF0BDE3
S1131378F4DAF48DF2480000C9F094FF880C9DF269
S1131388ADF0BDF4DAF48DF2480000C9F095FF8899
S11313980E9DF2ADF0BDF4DAF48DF2480000C9F008
S11313A896FF880D9DF2ADF0BDF4DAF48DF2480095
S11313B800C9F097FF880F9DF2ADF0BDF4DAF48D03
S11313C8F2480000C9F098FF88109DF2ADF0BDF412
S11313D8DAF48DF2480000C9F29EFFC9F09EFFAD11
S11313E8F0BDF4FAF48B9DF05AF0FEADF2BDF4DAD8
S11313F8F48DF0480000F6B800F6B802EC171400B3
S113140800A800040100B800A80261D8A1B802A885
S113141802440000A80061F8443F0161E3EC0814A9
S113142800C9F09EFFADF0BDF2FAF28B9DF0311ABF
S11314389DF05AF0014AF00161E8EC4B14003004C5
S113144800B804A804BDF01006D7C9F0F000ADF048
S1131458BDF4FAF48B9DF26AF204ADF0DAF48DF27D
S113146848000000000000C9F02601ADF0BDF2DA22
S1131478F2301100780000FC841400D761EFC161D8
S1131488CFC9E82401C9F62401ADF6BDF0FAF0ABE2
S1131498BDF68DF66C0C9DF48DF76C009DF5DAE8BD
S11314A8ADF4780000C9F4E6FFADF4BDF2FAF28BAE
S11314B89DF66AF601ADF4BDF0DAF08DF648000049
S11314C8C9F4E2FFADF4BDF2FAF28B9DF65AF6FECA
S11314D8ADF4BDF0DAF08DF6480000C9F4E6FFADCE
S11314E8F4BDF2FAF28B9DF66AF602ADF4BDF0DAB9
S11314F8F08DF6480000C9F4E2FFADF4BDF2FAF24B
S11315088B9DF65AF6FDADF4BDF0DAF08DF6480081
S113151800C9F4E6FFADF4BDF2FAF28B9DF66AF663
S113152804ADF4BDF0DAF08DF6480000C9F4E2FF2A
S1131538ADF4BDF2FAF28B9DF65AF6FBADF4BDF0AC
S1131548DAF08DF6480000C9F4EEFFADF4BDF2FA06
S1131558F28B9DF66AF601ADF4BDF0DAF08DF6482B
S11315680000C9F4EAFFADF4BDF2FAF28B9DF66A05
S1131578F601ADF4BDF0DAF08DF6480000C9F4EEDA
S1131588FFADF4BDF2FAF28B9DF66AF602ADF4BD36
S1131598F0DAF08DF6480000C9F4EAFFADF4BDF2C4
S11315A8FAF28B9DF66AF602ADF4BDF0DAF08DF628
S11315B8480000C9F41401ADF4BDF2DAF230220097
S11315C8780000C9F41C01ADF4BDF0DAF03097805E
S11315D8780000C9F444FFADF4BDF2DAF23000CE6D
S11315E8780000C9F67000C9F47000ADF4BDF0FAD3
S11315F8F08B9DF46AF404ADF6BDF2DAF28DF4488A
S11316080000C9F40E01ADF4BDF0DAF0300700783B
S11316180000C9F41601ADF4BDF2DAF23022017803
S11316280000C9F41E01ADF4BDF0DAF0309740783B
S11316380000C9F446FFADF4BDF2DAF23000CE780A
S11316480000C9F62801C9F42801ADF4BDF0FAF088
S1131658ABBDF48DF46C049DF28DF56C009DF3AD77
S1131668F6BDF4DAF4ADF2780000C9F43401C9F235
S11316783401ADF2BDF0FAF0ABBDF2ADF4BDF0DA71
S1131688F0ADF2780000C9F42A01C9F22A01ADF2DA
S1131698BDF0FAF0ABBDF28DF26C049DF08DF36CE5
S11316A8009DF1ADF4BDF2DAF2ADF0780000C9F2B4
S11316B86000C9F06000ADF0BDF4FAF48B9DF05AF7
S11316C8F0F7ADF2BDF4DAF48DF0480000C9F22069
S11316D8FFC9F020FFADF0BDF4FAF48B9DF06AF079
S11316E808ADF2BDF4DAF48DF0480000C9F26000E8
S11316F8C9F06000ADF0BDF4FAF48B9DF05AF0FB2C
S1131708ADF2BDF4DAF48DF0480000C9F200FFC967
S1131718F000FFADF0BDF4FAF48B9DF06AF004AD6F
S1131728F2BDF4DAF48DF0480000C9F220FFC9F0E4
S113173820FFADF0BDF4FAF48B9DF05AF0FBADF246
S1131748BDF4DAF48DF048000061EFC061CFD761D1
S1131758EFC161CFC9E82801C9F62801ADF6BDF08B
S1131768FAF0ABBDF68DF66C049DF48DF76C009D14
S1131778F5DAE8ADF4780000C9F62A01C9F42A01BB
S1131788ADF4BDF2FAF2ABBDF48DF46C049DF28DA8
S1131798F56C009DF3ADF6BDF4DAF4ADF278000013
S11317A8C9F42201C9F22201ADF2BDF0FAF0ABBDD1
S11317B8F28DF26C0C9DF08DF36C009DF1ADF4BDCF
S11317C8F2DAF2ADF0780000C9F0E2FFADF0BDF452
S11317D8FAF48B9DF25AF2FEADF0DAF48DF2480079
S11317E800C9F0E2FFADF0BDF4FAF48B9DF25AF2B1
S11317F8FDADF0DAF48DF2480000C9F0E6FFADF073
S1131808BDF4FAF48B9DF25AF2FEADF0DAF48DF2DF
S1131818480000C9F0E6FFADF0BDF4FAF48B9DF280
S11318285AF2FDADF0DAF48DF248000061EFC061C0
S1131838CFD7C9F4E6FFADF4BDF0FAF08B9DF66A94
S1131848F601ADF4BDF2DAF28DF6480000C9F4E60B
S1131858FFADF4BDF0FAF08B9DF66AF602ADF4BD67
S1131868F2DAF28DF6480000C9F62401C9F424011D
S1131878ADF4BDF0FAF0ABBDF48DF46C0C9DF28DB3
S1131888F56C009DF3ADF6BDF4DAF4ADF278000022
S1131898C9F42A01C9F22A01ADF2BDF0FAF0ABBDD0
S11318A8F28DF25CFB9DF08DF35CFF9DF1ADF4BD10
S11318B8F2DAF2ADF0780000C9F0E2FFADF0BDF461
S11318C8FAF48B9DF25AF2FEADF0DAF48DF2480088
S11318D800C9F0E2FFADF0BDF4FAF48B9DF25AF2C0
S11318E8FDADF0DAF48DF2480000D72002F6B80016
S11318F8A80844000061E8EC0C1900308100B80025
S1131908EC1E1900F6BF0CF0A808BDF0BF0AF0A839
S113191806BDF0BF0EF0A800BDF01002D72002F6F5
S1131928B800A80844000061E8EC3E1900308100C2
S1131938B800ECB11900A806BDF0BF10F0A808BDA6
S1131948F0BF12F0C9F0E6FFADF0BDF4FAF48B9DD8
S1131958F26AF201ADF0DAF48DF2480000C9F244FB
S1131968FFAF10F0BDF0BDF4FAF48B9DF0ADF2BDFD
S1131978F4DAF48DF0480000AF10F0BDF0A6F0AD35
S1131988F0BF10F0AF12F0BDF0B6F0ADF0BF12F03A
S1131998C9F0E6FFADF0BDF4FAF48B9DF25AF2FEFD
S11319A8ADF0DAF48DF2480000A800BDF01002D7BB
S11319B861CFC1C3C5C761DFC1C3C5C761CF200437
S11319C8C9F00601ADF0BDF2FAF2ABBDF08DF05CE2
S11319D8079803C9F20E018803705100BDF0ADF2F7
S11319E8BDF4DAF4ADF07800008803D161F8EC04B2
S11319F81A0088039DF09800FCFA1A00C9F046FF03
S1131A08ADF0BDF2FAF28B9DF09802AF0AF0BDF288
S1131A18AF0CF0BDF0ADF246F061E3EC6F1A00AF25
S1131A280EF0BDF088029DF2ADF0BDF4DAF48DF24B
S1131A38480000AF0EF0BDF0A6F0ADF0BF0EF0AF59
S1131A480CF0BDF0A6F0ADF0BF0CF0AF0AF0BDF29B
S1131A58AF0CF0BDF0ADF246F061E8EC7C1A00FC86
S1131A68F11A00EC7C1A008802705100BDF0B8002D
S1131A78FCF51A00100461DFC6C4C2C061CFC6C435
S1131A88C2C061FC61CFC1C3C5C761DFC1C3C5C7DB
S1131A9861CFAF12F0BDF044000061F8ECDF1A002A
S1131AA8C9F244FFAF10F0BDF0BDF4FAF48B9DF019
S1131AB8ADF2BDF4DAF48DF0480000AF10F0BDF0DB
S1131AC8A6F0ADF0BF10F0AF12F0BDF0B6F0ADF077
S1131AD8BF12F0ECE31A00FCF61A0061DFC6C4C2B8
S1131AE8C061CFC6C4C2C061FCE515F0D7D7E54BC9
S1131AF8F0D7D761EFC1C3C561CF2034C9F0F00076
S1131B08ADF0BDF2FAF28B98316C019830ADF0DA91
S1131B18F28830480000C9F0B601ADF0BDF2DAF23F
S1131B28304200780000C9F0B401ADF0BDF2DAF239
S1131B3830FF0A780000C9F0E6FFADF0BDF2FAF212
S1131B488B982F6C10982EADF0DAF2882E4800008E
S1131B58C9F0E2FFADF0BDF2FAF28B982D5CEF9874
S1131B682CADF0DAF2882C480000C9F0E6FFADF09D
S1131B78BDF2FAF28B982B6C20982AADF0DAF28831
S1131B882A480000C9F0E2FFADF0BDF2FAF28B98E2
S1131B98295CDF9828ADF0DAF28828480000C9F0FB
S1131BA8E5FFADF0BDF2FAF28B98276C809826AD6C
S1131BB8F0DAF28826480000C9F0E1FFADF0BDF282
S1131BC8FAF28B98255C7F9824ADF0DAF2882448E1
S1131BD80000C9F0E6FFADF0BDF2FAF28B98236C71
S1131BE8409822ADF0DAF28822480000C9F0E2FFFA
S1131BF8ADF0BDF2FAF28B98215CBF9820ADF0DA13
S1131C08F28820480000C9F0E6FFADF0BDF2FAF210
S1131C188B981F6C80981EADF0DAF2881E4800007D
S1131C28C9F0E2FFADF0BDF2FAF28B981D5C7F9823
S1131C381CADF0DAF2881C480000C9F0E6FFADF0EC
S1131C48BDF2FAF28B981B6C04981AADF0DAF2889C
S1131C581A480000C9F0E2FFADF0BDF2FAF28B9821
S1131C68195CFB9818ADF0DAF28818480000C9F03E
S1131C78E7FFADF0BDF2FAF28B98176C809816ADB9
S1131C88F0DAF28816480000C9F0E3FFADF0BDF2BF
S1131C98FAF28B98155C7F9814ADF0DAF288144840
S1131CA80000C9F0D4FFADF0BDF2FAF28B98136CC2
S1131CB8019812ADF0DAF28812480000C9F0D0FF9A
S1131CC8ADF0BDF2FAF28B98115CFE9810ADF0DA23
S1131CD8F28810480000C9F0D4FFADF0BDF2FAF262
S1131CE88B980F6C02980EADF0DAF2880E4800005B
S1131CF8C9F0D0FFADF0BDF2FAF28B980D5CFD98F7
S1131D080CADF0DAF2880C480000C9F0D4FFADF04D
S1131D18BDF2FAF28B980B6C04980AADF0DAF288EB
S1131D280A480000C9F0D0FFADF0BDF2FAF28B9872
S1131D38095CFB9808ADF0DAF28808480000C9F09D
S1131D48EEFFADF0BDF2FAF28B98075CEF9806ADA2
S1131D58F0DAF28806480000C9F0EAFFADF0BDF2F7
S1131D68FAF28B98055CEF9804ADF0DAF28804482F
S1131D780000C9F0EEFFADF0BDF2FAF28B98036CE7
S1131D88209802ADF0DAF28802480000C9F0EAFFB0
S1131D98ADF0BDF2FAF28B98016C209800ADF0DA40
S1131DA8F28800480000C9F09001ADF0BDF2DAF203
S1131DB8300080780000C9F018FFADF0BDF2DAF207
S1131DC830FFF978000030B801B832C9F0B801AD75
S1131DD8F0BDF2FAF2ABBDF08DF05CFE9DEC8DF136
S1131DE85CFF9DEDA832BDF0DAF0ADEC780000C9D7
S1131DF8ECBA01C9F0BA01ADF0BDF2FAF2ABBDF02C
S1131E088DF05CFE9DEA8DF15CFF9DEBDAECADEAAA
S1131E18780000C9F09201ADF0BDF2DAF2F678006C
S1131E2800C9F01AFFADF0BDF2DAF2303F9C780039
S1131E3800C9EABE01C9F0BE01ADF0BDF2FAF2ABC9
S1131E48BDF08DF05CFD9DE88DF15CFF9DE9DAEA5B
S1131E58ADE8780000C9E8BC01C9F0BC01ADF0BD2B
S1131E68F2FAF2ABBDF08DF05CFD9DF68DF15CFFEE
S1131E789DF7DAE8ADF6780000C9F6B801C9F0B8FC
S1131E8801ADF0BDF2FAF2ABBDF08DF05CFD9DF44E
S1131E988DF15CFF9DF5ADF6BDF0DAF0ADF4780098
S1131EA800C9F4BA01C9F0BA01ADF0BDF2FAF2AB57
S1131EB8BDF08DF05CFD9DF28DF15CFF9DF3ADF4FA
S1131EC8BDF0DAF0ADF2780000103461EFC4C2C09E
S1131ED861CFD7C9F2E2FFADF2BDF0FAF08B9DF401
S1131EE85AF4EFADF2DAF08DF4480000C9F2E6FFD7
S1131EF8ADF2BDF0FAF08B9DF45AF4EFADF2DAF0DE
S1131F088DF4480000C9F4B201C9F2B201ADF2BDC2
S1131F18F0FAF0ABBDF28DF26C019DF08DF36C001C
S1131F289DF1ADF4BDF2DAF2ADF0780000D7C9F452
S1131F38B401C9F2B401ADF2BDF0FAF0ABBDF28D53
S1131F48F26C019DF08DF36C009DF1ADF4BDF2DAF5
S1131F58F2ADF0780000C9F0E6FFADF0BDF4FAF494
S1131F688B9DF26AF210ADF0DAF48DF2480000C9E4
S1131F78F0E2FFADF0BDF4FAF48B9DF25AF2EFAD46
S1131F88F0DAF48DF2480000D7C9F2E2FFADF2BDF1
S1131F98F0FAF08B9DF45AF4DFADF2DAF08DF448E0
S1131FA80000C9F2E6FFADF2BDF0FAF08B9DF45AD9
S1131FB8F4DFADF2DAF08DF4480000C9F4B201C9D7
S1131FC8F2B201ADF2BDF0FAF0ABBDF28DF26C02E3
S1131FD89DF08DF36C009DF1ADF4BDF2DAF2ADF035
S1131FE8780000D7C9F4B401C9F2B401ADF2BDF068
S1131FF8FAF0ABBDF28DF26C029DF08DF36C009D8E
S1132008F1ADF4BDF2DAF2ADF0780000C9F0E6FF04
S1132018ADF0BDF4FAF48B9DF26AF220ADF0DAF477
S11320288DF2480000C9F0E2FFADF0BDF4FAF48B7C
S11320389DF25AF2DFADF0DAF48DF2480000D76170
S1132048CFC1C3C5C761DFC1C3C5C761CF2004E61B
S1132058BFD6EF30ACA9B800300600B802FC251989
S113206800100461DFC6C4C2C061CFC6C4C2C06167
S1132078FC61CFC1C3C5C7C6C4C2C061FC61CFC1BE
S1132088C3C5C7C6C4C2C061FCC9F07700ADF0BD02
S1132098F2DAF2F1480000FCF20D00FC340D00FC09
S11320A8A40F00FC521400FC260B00FCFB1A00FCD5
S11320B8191000FC060E00C9F07800ADF0BDF2DA84
S11320C8F2F1480000D72002717BFAFC912000E667
S11320D8B800BDF01002D7200EFC022200FC8414C4
S11320E800FC571700FC060E00FCDF09003057659A
S11320F8B804306C63B806306F6DB80830650DB835
S11321080A300A00B80CC9F00E00AEF8BDF0040E8F
S113211800BDF004F6FFB800300900B802FC251928
S1132128003016F0B800E6B802FCF31800ADF0BFB2
S11321384CF0FCD90C0000C9F030FFADF0BDF2FA48
S1132148F28B9DF0317A9DF0D4F061E8EC3F2100E8
S11321583005FFB800300500B802FC3B0600D4F097
S113216861F8EC772100300500B800FCD800003095
S113217805FFB800300400B802FC3B0600D4F06147
S1132188F8EC962100300300B800FCD800003005B4
S1132198FFB800300300B802FC3B0600D4F061F835
S11321A8ECB52100300400B800FCD800003005FF6D
S11321B8B800300200B802FC3B0600D4F061F8EC29
S11321C8D22100E6B800FCD800008F15F09DF0D4A9
S11321D8F061F8ECFE2100F515F08F16F09DF098EB
S11321E800FC6622003016F0B800E6B802FCF318CA
S11321F800ADF0BF4CF0EC3A2100717AFAD708220E
S1132208CBF8DCFE410061CF34D8003600EF61DF43
S11322183600EF3000EF27311E440000DD0EB161B7
S1132228CF11A9BBA5A5A7A761DFEFED61CF360044
S1132238EF30000061DF3086F027311E440000DDF6
S11322480AB161CFBBA7A761DFEFF161CFFCCE2054
S11322580000300000C1C1C1FCDF2000EFFE2004F3
S113226888084C2461E8EC902200AFD4EFBDF088D4
S1132278089DF2DAF048A2EFAFD4EFBDF0A6F0ADB6
S1132288F0BFD4EFEC49230088084C0A61E8ECF36A
S11322982200AFD4EFBDF0B6F0ADF004A2EF168B78
S11322A89DF04AF00D61E8ECE02200AF34EFBDF098
S11322B844000061E8ECE02200AFD4EFBDF08808E8
S11322C89DF2DAF048A2EFAFD4EFBDF0A6F0DAF051
S11322D8F148A2EFFC502300F4F08DF09FA2EFF632
S11322E8BFD4EFF6BF34EFEC492300AF34EFBDF0B1
S11322F844000061E8EC492300AFD4EFBDF044008A
S11323080061E8EC2F230088084C2461F8EC2F23A3
S11323180030B3A9B800300700B802FC251900E65C
S1132328BF34EFEC492300AFD4EFBDF088089DF229
S1132338DAF048A2EFAFD4EFBDF0A6F0ADF0BFD409
S1132348EF88089DF01004D7202AFC432900ADF03B
S113235844000061F8EC2E29008FA3EF9DF0CDF125
S113236800ADF044330061F8ECDF2400ADF04433F1
S11323780071FF61F3ECA82300ADF044310061F86B
S1132388EC4A2400ADF044310071FF61F3ECAB2456
S113239800ADF044300061F8ECE92300ECE92800D2
S11323A8ADF044440061F8EC2D2500ADF044440040
S11323B871FF61F3ECCF2300ADF044420061F8EC07
S11323C8E12800ECE92800ADF044450061F8EC6E22
S11323D82800ADF0444C0061F8ECC92500ECE9286C
S11323E800AF68EFBDF044010061E8EC032400513C
S11323F8309827F6BF68EFEC07240051339827512B
S11324080D9828510A982951249F36EF51309F3747
S1132418EFF538EF3036EFB800C9F02A00AEF8BD52
S1132428F0042A00BDF004FDFFB802FC272E00309A
S11324380700B800FCD80000300500BFD4EFEC2E2C
S11324482900AF68EFBDF044000061E8EC642400A3
S113245851309827E6BF68EFEC6824005133982779
S1132468510D9828510A982951249F36EF51319FCC
S113247837EFF538EF3036EFB800C9F22A00AEF876
S1132488BDF2042A00BDF204FDFFB802FC272E00A9
S1132498300600B800FCD80000300500BFD4EFECCB
S11324A82E290030D8EFB80030A4EFB802FC752EFE
S11324B80051249F36EF51329F37EF51309F38EF48
S11324C8510D9F39EF510A9F3AEFF53BEF30050064
S11324D8BFD4EFEC2E290051249F36EF51339F3798
S11324E8EF51309F38EF51319F39EF51399F3AEF0F
S11324F851319F3BEF51319F3CEF51399F3DEF5193
S1132508309F3EEF51339F3FEF51389F40EF510DBD
S11325189F41EF510A9F42EFF543EF300D00BFD4BE
S1132528EFEC2E290030D8EFB800FC9C2E00ADF05B
S113253844200061F3EC7C250051249F36EF51447C
S11325489F37EF51309F38EF510D9F39EF510A9F54
S11325583AEFF53BEF300500BFD4EF306EEFB8002B
S113256830D8EFB802FC752E00E6B800FCAB2900A1
S1132578EC2E2900F19800E19802FCA808003068C4
S113258806B800FCF40A00F1980051809802FCA8EF
S11325980800306806B800FCF40A0051249F36EF9E
S11325A851449F37EF51339F38EF510D9F39EF5105
S11325B80A9F3AEFF53BEF300500BFD4EFEC2E2924
S11325C8008FA4EF9DF04AF03061E8EC482600C97A
S11325D8F004FFADF0BDF4FAF48B9DF25AF2FDADB0
S11325E8F0DAF48DF2480000C9F004FFADF0BDF450
S11325F8FAF48B9DF25AF2FBADF0DAF48DF248004E
S113260800C9F004FFADF0BDF4FAF48B9DF25AF260
S1132618F7ADF0DAF48DF248000051249F36EF51FB
S11326284C9F37EF51309F38EF510D9F39EF510AC6
S11326389F3AEFF53BEF300500BFD4EFEC6A280072
S11326488FA4EF9DF04AF03161E8ECC72600C9F089
S113265804FFADF0BDF4FAF48B9DF25AF2FDADF02F
S1132668DAF48DF2480000C9F004FFADF0BDF4FAC5
S1132678F48B9DF25AF2FBADF0DAF48DF2480000C7
S1132688C9F004FFADF0BDF4FAF48B9DF26AF208C8
S1132698ADF0DAF48DF248000051249F36EF514C26
S11326A89F37EF51309F38EF510D9F39EF510A9FF3
S11326B83AEFF53BEF300500BFD4EFEC6A28008F02
S11326C8A4EF9DF04AF03261E8EC462700C9F00413
S11326D8FFADF0BDF4FAF48B9DF26AF202ADF0DAC4
S11326E8F48DF2480000C9F004FFADF0BDF4FAF42B
S11326F88B9DF25AF2FBADF0DAF48DF2480000C972
S1132708F004FFADF0BDF4FAF48B9DF25AF2F7AD84
S1132718F0DAF48DF248000051249F36EF514C9FB3
S113272837EF51309F38EF510D9F39EF510A9F3AD7
S1132738EFF53BEF300500BFD4EFEC6A28008FA417
S1132748EF9DF04AF03361E8ECC52700C9F004FFB7
S1132758ADF0BDF4FAF48B9DF25AF2FDADF0DAF463
S11327688DF2480000C9F004FFADF0BDF4FAF48B13
S11327789DF26AF204ADF0DAF48DF2480000C9F073
S113278804FFADF0BDF4FAF48B9DF25AF2F7ADF004
S1132798DAF48DF248000051249F36EF514C9F37EC
S11327A8EF51309F38EF510D9F39EF510A9F3AEF9F
S11327B8F53BEF300500BFD4EFEC6A28008FA4EF97
S11327C89DF04AF03461E8EC442800C9F004FFADF8
S11327D8F0BDF4FAF48B9DF26AF202ADF0DAF48DEE
S11327E8F2480000C9F004FFADF0BDF4FAF48B9D83
S11327F8F26AF204ADF0DAF48DF2480000C9F0048C
S1132808FFADF0BDF4FAF48B9DF25AF2F7ADF0DAAD
S1132818F48DF248000051249F36EF514C9F37EF56
S113282851309F38EF510D9F39EF510A9F3AEFF518
S11328383BEF300500BFD4EFEC6A280051249F36E3
S1132848EF514C9F37EF51329F38EF510D9F39EFBD
S1132858510A9F3AEFF53BEF300500BFD4EFEC2E59
S11328682900EC2E2900FCCC2A008F83F09DF070FF
S11328785100BDF28F84F09DF0CDF100C9F42A0017
S1132888AEF8BDF4042A00BDF404DFFFB80030BB81
S1132898A9B802ADF2B804ADF0B806FCFA2D0030C0
S11328A836EFB800C9F02A00AEF8BDF0042A00BD1E
S11328B8F004DFFFB802FC752E00C9F22A00AEF856
S11328C8BDF2042A00BDF204DFFFB800FC9C2E0010
S11328D8ADF0BFD4EFEC2E2900FC902B00EC2E2990
S11328E80051249F36EFF537EF3036EFB80030A3A8
S11328F8EFB802FC272E003036EFB800FC9C2E00FF
S1132908ADF00436EFBDF0BDF4DAF45131480000FF
S1132918DAF0510D480100510A480200F148030059
S1132928300500BFD4EFAFD4EFBDF03036EFB800B8
S1132938ADF0B802FC251900102AD7200C30A2EFFC
S1132948B800FC9C2E00B6F0ADF004A2EF168B9DE7
S1132958F04AF00A61F8ECA12900512498078FA3E2
S1132968EF9DF0980851329809510D980A510A9828
S11329780B30A2EFB800C9F00C00AEF8BDF0040C9F
S113298800BDF004FBFFB802FC752E00300500BF43
S1132998D4EFF6B804ECA42900E6B804A804BDF002
S11329A8100CD761EFC161CF2006A80C4400006168
S11329B8F8ECCD2900F6BF6CEFE6BF6AEFF6BFA0CE
S11329C8EFFCA20E00AF6AEFBDF044000061F8EC22
S11329D8872A00F19800E19802FCA80800306806EC
S11329E8B800FCF40A00F1980051809802FCA80889
S11329F800306806B800FCF40A00AF6CEFBDF0B80C
S1132A0804EC602A00AF6CEFBDF0040800BDF2A826
S1132A1804BDF0ADF246F061E8EC392A00F1980003
S1132A2851C09802FCA80800306806B800FCF40AF3
S1132A3800A804046EEFBDF0BDF2FAF28B9DF0E13C
S1132A4898008DF09802FCA80800302800B800FC13
S1132A58F40A00A804A1B804A804BDE8306EEFB8CD
S1132A6800FC9C2E00B6F0B6F0ADE846F061D8EC58
S1132A780D2A00AF6CEFBDF0A6F0ADF0BF6CEFAF60
S1132A886CEFBDF0BDE8306EEFB800FC9C2E00ADD5
S1132A98F004EFFFBDF0ADE846F061C8ECBC2A00D5
S1132AA8306EEFB800FC9C2E00ADF044120061F3C8
S1132AB8ECC42A00F6BF6AEFFCFD0E00100661EFB5
S1132AC8C061CFD72002C9F031FFADF0BDF2DAF210
S1132AD8F1480000FC410C0000C9F030FFADF0BD26
S1132AE8F2FAF28B9DF0317A9DF0D4F061E8ECE1D2
S1132AF82A00FC410C0000C9F030FFADF0BDF2FA29
S1132B08F28B9DF0317A9DF0D4F061E8ECFF2A0055
S1132B183083F0B800FC0D0D008F83F09DF0311A5E
S1132B289DF09F83F0C9F031FFADF0BDF2DAF251A8
S1132B3802480000FC410C0000C9F030FFADF0BDB4
S1132B48F2FAF28B9DF0317A9DF0D4F061E8EC4111
S1132B582B00FC410C0000C9F030FFADF0BDF2FAC7
S1132B68F28B9DF0317A9DF0D4F061E8EC5F2B0094
S1132B783084F0B800FC0D0D008F84F09DF0312AEC
S1132B889DF09F84F01002D7201CF19813F198143B
S1132B98F19815F19816F19817F19818300400BFB8
S1132BA8D4EFF6B81AEC702C00AEF8BDF20413009A
S1132BB8BDF0A81A06F0BDF0BDF4FAF48B9DF2AF8F
S1132BC8D4EFBDF004A2EF168B9DF0768DF2610E62
S1132BD89DF00CD09DF2AEF8BDF4041300BDF0A82E
S1132BE81A06F0BDF0BDF4DAF48DF2480000AFD453
S1132BF8EFBDF0A6F0ADF0BFD4EFBDF004A2EF1620
S1132C088B9DF04AF02C61E8EC292C00A81AA1B895
S1132C181AAFD4EFBDF0A6F0ADF0BFD4EFEC702C32
S1132C2800AFD4EFBDF004A2EF168B9DF04AF00D6F
S1132C3861F8EC702C00AEF8BDF2041300BDF0A8E6
S1132C481A06F0BDF0BDF4FAF48B9DF031499DF2FB
S1132C58AEF8BDF4041300BDF0A81A06F0BDF0BD2B
S1132C68F4DAF48DF2480000AFD4EFBDF004A2EF1B
S1132C78168B9DF04AF00D61E8ECB12B0088139D8A
S1132C88F0981288149DF0981188159DF0980F8873
S1132C98169DF0980E88179DF0980D88189DF09849
S1132CA80CF1981988139DF0CDF100C9F21C00AEFF
S1132CB8F8BDF2041C00BDF204ECFFB80030CCA946
S1132CC8B802ADF0B804FCFA2D00C9F41C00AEF843
S1132CD8BDF4041C00BDF404ECFFB800FC9C2E00F9
S1132CE8ADF0BFD4EF3036EFB800C9F01C00AEF831
S1132CF8BDF0041C00BDF004ECFFB802FC752E0006
S1132D088819D161E8EC2D2D00A80CBDF0B800A8F5
S1132D180EBDF0B802A810BDF0B80488129DF09852
S1132D2806FCE81200101CD7A804BDF0BDF2FAF2A4
S1132D388B9DF04AF09961E3EC4B2D00CDF002EC49
S1132D48E12D00A804A1BDF0BDF2FAF28B9DF04A72
S1132D58F01261E3EC672D00CDF002ECE12D00A840
S1132D6804040200BDF0BDF2FAF28B9DF04AF03182
S1132D7861E3EC852D00CDF002ECE12D00A80404FC
S1132D880300BDF0BDF2FAF28B9DF04AF02461E332
S1132D98ECA32D00CDF002ECE12D00A804040400FE
S1132DA8BDF0BDF2FAF28B9DF04AF06061E3ECC12C
S1132DB82D00CDF002ECE12D00A804040500BDF0BF
S1132DC8BDF2FAF28B9DF04AF06061E3ECDF2D006E
S1132DD8CDF002ECE12D00F4F0D7A806BDF2FAF22A
S1132DE8ABBDF0DAF2A1780000ADF0128804480017
S1132DF800D72008A80EB80030E22DB802AEF804B7
S1132E080C00B804AEF8040C00040400B806FCC5B1
S1132E182E00A80CBDF2DAF2F14800001008D761C0
S1132E28EFC161CFA806BDF0BDF2EAF089D161F81F
S1132E38EC6D2E00A6F2ADF21489D161E8EC3C2EBB
S1132E4800A808BDF4ADF4168B9DF6ADF2128DF60C
S1132E58480000A6F2A6F4D4F661E8EC4D2E006111
S1132E68EFC061CFD7ADF0BDF2EC492E00A804BD88
S1132E78F2A806BDF0ADF0168B9DF4ADF2128DF4F8
S1132E88480000A6F2A6F0D4F461E8EC7D2E00A870
S1132E9804BDF0D7A804BDF2BDF0EAF289D161F807
S1132EA8ECC02E00A6F0ADF01489D161E8ECAC2E8C
S1132EB800ADF026F2BDF0D7C9F00000D761EFC12C
S1132EC8C3C561CF20E0F6B82CAEF804DF00B8140F
S1132ED8A8EAA1BDEAA8EA168B9DF04AF02561F894
S1132EE8EC1D2F00D4F061F8ECC83A008DF098007E
S1132EF8A8EEB802A8EC1261DAFBF8FF61792CADF0
S1132F08EAB8EAA1BDEAA8EA168B9DF04AF0256161
S1132F18E8ECEC2E00ADEA168B9DEC4AEC2561F842
S1132F28EC533B00F19831984E88319837883198A2
S1132F38364AEC2B61F8EC732F004AEC2B61F3EC66
S1132F487B2F004AEC2061F8EC5232004AEC2361F2
S1132F58E8ECA12F00FBF8FF61594EA6EAFAEA8BC8
S1132F689DEC4AEC2B61E8EC422F008DEC9836EC92
S1132F78632F004AEC2D61F8EC972F004AEC30617E
S1132F88E8ECA12F00FBF8FF615931EC632F00FB3B
S1132F98F8FF615937EC632F00ADEABDF04AEC2A1B
S1132FA861F8EC9E3A008DEC0CD09DF0F6B8384AE6
S1132FB8F00961F3EC0330008DEC9DF2A838BDF004
S1132FC8ADF001BDF0312DBDF4ADF006F4BDF0A6B1
S1132FD8EACDF300ADF204D0FFBDF2ADF006F2BDC8
S1132FE8F0FAEA8B9DF20CD09DF34AF30961E3EC05
S1132FF8C82F008DF29DECADF0B8388837D161F850
S1133008EC0F3000F198314AEC2E61F8EC3D3A00AF
S1133018C9E8FFFF4AEC6861F8EC2F3A004AEC6C07
S113302861F8ECC432004AEC4C61F8ECC432008D0F
S1133038EC982EF4F0ADEAA1B8EA882E4C6661F853
S1133048ECDD3200882E4C6661E3EC633200882E96
S11330584C6F61F8EC363F00882E4C6F61E3ECD678
S11330683A00882E4C7361F8ECB33E00882E4C73FA
S113307861E3EC424200882E4C7561F8EC3E440052
S1133088882E4C7861E8EC7B3B0030F2A9B816A88E
S1133098F016ABB83CD4F061F8EC5C3E00A8F0162E
S11330A8AC02B83EA8F0040400B8F0882E4C6F6156
S11330B8F8EC733E00882E4C7561F8ECE64200305B
S11330C81000B832F6B834F19836FBF8FF30000037
S11330D861293CBDF430000061D8B161293EBDF6D8
S11330E8883C6BF49842883D6BF59843883E6BF6B0
S11330F89844883F6BF79845A844317A9DF430008A
S113310800BDF69DF58DF49DECADE844000061E842
S1133118EC513C00D4EC61E8EC513C00AEF804DF1F
S113312800BDEAADE8BDF0ADF0BDE8A83846E871E9
S1133138FF7177E961D8ECAF3200A83826E8BDEC16
S1133148883676F1612E9DF088366BF0317A318FAE
S1133158BDF0ADEC26F0B8168837D161E8ECBE3185
S113316800A816B1B81E44000071FF61D8ECED4206
S113317800A81EBDECADEAB82AADE8B82EA8ECBD8F
S1133188E8A8EEBDEA51209800ADEAB802DAE86191
S1133198DAB6ECADEC44FFFF61E8EC8D3100A82A07
S11331A8BDEAA82EBDE8A816BDF0A81E26F0B816DC
S11331B8A82C06F0B82C8836D161E8EC113C00AD97
S11331C8E844000071FF61E3EC0C3200ADEABDECA9
S11331D806E8BDEAADE8B81EADECBDE8A8EEBDEC66
S11331E8FAE88B9800ADECB802A8EC1261DAA6E80C
S11331F8ADE846EA61E8ECE83100A81EBDE8A82C71
S113320806E8B82C8837D161F8ECD82E00A816B196
S1133218BDE844000071FF61D8ECD82E00A8ECBDCD
S1133228EAA8EEBDEC51209800ADECB802DAEA61E8
S1133238DAB6E8ADE844FFFF61E8EC2D3200A816E1
S113324816A82C07B82CECD82E008836D161E8ECE7
S1133258632F008DEC9836EC632F00882E4C586150
S1133268F8EC3E4400882E4C5861F3EC173B008878
S11332782E4C4561F8ECF83B00882E4C4761F8EC7D
S1133288873B00882ED161E8EC7B3B00C9E803004A
S1133298ADEAB8EAC9EA03AAA83846E871FF717723
S11332A8E961C8EC423100F6B8168837D161E8EC18
S11332B8BE310030FFFFB816ECBE3100FAEA8C01CB
S11332C8982EA6EAE4F0ADEAA1B8EA882E4C666125
S11332D8E8EC4C3000A4F0ADE8C9EC000044000070
S11332E871FF61D8EC4F4400F1982ED4F061F8ECEA
S11332F8A83B00A8F0040400BDEAA8F016ABB80087
S1133308A8F016AC02B802FC5A44008DF0981E8D41
S1133318F1981F8DF298208DF398218DF498228DC1
S1133328F598238DF698248DF798258DF098168DA9
S1133338F198178DF298188DF398198DF4981A8DC1
S1133348F5981B8DF6981C8DF7981DADEAB8F0F426
S1133358F088169800881798018818980288199890
S113336803881A9804881B9805881C9806881D9851
S1133378078DF098089809980A980B980C980D9856
S11333880EF1980FFCDF82008DF0D171FF61D8EC4B
S1133398E44100AEF8045A00BDF4A83806F4BDEAC6
S11333A8F4F0CDF6F08816980088179801881898D4
S11333B80288199803881A9804881B9805881C9809
S11333C806881D98078DF098089809980A980B980C
S11333D80C980D8DF6980E513F980FFCF881008DCE
S11333E8F0F4F0D171FF61D8EC7C3F00CDF3E0CD6F
S11333F8F476CDF548CDF6378DF3980B8DF4980C0B
S11334088DF5980D8DF6980E5142980FFCF88100B1
S1133418F6B8408DF0D171FF61D8EC093500ADE8FC
S1133428B82AA840BDE88816980088179801881813
S1133438980288199803881A9804881B9805881C88
S11334489806881D9807F19808F19809F1980A5187
S113345820980B515F980C51A0980D5102980E5169
S113346842980FFC3B75008DF0981E8DF1981F8DC6
S1133478F298208DF398218DF498228DF598238D58
S1133488F698248DF798258DF098168DF198178D58
S1133498F298188DF398198DF4981A8DF5981B8D58
S11334A8F6981C8DF7981DADE8040A00BDE8CDF325
S11334B8E0CDF476CDF548CDF63788169800881710
S11334C898018818980288199803881A9804881B00
S11334D89805881C9806882598078DF3980B8DF411
S11334E8980C8DF5980D8DF6980EFCF881008DF0EA
S11334F8D171FF61C8EC2E3400ADE8B840A82ABDEC
S1133508E8F4F0CDF62488169800881798018818EE
S1133518980288199803881A9804881B9805881CA7
S11335289806881D98078DF098089809980A980BAA
S1133538980C980D8DF6980E5140980FFCF8810060
S11335488DF0D171FF61D8EC123600ADE8B82AA825
S113355840BDE8881698008817980188189802884A
S1133568199803881A9804881B9805881C98068853
S11335781D9807F19808F19809F1980AF1980BF148
S1133588980CF1980D5124980E5140980FFC3B75F6
S1133598008DF0981E8DF1981F8DF298208DF39868
S11335A8218DF498228DF598238DF698248DF7981B
S11335B8258DF098168DF198178DF298188DF3983B
S11335C8198DF4981A8DF5981B8DF6981C8DF7981B
S11335D81DA6E88816980088179801881898028804
S11335E8199803881A9804881B9805881C980688D3
S11335F8259807FCF881008DF0D171FF61C8EC5B58
S11336083500ADE8B840A82ABDE8ADEC4400006137
S1133618F8ECBF3D00A840BDECADE846EC71FF7185
S113362877ED61E3EC3F3600ADEC44FCFF71FF71CC
S1133638C061C8EC744200B6E8884ED161E8ECBFBA
S11336483D00E1984E984F882ED161F8ECCB3D00AF
S1133658ADEABDECC9F00000ADE846F071FF717742
S1133668F161D8EC313800ADE8B83AADECB82AAD20
S1133678EAB854ADF0BDECECBC3600A83A440000FE
S113368861E8EC973600884ED161F8EC0C3800A854
S11336982ABDF6A6F6DAF6512E480000A82A040236
S11336A800B82AA6ECA83A46EC71FF7177ED61D808
S11336B8EC21380088169800881798018818980211
S11336C888199803881A9804881B9805881C9806F2
S11336D8881D9807FC4A8600ADF0B826ADF2B828D4
S11336E8ADF0BDE88827317B9DEA9DEBADE8B800D5
S11336F8ADEAB802FCAB84008DF0981E8DF1981FDA
S11337088DF298208DF398218DF498228DF59823C5
S11337188DF698248DF798258816980088179801AF
S113372888189802881998038DF098088DF19809DB
S11337388DF2980A8DF3980B8DF4980C8DF5980DED
S11337488DF6980E8DF7980FFCE75D008DF09816AE
S11337588DF198178DF298188DF398198DF4981A9D
S11337688DF5981B8DF6981C8DF7981D8DF0980093
S11337788DF198018DF298028DF398038DF49804D5
S11337888DF598058DF698068DF79807F19808F148
S11337989809F1980AF1980BF1980CF1980D5124B5
S11337A8980E5140980FFC085F008DF0981E8DF11B
S11337B8981F8DF298208DF398218DF498228DF519
S11337C898238DF698248DF798258DF098168DF109
S11337D898178DF298188DF398198DF4981A8DF519
S11337E8981B8DF6981C8DF7981DA82AA1BDF0A8E2
S11337F82A1288260C30480000ADEC44000061F819
S1133808EC833600ADF0B82AA6ECA83A46EC71FF72
S11338187177ED61C8ECBC3600A82ABDECADE8B8F8
S113382850ADEAB852A854BDEAF4F0CDF61488169F
S11338389800881798018818980288199803881A94
S11338489804881B9805881C9806881D98078DF08D
S113385898089809980A980B980C980D8DF6980E64
S11338685140980FFCF881008DF0D171FF61D8ECBC
S1133878623900ADECB1BDF4C9F20100ECA2380024
S1133888DAF6480000C9F20000B6F4ADF4A1BDF0C0
S1133898ADEA46F061C8ECE23800ADF4BDF6168B2B
S11338A89DF14AF12E61F8EC9138008DF2768DF194
S11338B8610E9DF14AF13A61E8EC883800ADF412E2
S11338C85130480000C9F20100B6F4ADF4A1BDF0CE
S11338D8ADEA46F061D8ECA23800ADF244000061CC
S11338E8F8EC623900882ED161F8EC8B4200ADEC1B
S11338F8BDF0ADEA46EC61D8EC1A3900EC43390066
S1133908128DF2480000B6F0ADEA46F061C8EC4307
S11339183900ADF0B1168B9DF2ADF04AF22E61E894
S1133928EC0839001204FEFF168B480000B6F0B606
S1133938F0ADEA46F061D8EC1A3900FBF8FF61797A
S113394840ADECBDF2AEF8045A00BDECA83806EC64
S1133958125131480000ADF2BDEC884FD161F8EC4A
S1133968A13900ADECB1168B9DF24AF23061E8EC56
S1133978983900ADEC04FEFFBDF0ADF0A1BDECB686
S1133988F0FAF08C019DF24AF23061F8EC823900C9
S11339984AF22E61F8EC0E4300882ED161F8ECACA3
S11339A83D00DAEC882E480000A84044000071FF6E
S11339B861D8ECF54200ADEC040200BDF0DAEC513C
S11339C82B480100ADF0040A00B816C9EC0100AD9B
S11339D8EAB82AA840BDEAA816BDE8ADECB81EAD01
S11339E8E8A1B816ADEAB800300A00B802FC8A8823
S11339F800DAE88DF00C30480000ADEAB800300A6F
S1133A0800B802FC298800ADF0BDEA44000061E872
S1133A18EC293A00ADEC44010071FF61F3EC723D0E
S1133A2800A6ECECDF3900FAEA8C01982EA6EAF439
S1133A38F0EC3D3000FAEA8C019DEC4AEC2A61F87E
S1133A48EC523F00A6EA0CD09DF0C9E800004AF009
S1133A580961F3EC1C30008DEC9DF0ADE801BDE884
S1133A68312DBDF2ADE806F2BDE8A6EACDF100AD10
S1133A78F004D0FFBDF0ADE806F0BDE8FAEA8B9D8E
S1133A88F00CD09DF14AF10961E3EC633A008DF042
S1133A989DECEC1C3000A8F0040200BDF2A8F0165E
S1133AA8ABBDECB83844000071FF61D8EC6D3F0041
S1133AB8A6EAFAF08C019DECADF2B8F0EC03300004
S1133AC8A82CBDF010E061EFC4C2C061CFD7882E26
S1133AD84C6961F8EC7A3E00882E4C6E61E8EC7112
S1133AE83B00A8F016ABD4F061F8EC184200BDF026
S1133AF8A82CBDECADF012ADEC780000317B480287
S1133B0800480300A8F0040200B8F0ECD82E00889E
S1133B182E4C6461F8EC7A3E00882E4C6461F3EC18
S1133B28F83B00882E4C6361E8EC7B3B00A8F0BDB1
S1133B38EC168B985AC9E80100ADEC040200B8F001
S1133B48AEF8045A00BDEAEC333100A8EA040200D6
S1133B58B8EA8DEC9800A8EEB802A8EC1261DAFB7A
S1133B68F8FF61792CECD82E00882E4C6761F8ECAC
S1133B78873B00C9E80300C9EA03AAEC333100888B
S1133B882E0CFE982EADE844000061E8EC104200CB
S1133B98C9E80100ADE8BDECD4F061E8ECFB320003
S1133BA8A8F0BDF4168B9816ADF4A1168B9817AD32
S1133BB8F4040200168B9818ADF4040300168B98CD
S1133BC819ADF4040400168B981AA8F0040500161D
S1133BD88B981BA8F0040600168B981CA8F0040701
S1133BE800168B981DA8F0040800B8F0EC573300B1
S1133BF8C9EC0000ADE844000071FF61C8ECF33281
S1133C0800C9E80600ECF3320088369800A8EEB83C
S1133C1802A8EC1261DAFBF8FF61792CECC73100D9
S1133C28FBF8FF30000061293CBC3C30000061D83F
S1133C38B161293EBC3EE4EC30E1A9B816300A0073
S1133C48B832F6B834512D9836AEF804DF00BDEA20
S1133C58ADE8B81EA83CB810A83EB8128DEC9DE893
S1133C68A816BDECB6EAA810BDF4A812BDF6A83291
S1133C78BDF0A834BDF251C09FE800ADF6BEF2AD68
S1133C88F4BEF0ADF2BEF4ADF0BEF651C19FE8004B
S1133C988FE8003103FAAEF0BDF4AEF2BDF6AFE042
S1133CA800BDF0AFE200BDF2ADF0B83CADF2B83EF5
S1133CB8ADF4B816ADF6B818ADEC06F0DAEA168B22
S1133CC8480000A816B810ADF6B812A812440000AF
S1133CD8A81061F844000061E8EC6C3C00A810B836
S1133CE83CA812B83E8DE89DECA81EBDE84400002F
S1133CF871FF61D8EC373E00A81426EABDF0ADE8A0
S1133D0846F071FF7177F161E3EC313D00B6EADA10
S1133D18EA5130480000A81426EABDF046E871FFCD
S1133D287177E961D8EC153D00884ED161F8EC2F24
S1133D383100D4EC61F8EC2F3100882E5CDF9DF261
S1133D484AF25861F8ECBD4200882E4C6F61E8ECE9
S1133D582F3100EAEA894C3061F8EC2F3100ADEAE2
S1133D68B1BDF0ADEAB1ECD24200A82ABDEAA8166A
S1133D7826ECBDF0ADE804F6FFBDF2ADECBDF4AD44
S1133D88F2BDF6ADF0DAF6168B480000B6F4A6F0EC
S1133D98B6F2ADF444000061E8EC873D00ADE804F8
S1133DA8F7FFBDEC8831D161E8ECEA3D00ADEC26C3
S1133DB8EABDE8EC333100F1984F882ED161E8EC84
S1133DC8583600A84044000071FF61D8EC14430041
S1133DD8A84016F627BDF0ADEABDECF1982EEC60CC
S1133DE83600883676F1612E9DF088366BF0317A8C
S1133DF8318FBDF0A83826F0BDF0ADEC26EABDE859
S1133E0846F071FF7177F161C8EC333100B6EADA34
S1133E18EA5130480000ADEC26EABDE8ADF046E8CA
S1133E2871FF7177E961F3EC153E00EC33310088DA
S1133E3831D161F8EC003D00883676F1612E9DF0B1
S1133E4888366BF0317A318FBDF0A83826F0BDE89A
S1133E58EC003D008DF0983E983FA8F0040200B8AD
S1133E68F0882E4C6F61E8ECBD3000300800ECCAD5
S1133E783000A8F0BDEC16ABB83CD4F061F8EC31D6
S1133E884200A8F016AC02B83EA8F0040400B8F04A
S1133E98883F71FC61D8EC283C0030E1A9B81630A1
S1133EA80A00B832F6B834ECD23000A8F0040200A4
S1133EB8BDF4A8F016ABBDF644000061F8EC474425
S1133EC800ADE844000071FF61D8ECF24300ADF6A0
S1133ED8A1BDF2ADF61489D161F8EC064400ADE851
S1133EE844000061F8EC364400C9F00000EC0D3FD2
S1133EF800ADF6A1BDF2ADE846F071FF7177F1614E
S1133F08E3EC1D3F00ADF2BDF6A6F0EAF289D161FB
S1133F18E8ECF93E00F626F0BDF0ADF606F0BDEA91
S1133F28ADF626EABDE8ADF4B8F0EC333100884EBE
S1133F38D161F8EC923000ADE844000061E8EC92FD
S1133F483000C9E80100EC923000A8F016ABBDE8D7
S1133F58FAEA8C029DECA8F0040200B8F0A6EAA6DE
S1133F68EAEC1C3000F626ECB838FBF8FF61593748
S1133F78ECB83A00881698008817980188189802AF
S1133F8888199803881A9804881B9805881C980629
S1133F98881D98078DF098089809980A980B980C2A
S1133FA8980D980EF1980FFC128100D4F061F8EC8A
S1133FB86D4200CDF3E0CDF4DFCDF57CCDF6DB8D9D
S1133FC8F3980B8DF4980C8DF5980D8DF6980E5189
S1133FD83D980FFCC58300F6B8408DF0D171FF61A0
S1133FE8F3ECD44000ADE8B82AA840BDE888169898
S1133FF800881798018818980288199803881A98CD
S113400804881B9805881C9806881D9807F1980849
S1134018F19809F1980A5120980B515F980C51A016
S1134028980D5102980E5142980FFC085F008DF0CC
S1134038981E8DF1981F8DF298208DF398218DF498
S113404898228DF598238DF698248DF798258DF070
S113405898168DF198178DF298188DF398198DF498
S1134068981A8DF5981B8DF6981C8DF7981DADE858
S113407804F6FFBDE8CDF3E0CDF4DFCDF57CCDF655
S1134088DB88169800881798018818980288199868
S113409803881A9804881B9805881C98068825980C
S11340A8078DF3980B8DF4980C8DF5980D8DF69873
S11340B80E513D980FFCC583008DF0D171FF61E36B
S11340C8ECF53F00ADE8B840A82ABDE8F4F0CDF619
S11340D8F088169800881798018818980288199803
S11340E803881A9804881B9805881C9806881D98C4
S11340F8078DF098089809980A980B980C980D8DD4
S1134108F6980E513F980FFCDF82008DF0D171FFB5
S113411861C8EC123600ADE8B82AA840BDE8881694
S11341289800881798018818980288199803881A9B
S11341389804881B9805881C9806881D9807F19888
S113414808F19809F1980AF1980BF1980CF1980D77
S11341585124980E5140980FFC085F008DF0981E6A
S11341688DF1981F8DF298208DF398218DF4982263
S11341788DF598238DF698248DF798258DF098164B
S11341888DF198178DF298188DF398198DF4981A63
S11341988DF5981B8DF6981C8DF7981DB6E8CDF60D
S11341A8F088169800881798018818980288199832
S11341B803881A9804881B9805881C9806882598EB
S11341C8078DF6980E513F980FFCDF82008DF0D1D1
S11341D871FF61D8EC264100EC0A36008800984645
S11341E8881798478818984888199849881A984ABF
S11341F8881B984B881C984C881D0C80984D981DDA
S1134208512D9836EC9B3300C9EC0100ECFC3B00C3
S1134218BDF0A82CBDECADF012ADEC780000A8F010
S1134228040200B8F0ECD82E00317B983E983FADDC
S1134238EC040200B8F0EC983E00882E4C7061E85B
S1134248EC7B3B00A8F0BDEC16ABB83C317B983E48
S1134258983FADEC040200B8F030E1A9B81630106C
S113426800ECCA3000F6B840EC123600ADE826EC93
S1134278B1BDE8884ED161F8EC0E4400F1984FECDA
S1134288CB3D00ADECA1BDF2ADEA46F261C8EC4D00
S11342983900ADECBDE8ADF2BDF0ADF012FAE88B33
S11342A8480000B6F0B6E8ADF046EA61E8ECA24290
S11342B800EC4D3900ADEAB112882E480000ADEA91
S11342C804FEFFBDF0ADEA04FEFF125130480000C1
S11342D8A81426F0BDE8ADF0BDEAEC333100300A8D
S11342E800ECCA3000A81EB816ECBE3100ADEC04D0
S11342F80200BDF0DAEC512D480100A84016F6275B
S1134308B840ECCC3900B6ECECA13900AEF8045A4C
S113431800BDF2A83806F2125130480000ADE84456
S1134328000061E8EC394300884ED161F8EC174489
S113433800ADEA040200BDECDAEA512E480100A8F7
S11343484044FFFF61F8EC274400ADE844000061F5
S1134358F8ECC34300ADECBDF2A840A106E8BDF4F7
S1134368ADE8BDF0EC7F4300ADECBDF2ADF0440028
S11343780061F8ECC34300A6ECADF21251304800DA
S113438800B6F0ADF446F061E8EC7043008DE87CCB
S1134398FF98568DE97CFF9857A856BDF2A8404669
S11343A8F271FF7177F361D8ECE24300ADF0BDE838
S11343B8F1982EC9F00100EC6036008DE87CFF9876
S11343C8588DE97CFF9859A858BDF0A84046F0716B
S11343D8FF7177F161C8EC2F4400884FD161F8EC84
S11343E8AC3D00F1982EEC6B3900ADF6A1BDF2C9D5
S11343F8E81027ADF61489D161E8ECF13E00C9F064
S11344080000EC223F00E1984E984FECCB3D00AD04
S1134418EAA1BDECA84044FFFF61E8ECC34300AD4A
S1134428E8BDF0EC954300F1982EEC313800ADE886
S1134438BDF0EC223F0030E1A9B816EC973000C972
S1134448F6D2A9ECC93E00F1982EC9E80600ECFBA7
S1134458320061EFC1C3C561CF2024A82EB816A8C5
S113446830B818AEF8042400BDF004F2FFB800AD6B
S1134478F004F6FFB802FC519100A81ABDECB8008C
S1134488A81CBDEAB802A81EBDE8B804F19DF4A8AA
S113449820BDF0A822BDF28DEC980E8801980F8DEE
S11344A8EA9810880398118DE8981288059813885B
S11344B8069814880798158DF098008DF198018D49
S11344C8F298028DF398038DF498048DF498058D71
S11344D8F498068DF49807511E9808FC8D8F008D6A
S11344E8EC9800880F98018DEA9802881198038D3A
S11344F8E89804881398058DF0980E8DF1980F8D1F
S1134508F298108DF398118DF498128DF598138DF7
S1134518F698148DF798158DF098068DF198078DF7
S1134528F298088DF398098DF4980A8DF5980B8DF7
S1134538F6980C8DF7980DFC8C87008DF0980E8DED
S1134548F1980F8DF298108DF398118DF498128DBF
S1134558F598138DF698148DF7981588149DEC88A2
S1134568159DED8DEC9DF68DED9DF7102461EFC43E
S1134578C2C061CFD761EFC1C3C561CF203CA84A8F
S1134588BDECA84616ABBDF044010061E3ECB65C93
S113459800A84816ABBDF244010061E3ECBC5C0022
S11345A8ADF044040061E8ECD74500A846BDF0AD81
S11345B8F244040061E8ECC65C00EAF0AA0261492E
S11345C80261F8ECC65C00C9F008AAECC65C00AD50
S11345D8F244040061F8ECBC5C0044020061E8ECBD
S11345E84C4600ADF044020061E8ECB65C00DAEC3D
S11345F8ADF0780000A84616AC02780200A846166A
S1134608AC04780400A84616AC06780600A846163A
S1134618AC08780800A84616AC0A780A00A846161A
S1134628AC0C780C00A848BDF0A846BDF2EAF01618
S11346388A025E02480200FAF28A035E0348030013
S1134648ECC25C00ADF044020061F8ECBC5C00A86C
S11346584616AC04B83AA84804040016ABBDF2A840
S113466846040600168B981AA846040700168B9869
S11346781BA846040800168B981CA84604090016B3
S11346888B981DA846040A00168B981EA846040B8E
S113469800168B981FA846040C00168B9820A84671
S11346A8040D00168B9821A848040600168B98124E
S11346B8A848040700168B9813A848040800168B0A
S11346C89814A848040900168B9815A848040A00E9
S11346D8168B9816A848040B00168B9817A848043C
S11346E80C00168B9818A848040D00168B9819A866
S11346F83A26F2BDF0BDE844000071FF61C8EC0F32
S11347084700F626F0BDE8ADE8443F0071FF61F3C9
S1134718ECDE5000ADF044000071FF61E3ECFC4BAB
S113472800881298008813980188149802881598AC
S1134738038816980488179805881898068819987D
S1134748078DE89808FCA78D008DF098328DF198B4
S1134758338DF298348DF398358DF498368DF59819
S1134768378DF698388DF79839E1980AF1980B98AF
S11347780C980D980E980F98109811880A9800882C
S11347880B9801880C9802880D9803880E98048861
S11347980F98058810980688119807FC8D8F008D4E
S11347A8F098228DF198238DF298248DF398258D15
S11347B8F498268DF598278DF698288DF798295121
S11347C8FF982A982B982C982D982E982F983098E3
S11347D8318DF076882A610E9DF2E4F08822768D78
S11347E8F2614E61D8ECF5470088119DF0882B766C
S11347F88823610E9DF3E4EA8823768DF3614E6184
S1134808D8EC0F4800F4EA8DF3768DF0610E9DF034
S1134818E4F14BF361D8EC244800F4F18DEA6BF130
S11348289DEA8DF09DF3882C768824610E9DF4E42E
S1134838F18824768DF4614E61D8EC484800F4F18F
S11348488DF4768DEA610E9DEAE4F04BF461D8ECC0
S11348585D4800F4F08DF16BF09DF18DEA9DF488CC
S11348682D768825610E9DF5E4F08825768DF56111
S11348784E61D8EC814800F4F08DF5768DF1610E27
S11348889DF1E4EA4BF561D8EC964800F4EA8DF022
S11348986BEA9DF08DF19DF5882E768826610E9D34
S11348A8F6E4F18826768DF6614E61D8ECBA4800B4
S11348B8F4F18DF6768DF0610E9DF0E4EA4BF66125
S11348C8D8ECCF4800F4EA8DF16BEA9DF18DF09DA8
S11348D8F6882F768827610E9DF7E4F08827768D71
S11348E8F7614E61D8ECF34800F4F08DF7768DF15A
S11348F8610E9DF1E4EA4BF761D8EC084900F4EA4B
S11349088DF06BEA9DF08DF19DF7883076882861EB
S11349180E9DE8E4F18828768DE8614E61D8EC2C88
S11349284900F4F18DE8768DF0610E9DF0E4EA4BD0
S1134938E861D8EC414900F4EA8DF16BEA9DF18D08
S1134948F09DE88831768829610E768DF1610E9D97
S1134958E988125BF2982288135BF3982388145B26
S1134968F4982488155BF5982588165BF6982688AC
S1134978175BF7982788185BE8982888195BE998E3
S113498829F4F48DF49DF59DF69DF79DE89DE99D28
S1134998EA9DEB8822768DF4612E980AE4F14BF4B3
S11349A861F3ECB249008DF59DF18823768DF561AC
S11349B82E980BE4F04BF561F3ECC74900F4F08D45
S11349C8F176880B612E9DF1E4F2880B768DF16106
S11349D84E61F3ECE14900F4F28DF06BF29DF08D39
S11349E8F1980B8824768DF6612E980CE4F14BF639
S11349F861F3EC004A00F4F18DF076880C612E9D89
S1134A08F0E4F2880C768DF0614E61F3EC1A4A00FA
S1134A18F4F28DF16BF29DF18DF0980C8825768D6A
S1134A28F7612E980DE4F04BF761F3EC394A00F482
S1134A38F08DF176880D612E9DF1E4F2880D768D66
S1134A48F1614E61F3EC534A00F4F28DF06BF29D80
S1134A58F08DF1980D8826768DE8612E980EE4F194
S1134A684BE861F3EC724A00F4F18DF076880E613C
S1134A782E9DF0E4F2880E768DF0614E61F3EC8C95
S1134A884A00F4F28DF16BF29DF18DF0980E8827AF
S1134A98768DE9612E980FE4F04BE961F3ECAB4AAB
S1134AA800F4F08DF176880F612E9DF1E4F2880F01
S1134AB8768DF1614E61F3ECC54A00F4F28DF06B2A
S1134AC8F29DF08DF1980F8828768DEA612E981062
S1134AD8E4F14BEA61F3ECE44A00F4F18DF07688F2
S1134AE810612E9DF0E4F28810768DF0614E61F32A
S1134AF8ECFE4A00F4F28DF16BF29DF18DF0981002
S1134B088829768DEB612E98118DF1768811612EA6
S1134B189811882276880A616E9DF0882376880B1E
S1134B28616E9DF1882476880C616E9DF2882576E5
S1134B38880D616E9DF3882676880E616E9DF488D3
S1134B482776880F616E9DF58828768810616E9D9A
S1134B58F68829768811616E9DF78DF098008DF19D
S1134B6898018DF298028DF398038DF498048DF5CD
S1134B7898058DF698068DF79807513F9808FCA775
S1134B888D008DF0980A8DF1980B8DF2980C8DF3A9
S1134B98980D8DF4980E8DF5980F8DF698108DF765
S1134BA898118DF098228DF198238DF298248DF325
S1134BB898258DF498268DF598278DF698288DF7E5
S1134BC8982988326BF0981288336BF198138834DB
S1134BD86BF2981488356BF3981588366BF498162D
S1134BE888376BF5981788386BF6981888396BF7F7
S1134BF8EC15510044000061F8EC175100A83A067E
S1134C08E8B83A881A9800881B9801881C98028882
S1134C181D9803881E9804881F980588209806887C
S1134C282198078DE89808FCA78D008DF098328D9F
S1134C38F198338DF298348DF398358DF498368D38
S1134C48F598378DF698388DF79839E1980AF198E0
S1134C580B980C980D980E980F98109811880A982C
S1134C6800880B9801880C9802880D9803880E9880
S1134C7804880F98058810980688119807FC8D8F6A
S1134C88008DF098228DF198238DF298248DF39855
S1134C98258DF498268DF598278DF698288DF79804
S1134CA82951FF982A982B982C982D982E982F984C
S1134CB83098318DF076882A610E9DF2E4F08822CE
S1134CC8768DF2614E61D8ECD74C0088119DF0883E
S1134CD82B768823610E9DF3E4EA8823768DF361AD
S1134CE84E61D8ECF14C00F4EA8DF3768DF0610E48
S1134CF89DF0E4F14BF361D8EC064D00F4F18DEA34
S1134D086BF19DEA8DF09DF3882C768824610E9DC5
S1134D18F4E4F18824768DF4614E61D8EC2A4D00D0
S1134D28F4F18DF4768DEA610E9DEAE4F04BF461BA
S1134D38D8EC3F4D00F4F08DF16BF09DF18DEA9DB8
S1134D48F4882D768825610E9DF5E4F08825768D06
S1134D58F5614E61D8EC634D00F4F08DF5768DF174
S1134D68610E9DF1E4EA4BF561D8EC784D00F4EA64
S1134D788DF06BEA9DF08DF19DF5882E768826617D
S1134D880E9DF6E4F18826768DF6614E61D8EC9C8A
S1134D984D00F4F18DF6768DF0610E9DF0E4EA4B4A
S1134DA8F661D8ECB14D00F4EA8DF16BEA9DF18D12
S1134DB8F09DF6882F768827610E9DF7E4F0882702
S1134DC8768DF7614E61D8ECD54D00F4F08DF77609
S1134DD88DF1610E9DF1E4EA4BF761D8ECEA4D00E0
S1134DE8F4EA8DF06BEA9DF08DF19DF788307688B2
S1134DF828610E9DE8E4F18828768DE8614E61D833
S1134E08EC0E4E00F4F18DE8768DF0610E9DF0E421
S1134E18EA4BE861D8EC234E00F4EA8DF16BEA9D85
S1134E28F18DF09DE88831768829610E768DF161DF
S1134E380E9DE9881A5BF29822881B5BF3982388F5
S1134E481C5BF49824881D5BF59825881E5BF698EE
S1134E5826881F5BF7982788205BE8982888215BB9
S1134E68E99829F4F48DF49DF59DF69DF79DE89D48
S1134E78E99DEA9DEB8822768DF4612E980AE4F187
S1134E884BF461F3EC944E008DF59DF18823768DF7
S1134E98F5612E980BE4F04BF561F3ECA94E00F4A0
S1134EA8F08DF176880B612E9DF1E4F2880B768DF6
S1134EB8F1614E61F3ECC34E00F4F28DF06BF29D98
S1134EC8F08DF1980B8824768DF6612E980CE4F118
S1134ED84BF661F3ECE24E00F4F18DF076880C6148
S1134EE82E9DF0E4F2880C768DF0614E61F3ECFCB3
S1134EF84E00F4F28DF16BF29DF18DF0980C88253B
S1134F08768DF7612E980DE4F04BF761F3EC1B4FA7
S1134F1800F4F08DF176880D612E9DF1E4F2880D90
S1134F28768DF1614E61F3EC354F00F4F28DF06B40
S1134F38F29DF08DF1980D8826768DE8612E980EF5
S1134F48E4F14BE861F3EC544F00F4F18DF076880A
S1134F580E612E9DF0E4F2880E768DF0614E61F3B9
S1134F68EC6E4F00F4F28DF16BF29DF18DF0980E1A
S1134F788827768DE9612E980FE4F04BE961F3EC0C
S1134F888D4F00F4F08DF176880F612E9DF1E4F2D7
S1134F98880F768DF1614E61F3ECA74F00F4F28D22
S1134FA8F06BF29DF08DF1980F8828768DEA612ECA
S1134FB89810E4F14BEA61F3ECC64F00F4F18DF07C
S1134FC8768810612E9DF0E4F28810768DF0614E9B
S1134FD861F3ECE04F00F4F28DF16BF29DF18DF08A
S1134FE898108829768DEB612E98118DF1768811A9
S1134FF8612E9811882276880A616E9DF08823763E
S1135008880B616E9DF1882476880C616E9DF28808
S11350182576880D616E9DF3882676880E616E9DCF
S1135028F4882776880F616E9DF588287688106144
S11350386E9DF68829768811616E9DF78DF098002B
S11350488DF198018DF298028DF398038DF49804EC
S11350588DF598058DF698068DF79807513F9808B1
S1135068FCA78D008DF0980A8DF1980B8DF2980CA1
S11350788DF3980D8DF4980E8DF5980F8DF6981084
S11350888DF798118DF098228DF198238DF298243C
S11350988DF398258DF498268DF598278DF6982804
S11350A88DF7982988326BF0981A88336BF1981B1E
S11350B888346BF2981C88356BF3981D88366BF42A
S11350C8981E88376BF5981F88386BF698208839AE
S11350D86BF7EC005100A83A46F271FF7177F3615F
S11350E8F3EC065100ADF2B83AF1981A981B981CE3
S11350F8981D981E981F98209821EC175100F19834
S1135108129813981498159816981798189819A817
S113511846BDF2A6F2A6F2FAF2ABBDF0A84816AC68
S11351280246F061F8ECFC5900ADF044000061F867
S1135138ECB55200881A768812612E9DF0E4E8884E
S113514812768DF0614E61F3EC565100F4E8881B39
S1135158768813612E9DF1E4E98813768DF1614E0A
S113516861F3EC705100F4E98DE8768DF1612E9DC0
S1135178E8E4EA4BF161F3EC855100F4EA8DE96B5C
S1135188EA9DE98DE89DF1881C768814612E9DF2CC
S1135198E4E88814768DF2614E61F3ECA95100F4C9
S11351A8E88DE9768DF2612E9DE9E4EA4BF261F32C
S11351B8ECBE5100F4EA8DE86BEA9DE88DE99DF2B6
S11351C8881D768815612E9DF3E4E98815768DF39C
S11351D8614E61F3ECE25100F4E98DE8768DF361F8
S11351E82E9DE8E4EA4BF361F3ECF75100F4EA8D01
S11351F8E96BEA9DE98DE89DF3881E768816612E91
S11352089DF4E4E88816768DF4614E61F3EC1B5244
S113521800F4E88DE9768DF4612E9DE9E4EA4BF417
S113522861F3EC305200F4EA8DE86BEA9DE88DE90D
S11352389DF4881F768817612E9DF5E4E988177612
S11352488DF5614E61F3EC545200F4E98DE8768DE6
S1135258F5612E9DE8E4EA4BF561F3EC695200F43C
S1135268EA8DE96BEA9DE98DE89DF5882076881832
S1135278612E9DF6E4E88818768DF6614E61F3ECAC
S11352888D5200F4E88DE9768DF6612E9DE9E4EA05
S11352984BF661F3ECA25200F4EA8DE86BEA9DE860
S11352A88DE99DF68821768819EC2A5400881276AF
S11352B8881A612E9DF0E4E8881A768DF0614E61B3
S11352C8F3ECCF5200F4E8881376881B612E9DF125
S11352D8E4E9881B768DF1614E61F3ECE95200F440
S11352E8E98DE8768DF1612E9DE8E4EA4BF161F3EE
S11352F8ECFE5200F4EA8DE96BEA9DE98DE89DF134
S1135308881476881C612E9DF2E4E8881C768DF258
S1135318614E61F3EC225300F4E88DE9768DF26175
S11353282E9DE9E4EA4BF261F3EC375300F4EA8D7D
S1135338E86BEA9DE88DE99DF2881576881D612E53
S11353489DF3E4E9881D768DF3614E61F3EC5B53BC
S113535800F4E98DE8768DF3612E9DE8E4EA4BF3D9
S113536861F3EC705300F4EA8DE96BEA9DE98DE88A
S11353789DF3881676881E612E9DF4E4E8881E76CF
S11353888DF4614E61F3EC945300F4E88DE9768D65
S1135398F4612E9DE9E4EA4BF461F3ECA95300F4BB
S11353A8EA8DE86BEA9DE88DE99DF4881776881FF5
S11353B8612E9DF5E4E9881F768DF5614E61F3EC65
S11353C8CD5300F4E98DE8768DF5612E9DE8E4EA85
S11353D84BF561F3ECE25300F4EA8DE96BEA9DE9DD
S11353E88DE89DF58818768820612E9DF6E4E88876
S11353F820768DF6614E61F3EC065400F4E88DE9ED
S1135408768DF6612E9DE9E4EA4BF661F3EC1B54C4
S113541800F4EA8DE86BEA9DE88DE99DF688197633
S11354288821612E9DF78DE8768DF7612E9DE88D94
S1135438F098128DF198138DF298148DF398158DB8
S1135448F498168DF598178DF698188DE89819DA4A
S1135458ECD171FF61D8EC945400F6780200A83AB4
S113546878040088124806008813480700881448FE
S1135478080088154809008816480A008817480B48
S1135488008818480C008819EC595600E678020080
S1135498A83A780400F1981A981B981C981D981E2D
S11354A8981F98209821881276881A612E9DF0E416
S11354B8E8881A768DF0614E61F3ECCA54008821AD
S11354C89DE8881376881B612E9DF1E4E9881B7694
S11354D88DF1614E61F3ECE45400F4E98DE8768DC6
S11354E8F1612E9DE8E4EA4BF161F3ECF95400F420
S11354F8EA8DE96BEA9DE98DE89DF1881476881CAC
S1135508612E9DF2E4E8881C768DF2614E61F3EC1D
S11355181D5500F4E88DE9768DF2612E9DE9E4EAE3
S11355284BF261F3EC325500F4EA8DE86BEA9DE83E
S11355388DE99DF2881576881D612E9DF3E4E9882E
S11355481D768DF3614E61F3EC565500F4E98DE850
S1135558768DF3612E9DE8E4EA4BF361F3EC6B5529
S113556800F4EA8DE96BEA9DE98DE89DF3881676E7
S1135578881E612E9DF4E4E8881E768DF4614E61E0
S1135588F3EC8F5500F4E88DE9768DF4612E9DE9EE
S1135598E4EA4BF461F3ECA45500F4EA8DE86BEA11
S11355A89DE88DE99DF4881776881F612E9DF5E4A2
S11355B8E9881F768DF5614E61F3ECC85500F4E96E
S11355C88DE8768DF5612E9DE8E4EA4BF561F3EC00
S11355D8DD5500F4EA8DE96BEA9DE98DE89DF588CF
S11355E818768820612E9DF6E4E88820768DF66189
S11355F84E61F3EC015600F4E88DE9768DF6612EE0
S11356089DE9E4EA4BF661F3EC165600F4EA8DE8FA
S11356186BEA9DE88DE99DF68819768821612E9DAF
S1135628F78DE8768DF7612E9DE8DAEC8DF0480663
S1135638008DF14807008DF24808008DF3480900F1
S11356488DF4480A008DF5480B008DF6480C008D42
S1135658E8480D00FAEC8C0698128C0798138C080D
S113566898148C0998158C0A98168C0B98178C0C1E
S113567898188C0D981951FF981A981B981C981D06
S1135688981E981F98209821881A768812610E9D72
S1135698F0E4E98812768DF0614E61D8ECAA5600E0
S11356A8F4E9881B768813610E9DF1E4E888137683
S11356B88DF1614E61D8ECC45600F4E88DF1768D15
S11356C8E9610E9DE9E4EA4BF161D8ECD95600F49E
S11356D8EA8DE86BEA9DE88DE99DF1881C768814CB
S11356E8610E9DF2E4E98814768DF2614E61D8EC7E
S11356F8FD5600F4E98DF2768DE8610E9DE8E4EA42
S11357084BF261D8EC125700F4EA8DE96BEA9DE993
S11357188DE89DF2881D768815610E9DF3E4E8886E
S113572815768DF3614E61D8EC365700F4E88DF3A5
S1135738768DE9610E9DE9E4EA4BF361D8EC4B57A9
S113574800F4EA8DE86BEA9DE88DE99DF3881E76FE
S11357588816610E9DF4E4E98816768DF4614E612D
S1135768D8EC6F5700F4E98DF4768DE8610E9DE866
S1135778E4EA4BF461D8EC845700F4EA8DE96BEA67
S11357889DE98DE89DF4881F768817610E9DF5E4E0
S1135798E88817768DF5614E61D8ECA85700F4E8CF
S11357A88DF5768DE9610E9DE9E4EA4BF561D8EC57
S11357B8BD5700F4EA8DE86BEA9DE88DE99DF5880C
S11357C820768818610E9DF6E4E98818768DF661CE
S11357D84E61D8ECE15700F4E98DF6768DE8610E58
S11357E89DE8E4EA4BF661D8ECF65700F4EA8DE953
S11357F86BEA9DE98DE89DF68821768819610E7615
S11358088DE9610E9DF74AF70F61F3ECB05B004A2E
S1135818F70F61F8ECB95900881261019DF0E4E8CA
S11358288812768DF0614E61D8EC375800F4E88818
S11358381361019DF1E4E98813768DF1614E61D815
S1135848EC4E5800F4E98DF1768DE8610E9DE8E49C
S1135858EA4BF161D8EC635800F4EA8DE96BEA9DF0
S1135868E98DE89DF1881461019DF2E4E8881476D5
S11358788DF2614E61D8EC845800F4E88DF2768D8F
S1135888E9610E9DE9E4EA4BF261D8EC995800F419
S1135898EA8DE86BEA9DE88DE99DF2881561019D22
S11358A8F3E4E98815768DF3614E61D8ECBA5800B3
S11358B8F4E98DF3768DE8610E9DE8E4EA4BF36133
S11358C8D8ECCF5800F4EA8DE96BEA9DE98DE89DA0
S11358D8F3881661019DF4E4E88816768DF4614E28
S11358E861D8ECF05800F4E88DF4768DE9610E9DEA
S11358F8E9E4EA4BF461D8EC055900F4EA8DE86B65
S1135908EA9DE88DE99DF4881761019DF5E4E9882D
S113591817768DF5614E61D8EC265900F4E98DF5BA
S1135928768DE8610E9DE8E4EA4BF561D8EC3B59C5
S113593800F4EA8DE96BEA9DE98DE89DF588186124
S1135948019DF6E4E88818768DF6614E61D8EC5C22
S11359585900F4E88DF6768DE9610E9DE9E4EA4B89
S1135968F661D8EC715900F4EA8DE86BEA9DE88D8C
S1135978E99DF688196101768DE8610E9DE8DAECF7
S11359888DF04806008DF14807008DF24808008D17
S1135998F34809008DF4480A008DF5480B008DF68C
S11359A8480C008DE8480D00FAEC618904EC5C565B
S11359B8004AF6FF61E8EC2058004AF5FF61E8EC7C
S11359C82058004AF4FF61E8EC2058004AF3FF61CC
S11359D8E8EC2058004AF2FF61E8EC2058004AF14C
S11359E8FF61E8EC2058004AF0FE61E3EC2058001F
S11359F8ECB05B00DAECADF0780200A83A78040069
S1135A08881A768812610E9DF0E4E88812768DF083
S1135A18614E61D8EC225A00F4E8881B7688136139
S1135A280E9DF1E4E98813768DF1614E61D8EC3C62
S1135A385A00F4E98DF1768DE8610E9DE8E4EA4BAD
S1135A48F161D8EC515A00F4EA8DE96BEA9DE98DCD
S1135A58E89DF1881C768814610E9DF2E4E88814A8
S1135A68768DF2614E61D8EC755A00F4E88DF276C1
S1135A788DE9610E9DE9E4EA4BF261D8EC8A5A009B
S1135A88F4EA8DE86BEA9DE88DE99DF2881D768835
S1135A9815610E9DF3E4E98815768DF3614E61D89E
S1135AA8ECAE5A00F4E98DF3768DE8610E9DE8E4D6
S1135AB8EA4BF361D8ECC35A00F4EA8DE96BEA9D2A
S1135AC8E98DE89DF3881E768816610E9DF4E4E856
S1135AD88816768DF4614E61D8ECE75A00F4E88DA7
S1135AE8F4768DE9610E9DE9E4EA4BF461D8ECFCA7
S1135AF85A00F4EA8DE86BEA9DE88DE99DF4881F65
S1135B08768817610E9DF5E4E98817768DF5614E60
S1135B1861D8EC205B00F4E98DF5768DE8610E9D83
S1135B28E8E4EA4BF561D8EC355B00F4EA8DE96BFF
S1135B38EA9DE98DE89DF58820768818610E9DF622
S1135B48E4E88818768DF6614E61D8EC595B00F468
S1135B58E88DF6768DE9610E9DE9E4EA4BF661D8A5
S1135B68EC6E5B00F4EA8DE86BEA9DE88DE99DF63E
S1135B788821768819610E768DE8610E9DE8DAEC45
S1135B888DF04806008DF14807008DF24808008D15
S1135B98F34809008DF4480A008DF5480B008DF68A
S1135BA8480C008DE8480D00DAEC3003007800005A
S1135BB8FAEC8C069DF08C079DF18C089DF28C09FB
S1135BC89DF38C0A9DF48C0B9DF58C0C9DF68C0D25
S1135BD89DF74AF71F61E3ECC25C00F19813F19852
S1135BE814F19815F19816F19817F19818F1981975
S1135BF88DF05C0198128DF098008DF198018DF26A
S1135C0898028DF398038DF498048DF598058DF614
S1135C1898068DF79807E19808FCA78D008DF098F1
S1135C281A8DF1981B8DF2981C8DF3981D8DF4989C
S1135C381E8DF5981F8DF698208DF79821F19DF10A
S1135C489DF29DF39DF49DF59DF6881A7688126160
S1135C586E9DF0881B6BF19DF1881C6BF29DF28898
S1135C681D6BF39DF3881E6BF49DF4881F6BF59DE3
S1135C78F588206BF69DF688219DF7DAEC8DF048BF
S1135C8806008DF14807008DF24808008DF3480995
S1135C98008DF4480A008DF5480B008DF6480C0079
S1135CA88DF7480D00FAEC617904ECC25C00A84653
S1135CB8ECC45C00A848ECC45C00ADECBDF0103C3E
S1135CC861EFC4C2C061CFD761EFC1C3C561CF2042
S1135CD84888529DF088539DF188549DF288559DBB
S1135CE8F388569DF488579DF588589DF688599DE4
S1135CF8F7885A9806885B9807885C9808885D989E
S1135D0809885E980A885F980B8860980C8861985F
S1135D180D8DF0980E8DF1980F8DF298108DF398E3
S1135D28118DF498128DF598138DF698148DF798B3
