S01200004564657369676E44656D6F2E6D6F742B
S10700001022FFFFC8
S113000485208520852085208520852085208520C0
S113001485208520852085208520852085208520B0
S11300248C1AB819852085204720792085208520BD
S1130034280D8520580F852085208520852085203E
S11300448520852085208520852085208520852080
S11300548520852085208520852085208520852070
S11300648520852085208520852085208520852060
S10F00748520852085208520852085209E
S10700C0EFFFE984DD
S10D00C4000000000000000000002E
S11300D82002AF00EFBDF044040061F8ECB8020060
S11300E8ADF044040071FF61F3EC360100ADF04457
S11300F8010061F8ECCB0100ADF044010071FF612F
S1130108F3EC1C0100ADF044000061F8EC8201003E
S1130118EC710400ADF044020061F8EC1A0200AD81
S1130128F044030061F8EC690200EC710400ADF0DE
S113013844070061F8EC930300ADF044070071FF35
S113014861F3EC680100ADF044050061F8ECFF02CE
S113015800ADF044060061F8EC460300EC710400BD
S1130168ADF044080061F8ECE00300ADF044090088
S113017861F8EC2D0400EC710400A8064403006146
S1130188E8EC9D0100AF00EFBDF0A6F0ADF0BF00B4
S1130198EFECC70100A80644040061E8ECB20100D2
S11301A8300400BF00EFECC70100A8064406006154
S11301B8E8ECC70100300500BF00EFEC710400EC67
S11301C8710400A80644030061E8ECE60100AF00EE
S11301D8EFBDF0A6F0ADF0BF00EFEC160200A806E4
S11301E844040061E8EC010200AF00EFBDF0B6F092
S11301F8ADF0BF00EFEC160200A80644060061E863
S1130208EC160200300500BF00EFEC710400EC713D
S11302180400A80644030061E8EC350200AF00EFCF
S1130228BDF0A6F0ADF0BF00EFEC650200A80644EF
S1130238040061E8EC500200AF00EFBDF0B6F0AD89
S1130248F0BF00EFEC650200A80644060061E8EC84
S1130258650200300500BF00EFEC710400EC710486
S113026800A80644030061E8EC840200AF00EFBD77
S1130278F0A6F0ADF0BF00EFECB40200A806440409
S11302880061E8EC9F0200AF00EFBDF0B6F0ADF0FE
S1130298BF00EFECB40200A80644060061E8ECB421
S11302A80200300500BF00EFEC710400EC7104009B
S11302B8A80644030061E8ECCB0200F6BF00EFECAB
S11302C8FB0200A80644040061E8ECE60200AF0063
S11302D8EFBDF0B6F0ADF0BF00EFECFB0200A806EE
S11302E844060061E8ECFB0200300500BF00EFECB7
S11302F8710400EC710400A80644030061E8EC1AD8
S11303080300AF00EFBDF0A6F0ADF0BF00EFEC4284
S11303180300A80644040061E8EC2F030030090038
S1130328BF00EFEC420300A80644070061E8EC4272
S11303380300F6BF00EFEC710400EC710400A8069A
S113034844030061E8EC610300AF00EFBDF0A6F0E0
S1130358ADF0BF00EFEC8F0300A80644040061E889
S1130368EC7C0300AF00EFBDF0B6F0ADF0BF00EFDA
S1130378EC8F0300A80644070061E8EC8F0300F63D
S1130388BF00EFEC710400EC710400A806440300FC
S113039861E8ECAE0300AF00EFBDF0A6F0ADF0BF2E
S11303A800EFECDC0300A80644040061E8ECC90390
S11303B800AF00EFBDF0B6F0ADF0BF00EFECDC032A
S11303C800A80644070061E8ECDC0300F6BF00EF70
S11303D8EC710400EC710400A80644030061E8EC25
S11303E8FB0300AF00EFBDF0A6F0ADF0BF00EFECEB
S11303F8290400A80644040061E8EC160400AF00D0
S1130408EFBDF0B6F0ADF0BF00EFEC290400A8068C
S113041844070061E8EC290400F6BF00EFEC71041E
S113042800EC710400A80644030061E8EC420400EF
S1130438300500BF00EFEC700400A8064404006116
S1130448E8EC5D0400AF00EFBDF0B6F0ADF0BF001E
S1130458EFEC700400A80644070061E8EC7004009F
S1130468F6BF00EFEC70040000AF00EFBDF04404E9
S11304780061F8EC8D0500ADF044040071FF61F3F0
S1130488ECCD0400ADF044010061F8EC360500AD94
S1130498F044010071FF61F3ECB30400ADF04400D3
S11304A80061F8EC190500EC380600ADF0440200D0
S11304B861F8EC530500ADF044030061F8EC7005F5
S11304C800EC380600ADF044070061F8ECE40500E0
S11304D8ADF044070071FF61F3ECFF0400ADF04494
S11304E8050061F8ECAA0500ADF044060061F8ECDB
S11304F8C70500EC380600ADF044080061F8EC01CB
S11305080600ADF044090061F8EC1E0600EC38065C
S11305180051309F72EF510D9F73EF510A9F74EF92
S1130528F575EFE6B800FCC62900EC380600513131
S11305389F72EF510D9F73EF510A9F74EFF575EF9A
S1130548E6B800FCC62900EC38060051329F72EF69
S1130558510D9F73EF510A9F74EFF575EFE6B800DC
S1130568FCC62900EC38060051339F72EF510D9FE9
S113057873EF510A9F74EFF575EFE6B800FCC629CE
S113058800EC38060051349F72EF510D9F73EF5100
S11305980A9F74EFF575EFE6B800FCC62900EC383D
S11305A8060051359F72EF510D9F73EF510A9F74E6
S11305B8EFF575EFE6B800FCC62900EC38060051E3
S11305C8369F72EF510D9F73EF510A9F74EFF575C3
S11305D8EFE6B800FCC62900EC38060051379F72D4
S11305E8EF510D9F73EF510A9F74EFF575EFE6B85D
S11305F800FCC62900EC38060051389F72EF510DF3
S11306089F73EF510A9F74EFF575EFE6B800FCC6C7
S11306182900EC38060051399F72EF510D9F73EF92
S1130628510A9F74EFF575EFE6B800FCC62900007F
S11306381002D72004A808BDF0B800A80ABDF0B875
S113064802FC8907004AF00161E8EC990600A80A4F
S1130658BDF001BDF00412EFBDF0BDF2FAF2ABBD7E
S1130668F0A1BDF2A80ABDF001BDF00412EFBDF07F
S1130678BDF4DAF4ADF2780000A80ABDF001BDF0CB
S11306880402EFBDF0BDF2DAF2F6780000ECD80609
S113069800A80ABDF001BDF00402EFBDF0BDF4FAF4
S11306A8F4ABBDF0A1BDF2A80ABDF001BDF004028F
S11306B8EFBDF0BDF4DAF4ADF2780000A80ABDF09D
S11306C801BDF00412EFBDF0BDF2DAF2F6780000D5
S11306D8A80ABDF001BDF00412EFBDF0BDF4FAF4B0
S11306E8ABBDF044E20461E3EC400700A80ABDF0A6
S11306F801BDF00412EFBDF0BDF2DAF230E3047884
S11307080000A80ABDF001BDF00422EFBDF0BDF45D
S1130718FAF4ABBDF044000061E8EC840700A80AD1
S1130728BDF001BDF00422EFBDF0BDF2DAF2E678C7
S11307380000E4F0EC860700A80ABDF001BDF0044F
S113074802EFBDF0BDF4FAF4ABBDF044E20461E39A
S1130758EC840700A80ABDF001BDF00422EFBDF047
S1130768BDF2DAF2F6780000A80ABDF001BDF00483
S113077802EFBDF0BDF4DAF4F6780000F4F01004EA
S1130788D7A806BDF044030061F8EC390800ADF0C1
S113079844030071FF61F3ECCA0700ADF0440100A3
S11307A861F8EC0D0800ADF044010071FF61F3EC51
S11307B8230800ADF044000061F8ECFC0700ECA449
S11307C80800ADF044050061F8EC650800ADF0449C
S11307D8050071FF61D8EC4F0800ADF044060061D4
S11307E8F8EC7B0800ADF044070061F8EC910800D0
S11307F8ECA40800A804BDF0BDF2EAF2895C019DEE
S1130808F0ECA70800A804BDF0BDF2FAF28B9DF045
S1130818311A9DF05AF001ECA70800A804BDF0BDF8
S1130828F2FAF28B9DF0312A9DF05AF001ECA708F8
S113083800A804BDF0BDF2FAF28B9DF0313A9DF0A8
S11308485AF001ECA70800A804BDF0BDF2FAF28B37
S11308589DF0314A9DF05AF001ECA70800A804BDA8
S1130868F0BDF2FAF28B9DF0315A9DF05AF001EC8A
S1130878A70800A804BDF0BDF2FAF28B9DF0316A16
S11308889DF05AF001ECA70800A804BDF0BDF2FAE7
S1130898F28B9DF0317A9DF0ECA70800CDF0FFD7DC
S11308A82006880C314A9805880A9DF09800880526
S11308B89DF09802FCD90800880C5C0F9805880AFA
S11308C89DF0980088059DF09802FCD90800100650
S11308D8D720028806D161F8EC010900C9F007FFA6
S11308E8ADF0BDF4FAF48B9DF26AF201ADF0DAF4DE
S11308F88DF2480000EC1A0900C9F007FFADF0BDFD
S1130908F4FAF48B9DF25AF2FEADF0DAF48DF24863
S11309180000C9F007FFADF0BDF4FAF48B9DF25A5C
S1130928F2FDADF0DAF48DF2480000C9F227FFC9F0
S1130938F027FFADF0BDF4FAF48B9DF05AF0F0AD5A
S1130948F2BDF4DAF48DF0480000C9F007FFADF009
S1130958BDF2FAF28B9DF05C0F9DF288087051008D
S1130968BDF0314DBDF08DF26BF09DF09801C9F0EA
S113097807FF88019DF2ADF0BDF4DAF48DF248006A
S113098800C9F007FFADF0BDF4FAF48B9DF26AF2EA
S113099804ADF0DAF48DF248000000000000000015
S11309A8C9F007FFADF0BDF4FAF48B9DF25AF2FBDF
S11309B8ADF0DAF48DF24800000000C9F007FFAD8D
S11309C8F0BDF4FAF48B9DF26AF202ADF0DAF48D1C
S11309D8F24800001002D72004C9F0E6FFADF0BDCC
S11309E8F4FAF48B9DF26AF210ADF0DAF48DF24861
S11309F8000030983AB800FCF40A00F1980051035A
S1130A089802FCD90800300410B800FCF40A00F17C
S1130A18980051039802FCD90800306400B800FC1F
S1130A28F40A00F1980051039802FCD90800302810
S1130A3800B800FCF40A00F1980051029802FCD9AD
S1130A480800302800B800FCF40A00F19800512886
S1130A589802FCA80800302800B800FCF40A00F149
S1130A689800510E9802FCA80800302800B800FC31
S1130A78F40A00F19800E19802FCA808003068061E
S1130A88B800FCF40A00F1980051069802FCA80882
S1130A9800302800B800FCF40A00F198005180984E
S1130AA802FCA80800302800B800FCF40A0010046E
S1130AB8D7C9F0E2FFADF0BDF4FAF48B9DF25AF217
S1130AC8EFADF0DAF48DF2480000C9F218FFA8047B
S1130AD8BDF0ADF2BDF4DAF4ADF0780000C9F0B2BF
S1130AE801ADF0BDF2DAF2E6780000D72002A806DC
S1130AF8BDF0B800FCB90A00EC050B0000C9F0E22F
S1130B08FFADF0BDF2FAF28B9DF0314A9DF05AF038
S1130B180161F8EC040B00FC361F001002D7C9F081
S1130B28F000ADF0BDF4FAF48B9DF26AF220ADF05A
S1130B38DAF48DF2480000C9F030FFADF0BDF2DA06
S1130B48F2F1480000C9F0E7FFADF0BDF4FAF48B08
S1130B589DF26AF201ADF0DAF48DF2480000C9F0B2
S1130B68E3FFADF0BDF4FAF48B9DF25AF2FEADF05A
S1130B78DAF48DF2480000C9F0EFFFADF0BDF4FAE5
S1130B88F48B9DF26AF201ADF0DAF48DF2480000BC
S1130B98C9F0EBFFADF0BDF4FAF48B9DF26AF201F3
S1130BA8ADF0DAF48DF2480000C9F222FFC9F02250
S1130BB8FFADF0BDF4FAF48B9DF06AF007ADF2BD19
S1130BC8F4DAF48DF0480000C9F030FFADF0BDF25E
S1130BD8DAF25108480000C9F032FFADF0BDF4DA8A
S1130BE8F45120480000C9F01000ADF0BDF2DAF26B
S1130BF8E1480000C9F01100ADF0BDF4DAF451FF8A
S1130C08480000C9F01200ADF0BDF2DAF2F1480074
S1130C1800C9F031FFADF0BDF4DAF4F1480000C9C1
S1130C28F030FFADF0BDF4FAF48B9DF26AF201AD39
S1130C38F0DAF48DF2480000D7C9F0E3FFADF0BD57
S1130C48F4FAF48B9DF25AF2FEADF0DAF48DF24820
S1130C580000C9F0E7FFADF0BDF4FAF48B9DF25A39
S1130C68F2FEADF0DAF48DF2480000C9F030FFADC1
S1130C78F0BDF4FAF48B9DF26AF280ADF0DAF48DEB
S1130C88F2480000D7C9F030FFADF0BDF4FAF48B98
S1130C989DF25AF27FADF0DAF48DF2480000C9F003
S1130CA8E7FFADF0BDF4FAF48B9DF26AF201ADF002
S1130CB8DAF48DF2480000C9F0E3FFADF0BDF4FAB0
S1130CC8F48B9DF25AF2FEADF0DAF48DF24800008E
S1130CD8D7C9F030FFADF0BDF4FAF48B9DF26AF297
S1130CE801ADF0DAF48DF2480000D7C9F030FFAD59
S1130CF8F0BDF4FAF48B9DF25AF2FEADF0DAF48DFD
S1130D08F2480000D7C9F01FFFADF0BDF4FAF48B28
S1130D189DF2A804BDF0BDF4DAF48DF2480000D7C2
S1130D2861CFC1C3C5C7C6C4C2C061FC2002C9F033
S1130D38A0FFADF0BDF2DAF25110480000C9F0A1ED
S1130D48FFADF0BDF4FAF48B9DF26AF280ADF0DAEF
S1130D58F48DF2480000C9F0A4FFADF0BDF4FAF434
S1130D688B9DF25AF2EFADF0DAF48DF2480000C927
S1130D78F0A1FFADF0BDF4FAF48B9DF25AF2BFADC9
S1130D88F0DAF48DF2480000F6B800ECA20D000089
S1130D98A800BDF0A6F0ADF0B800A800BDF044A0CE
S1130DA80061E3EC970D00C9F0F300ADF0BDF2DA91
S1130DB8F2F1480000C9F0A4FFADF0BDF4FAF48BD9
S1130DC89DF25AF2BFADF0DAF48DF2480000C9F092
S1130DD8A1FFADF0BDF4FAF48B9DF25AF2FEADF02A
S1130DE8DAF48DF24800001002D72002C9F0A8FFF7
S1130DF8ADF0BDF2FAF28B9DF098011002D7C9F05C
S1130E08F000ADF0BDF4FAF48B9DF26AF280ADF017
S1130E18DAF48DF2480000C9F090FFADF0BDF2DAC3
S1130E28F2F6780000C9F0E7FFADF0BDF4FAF48BF0
S1130E389DF26AF204ADF0DAF48DF2480000C9F0CC
S1130E48E3FFADF0BDF4FAF48B9DF25AF2FBADF07A
S1130E58DAF48DF2480000C9F0EFFFADF0BDF4FA02
S1130E68F48B9DF25AF2FBADF0DAF48DF2480000EF
S1130E78C9F0EBFFADF0BDF4FAF48B9DF26AF2040D
S1130E88ADF0DAF48DF2480000C9F090FFADF0BD82
S1130E98F2DAF230FF0F780000D7C9F2E3FFADF2BF
S1130EA8BDF0FAF08B9DF45AF4FBADF2DAF08DF450
S1130EB8480000C9F2E7FFADF2BDF0FAF08B9DF4EB
S1130EC85AF4FBADF2DAF08DF4480000C9F490FF4F
S1130ED8C9F290FFADF2BDF0FAF0ABBDF28DF26C41
S1130EE8009DF08DF36C809DF1ADF4BDF2DAF2ADA6
S1130EF8F0780000D7C9F2E7FFADF2BDF0FAF08B45
S1130F089DF46AF404ADF2DAF08DF4480000C9F2F5
S1130F18E3FFADF2BDF0FAF08B9DF45AF4FBADF2A9
S1130F28DAF08DF4480000C9F490FFC9F290FFADDF
S1130F38F2BDF0FAF0ABBDF28DF25CFF9DF08DF3DB
S1130F485C7F9DF1ADF4BDF2DAF2ADF0780000D724
S1130F5861CFC1C3C5C761DFC1C3C5C761CF2002A3
S1130F68AFA4EFBDF2A6F2ADF2BFA4EFBDF28DF2CD
S1130F785C039DF08DF35C009DF1ADF044000061CD
S1130F88E8EC940F00F6B800FCC62900100261DFF3
S1130F98C6C4C2C061CFC6C4C2C061FCC9F004FFE4
S1130FA8ADF0BDF2DAF2F1480000C9F007FFADF088
S1130FB8BDF2DAF2F1480000C9F03000ADF0BDF23C
S1130FC8DAF25108480000C9F03400ADF0BDF2DA95
S1130FD8F2E1480000C9F04000ADF0BDF2DAF25188
S1130FE808480000C9F024FFADF0BDF2DAF251F16F
S1130FF8480000C9F025FFADF0BDF2DAF251FF4810
S11310080000C9F027FFADF0BDF2DAF2F1480000A4
S1131018D7C9F0F000ADF0BDF4FAF48B9DF26AF292
S113102880ADF0DAF48DF2480000C9F09DFFADF010
S1131038BDF4FAF48B9DF25AF27FADF0DAF48DF236
S1131048480000C9F0E7FFADF0BDF4FAF48B9DF257
S11310586AF202ADF0DAF48DF2480000C9F0E3FF59
S1131068ADF0BDF4FAF48B9DF25AF2FDADF0DAF46A
S11310788DF2480000C9F0EFFFADF0BDF4FAF48B2F
S11310889DF26AF202ADF0DAF48DF2480000C9F07C
S1131098EBFFADF0BDF4FAF48B9DF26AF202ADF009
S11310A8DAF48DF2480000C9F09DFFADF0BDF2DA24
S11310B8F25108480000C9F092FFADF0BDF4DAF42B
S11310C8F1480000C9F093FFADF0BDF2DAF2F1483F
S11310D80000C9F094FFADF0BDF4DAF4F148000063
S11310E8C9F095FFADF0BDF2DAF25102480000C92B
S11310F8F096FFADF0BDF4DAF45111480000C9F0E0
S113110897FFADF0BDF2DAF25104480000C9F09837
S1131118FFADF0BDF4DAF45117480000D7C9F09DCB
S1131128FFADF0BDF4FAF48B9DF26AF280ADF0DA0B
S1131138F48DF2480000D7C9F09DFFADF0BDF4FA74
S1131148F48B9DF25AF27FADF0DAF48DF248000088
S1131158D72006F6B804C9F29EFFC9F09EFFADF089
S1131168BDF4FAF48B9DF06AF001ADF2BDF4DAF443
S11311788DF0480000F6B800F6B802EC96110000AD
S1131188A800040100B800A80261D8A1B802A80206
S1131198440000A80061F8443F0161E3EC871100B2
S11311A8C9F09EFFADF0BDF2FAF28B9DF0311A9DA5
S11311B8F05AF00161E8ECCB1100300300B804ECFC
S11311C8E11200C9F092FFADF0BDF4FAF48B9DF280
S11311D8A80ABDF0BDF4DAF48DF2480000C9F09312
S11311E8FFADF0BDF4FAF48B9DF2A80ABDF0DAF075
S11311F88DF2480100C9F094FFADF0BDF4FAF48B08
S11312089DF2A80ABDF0DAF08DF2480200C9F09503
S1131218FFADF0BDF4FAF48B9DF2A80ABDF0DAF044
S11312288DF2480400C9F096FFADF0BDF4FAF48BD2
S11312389DF2A80ABDF0DAF08DF2480300C9F097D0
S1131248FFADF0BDF4FAF48B9DF2A80ABDF0DAF014
S11312588DF2480500C9F098FFADF0BDF4FAF48B9F
S11312689DF2A80ABDF0DAF08DF2480600C9F29E94
S1131278FFC9F09EFFADF0BDF4FAF48B9DF05AF06F
S1131288FEADF2BDF4DAF48DF0480000F6B800F6CD
S1131298B802ECAD120000A800040100B800A802CE
S11312A861D8A1B802A802440000A80061F8443F2C
S11312B80161E3EC9E1200C9F09EFFADF0BDF2FAA5
S11312C8F28B9DF0311A9DF05AF0014AF00161E861
S11312D8ECE11200300400B804A804BDF01006D7ED
S11312E82006F6B804C9F29EFFC9F09EFFADF0BD12
S11312F8F4FAF48B9DF06AF001ADF2BDF4DAF48DE2
S1131308F0480000F6B800F6B802EC25130000A86F
S113131800040100B800A80261D8A1B802A80244D8
S11313280000A80061F8443F0161E3EC161300C90A
S1131338F09EFFADF0BDF2FAF28B9DF0311A9DF0EC
S11313485AF00161E8EC5A1300300300B804EC4B7E
S11313581400C9F092FF880A9DF2ADF0BDF4DAF4E6
S11313688DF2480000C9F093FF880B9DF2ADF0BDE3
S1131378F4DAF48DF2480000C9F094FF880C9DF269
S1131388ADF0BDF4DAF48DF2480000C9F095FF8899
S11313980E9DF2ADF0BDF4DAF48DF2480000C9F008
S11313A896FF880D9DF2ADF0BDF4DAF48DF2480095
S11313B800C9F097FF880F9DF2ADF0BDF4DAF48D03
S11313C8F2480000C9F098FF88109DF2ADF0BDF412
S11313D8DAF48DF2480000C9F29EFFC9F09EFFAD11
S11313E8F0BDF4FAF48B9DF05AF0FEADF2BDF4DAD8
S11313F8F48DF0480000F6B800F6B802EC171400B3
S113140800A800040100B800A80261D8A1B802A885
S113141802440000A80061F8443F0161E3EC0814A9
S113142800C9F09EFFADF0BDF2FAF28B9DF0311ABF
S11314389DF05AF0014AF00161E8EC4B14003004C5
S113144800B804A804BDF01006D7C9F0F000ADF048
S1131458BDF4FAF48B9DF26AF204ADF0DAF48DF27D
S113146848000000000000C9F02601ADF0BDF2DA22
S1131478F2301100780000FC841400D761EFC161D8
S1131488CFC9E82401C9F62401ADF6BDF0FAF0ABE2
S1131498BDF68DF66C0C9DF48DF76C009DF5DAE8BD
S11314A8ADF4780000C9F4E6FFADF4BDF2FAF28BAE
S11314B89DF66AF601ADF4BDF0DAF08DF648000049
S11314C8C9F4E2FFADF4BDF2FAF28B9DF65AF6FECA
S11314D8ADF4BDF0DAF08DF6480000C9F4E6FFADCE
S11314E8F4BDF2FAF28B9DF66AF602ADF4BDF0DAB9
S11314F8F08DF6480000C9F4E2FFADF4BDF2FAF24B
S11315088B9DF65AF6FDADF4BDF0DAF08DF6480081
S113151800C9F4E6FFADF4BDF2FAF28B9DF66AF663
S113152804ADF4BDF0DAF08DF6480000C9F4E2FF2A
S1131538ADF4BDF2FAF28B9DF65AF6FBADF4BDF0AC
S1131548DAF08DF6480000C9F4EEFFADF4BDF2FA06
S1131558F28B9DF66AF601ADF4BDF0DAF08DF6482B
S11315680000C9F4EAFFADF4BDF2FAF28B9DF66A05
S1131578F601ADF4BDF0DAF08DF6480000C9F4EEDA
S1131588FFADF4BDF2FAF28B9DF66AF602ADF4BD36
S1131598F0DAF08DF6480000C9F4EAFFADF4BDF2C4
S11315A8FAF28B9DF66AF602ADF4BDF0DAF08DF628
S11315B8480000C9F41401ADF4BDF2DAF230220097
S11315C8780000C9F41C01ADF4BDF0DAF03097805E
S11315D8780000C9F444FFADF4BDF2DAF23000CE6D
S11315E8780000C9F67000C9F47000ADF4BDF0FAD3
S11315F8F08B9DF46AF404ADF6BDF2DAF28DF4488A
S11316080000C9F40E01ADF4BDF0DAF0300700783B
S11316180000C9F41601ADF4BDF2DAF23022017803
S11316280000C9F41E01ADF4BDF0DAF0309740783B
S11316380000C9F446FFADF4BDF2DAF23000CE780A
S11316480000C9F62801C9F42801ADF4BDF0FAF088
S1131658ABBDF48DF46C049DF28DF56C009DF3AD77
S1131668F6BDF4DAF4ADF2780000C9F43401C9F235
S11316783401ADF2BDF0FAF0ABBDF2ADF4BDF0DA71
S1131688F0ADF2780000C9F42A01C9F22A01ADF2DA
S1131698BDF0FAF0ABBDF28DF26C049DF08DF36CE5
S11316A8009DF1ADF4BDF2DAF2ADF0780000C9F2B4
S11316B86000C9F06000ADF0BDF4FAF48B9DF05AF7
S11316C8F0F7ADF2BDF4DAF48DF0480000C9F22069
S11316D8FFC9F020FFADF0BDF4FAF48B9DF06AF079
S11316E808ADF2BDF4DAF48DF0480000C9F26000E8
S11316F8C9F06000ADF0BDF4FAF48B9DF05AF0FB2C
S1131708ADF2BDF4DAF48DF0480000C9F200FFC967
S1131718F000FFADF0BDF4FAF48B9DF06AF004AD6F
S1131728F2BDF4DAF48DF0480000C9F220FFC9F0E4
S113173820FFADF0BDF4FAF48B9DF05AF0FBADF246
S1131748BDF4DAF48DF048000061EFC061CFD761D1
S1131758EFC161CFC9E82801C9F62801ADF6BDF08B
S1131768FAF0ABBDF68DF66C049DF48DF76C009D14
S1131778F5DAE8ADF4780000C9F62A01C9F42A01BB
S1131788ADF4BDF2FAF2ABBDF48DF46C049DF28DA8
S1131798F56C009DF3ADF6BDF4DAF4ADF278000013
S11317A8C9F42201C9F22201ADF2BDF0FAF0ABBDD1
S11317B8F28DF26C0C9DF08DF36C009DF1ADF4BDCF
S11317C8F2DAF2ADF0780000C9F0E2FFADF0BDF452
S11317D8FAF48B9DF25AF2FEADF0DAF48DF2480079
S11317E800C9F0E2FFADF0BDF4FAF48B9DF25AF2B1
S11317F8FDADF0DAF48DF2480000C9F0E6FFADF073
S1131808BDF4FAF48B9DF25AF2FEADF0DAF48DF2DF
S1131818480000C9F0E6FFADF0BDF4FAF48B9DF280
S11318285AF2FDADF0DAF48DF248000061EFC061C0
S1131838CFD7C9F4E6FFADF4BDF0FAF08B9DF66A94
S1131848F601ADF4BDF2DAF28DF6480000C9F4E60B
S1131858FFADF4BDF0FAF08B9DF66AF602ADF4BD67
S1131868F2DAF28DF6480000C9F62401C9F424011D
S1131878ADF4BDF0FAF0ABBDF48DF46C0C9DF28DB3
S1131888F56C009DF3ADF6BDF4DAF4ADF278000022
S1131898C9F42A01C9F22A01ADF2BDF0FAF0ABBDD0
S11318A8F28DF25CFB9DF08DF35CFF9DF1ADF4BD10
S11318B8F2DAF2ADF0780000C9F0E2FFADF0BDF461
S11318C8FAF48B9DF25AF2FEADF0DAF48DF2480088
S11318D800C9F0E2FFADF0BDF4FAF48B9DF25AF2C0
S11318E8FDADF0DAF48DF2480000D72002F6B80016
S11318F8A80844000061E8EC0C1900308100B80025
S1131908EC1E1900F6BF10F0A808BDF0BF0EF0A831
S113191806BDF0BF12F0A800BDF01002D72002F6F1
S1131928B800A80844000061E8EC3E1900308100C2
S1131938B800ECB11900A806BDF0BF14F0A808BDA2
S1131948F0BF16F0C9F0E6FFADF0BDF4FAF48B9DD4
S1131958F26AF201ADF0DAF48DF2480000C9F244FB
S1131968FFAF14F0BDF0BDF4FAF48B9DF0ADF2BDF9
S1131978F4DAF48DF0480000AF14F0BDF0A6F0AD31
S1131988F0BF14F0AF16F0BDF0B6F0ADF0BF16F02E
S1131998C9F0E6FFADF0BDF4FAF48B9DF25AF2FEFD
S11319A8ADF0DAF48DF2480000A800BDF01002D7BB
S11319B861CFC1C3C5C761DFC1C3C5C761CF200437
S11319C8C9F00601ADF0BDF2FAF2ABBDF08DF05CE2
S11319D8079803C9F20E018803705100BDF0ADF2F7
S11319E8BDF4DAF4ADF07800008803D161F8EC04B2
S11319F81A0088039DF09800FCFA1A00C9F046FF03
S1131A08ADF0BDF2FAF28B9DF09802AF0EF0BDF284
S1131A18AF10F0BDF0ADF246F061E3EC6F1A00AF21
S1131A2812F0BDF088029DF2ADF0BDF4DAF48DF247
S1131A38480000AF12F0BDF0A6F0ADF0BF12F0AF51
S1131A4810F0BDF0A6F0ADF0BF10F0AF0EF0BDF28F
S1131A58AF10F0BDF0ADF246F061E8EC7C1A00FC82
S1131A68F11A00EC7C1A008802705100BDF0B8002D
S1131A78FCF51A00100461DFC6C4C2C061CFC6C435
S1131A88C2C061FC61CFC1C3C5C761DFC1C3C5C7DB
S1131A9861CFAF16F0BDF044000061F8ECDF1A0026
S1131AA8C9F244FFAF14F0BDF0BDF4FAF48B9DF015
S1131AB8ADF2BDF4DAF48DF0480000AF14F0BDF0D7
S1131AC8A6F0ADF0BF14F0AF16F0BDF0B6F0ADF06F
S1131AD8BF16F0ECE31A00FCF61A0061DFC6C4C2B4
S1131AE8C061CFC6C4C2C061FCE519F0D7D7E54FC1
S1131AF8F0D7D761EFC1C3C561CF2034C9F0F00076
S1131B08ADF0BDF2FAF28B98316C019830ADF0DA91
S1131B18F28830480000C9F0B601ADF0BDF2DAF23F
S1131B28304200780000C9F0B401ADF0BDF2DAF239
S1131B3830FF0A780000C9F0E6FFADF0BDF2FAF212
S1131B488B982F6C10982EADF0DAF2882E4800008E
S1131B58C9F0E2FFADF0BDF2FAF28B982D5CEF9874
S1131B682CADF0DAF2882C480000C9F0E6FFADF09D
S1131B78BDF2FAF28B982B6C20982AADF0DAF28831
S1131B882A480000C9F0E2FFADF0BDF2FAF28B98E2
S1131B98295CDF9828ADF0DAF28828480000C9F0FB
S1131BA8E5FFADF0BDF2FAF28B98276C809826AD6C
S1131BB8F0DAF28826480000C9F0E1FFADF0BDF282
S1131BC8FAF28B98255C7F9824ADF0DAF2882448E1
S1131BD80000C9F0E6FFADF0BDF2FAF28B98236C71
S1131BE8409822ADF0DAF28822480000C9F0E2FFFA
S1131BF8ADF0BDF2FAF28B98215CBF9820ADF0DA13
S1131C08F28820480000C9F0E6FFADF0BDF2FAF210
S1131C188B981F6C80981EADF0DAF2881E4800007D
S1131C28C9F0E2FFADF0BDF2FAF28B981D5C7F9823
S1131C381CADF0DAF2881C480000C9F0E6FFADF0EC
S1131C48BDF2FAF28B981B6C04981AADF0DAF2889C
S1131C581A480000C9F0E2FFADF0BDF2FAF28B9821
S1131C68195CFB9818ADF0DAF28818480000C9F03E
S1131C78E7FFADF0BDF2FAF28B98176C809816ADB9
S1131C88F0DAF28816480000C9F0E3FFADF0BDF2BF
S1131C98FAF28B98155C7F9814ADF0DAF288144840
S1131CA80000C9F0D4FFADF0BDF2FAF28B98136CC2
S1131CB8019812ADF0DAF28812480000C9F0D0FF9A
S1131CC8ADF0BDF2FAF28B98115CFE9810ADF0DA23
S1131CD8F28810480000C9F0D4FFADF0BDF2FAF262
S1131CE88B980F6C02980EADF0DAF2880E4800005B
S1131CF8C9F0D0FFADF0BDF2FAF28B980D5CFD98F7
S1131D080CADF0DAF2880C480000C9F0D4FFADF04D
S1131D18BDF2FAF28B980B6C04980AADF0DAF288EB
S1131D280A480000C9F0D0FFADF0BDF2FAF28B9872
S1131D38095CFB9808ADF0DAF28808480000C9F09D
S1131D48EEFFADF0BDF2FAF28B98075CEF9806ADA2
S1131D58F0DAF28806480000C9F0EAFFADF0BDF2F7
S1131D68FAF28B98055CEF9804ADF0DAF28804482F
S1131D780000C9F0EEFFADF0BDF2FAF28B98036CE7
S1131D88209802ADF0DAF28802480000C9F0EAFFB0
S1131D98ADF0BDF2FAF28B98016C209800ADF0DA40
S1131DA8F28800480000C9F09001ADF0BDF2DAF203
S1131DB8300080780000C9F018FFADF0BDF2DAF207
S1131DC830FFF978000030B801B832C9F0B801AD75
S1131DD8F0BDF2FAF2ABBDF08DF05CFE9DEC8DF136
S1131DE85CFF9DEDA832BDF0DAF0ADEC780000C9D7
S1131DF8ECBA01C9F0BA01ADF0BDF2FAF2ABBDF02C
S1131E088DF05CFE9DEA8DF15CFF9DEBDAECADEAAA
S1131E18780000C9F09201ADF0BDF2DAF2F678006C
S1131E2800C9F01AFFADF0BDF2DAF2303F9C780039
S1131E3800C9EABE01C9F0BE01ADF0BDF2FAF2ABC9
S1131E48BDF08DF05CFD9DE88DF15CFF9DE9DAEA5B
S1131E58ADE8780000C9E8BC01C9F0BC01ADF0BD2B
S1131E68F2FAF2ABBDF08DF05CFD9DF68DF15CFFEE
S1131E789DF7DAE8ADF6780000C9F6B801C9F0B8FC
S1131E8801ADF0BDF2FAF2ABBDF08DF05CFD9DF44E
S1131E988DF15CFF9DF5ADF6BDF0DAF0ADF4780098
S1131EA800C9F4BA01C9F0BA01ADF0BDF2FAF2AB57
S1131EB8BDF08DF05CFD9DF28DF15CFF9DF3ADF4FA
S1131EC8BDF0DAF0ADF2780000103461EFC4C2C09E
S1131ED861CFD7C9F2E2FFADF2BDF0FAF08B9DF401
S1131EE85AF4EFADF2DAF08DF4480000C9F2E6FFD7
S1131EF8ADF2BDF0FAF08B9DF45AF4EFADF2DAF0DE
S1131F088DF4480000C9F4B201C9F2B201ADF2BDC2
S1131F18F0FAF0ABBDF28DF26C019DF08DF36C001C
S1131F289DF1ADF4BDF2DAF2ADF0780000D7C9F452
S1131F38B401C9F2B401ADF2BDF0FAF0ABBDF28D53
S1131F48F26C019DF08DF36C009DF1ADF4BDF2DAF5
S1131F58F2ADF0780000C9F0E6FFADF0BDF4FAF494
S1131F688B9DF26AF210ADF0DAF48DF2480000C9E4
S1131F78F0E2FFADF0BDF4FAF48B9DF25AF2EFAD46
S1131F88F0DAF48DF2480000D7C9F2E2FFADF2BDF1
S1131F98F0FAF08B9DF45AF4DFADF2DAF08DF448E0
S1131FA80000C9F2E6FFADF2BDF0FAF08B9DF45AD9
S1131FB8F4DFADF2DAF08DF4480000C9F4B201C9D7
S1131FC8F2B201ADF2BDF0FAF0ABBDF28DF26C02E3
S1131FD89DF08DF36C009DF1ADF4BDF2DAF2ADF035
S1131FE8780000D7C9F4B401C9F2B401ADF2BDF068
S1131FF8FAF0ABBDF28DF26C029DF08DF36C009D8E
S1132008F1ADF4BDF2DAF2ADF0780000C9F0E6FF04
S1132018ADF0BDF4FAF48B9DF26AF220ADF0DAF477
S11320288DF2480000C9F0E2FFADF0BDF4FAF48B7C
S11320389DF25AF2DFADF0DAF48DF2480000D76170
S1132048CFC1C3C5C761DFC1C3C5C761CF2004E61B
S1132058BFDAEF30C0AEB800300600B802FC25196C
S113206800100461DFC6C4C2C061CFC6C4C2C06167
S1132078FC61CFC1C3C5C7C6C4C2C061FC61CFC1BE
S1132088C3C5C7C6C4C2C061FCC9F07700ADF0BD02
S1132098F2DAF2F1480000FCF20D00FC340D00FC09
S11320A8A40F00FC521400FC260B00FCFB1A00FCD5
S11320B8191000FC060E00C9F07800ADF0BDF2DA84
S11320C8F2F1480000D72002717BFAFC912000E667
S11320D8B800BDF01002D7200EFC0A2200FC8414BC
S11320E800FC571700FC060E00FC191000FC251113
S11320F800FCDF0900305765B804306C63B806305B
S11321086F6DB80830650DB80A300A00B80CC9F00C
S11321180E00AEF8BDF0040E00BDF004F6FFB800E2
S1132128300900B802FC251900301AF0B800E6B8E6
S113213802FCF31800ADF0BF50F0FCD90C0000C944
S1132148F030FFADF0BDF2FAF28B9DF0317A9DF0DC
S1132158D4F061E8EC4721003005FFB800300500F1
S1132168B802FC3B0600D4F061F8EC7F210030058E
S113217800B800FCD800003005FFB800300400B8EF
S113218802FC3B0600D4F061F8EC9E210030030009
S1132198B800FCD800003005FFB800300300B802CE
S11321A8FC3B0600D4F061F8ECBD2100300400B813
S11321B800FCD800003005FFB800300200B802FC6B
S11321C83B0600D4F061F8ECDA2100E6B800FCD84C
S11321D800008F19F09DF0D4F061F8EC062200F5A8
S11321E819F08F1AF09DF09800FC6E2200301AF056
S11321F8B800E6B802FCF31800ADF0BF50F0EC42AA
S11322082100717AFAD71022CBF8DCFE410061CFA5
S113221834D8003600EF61DF3600EF3000EF2731A5
S11322281E440000DD0EB161CF11A9BBA5A5A7A767
S113223861DFEFED61CF3600EF30000061DF308AF7
S1132248F027311E440000DD0AB161CFBBA7A761A6
S1132258DFEFF161CFFCCE200000300000C1C1C126
S1132268FCDF2000EFFE200488084C2461E8EC9889
S11322782200AFD8EFBDF088089DF2DAF048A6EF47
S1132288AFD8EFBDF0A6F0ADF0BFD8EFEC51230006
S113229888084C0A61E8ECFB2200AFD8EFBDF0B621
S11322A8F0ADF004A6EF168B9DF04AF00D61E8EC52
S11322B8E82200AF34EFBDF044000061E8ECE82206
S11322C800AFD8EFBDF088089DF2DAF048A6EFAF6A
S11322D8D8EFBDF0A6F0DAF0F148A6EFFC582300D9
S11322E8F4F08DF09FA6EFF6BFD8EFF6BF34EFEC0D
S11322F8512300AF34EFBDF044000061E8EC5123F2
S113230800AFD8EFBDF044000061E8EC3723008843
S1132318084C2461F8EC37230030C7AEB800300706
S113232800B802FC251900E6BF34EFEC512300AFD6
S1132338D8EFBDF088089DF2DAF048A6EFAFD8EFE1
S1132348BDF0A6F0ADF0BFD8EF88089DF01004D713
S1132358202AFC5E2900ADF044000061F8EC49290C
S1132368008FA7EF9DF0CDF100ADF044420061F875
S1132378ECF42800ADF044420071FF61F3ECCA2389
S113238800ADF044310061F8EC5D2400ADF0443157
S11323980071FF61F3ECB02300ADF044300061F844
S11323A8ECFC2300EC042900ADF044320061F8ECA5
S11323B8BE2400ADF044330061F8ECF22400EC04D0
S11323C82900ADF044440061F8EC402500ADF04428
S11323D8440071FF61D8ECFC2800ADF0444500616D
S11323E8F8EC812800ADF0444C0061F8ECDC2500E1
S11323F8EC042900AF68EFBDF044010061E8EC1675
S1132408240051309827F6BF68EFEC1A24005133A2
S11324189827510D9828510A982951249F36EF512D
S1132428309F37EFF538EF3036EFB800C9F02A009F
S1132438AEF8BDF0042A00BDF004FDFFB802FC3B71
S11324483300300700B800FCD80000300500BFD8BE
S1132458EFEC492900AF68EFBDF044000061E8ECF7
S113246877240051309827E6BF68EFEC7B240051AD
S1132478339827510D9828510A982951249F36EFEB
S113248851319F37EFF538EF3036EFB800C9F22AEB
S113249800AEF8BDF2042A00BDF204FDFFB802FC48
S11324A83B3300300600B800FCD80000300500BFFC
S11324B8D8EFEC49290030DCEFB80030A8EFB802B7
S11324C8FC89330051249F36EF51329F37EF513046
S11324D89F38EF510D9F39EF510A9F3AEFF53BEFC3
S11324E8300500BFD8EFEC49290051249F36EF513D
S11324F8339F37EF51309F38EF51319F39EF5139BE
S11325089F3AEF51319F3BEF51319F3CEF51399F37
S11325183DEF51309F3EEF51339F3FEF51389F407D
S1132528EF510D9F41EF510A9F42EFF543EF300DF4
S113253800BFD8EFEC49290030DCEFB800FCB03319
S113254800ADF044200061F3EC8F250051249F3640
S1132558EF51449F37EF51309F38EF510D9F39EFBA
S1132568510A9F3AEFF53BEF300500BFD8EF3072C0
S1132578EFB80030DCEFB802FC893300E6B800FCA1
S1132588C62900EC492900F19800E19802FCA80842
S113259800306806B800FCF40A00F19800518098ED
S11325A802FCA80800306806B800FCF40A005124AC
S11325B89F36EF51449F37EF51339F38EF510D9FAA
S11325C839EF510A9F3AEFF53BEF300500BFD8EFDA
S11325D8EC4929008FA8EF9DF04AF03061E8EC5BE4
S11325E82600C9F004FFADF0BDF4FAF48B9DF25A4D
S11325F8F2FDADF0DAF48DF2480000C9F004FFAD45
S1132608F0BDF4FAF48B9DF25AF2FBADF0DAF48DD6
S1132618F2480000C9F004FFADF0BDF4FAF48B9D54
S1132628F25AF2F7ADF0DAF48DF248000051249F23
S113263836EF514C9F37EF51309F38EF510D9F398A
S1132648EF510A9F3AEFF53BEF300500BFD8EFECA6
S11326587D28008FA8EF9DF04AF03161E8ECDA2676
S113266800C9F004FFADF0BDF4FAF48B9DF25AF200
S1132678FDADF0DAF48DF2480000C9F004FFADF0C6
S1132688BDF4FAF48B9DF25AF2FBADF0DAF48DF254
S1132698480000C9F004FFADF0BDF4FAF48B9DF2D4
S11326A86AF208ADF0DAF48DF248000051249F363E
S11326B8EF514C9F37EF51309F38EF510D9F39EF51
S11326C8510A9F3AEFF53BEF300500BFD8EFEC7D98
S11326D828008FA8EF9DF04AF03261E8EC592700F2
S11326E8C9F004FFADF0BDF4FAF48B9DF26AF2026E
S11326F8ADF0DAF48DF2480000C9F004FFADF0BD86
S1132708F4FAF48B9DF25AF2FBADF0DAF48DF24848
S11327180000C9F004FFADF0BDF4FAF48B9DF25A41
S1132728F2F7ADF0DAF48DF248000051249F36EF49
S1132738514C9F37EF51309F38EF510D9F39EF516E
S11327480A9F3AEFF53BEF300500BFD8EFEC7D2840
S1132758008FA8EF9DF04AF03361E8ECD82700C950
S1132768F004FFADF0BDF4FAF48B9DF25AF2FDAD1E
S1132778F0DAF48DF2480000C9F004FFADF0BDF4BE
S1132788FAF48B9DF26AF204ADF0DAF48DF24800A3
S113279800C9F004FFADF0BDF4FAF48B9DF25AF2CF
S11327A8F7ADF0DAF48DF248000051249F36EF516A
S11327B84C9F37EF51309F38EF510D9F39EF510A35
S11327C89F3AEFF53BEF300500BFD8EFEC7D2800CA
S11327D88FA8EF9DF04AF03461E8EC572800C9F05F
S11327E804FFADF0BDF4FAF48B9DF26AF202ADF089
S11327F8DAF48DF2480000C9F004FFADF0BDF4FA34
S1132808F48B9DF26AF204ADF0DAF48DF24800001C
S1132818C9F004FFADF0BDF4FAF48B9DF25AF2F757
S1132828ADF0DAF48DF248000051249F36EF514C94
S11328389F37EF51309F38EF510D9F39EF510A9F61
S11328483AEFF53BEF300500BFD8EFEC7D28005197
S1132858249F36EF514C9F37EF51329F38EF510D7B
S11328689F39EF510A9F3AEFF53BEF300500BFD887
S1132878EFEC492900EC492900FCE72A008F87F08E
S11328889DF0705100BDF28F88F09DF0CDF100C924
S1132898F42A00AEF8BDF4042A00BDF404DFFFB83E
S11328A80030CFAEB802ADF2B804ADF0B806FC0EF5
S11328B833003036EFB800C9F02A00AEF8BDF00492
S11328C82A00BDF004DFFFB802FC893300C9F22AEC
S11328D800AEF8BDF2042A00BDF204DFFFB800FC24
S11328E8B03300ADF0BFD8EFEC492900FCAB2B00A6
S11328F8EC492900FC4A2E00EC49290051249F3652
S1132908EFF537EF3036EFB80030A7EFB802FC3BED
S113291833003036EFB800FCB03300ADF00436EFC6
S1132928BDF0BDF4DAF45131480000DAF0510D4835
S11329380100510A480200F1480300300500BFD8DD
S1132948EFAFD8EFBDF03036EFB800ADF0B802FC09
S1132958251900102AD7200C30A6EFB800FCB03394
S113296800B6F0ADF004A6EF168B9DF04AF00A61AC
S1132978F8ECBC2900512498078FA7EF9DF098081C
S113298851329809510D980A510A980B30A6EFB89C
S113299800C9F00C00AEF8BDF0040C00BDF004FB57
S11329A8FFB802FC893300300500BFD8EFF6B8043D
S11329B8ECBF2900E6B804A804BDF0100CD761EFF9
S11329C8C161CF2006A80C44000061F8ECE8290096
S11329D8F6BF6CEFE6BF6AEFF6BFA4EFFCA20E00E9
S11329E8AF6AEFBDF044000061F8ECA22A00F19848
S11329F800E19802FCA80800306806B800FCF40A54
S1132A0800F1980051809802FCA80800306806B8C4
S1132A1800FCF40A00AF6CEFBDF0B804EC7B2A00AC
S1132A28AF6CEFBDF0040800BDF2A804BDF0ADF230
S1132A3846F061E8EC542A00F1980051C09802FC71
S1132A48A80800306806B800FCF40A00A804047258
S1132A58EFBDF0BDF2FAF28B9DF0E198008DF0988D
S1132A6802FCA80800302800B800FCF40A00A804F6
S1132A78A1B804A804BDE83072EFB800FCB0330074
S1132A88B6F0B6F0ADE846F061D8EC282A00AF6C91
S1132A98EFBDF0A6F0ADF0BF6CEFAF6CEFBDF0BDCD
S1132AA8E83072EFB800FCB03300ADF004EFFFBDBE
S1132AB8F0ADE846F061C8ECD72A003072EFB800F0
S1132AC8FCB03300ADF044120061F3ECDF2A00F6E9
S1132AD8BF6AEFFCFD0E00100661EFC061CFD7207E
S1132AE802C9F031FFADF0BDF2DAF2F1480000FCA2
S1132AF8410C0000C9F030FFADF0BDF2FAF28B9D35
S1132B08F0317A9DF0D4F061E8ECFC2A00FC410C29
S1132B180000C9F030FFADF0BDF2FAF28B9DF03140
S1132B287A9DF0D4F061E8EC1A2B003087F0B800F5
S1132B38FC0D0D008F87F09DF0311A9DF09F87F0F2
S1132B48C9F031FFADF0BDF2DAF25102480000FCE1
S1132B58410C0000C9F030FFADF0BDF2FAF28B9DD4
S1132B68F0317A9DF0D4F061E8EC5C2B00FC410C68
S1132B780000C9F030FFADF0BDF2FAF28B9DF031E0
S1132B887A9DF0D4F061E8EC7A2B003088F0B80034
S1132B98FC0D0D008F88F09DF0312A9DF09F88F080
S1132BA81002D72026F1981DF1981EF1981FF1986C
S1132BB820F19821F19822F19817F19818F19819B1
S1132BC8F1981AF1981BF1981C300400BFD8EFF65D
S1132BD8B824EC1F2D00AEF8BDF2041D00BDF0A80A
S1132BE82406F0BDF0BDF4FAF48B9DF2AFD8EFBD26
S1132BF8F004A6EF168B9DF0768DF2610E9DF00C15
S1132C08D09DF2AEF8BDF4041D00BDF0A82406F072
S1132C18BDF0BDF4DAF48DF2480000AEF8BDF2045C
S1132C281700BDF0A82406F0BDF0BDF4FAF48B9D9E
S1132C38F2AFD8EFBDF004A6EF168B9DF0768DF2B7
S1132C48610E9DF00CD09DF2AEF8BDF4041700BDE2
S1132C58F0A82406F0BDF0BDF4DAF48DF2480000C3
S1132C68AFD8EFBDF0A6F0ADF0BFD8EFBDF004A625
S1132C78EF168B9DF04AF02C61E8EC9B2C00A824FD
S1132C88A1B824AFD8EFBDF0A6F0ADF0BFD8EFECF3
S1132C981F2D00AFD8EFBDF004A6EF168B9DF04AA8
S1132CA8F00D61F8EC1F2D00AEF8BDF2041D00BD57
S1132CB8F0A82406F0BDF0BDF4FAF48B9DF0314978
S1132CC89DF2AEF8BDF4041D00BDF0A82406F0BDC5
S1132CD8F0BDF4DAF48DF2480000AEF8BDF2041742
S1132CE800BDF0A82406F0BDF0BDF4FAF48B9DF005
S1132CF861019DF031299DF1768DF0610E9DF2AE52
S1132D08F8BDF4041700BDF0A82406F0BDF0BDF426
S1132D18DAF48DF2480000AFD8EFBDF004A6EF1640
S1132D288B9DF04AF00D61E8ECDE2B00C9F026001B
S1132D38AEF8BDF0042600BDF004F1FFB800FCD9DC
S1132D482F00D4F061F8ECED2D00881D9DF0981645
S1132D58881E9DF09815881F9DF0981388209DF073
S1132D68981288219DF0981188229DF09810AEF849
S1132D78BDF2040C00BDF0BDF4DAF430244278004E
S1132D8800DAF030300D780200300A00780400C907
S1132D98F02600AEF8BDF0042600BDF004E6FFB846
S1132DA800FCB03300ADF0BFD8EF3036EFB800C93F
S1132DB8F22600AEF8BDF2042600BDF204E6FFB820
S1132DC802FC893300A810BDF0B800A812BDF0B801
S1132DD802A814BDF0B80488169DF09806FCE81201
S1132DE800EC472E00F19823AEF8BDF4040800BDAA
S1132DF8F0BDF2DAF2302442780000DAF030320D15
S1132E08780200300A00780400C9F42600AEF8BD40
S1132E18F4042600BDF404E2FFB800FCB03300ADAE
S1132E28F0BFD8EF3036EFB800C9F02600AEF8BDD1
S1132E38F0042600BDF004E2FFB802FC8933001058
S1132E4826D761EFC1C3C561CF2020F19811F1984D
S1132E5812F19813F19814F19815F19816C9F02005
S1132E6800AEF8BDF0042000BDF004F7FFB800FC84
S1132E78591100881D9DF09811881C9DF09812889E
S1132E881A9DF0981388199DF0981488189DF09845
S1132E981588179DF09816C9F02000AEF8BDF00407
S1132EA82000BDF004F1FFB800FC512F00302000D1
S1132EB8B800FCFE3100ADF0B81E88119DF07051C9
S1132EC800BDEC88129DF0705100BDEA88139DF096
S1132ED8705100BDE888149DF0705100BDF6881546
S1132EE89DF0705100BDF488169DF0705100BDF23C
S1132EF8A81EBDF0B80030E0AEB802ADECB804AD21
S1132F08EAB806ADE8B808ADF6B80AADF4B80CAD41
S1132F18F2B80EFC0E3300A81EBDF0B800FCB033A6
S1132F2800ADF0BFD8EF3036EFB800A81EBDF0B83A
S1132F3802FC893300A81EBDF0B800FCE73000107D
S1132F482061EFC4C2C061CFD7200651069803F6AA
S1132F58B804ECBC2F00A804BDF0A80A06F0BDF024
S1132F68BDF2FAF28B9DF05C0F9802A804BDF0A89C
S1132F780A06F0BDF0BDF4FAF48B9DF0314A9801CD
S1132F88A804BDF0A80A06F0BDF288019DF061010D
S1132F989DF031299DF1768DF0610E9DF0768802C1
S1132FA8610E9DF0ADF2BDF4DAF48DF0480000A88E
S1132FB804A1B8048803705100BDF2A804BDF0ADA3
S1132FC8F246F071FF7177F161F3EC5E2F001006A1
S1132FD8D72018301F00B800301C00B802301F007A
S1132FE8B804301E00B806301F00B808301E00B8F8
S1132FF80A301F00B80C301F00B80E301E00B8107D
S1133008301F00B812301E00B814301F00B816A8BC
S11330181CA1BDF0BDF2FAF28B9DF04AF00C61E3FD
S1133028EC323000F4F0ECE43000A81C040200BDDB
S1133038F0BDF4FAF48B9DF0705100BDF2A81CA108
S1133048BDF0BDF4FAF48B9DF0CDF100ADF001BDF7
S1133058F0C9F41800AEF8BDF4041800BDF406F085
S1133068BDF004E8FFBDF0BDF4FAF4ABBDF0ADF279
S113307846F071FF7177F161E3EC8B3000F4F0EC0A
S1133088E43000A81C040300BDF0BDF2FAF28B9DE5
S1133098F04AF01861E3ECA83000F4F0ECE43000F6
S11330A8A81C040400BDF0BDF4FAF48B9DF04AF0AA
S11330B83C61E3ECC53000F4F0ECE43000A81C04F7
S11330C80500BDF0BDF2FAF28B9DF04AF03C61E3D5
S11330D8ECE23000F4F0ECE43000E4F01018D761CE
S11330E8EFC161CFA806BDF6AF70EFBDF2ADF644EF
S11330F8000061F8EC413100AF6EEFBDE8ADF24677
S1133108E861C8EC413100040400BDF0ADF646F0B6
S113311861E8EC333100EC473100ADF004040046BB
S1133128F661F8EC4B3100ADF0BDF2FAF2AC02BD39
S1133138F046E861D8EC22310061EFC061CFD7AD29
S1133148F2BDF0ADF01489D161F8EC413100FAF028
S1133158AC02BDF446E861C8ECBF3100ADF2148995
S1133168D161F8ECA33100ADF41489D161E8EC85A0
S11331783100FAF4AC02BDF4DAF0780200ADF012D2
S1133188F1480000ADF0BDF2ADF446E861E8EC4169
S11331983100ADF2BF6EEFEC413100ADF41489D1CA
S11331A861E8ECB43100FAF4AC02BDF4DAF2ADF43F
S11331B8780200EC903100ADF21489D161F8ECB4D6
S11331C83100EC853100AEF8BDF0D7A804BDF2A8F3
S11331D806BDF0FAF2AC02BDF426F044040061E343
S11331E8ECFD3100DAF2ADF078020012F14800008B
S11331F8ADF4780200D761EFC1C361CFAF70EF447B
S1133208000061F8ECE63200A808A1BDF0605CFE9D
S11332189DEA8DF19DEBADEA040400BDE8FCCE31D6
S113322800AF6EEFBDF4ADF026F4BDF0ADE846F0A6
S113323861E3EC903200AF70EFBDF2ADF446F26199
S1133248E3EC7D3200ADF21489FAF2D161E8EC883E
S11332583200AC02BDF626F204FCFFBDF0ADEA462E
S1133268F061E3ECAC3200ADF6BDF2ADF446F261C8
S1133278F3EC4D3200C9F0000061EFC2C061CFD752
S1133288AC02BDF2EC433200ADF412E1480000ADEB
S1133298F406E8BF6EEF78020026EABDF061EFC2DB
S11332A8C061CFD7ADF2040400BDF0ADF212E1481D
S11332B80000ADF006EABDEAADF626EA4404006172
S11332C8E3EC813200DAF2ADEA780200DAEAF14896
S11332D80000ADF678020061EFC2C061CFD7308A32
S11332E8F0BF70EF308AF0BF6EEFEC103200A80622
S11332F8BDF2FAF2ABBDF0DAF2A1780000ADF0123B
S11333088804480000D72008A80EB80030F632B860
S113331802AEF8040C00B804AEF8040C000404006F
S1133328B806FCD93300A80CBDF2DAF2F148000063
S11333381008D761EFC161CFA806BDF0BDF2EAF06D
S113334889D161F8EC813300A6F2ADF21489D16118
S1133358E8EC503300A808BDF4ADF4168B9DF6AD27
S1133368F2128DF6480000A6F2A6F4D4F661E8EC51
S113337861330061EFC061CFD7ADF0BDF2EC5D33CE
S113338800A804BDF2A806BDF0ADF0168B9DF4ADFF
S1133398F2128DF4480000A6F2A6F0D4F461E8EC29
S11333A8913300A804BDF0D7A804BDF2BDF0EAF239
S11333B889D161F8ECD43300A6F0ADF01489D16159
S11333C8E8ECC03300ADF026F2BDF0D7C9F0000038
S11333D8D761EFC1C3C561CF20E0F6B82CAEF804BD
S11333E8DF00B814A8EAA1BDEAA8EA168B9DF04A42
S11333F8F02561F8EC313400D4F061F8ECDC3F00DE
S11334088DF09800A8EEB802A8EC1261DAFBF8FF78
S113341861792CADEAB8EAA1BDEAA8EA168B9DF059
S11334284AF02561E8EC003400ADEA168B9DEC4ABD
S1133438EC2561F8EC674000F19831984E88319892
S113344837883198364AEC2B61F8EC8734004AEC1B
S11334582B61F3EC8F34004AEC2061F8EC663700FA
S11334684AEC2361E8ECB53400FBF8FF61594EA639
S1133478EAFAEA8B9DEC4AEC2B61E8EC5634008DB1
S1133488EC9836EC7734004AEC2D61F8ECAB340058
S11334984AEC3061E8ECB53400FBF8FF615931ECD3
S11334A8773400FBF8FF615937EC773400ADEABD97
S11334B8F04AEC2A61F8ECB23F008DEC0CD09DF098
S11334C8F6B8384AF00961F3EC1735008DEC9DF233
S11334D8A838BDF0ADF001BDF0312DBDF4ADF00656
S11334E8F4BDF0A6EACDF300ADF204D0FFBDF2AD11
S11334F8F006F2BDF0FAEA8B9DF20CD09DF34AF384
S11335080961E3ECDC34008DF29DECADF0B8388849
S113351837D161F8EC233500F198314AEC2E61F883
S1133528EC513F00C9E8FFFF4AEC6861F8EC433FFF
S1133538004AEC6C61F8ECD837004AEC4C61F8ECC2
S1133548D837008DEC982EF4F0ADEAA1B8EA882EAD
S11335584C6661F8ECF13700882E4C6661E3EC7731
S11335683700882E4C6F61F8EC4A4400882E4C6F63
S113357861E3ECEA3F00882E4C7361F8ECC7430022
S1133588882E4C7361E3EC564700882E4C7561F81D
S1133598EC524900882E4C7861E8EC8F40003019D1
S11335A8AFB816A8F016ABB83CD4F061F8EC704389
S11335B800A8F016AC02B83EA8F0040400B8F088DD
S11335C82E4C6F61F8EC874300882E4C7561F8EC3B
S11335D8FA4700301000B832F6B834F19836FBF8E0
S11335E8FF30000061293CBDF430000061D8B161AE
S11335F8293EBDF6883C6BF49842883D6BF59843A8
S1133608883E6BF69844883F6BF79845A844317A0E
S11336189DF4300000BDF69DF58DF49DECADE844B5
S1133628000061E8EC654100D4EC61E8EC65410018
S1133638AEF804DF00BDEAADE8BDF0ADF0BDE8A822
S11336483846E871FF7177E961D8ECC33700A838C8
S113365826E8BDEC883676F1612E9DF088366BF04D
S1133668317A318FBDF0ADEC26F0B8168837D161C8
S1133678E8ECD23600A816B1B81E44000071FF6108
S1133688D8EC014800A81EBDECADEAB82AADE8B8EC
S11336982EA8ECBDE8A8EEBDEA51209800ADEAB822
S11336A802DAE861DAB6ECADEC44FFFF61E8ECA1BC
S11336B83600A82ABDEAA82EBDE8A816BDF0A81EA3
S11336C826F0B816A82C06F0B82C8836D161E8EC98
S11336D8254100ADE844000071FF61E3EC203700A8
S11336E8ADEABDEC06E8BDEAADE8B81EADECBDE850
S11336F8A8EEBDECFAE88B9800ADECB802A8EC1281
S113370861DAA6E8ADE846EA61E8ECFC3600A81EF2
S1133718BDE8A82C06E8B82C8837D161F8ECEC335E
S113372800A816B1BDE844000071FF61D8ECEC3381
S113373800A8ECBDEAA8EEBDEC51209800ADECB8A9
S113374802DAEA61DAB6E8ADE844FFFF61E8EC4181
S11337583700A81616A82C07B82CECEC33008836CA
S1133768D161E8EC7734008DEC9836EC7734008836
S11337782E4C5861F8EC524900882E4C5861F3ECF1
S11337882B4000882E4C4561F8EC0C4100882E4CE7
S11337984761F8EC9B4000882ED161E8EC8F40002B
S11337A8C9E80300ADEAB8EAC9EA2AAFA83846E886
S11337B871FF7177E961C8EC563600F6B816883798
S11337C8D161E8ECD2360030FFFFB816ECD23600EF
S11337D8FAEA8C01982EA6EAE4F0ADEAA1B8EA88E0
S11337E82E4C6661E8EC603500A4F0ADE8C9EC0045
S11337F80044000071FF61D8EC634900F1982ED4AD
S1133808F061F8ECBC4000A8F0040400BDEAA8F09C
S113381816ABB800A8F016AC02B802FC6E49008DCD
S1133828F0981E8DF1981F8DF298208DF398218DB4
S1133838F498228DF598238DF698248DF798258D84
S1133848F098168DF198178DF298188DF398198DB4
S1133858F4981A8DF5981B8DF6981C8DF7981DAD64
S1133868EAB8F0F4F0881698008817980188189830
S11338780288199803881A9804881B9805881C9844
S113388806881D98078DF098089809980A980B9847
S11338980C980D980EF1980FFCF387008DF0D171F8
S11338A8FF61D8ECF84600AEF8045A00BDF4A83815
S11338B806F4BDEAF4F0CDF6F08816980088179857
S11338C8018818980288199803881A9804881B98FC
S11338D805881C9806881D98078DF09808980998FB
S11338E80A980B980C980D8DF6980E513F980FFC7A
S11338F80C87008DF0F4F0D171FF61D8EC9044008E
S1133908CDF3E0CDF476CDF548CDF6378DF3980BAD
S11339188DF4980C8DF5980D8DF6980E5142980FEC
S1133928FC0C8700F6B8408DF0D171FF61D8EC1D0E
S11339383A00ADE8B82AA840BDE888169800881768
S113394898018818980288199803881A9804881B7B
S11339589805881C9806881D9807F19808F1980915
S1133968F1980A5120980B515F980C51A0980D5169
S113397802980E5142980FFC4F7A008DF0981E8DD4
S1133988F1981F8DF298208DF398218DF498228D4B
S1133998F598238DF698248DF798258DF098168D33
S11339A8F198178DF298188DF398198DF4981A8D4B
S11339B8F5981B8DF6981C8DF7981DADE8040A0040
S11339C8BDE8CDF3E0CDF476CDF548CDF6378816CD
S11339D89800881798018818980288199803881AF3
S11339E89804881B9805881C9806882598078DF3E1
S11339F8980B8DF4980C8DF5980D8DF6980EFC0C9B
S1133A0887008DF0D171FF61C8EC423900ADE8B888
S1133A1840A82ABDE8F4F0CDF62488169800881743
S1133A2898018818980288199803881A9804881B9A
S1133A389805881C9806881D98078DF09808980999
S1133A48980A980B980C980D8DF6980E5140980F7B
S1133A58FC0C87008DF0D171FF61D8EC263B00ADDA
S1133A68E8B82AA840BDE8881698008817980188FD
S1133A7818980288199803881A9804881B98058846
S1133A881C9806881D9807F19808F19809F1980A76
S1133A98F1980BF1980CF1980D5124980E51409817
S1133AA80FFC4F7A008DF0981E8DF1981F8DF298B7
S1133AB8208DF398218DF498228DF598238DF6980E
S1133AC8248DF798258DF098168DF198178DF29816
S1133AD8188DF398198DF4981A8DF5981B8DF6980E
S1133AE81C8DF7981DA6E8881698008817980188F1
S1133AF818980288199803881A9804881B980588C6
S1133B081C980688259807FC0C87008DF0D171FF56
S1133B1861C8EC6F3A00ADE8B840A82ABDE8ADEC3E
S1133B2844000061F8ECD34200A840BDECADE8467F
S1133B38EC71FF7177ED61E3EC533B00ADEC44FCB1
S1133B48FF71FF71C061C8EC884700B6E8884ED1A0
S1133B5861E8ECD34200E1984E984F882ED161F881
S1133B68ECDF4200ADEABDECC9F00000ADE846F078
S1133B7871FF7177F161D8EC453D00ADE8B83AAD15
S1133B88ECB82AADEAB854ADF0BDECECD03B00A8D3
S1133B983A44000061E8ECAB3B00884ED161F8EC94
S1133BA8203D00A82ABDF6A6F6DAF6512E480000F4
S1133BB8A82A040200B82AA6ECA83A46EC71FF71B8
S1133BC877ED61D8EC353D00881698008817980180
S1133BD88818980288199803881A9804881B9805E5
S1133BE8881C9806881D9807FC5E8B00ADF0B826E3
S1133BF8ADF2B828ADF0BDE88827317B9DEA9DEB8E
S1133C08ADE8B800ADEAB802FCBF89008DF0981E93
S1133C188DF1981F8DF298208DF398218DF49822B8
S1133C288DF598238DF698248DF798258816980095
S1133C388817980188189802881998038DF09808AD
S1133C488DF198098DF2980A8DF3980B8DF4980CE0
S1133C588DF5980D8DF6980E8DF7980FFCFB620084
S1133C688DF098168DF198178DF298188DF3981990
S1133C788DF4981A8DF5981B8DF6981C8DF7981D60
S1133C888DF098008DF198018DF298028DF39803C8
S1133C988DF498048DF598058DF698068DF7980798
S1133CA8F19808F19809F1980AF1980BF1980CF138
S1133CB8980D5124980E5140980FFC1C64008DF007
S1133CC8981E8DF1981F8DF298208DF398218DF40C
S1133CD898228DF598238DF698248DF798258DF0E4
S1133CE898168DF198178DF298188DF398198DF40C
S1133CF8981A8DF5981B8DF6981C8DF7981DA82A8F
S1133D08A1BDF0A82A1288260C30480000ADEC4466
S1133D18000061F8EC973B00ADF0B82AA6ECA83A8D
S1133D2846EC71FF7177ED61C8ECD03B00A82ABD61
S1133D38ECADE8B850ADEAB852A854BDEAF4F0CDF9
S1133D48F614881698008817980188189802881914
S1133D589803881A9804881B9805881C9806881D57
S1133D6898078DF098089809980A980B980C980D5C
S1133D788DF6980E5140980FFC0C87008DF0D17188
S1133D88FF61D8EC763E00ADECB1BDF4C9F2010098
S1133D98ECB63D00DAF6480000C9F20000B6F4AD0E
S1133DA8F4A1BDF0ADEA46F061C8ECF63D00ADF40F
S1133DB8BDF6168B9DF14AF12E61F8ECA53D008DF8
S1133DC8F2768DF1610E9DF14AF13A61E8EC9C3D81
S1133DD800ADF4125130480000C9F20100B6F4AD48
S1133DE8F4A1BDF0ADEA46F061D8ECB63D00ADF201
S1133DF844000061F8EC763E00882ED161F8EC9F0F
S1133E084700ADECBDF0ADEA46EC61D8EC2E3E00BF
S1133E18EC573E00128DF2480000B6F0ADEA46F0C9
S1133E2861C8EC573E00ADF0B1168B9DF2ADF04A77
S1133E38F22E61E8EC1C3E001204FEFF168B4800CB
S1133E4800B6F0B6F0ADEA46F061D8EC2E3E00FBC1
S1133E58F8FF617940ADECBDF2AEF8045A00BDEC50
S1133E68A83806EC125131480000ADF2BDEC884F79
S1133E78D161F8ECB53E00ADECB1168B9DF24AF277
S1133E883061E8ECAC3E00ADEC04FEFFBDF0ADF0F3
S1133E98A1BDECB6F0FAF08C019DF24AF23061F85B
S1133EA8EC963E004AF22E61F8EC224800882ED1A6
S1133EB861F8ECC04200DAEC882E480000A84044BF
S1133EC8000071FF61D8EC094800ADEC040200BDA4
S1133ED8F0DAEC512B480100ADF0040A00B816C919
S1133EE8EC0100ADEAB82AA840BDEAA816BDE8ADC1
S1133EF8ECB81EADE8A1B816ADEAB800300A00B8AF
S1133F0802FC9E8D00DAE88DF00C30480000ADEA22
S1133F18B800300A00B802FC3D8D00ADF0BDEA449B
S1133F28000061E8EC3D3F00ADEC44010071FF6125
S1133F38F3EC864200A6ECECF33E00FAEA8C019816
S1133F482EA6EAF4F0EC513500FAEA8C019DEC4A0D
S1133F58EC2A61F8EC664400A6EA0CD09DF0C9E8A6
S1133F6800004AF00961F3EC3035008DEC9DF0ADAA
S1133F78E801BDE8312DBDF2ADE806F2BDE8A6EAD8
S1133F88CDF100ADF004D0FFBDF0ADE806F0BDE81A
S1133F98FAEA8B9DF00CD09DF14AF10961E3EC77C4
S1133FA83F008DF09DECEC303500A8F0040200BD14
S1133FB8F2A8F016ABBDECB83844000071FF61D824
S1133FC8EC814400A6EAFAF08C019DECADF2B8F05D
S1133FD8EC173500A82CBDF010E061EFC4C2C06135
S1133FE8CFD7882E4C6961F8EC8E4300882E4C6E2E
S1133FF861E8EC854000A8F016ABD4F061F8EC2C2D
S11340084700BDF0A82CBDECADF012ADEC78000073
S1134018317B480200480300A8F0040200B8F0EC21
S1134028EC3300882E4C6461F8EC8E4300882E4CE7
S11340386461F3EC0C4100882E4C6361E8EC8F401A
S113404800A8F0BDEC168B985AC9E80100ADEC0441
S11340580200B8F0AEF8045A00BDEAEC473600A8EE
S1134068EA040200B8EA8DEC9800A8EEB802A8ECBD
S11340781261DAFBF8FF61792CECEC3300882E4CE2
S11340886761F8EC9B4000C9E80300C9EA2AAFEC71
S1134098473600882E0CFE982EADE844000061E8EF
S11340A8EC244700C9E80100ADE8BDECD4F061E8B0
S11340B8EC0F3800A8F0BDF4168B9816ADF4A116D1
S11340C88B9817ADF4040200168B9818ADF404030A
S11340D800168B9819ADF4040400168B981AA8F0EE
S11340E8040500168B981BA8F0040600168B981C70
S11340F8A8F0040700168B981DA8F0040800B8F06F
S1134108EC6B3800C9EC0000ADE844000071FF61B5
S1134118C8EC073800C9E80600EC07380088369868
S113412800A8EEB802A8EC1261DAFBF8FF61792C5A
S1134138ECDB3600FBF8FF30000061293CBC3C3066
S1134148000061D8B161293EBC3EE4EC3008AFB848
S113415816300A00B832F6B834512D9836AEF80441
S1134168DF00BDEAADE8B81EA83CB810A83EB812F6
S11341788DEC9DE8A816BDECB6EAA810BDF4A8120B
S1134188BDF6A832BDF0A834BDF251C09FE800AD19
S1134198F6BEF2ADF4BEF0ADF2BEF4ADF0BEF6512B
S11341A8C19FE8008FE8003103FAAEF0BDF4AEF227
S11341B8BDF6AFE000BDF0AFE200BDF2ADF0B83C33
S11341C8ADF2B83EADF4B816ADF6B818ADEC06F0DD
S11341D8DAEA168B480000A816B810ADF6B812A88B
S11341E812440000A81061F844000061E8EC804122
S11341F800A810B83CA812B83E8DE89DECA81EBDD6
S1134208E844000071FF61D8EC4B4300A81426EA87
S1134218BDF0ADE846F071FF7177F161E3EC45421A
S113422800B6EADAEA5130480000A81426EABDF0DC
S113423846E871FF7177E961D8EC294200884ED1CC
S113424861F8EC433600D4EC61F8EC433600882E70
S11342585CDF9DF24AF25861F8ECD14700882E4C95
S11342686F61E8EC433600EAEA894C3061F8EC43C4
S11342783600ADEAB1BDF0ADEAB1ECE64700A82AD4
S1134288BDEAA81626ECBDF0ADE804F6FFBDF2AD14
S1134298ECBDF4ADF2BDF6ADF0DAF6168B480000CD
S11342A8B6F4A6F0B6F2ADF444000061E8EC9B4223
S11342B800ADE804F7FFBDEC8831D161E8ECFE42BB
S11342C800ADEC26EABDE8EC473600F1984F882E9D
S11342D8D161E8EC6C3B00A84044000071FF61D850
S11342E8EC284800A84016F627BDF0ADEABDECF16D
S11342F8982EEC743B00883676F1612E9DF0883652
S11343086BF0317A318FBDF0A83826F0BDF0ADECF2
S113431826EABDE846F071FF7177F161C8EC4736CB
S113432800B6EADAEA5130480000ADEC26EABDE806
S1134338ADF046E871FF7177E961F3EC294300ECCD
S11343484736008831D161F8EC144200883676F19A
S1134358612E9DF088366BF0317A318FBDF0A83824
S113436826F0BDE8EC1442008DF0983E983FA8F082
S1134378040200B8F0882E4C6F61E8ECD1350030A7
S11343880800ECDE3500A8F0BDEC16ABB83CD4F060
S113439861F8EC454700A8F016AC02B83EA8F00452
S11343A80400B8F0883F71FC61D8EC3C4100300847
S11343B8AFB816300A00B832F6B834ECE63500A8BF
S11343C8F0040200BDF4A8F016ABBDF64400006189
S11343D8F8EC5B4900ADE844000071FF61D8EC06D5
S11343E84900ADF6A1BDF2ADF61489D161F8EC1A15
S11343F84900ADE844000061F8EC4A4900C9F000FE
S113440800EC214400ADF6A1BDF2ADE846F071FF21
S11344187177F161E3EC314400ADF2BDF6A6F0EA40
S1134428F289D161E8EC0D4400F626F0BDF0ADF652
S113443806F0BDEAADF626EABDE8ADF4B8F0EC47FF
S11344483600884ED161F8ECA63500ADE84400008A
S113445861E8ECA63500C9E80100ECA63500A8F02F
S113446816ABBDE8FAEA8C029DECA8F0040200B889
S1134478F0A6EAA6EAEC303500F626ECB838FBF8E4
S1134488FF615937ECCC3F008816980088179801CB
S11344988818980288199803881A9804881B98051C
S11344A8881C9806881D98078DF098089809980A1A
S11344B8980B980C980D980EF1980FFC268600D44A
S11344C8F061F8EC814700CDF3E0CDF4DFCDF57C65
S11344D8CDF6DB8DF3980B8DF4980C8DF5980D8D36
S11344E8F6980E513D980FFCD98800F6B8408DF027
S11344F8D171FF61F3ECE84500ADE8B82AA840BDE6
S1134508E8881698008817980188189802881998D6
S113451803881A9804881B9805881C9806881D988F
S113452807F19808F19809F1980A5120980B515FFE
S1134538980C51A0980D5102980E5142980FFC1CEA
S113454864008DF0981E8DF1981F8DF298208DF3DC
S113455898218DF498228DF598238DF698248DF75B
S113456898258DF098168DF198178DF298188DF37B
S113457898198DF4981A8DF5981B8DF6981C8DF75B
S1134588981DADE804F6FFBDE8CDF3E0CDF4DFCD2A
S1134598F57CCDF6DB88169800881798018818985A
S11345A80288199803881A9804881B9805881C9807
S11345B806882598078DF3980B8DF4980C8DF5983B
S11345C80D8DF6980E513D980FFCD988008DF0D1C9
S11345D871FF61E3EC094500ADE8B840A82ABDE8DD
S11345E8F4F0CDF6F0881698008817980188189882
S11345F80288199803881A9804881B9805881C98B7
S113460806881D98078DF098089809980A980B98B9
S11346180C980D8DF6980E513F980FFCF387008D7A
S1134628F0D171FF61C8EC263B00ADE8B82AA84078
S1134638BDE8881698008817980188189802881980
S11346489803881A9804881B9805881C9806881D5E
S11346589807F19808F19809F1980AF1980BF198DC
S11346680CF1980D5124980E5140980FFC1C6400CD
S11346788DF0981E8DF1981F8DF298208DF3982156
S11346888DF498228DF598238DF698248DF7982526
S11346988DF098168DF198178DF298188DF3981956
S11346A88DF4981A8DF5981B8DF6981C8DF7981D26
S11346B8B6E8CDF6F08816980088179801881898F7
S11346C80288199803881A9804881B9805881C98E6
S11346D806882598078DF6980E513F980FFCF387A6
S11346E8008DF0D171FF61D8EC3A4600EC1E3B0016
S11346F888009846881798478818984888199849C8
S1134708881A984A881B984B881C984C881D0C80DA
S1134718984D981D512D9836ECAF3800C9EC01001E
S1134728EC104100BDF0A82CBDECADF012ADEC7856
S11347380000A8F0040200B8F0ECEC3300317B98D8
S11347483E983FADEC040200B8F0ECAC4300882E70
S11347584C7061E8EC8F4000A8F0BDEC16ABB83C97
S1134768317B983E983FADEC040200B8F03008AFB6
S1134778B816301000ECDE3500F6B840EC263B00E5
S1134788ADE826ECB1BDE8884ED161F8EC224900C9
S1134798F1984FECDF4200ADECA1BDF2ADEA46F270
S11347A861C8EC613E00ADECBDE8ADF2BDF0ADF022
S11347B812FAE88B480000B6F0B6E8ADF046EA61B4
S11347C8E8ECB64700EC613E00ADEAB112882E4829
S11347D80000ADEA04FEFFBDF0ADEA04FEFF12518D
S11347E830480000A81426F0BDE8ADF0BDEAEC4757
S11347F83600300A00ECDE3500A81EB816ECD236B6
S113480800ADEC040200BDF0DAEC512D480100A81B
S11348184016F627B840ECE03E00B6ECECB53E0096
S1134828AEF8045A00BDF2A83806F2125130480016
S113483800ADE844000061E8EC4D4800884ED161C1
S1134848F8EC2B4900ADEA040200BDECDAEA512E7B
S1134858480100A84044FFFF61F8EC3B4900ADE87B
S113486844000061F8ECD74800ADECBDF2A840A1C3
S113487806E8BDF4ADE8BDF0EC934800ADECBDF23C
S1134888ADF044000061F8ECD74800A6ECADF21294
S11348985130480000B6F0ADF446F061E8EC8448C5
S11348A8008DE87CFF98568DE97CFF9857A856BD83
S11348B8F2A84046F271FF7177F361D8ECF648002C
S11348C8ADF0BDE8F1982EC9F00100EC743B008D01
S11348D8E87CFF98588DE97CFF9859A858BDF0A842
S11348E84046F071FF7177F161C8EC434900884F85
S11348F8D161F8ECC04200F1982EEC7F3E00ADF691
S1134908A1BDF2C9E81027ADF61489D161E8EC0518
S11349184400C9F00000EC364400E1984E984FEC8E
S1134928DF4200ADEAA1BDECA84044FFFF61E8EC1A
S1134938D74800ADE8BDF0ECA94800F1982EEC4545
S11349483D00ADE8BDF0EC3644003008AFB816ECD5
S1134958AB3500C9F6F9AEECDD4300F1982EC9E891
S11349680600EC0F380061EFC1C3C561CF2024A84D
S11349782EB816A830B818AEF8042400BDF004F216
S1134988FFB800ADF004F6FFB802FC659600A81A5B
S1134998BDECB800A81CBDEAB802A81EBDE8B8045E
S11349A8F19DF4A820BDF0A822BDF28DEC980E88E4
S11349B801980F8DEA9810880398118DE898128849
S11349C805981388069814880798158DF098008D13
S11349D8F198018DF298028DF398038DF498048D63
S11349E8F498058DF498068DF49807511E9808FCE0
S11349F8A194008DEC9800880F98018DEA9802889C
S1134A081198038DE89804881398058DF0980E8DF5
S1134A18F1980F8DF298108DF398118DF498128DEA
S1134A28F598138DF698148DF798158DF098068DD2
S1134A38F198078DF298088DF398098DF4980A8DEA
S1134A48F5980B8DF6980C8DF7980DFCA08C008DBD
S1134A58F0980E8DF1980F8DF298108DF398118DB2
S1134A68F498128DF598138DF698148DF798158887
S1134A78149DEC88159DED8DEC9DF68DED9DF7103C
S1134A882461EFC4C2C061CFD761EFC1C3C561CF90
S1134A98203CA84ABDECA84616ABBDF04401006111
S1134AA8E3ECCA6100A84816ABBDF244010061E317
S1134AB8ECD06100ADF044040061E8ECEB4A00A8D6
S1134AC846BDF0ADF244040061E8ECDA6100EAF0B6
S1134AD8AA0261490261F8ECDA6100C9F02EAFEC70
S1134AE8DA6100ADF244040061F8ECD061004402DC
S1134AF80061E8EC604B00ADF044020061E8ECCAE8
S1134B086100DAECADF0780000A84616AC02780231
S1134B1800A84616AC04780400A84616AC06780625
S1134B2800A84616AC08780800A84616AC0A780A05
S1134B3800A84616AC0C780C00A848BDF0A846BDE1
S1134B48F2EAF0168A025E02480200FAF28A035E6A
S1134B5803480300ECD66100ADF044020061F8ECB0
S1134B68D06100A84616AC04B83AA8480404001654
S1134B78ABBDF2A846040600168B981AA84604078B
S1134B8800168B981BA846040800168B981CA84688
S1134B98040900168B981DA846040A00168B981E53
S1134BA8A846040B00168B981FA846040C00168B05
S1134BB89820A846040D00168B9821A848040600DE
S1134BC8168B9812A848040700168B9813A8480453
S1134BD80800168B9814A848040900168B9815A881
S1134BE848040A00168B9816A848040B00168B98DC
S1134BF817A848040C00168B9818A848040D00162A
S1134C088B9819A83A26F2BDF0BDE844000071FF5C
S1134C1861C8EC234C00F626F0BDE8ADE8443F003B
S1134C2871FF61F3ECF25500ADF044000071FF61CF
S1134C38E3EC10510088129800881398018814989E
S1134C480288159803881698048817980588189870
S1134C5806881998078DE89808FCBB92008DF0988F
S1134C68328DF198338DF298348DF398358DF4980C
S1134C78368DF598378DF698388DF79839E1980A76
S1134C88F1980B980C980D980E980F981098118815
S1134C980A9800880B9801880C9802880D98038854
S1134CA80E9804880F98058810980688119807FCB0
S1134CB8A194008DF098228DF198238DF298248D7B
S1134CC8F398258DF498268DF598278DF698288DD8
S1134CD8F7982951FF982A982B982C982D982E9854
S1134CE82F983098318DF076882A610E9DF2E4F081
S1134CF88822768DF2614E61D8EC094D0088119DA9
S1134D08F0882B768823610E9DF3E4EA8823768D58
S1134D18F3614E61D8EC234D00F4EA8DF3768DF0FF
S1134D28610E9DF0E4F14BF361D8EC384D00F4F1D9
S1134D388DEA6BF19DEA8DF09DF3882C76882461C9
S1134D480E9DF4E4F18824768DF4614E61D8EC5C10
S1134D584D00F4F18DF4768DEA610E9DEAE4F04B92
S1134D68F461D8EC714D00F4F08DF16BF09DF18D88
S1134D78EA9DF4882D768825610E9DF5E4F0882552
S1134D88768DF5614E61D8EC954D00F4F08DF5768D
S1134D988DF1610E9DF1E4EA4BF561D8ECAA4D0062
S1134DA8F4EA8DF06BEA9DF08DF19DF5882E7688F6
S1134DB826610E9DF6E4F18826768DF6614E61D85B
S1134DC8ECCE4D00F4F18DF6768DF0610E9DF0E495
S1134DD8EA4BF661D8ECE34D00F4EA8DF16BEA9DF9
S1134DE8F18DF09DF6882F768827610E9DF7E4F003
S1134DF88827768DF7614E61D8EC074E00F4F08D64
S1134E08F7768DF1610E9DF1E4EA4BF761D8EC1C5D
S1134E184E00F4EA8DF06BEA9DF08DF19DF7883031
S1134E28768828610E9DE8E4F18828768DE8614E3D
S1134E3861D8EC404E00F4F18DE8768DF0610E9D5A
S1134E48F0E4EA4BE861D8EC554E00F4EA8DF16BD6
S1134E58EA9DF18DF09DE88831768829610E768D7A
S1134E68F1610E9DE988125BF2982288135BF3982E
S1134E782388145BF4982488155BF5982588165BB9
S1134E88F6982688175BF7982788185BE898288887
S1134E98195BE99829F4F48DF49DF59DF69DF79D29
S1134EA8E89DE99DEA9DEB8822768DF4612E980AA7
S1134EB8E4F14BF461F3ECC64E008DF59DF18823C3
S1134EC8768DF5612E980BE4F04BF561F3ECDB4E2F
S1134ED800F4F08DF176880B612E9DF1E4F2880BD5
S1134EE8768DF1614E61F3ECF54E00F4F28DF06BC2
S1134EF8F29DF08DF1980B8824768DF6612E980C2E
S1134F08E4F14BF661F3EC144F00F4F18DF076887C
S1134F180C612E9DF0E4F2880C768DF0614E61F3FD
S1134F28EC2E4F00F4F28DF16BF29DF18DF0980C9C
S1134F388825768DF7612E980DE4F04BF761F3EC34
S1134F484D4F00F4F08DF176880D612E9DF1E4F259
S1134F58880D768DF1614E61F3EC674F00F4F28DA4
S1134F68F06BF29DF08DF1980D8826768DE8612E10
S1134F78980EE4F14BE861F3EC864F00F4F18DF000
S1134F8876880E612E9DF0E4F2880E768DF0614EDF
S1134F9861F3ECA04F00F4F28DF16BF29DF18DF00A
S1134FA8980E8827768DE9612E980FE4F04BE96115
S1134FB8F3ECBF4F00F4F08DF176880F612E9DF16C
S1134FC8E4F2880F768DF1614E61F3ECD94F00F469
S1134FD8F28DF06BF29DF08DF1980F8828768DEAAA
S1134FE8612E9810E4F14BEA61F3ECF84F00F4F108
S1134FF88DF0768810612E9DF0E4F28810768DF09D
S1135008614E61F3EC125000F4F28DF16BF29DF1F4
S11350188DF098108829768DEB612E98118DF17694
S11350288811612E9811882276880A616E9DF0880D
S11350382376880B616E9DF1882476880C616E9DB9
S1135048F2882576880D616E9DF3882676880E6130
S11350586E9DF4882776880F616E9DF5882876887A
S113506810616E9DF68829768811616E9DF78DF022
S113507898008DF198018DF298028DF398038DF4C0
S113508898048DF598058DF698068DF79807513F85
S11350989808FCBB92008DF0980A8DF1980B8DF25C
S11350A8980C8DF3980D8DF4980E8DF5980F8DF658
S11350B898108DF798118DF098228DF198238DF220
S11350C898248DF398258DF498268DF598278DF6D8
S11350D898288DF7982988326BF0981288336BF1E9
S11350E8981388346BF2981488356BF398158836BE
S11350F86BF4981688376BF5981788386BF69818F8
S113510888396BF7EC29560044000061F8EC2B56FB
S113511800A83A06E8B83A881A9800881B980188C3
S11351281C9802881D9803881E9804881F9805886F
S1135138209806882198078DE89808FCBB92008D72
S1135148F098328DF198338DF298348DF398358D2B
S1135158F498368DF598378DF698388DF79839E1A7
S1135168980AF1980B980C980D980E980F98109827
S113517811880A9800880B9801880C9802880D9861
S113518803880E9804880F98058810980688119843
S113519807FCA194008DF098228DF198238DF29844
S11351A8248DF398258DF498268DF598278DF698F7
S11351B8288DF7982951FF982A982B982C982D9880
S11351C82E982F983098318DF076882A610E9DF2AA
S11351D8E4F08822768DF2614E61D8ECEB510088B8
S11351E8119DF0882B768823610E9DF3E4EA8823C9
S11351F8768DF3614E61D8EC055200F4EA8DF376AE
S11352088DF0610E9DF0E4F14BF361D8EC1A520075
S1135218F4F18DEA6BF19DEA8DF09DF3882C768884
S113522824610E9DF4E4F18824768DF4614E61D8EE
S1135238EC3E5200F4F18DF4768DEA610E9DEAE4B9
S1135248F04BF461D8EC535200F4F08DF16BF09DFF
S1135258F18DEA9DF4882D768825610E9DF5E4F09C
S11352688825768DF5614E61D8EC775200F4F08D7F
S1135278F5768DF1610E9DF1E4EA4BF561D8EC8C7D
S11352885200F4EA8DF06BEA9DF08DF19DF5882EBD
S1135298768826610E9DF6E4F18826768DF6614EB1
S11352A861D8ECB05200F4F18DF6768DF0610E9D64
S11352B8F0E4EA4BF661D8ECC55200F4EA8DF16BE0
S11352C8EA9DF18DF09DF6882F768827610E9DF76B
S11352D8E4F08827768DF7614E61D8ECE95200F442
S11352E8F08DF7768DF1610E9DF1E4EA4BF761D804
S11352F8ECFE5200F4EA8DF06BEA9DF08DF19DF717
S11353088830768828610E9DE8E4F18828768DE84F
S1135318614E61D8EC225300F4F18DE8768DF0618A
S11353280E9DF0E4EA4BE861D8EC375300F4EA8DBB
S1135338F16BEA9DF18DF09DE88831768829610E3C
S1135348768DF1610E9DE9881A5BF29822881B5BC1
S1135358F39823881C5BF49824881D5BF5982588AA
S11353681E5BF69826881F5BF7982788205BE898C9
S11353782888215BE99829F4F48DF49DF59DF69D20
S1135388F79DE89DE99DEA9DEB8822768DF4612ED0
S1135398980AE4F14BF461F3ECA853008DF59DF100
S11353A88823768DF5612E980BE4F04BF561F3ECC8
S11353B8BD5300F4F08DF176880B612E9DF1E4F273
S11353C8880B768DF1614E61F3ECD75300F4F28DBE
S11353D8F06BF29DF08DF1980B8824768DF6612E92
S11353E8980CE4F14BF661F3ECF65300F4F18DF00C
S11353F876880C612E9DF0E4F2880C768DF0614E6F
S113540861F3EC105400F4F28DF16BF29DF18DF020
S1135418980C8825768DF7612E980DE4F04BF7618A
S1135428F3EC2F5400F4F08DF176880D612E9DF184
S1135438E4F2880D768DF1614E61F3EC495400F481
S1135448F28DF06BF29DF08DF1980D8826768DE83B
S1135458612E980EE4F14BE861F3EC685400F4F122
S11354688DF076880E612E9DF0E4F2880E768DF02C
S1135478614E61F3EC825400F4F28DF16BF29DF10C
S11354888DF0980E8827768DE9612E980FE4F04BFD
S1135498E961F3ECA15400F4F08DF176880F612EE4
S11354A89DF1E4F2880F768DF1614E61F3ECBB5403
S11354B800F4F28DF06BF29DF08DF1980F88287648
S11354C88DEA612E9810E4F14BEA61F3ECDA5400AA
S11354D8F4F18DF0768810612E9DF0E4F288107650
S11354E88DF0614E61F3ECF45400F4F28DF16BF23B
S11354F89DF18DF098108829768DEB612E98118D89
S1135508F1768811612E9811882276880A616E9D39
S1135518F0882376880B616E9DF1882476880C6167
S11355286E9DF2882576880D616E9DF388267688AF
S11355380E616E9DF4882776880F616E9DF5882824
S1135548768810616E9DF68829768811616E9DF7BC
S11355588DF098008DF198018DF298028DF39803DF
S11355688DF498048DF598058DF698068DF79807AF
S1135578513F9808FCBB92008DF0980A8DF1980B66
S11355888DF2980C8DF3980D8DF4980E8DF5980F77
S11355988DF698108DF798118DF098228DF1982337
S11355A88DF298248DF398258DF498268DF59827F7
S11355B88DF698288DF7982988326BF0981A8833D5
S11355C86BF1981B88346BF2981C88356BF3981D23
S11355D888366BF4981E88376BF5981F88386BF6F5
S11355E8982088396BF7EC145600A83A46F271FFF4
S11355F87177F361F3EC1A5600ADF2B83AF1981AE0
S1135608981B981C981D981E981F98209821EC2B7D
S11356185600F19812981398149815981698179894
S1135628189819A846BDF2A6F2A6F2FAF2ABBDF094
S1135638A84816AC0246F061F8EC105F00ADF044DF
S1135648000061F8ECC95700881A768812612E9D0B
S1135658F0E4E88812768DF0614E61F3EC6A560046
S1135668F4E8881B768813612E9DF1E4E9881376A3
S11356788DF1614E61F3EC845600F4E98DE8768D82
S1135688F1612E9DE8E4EA4BF161F3EC995600F4DC
S1135698EA8DE96BEA9DE98DE89DF1881C7688140A
S11356A8612E9DF2E4E88814768DF2614E61F3EC84
S11356B8BD5600F4E88DE9768DF2612E9DE9E4EAA1
S11356C84BF261F3ECD25600F4EA8DE86BEA9DE8FC
S11356D88DE99DF2881D768815612E9DF3E4E9888D
S11356E815768DF3614E61F3ECF65600F4E98DE816
S11356F8768DF3612E9DE8E4EA4BF361F3EC0B57E6
S113570800F4EA8DE96BEA9DE98DE89DF3881E763D
S11357188816612E9DF4E4E88816768DF4614E614E
S1135728F3EC2F5700F4E88DE9768DF4612E9DE9AA
S1135738E4EA4BF461F3EC445700F4EA8DE86BEACD
S11357489DE88DE99DF4881F768817612E9DF5E400
S1135758E98817768DF5614E61F3EC685700F4E932
S11357688DE8768DF5612E9DE8E4EA4BF561F3EC5E
S11357787D5700F4EA8DE96BEA9DE98DE89DF5888B
S113578820768818612E9DF6E4E88818768DF661EF
S11357984E61F3ECA15700F4E88DE9768DF6612E9D
S11357A89DE9E4EA4BF661F3ECB65700F4EA8DE8B8
S11357B86BEA9DE88DE99DF68821768819EC3E59B7
S11357C800881276881A612E9DF0E4E8881A768D8E
S11357D8F0614E61F3ECE35700F4E8881376881B14
S11357E8612E9DF1E4E9881B768DF1614E61F3EC3D
S11357F8FD5700F4E98DE8768DF1612E9DE8E4EA21
S11358084BF161F3EC125800F4EA8DE96BEA9DE977
S11358188DE89DF1881476881C612E9DF2E4E88851
S11358281C768DF2614E61F3EC365800F4E88DE98C
S1135838768DF2612E9DE9E4EA4BF261F3EC4B5864
S113584800F4EA8DE86BEA9DE88DE99DF288157607
S1135858881D612E9DF3E4E9881D768DF3614E6100
S1135868F3EC6F5800F4E98DE8768DF3612E9DE82A
S1135878E4EA4BF361F3EC845800F4EA8DE96BEA4B
S11358889DE98DE89DF3881676881E612E9DF4E4C3
S1135898E8881E768DF4614E61F3ECA85800F4E8AC
S11358A88DE9768DF4612E9DE9E4EA4BF461F3EC1D
S11358B8BD5800F4EA8DE86BEA9DE88DE99DF4880B
S11358C81776881F612E9DF5E4E9881F768DF561AA
S11358D84E61F3ECE15800F4E98DE8768DF5612E1C
S11358E89DE8E4EA4BF561F3ECF65800F4EA8DE937
S11358F86BEA9DE98DE89DF58818768820612E9DD0
S1135908F6E4E88820768DF6614E61F3EC1A5900C6
S1135918F4E88DE9768DF6612E9DE9E4EA4BF661AB
S1135928F3EC2F5900F4EA8DE86BEA9DE88DE99DC4
S1135938F68819768821612E9DF78DE8768DF761B2
S11359482E9DE88DF098128DF198138DF298148D90
S1135958F398158DF498168DF598178DF698188D7B
S1135968E89819DAECD171FF61D8ECA85900F678F7
S11359780200A83A780400881248060088134807E9
S113598800881448080088154809008816480A0041
S11359988817480B008818480C008819EC6D5B00C0
S11359A8E6780200A83A780400F1981A981B981C23
S11359B8981D981E981F98209821881276881A6135
S11359C82E9DF0E4E8881A768DF0614E61F3ECDEE2
S11359D8590088219DE8881376881B612E9DF1E47F
S11359E8E9881B768DF1614E61F3ECF85900F4E90E
S11359F88DE8768DF1612E9DE8E4EA4BF161F3ECD4
S1135A080D5A00F4EA8DE96BEA9DE98DE89DF18869
S1135A181476881C612E9DF2E4E8881C768DF26168
S1135A284E61F3EC315A00F4E88DE9768DF2612E7B
S1135A389DE9E4EA4BF261F3EC465A00F4EA8DE896
S1135A486BEA9DE88DE99DF2881576881D612E9D87
S1135A58F3E4E9881D768DF3614E61F3EC6A5A002C
S1135A68F4E98DE8768DF3612E9DE8E4EA4BF36161
S1135A78F3EC7F5A00F4EA8DE96BEA9DE98DE89D21
S1135A88F3881676881E612E9DF4E4E8881E768DC8
S1135A98F4614E61F3ECA35A00F4E88DE9768DF4D1
S1135AA8612E9DE9E4EA4BF461F3ECB85A00F4EA98
S1135AB88DE86BEA9DE88DE99DF4881776881F6167
S1135AC82E9DF5E4E9881F768DF5614E61F3ECDCD3
S1135AD85A00F4E98DE8768DF5612E9DE8E4EA4BE9
S1135AE8F561F3ECF15A00F4EA8DE96BEA9DE98D6E
S1135AF8E89DF58818768820612E9DF6E4E88820CC
S1135B08768DF6614E61F3EC155B00F4E88DE97669
S1135B188DF6612E9DE9E4EA4BF661F3EC2A5B000D
S1135B28F4EA8DE86BEA9DE88DE99DF68819768894
S1135B3821612E9DF78DE8768DF7612E9DE8DAECCC
S1135B488DF04806008DF14807008DF24808008D55
S1135B58F34809008DF4480A008DF5480B008DF6CA
S1135B68480C008DE8480D00FAEC8C0698128C0756
S1135B7898138C0898148C0998158C0A98168C0B11
S1135B8898178C0C98188C0D981951FF981A981B13
S1135B98981C981D981E981F98209821881A768812
S1135BA812610E9DF0E4E98812768DF0614E61D899
S1135BB8ECBE5B00F4E9881B768813610E9DF1E462
S1135BC8E88813768DF1614E61D8ECD85B00F4E86F
S1135BD88DF1768DE9610E9DE9E4EA4BF161D8EC2B
S1135BE8ED5B00F4EA8DE86BEA9DE88DE99DF188A8
S1135BF81C768814610E9DF2E4E98814768DF261AE
S1135C084E61D8EC115C00F4E98DF2768DE8610EF2
S1135C189DE8E4EA4BF261D8EC265C00F4EA8DE9ED
S1135C286BEA9DE98DE89DF2881D768815610E9DC5
S1135C38F3E4E88815768DF3614E61D8EC4A5C008C
S1135C48F4E88DF3768DE9610E9DE9E4EA4BF3619E
S1135C58D8EC5F5C00F4EA8DE86BEA9DE88DE99D79
S1135C68F3881E768816610E9DF4E4E98816768D0D
S1135C78F4614E61D8EC835C00F4E98DF4768DE828
S1135C88610E9DE8E4EA4BF461D8EC985C00F4EA10
S1135C988DE96BEA9DE98DE89DF4881F7688176184
S1135CA80E9DF5E4E88817768DF5614E61D8ECBC55
S1135CB85C00F4E88DF5768DE9610E9DE9E4EA4B24
S1135CC8F561D8ECD15C00F4EA8DE86BEA9DE88DC7
S1135CD8E99DF58820768818610E9DF6E4E9881810
S1135CE8768DF6614E61D8ECF55C00F4E98DF676B4
S1135CF88DE8610E9DE8E4EA4BF661D8EC0A5D0094
S1135D08F4EA8DE96BEA9DE98DE89DF688217688A9
S1135D1819610E768DE9610E9DF74AF70F61F3EC70
S1135D28C460004AF70F61F8ECCD5E008812610187
