S01200004564657369676E44656D6F2E6D6F742B
S1070000FE24FFFFD8
S11300047323732373237323732373237323732338
S11300147323732373237323732373237323732328
S11300247A1DA61C73237323352367237323732335
S113003416107323461273237323732373237323B6
S113004473237323732373237323732373237323F8
S113005473237323732373237323732373237323E8
S113006473237323732373237323732373237323D8
S10F0074732373237323732373237323F8
S10700C0EFFFE984DD
S10D00C4000000000000000000002E
S11300D82002AF00EFBDF044040061F8ECB8020060
S11300E8ADF044040071FF61F3EC360100ADF04457
S11300F8010061F8ECCB0100ADF044010071FF612F
S1130108F3EC1C0100ADF044000061F8EC8201003E
S1130118EC710400ADF044020061F8EC1A0200AD81
S1130128F044030061F8EC690200EC710400ADF0DE
S113013844070061F8EC930300ADF044070071FF35
S113014861F3EC680100ADF044050061F8ECFF02CE
S113015800ADF044060061F8EC460300EC710400BD
S1130168ADF044080061F8ECE00300ADF044090088
S113017861F8EC2D0400EC710400A8064403006146
S1130188E8EC9D0100AF00EFBDF0A6F0ADF0BF00B4
S1130198EFECC70100A80644040061E8ECB20100D2
S11301A8300400BF00EFECC70100A8064406006154
S11301B8E8ECC70100300500BF00EFEC710400EC67
S11301C8710400A80644030061E8ECE60100AF00EE
S11301D8EFBDF0A6F0ADF0BF00EFEC160200A806E4
S11301E844040061E8EC010200AF00EFBDF0B6F092
S11301F8ADF0BF00EFEC160200A80644060061E863
S1130208EC160200300500BF00EFEC710400EC713D
S11302180400A80644030061E8EC350200AF00EFCF
S1130228BDF0A6F0ADF0BF00EFEC650200A80644EF
S1130238040061E8EC500200AF00EFBDF0B6F0AD89
S1130248F0BF00EFEC650200A80644060061E8EC84
S1130258650200300500BF00EFEC710400EC710486
S113026800A80644030061E8EC840200AF00EFBD77
S1130278F0A6F0ADF0BF00EFECB40200A806440409
S11302880061E8EC9F0200AF00EFBDF0B6F0ADF0FE
S1130298BF00EFECB40200A80644060061E8ECB421
S11302A80200300500BF00EFEC710400EC7104009B
S11302B8A80644030061E8ECCB0200F6BF00EFECAB
S11302C8FB0200A80644040061E8ECE60200AF0063
S11302D8EFBDF0B6F0ADF0BF00EFECFB0200A806EE
S11302E844060061E8ECFB0200300500BF00EFECB7
S11302F8710400EC710400A80644030061E8EC1AD8
S11303080300AF00EFBDF0A6F0ADF0BF00EFEC4284
S11303180300A80644040061E8EC2F030030090038
S1130328BF00EFEC420300A80644070061E8EC4272
S11303380300F6BF00EFEC710400EC710400A8069A
S113034844030061E8EC610300AF00EFBDF0A6F0E0
S1130358ADF0BF00EFEC8F0300A80644040061E889
S1130368EC7C0300AF00EFBDF0B6F0ADF0BF00EFDA
S1130378EC8F0300A80644070061E8EC8F0300F63D
S1130388BF00EFEC710400EC710400A806440300FC
S113039861E8ECAE0300AF00EFBDF0A6F0ADF0BF2E
S11303A800EFECDC0300A80644040061E8ECC90390
S11303B800AF00EFBDF0B6F0ADF0BF00EFECDC032A
S11303C800A80644070061E8ECDC0300F6BF00EF70
S11303D8EC710400EC710400A80644030061E8EC25
S11303E8FB0300AF00EFBDF0A6F0ADF0BF00EFECEB
S11303F8290400A80644040061E8EC160400AF00D0
S1130408EFBDF0B6F0ADF0BF00EFEC290400A8068C
S113041844070061E8EC290400F6BF00EFEC71041E
S113042800EC710400A80644030061E8EC420400EF
S1130438300500BF00EFEC700400A8064404006116
S1130448E8EC5D0400AF00EFBDF0B6F0ADF0BF001E
S1130458EFEC700400A80644070061E8EC7004009F
S1130468F6BF00EFEC70040000AF00EFBDF04404E9
S11304780061F8EC8D0500ADF044040071FF61F3F0
S1130488ECCD0400ADF044010061F8EC360500AD94
S1130498F044010071FF61F3ECB30400ADF04400D3
S11304A80061F8EC190500EC260900ADF0440200DF
S11304B861F8EC530500ADF044030061F8EC7005F5
S11304C800EC260900ADF044070061F8EC100700C1
S11304D8ADF044070071FF61F3ECFF0400ADF04494
S11304E8050061F8ECAA0500ADF044060061F8ECDB
S11304F85D0600EC260900ADF044080061F8ECC381
S11305080700ADF044090061F8EC760800EC260910
S11305180051309F72EF510D9F73EF510A9F74EF92
S1130528F575EFE6B800FCBB2C00EC260900513148
S11305389F72EF510D9F73EF510A9F74EFF575EF9A
S1130548E6B800FCBB2C00EC26090051329F72EF80
S1130558510D9F73EF510A9F74EFF575EFE6B800DC
S1130568FCBB2C00EC26090051339F72EF510D9F00
S113057873EF510A9F74EFF575EFE6B800FCBB2CD6
S113058800EC26090051349F72EF510D9F73EF510F
S11305980A9F74EFF575EFE6B800FCBB2C00EC2657
S11305A8090051539F72EF51779F73EF51699F74FC
S11305B8EF51749F75EF51639F76EF51689F77EF02
S11305C851209F78EF51739F79EF51749F7AEF51BF
S11305D8619F7BEF51749F7CEF51659F7DEF5120A4
S11305E89F7EEF513D9F7FEF51209F80EF51309FB9
S11305F881EF510D9F82EF510A9F83EFF584EFE657
S1130608B800FCBB2C00C9F004FFADF0BDF4FAF44B
S11306188B9DF25AF2FDADF0DAF48DF2480000C970
S1130628F004FFADF0BDF4FAF48B9DF25AF2FBAD81
S1130638F0DAF48DF2480000C9F004FFADF0BDF41F
S1130648FAF48B9DF25AF2F7ADF0DAF48DF2480021
S113065800EC26090051539F72EF51779F73EF51B5
S1130668699F74EF51749F75EF51639F76EF5168DA
S11306789F77EF51209F78EF51739F79EF51749FC3
S11306887AEF51619F7BEF51749F7CEF51659F7D99
S1130698EF51209F7EEF513D9F7FEF51209F80EFC8
S11306A851319F81EF510D9F82EF510A9F83EFF5DE
S11306B884EFE6B800FCBB2C00C9F004FFADF0BD24
S11306C8F4FAF48B9DF25AF2FDADF0DAF48DF248A7
S11306D80000C9F004FFADF0BDF4FAF48B9DF25AA2
S11306E8F2FBADF0DAF48DF2480000C9F004FFAD76
S11306F8F0BDF4FAF48B9DF26AF208ADF0DAF48DE9
S1130708F2480000EC26090051539F72EF51779F7D
S113071873EF51699F74EF51749F75EF51639F761E
S1130728EF51689F77EF51209F78EF51739F79EFCE
S113073851749F7AEF51619F7BEF51749F7CEF5105
S1130748659F7DEF51209F7EEF513D9F7FEF5120A4
S11307589F80EF51329F81EF510D9F82EF510A9F85
S113076883EFF584EFE6B800FCBB2C00C9F004FF66
S1130778ADF0BDF4FAF48B9DF26AF202ADF0DAF44E
S11307888DF2480000C9F004FFADF0BDF4FAF48B13
S11307989DF25AF2FBADF0DAF48DF2480000C9F08C
S11307A804FFADF0BDF4FAF48B9DF25AF2F7ADF004
S11307B8DAF48DF2480000EC26090051539F72EFD9
S11307C851779F73EF51699F74EF51749F75EF517F
S11307D8639F76EF51689F77EF51209F78EF5173AD
S11307E89F79EF51749F7AEF51619F7BEF51749F0A
S11307F87CEF51659F7DEF51209F7EEF513D9F7F98
S1130808EF51209F80EF51339F81EF510D9F82EF6D
S1130818510A9F83EFF584EFE6B800FCBB2C00C9AE
S1130828F004FFADF0BDF4FAF48B9DF25AF2FDAD7D
S1130838F0DAF48DF2480000C9F004FFADF0BDF41D
S1130848FAF48B9DF26AF204ADF0DAF48DF2480002
S113085800C9F004FFADF0BDF4FAF48B9DF25AF22E
S1130868F7ADF0DAF48DF2480000EC260900515394
S11308789F72EF51779F73EF51699F74EF51749F83
S113088875EF51639F76EF51689F77EF51209F78FA
S1130898EF51739F79EF51749F7AEF51619F7BEF0A
S11308A851749F7CEF51659F7DEF51209F7EEF51DE
S11308B83D9F7FEF51209F80EF51349F81EF510D71
S11308C89F82EF510A9F83EFF584EFE6B800FCBBE3
S11308D82C00C9F004FFADF0BDF4FAF48B9DF26A64
S11308E8F202ADF0DAF48DF2480000C9F004FFAD6D
S11308F8F0BDF4FAF48B9DF26AF204ADF0DAF48DEB
S1130908F2480000C9F004FFADF0BDF4FAF48B9D81
S1130918F25AF2F7ADF0DAF48DF248000000100252
S1130928D72004A808BDF0B800A80ABDF0B802FC96
S1130938770A004AF00161E8EC870900A80ABDF0CB
S113094801BDF00412EFBDF0BDF2FAF2ABBDF0A1A7
S1130958BDF2A80ABDF001BDF00412EFBDF0BDF46C
S1130968DAF4ADF2780000A80ABDF001BDF0040283
S1130978EFBDF0BDF2DAF2F6780000ECC60900A883
S11309880ABDF001BDF00402EFBDF0BDF4FAF4AB0A
S1130998BDF0A1BDF2A80ABDF001BDF00402EFBD8F
S11309A8F0BDF4DAF4ADF2780000A80ABDF001BD98
S11309B8F00412EFBDF0BDF2DAF2F6780000A80AEE
S11309C8BDF001BDF00412EFBDF0BDF4FAF4ABBD07
S11309D8F044E20461E3EC2E0A00A80ABDF001BD6C
S11309E8F00412EFBDF0BDF2DAF230E3047800004F
S11309F8A80ABDF001BDF00422EFBDF0BDF4FAF47D
S1130A08ABBDF044000061E8EC720A00A80ABDF02E
S1130A1801BDF00422EFBDF0BDF2DAF2E678000081
S1130A28E4F0EC740A00A80ABDF001BDF00402EF7A
S1130A38BDF0BDF4FAF4ABBDF044E20461E3EC723A
S1130A480A00A80ABDF001BDF00422EFBDF0BDF212
S1130A58DAF2F6780000A80ABDF001BDF00402EF4E
S1130A68BDF0BDF4DAF4F6780000F4F01004D7A869
S1130A7806BDF044030061F8EC270B00ADF0440315
S1130A880071FF61F3ECB80A00ADF044010061F8AD
S1130A98ECFB0A00ADF044010071FF61F3EC110BAB
S1130AA800ADF044000061F8ECEA0A00EC920B0097
S1130AB8ADF044050061F8EC530B00ADF0440500BB
S1130AC871FF61D8EC3D0B00ADF044060061F8EC11
S1130AD8690B00ADF044070061F8EC7F0B00EC9261
S1130AE80B00A804BDF0BDF2EAF2895C019DF0ECAC
S1130AF8950B00A804BDF0BDF2FAF28B9DF0311AF3
S1130B089DF05AF001EC950B00A804BDF0BDF2FA73
S1130B18F28B9DF0312A9DF05AF001EC950B00A858
S1130B2804BDF0BDF2FAF28B9DF0313A9DF05AF013
S1130B3801EC950B00A804BDF0BDF2FAF28B9DF010
S1130B48314A9DF05AF001EC950B00A804BDF0BDA4
S1130B58F2FAF28B9DF0315A9DF05AF001EC950BA4
S1130B6800A804BDF0BDF2FAF28B9DF0316A9DF045
S1130B785AF001EC950B00A804BDF0BDF2FAF28B13
S1130B889DF0317A9DF0EC950B00CDF0FFD720064F
S1130B98880C314A9805880A9DF0980088059DF0CC
S1130BA89802FCC70B00880C5C0F9805880A9DF016
S1130BB8980088059DF09802FCC70B001006D72002
S1130BC8028806D161F8ECEF0B00C9F007FFADF01D
S1130BD8BDF4FAF48B9DF26AF201ADF0DAF48DF209
S1130BE8480000EC080C00C9F007FFADF0BDF4FAAA
S1130BF8F48B9DF25AF2FEADF0DAF48DF24800005F
S1130C08C9F007FFADF0BDF4FAF48B9DF25AF2FD7A
S1130C18ADF0DAF48DF2480000C9F227FFC9F027D5
S1130C28FFADF0BDF4FAF48B9DF05AF0F0ADF2BDCF
S1130C38F4DAF48DF0480000C9F007FFADF0BDF216
S1130C48FAF28B9DF05C0F9DF28808705100BDF09C
S1130C58314DBDF08DF26BF09DF09801C9F007FF9E
S1130C6888019DF2ADF0BDF4DAF48DF2480000C9B4
S1130C78F007FFADF0BDF4FAF48B9DF26AF204AD0F
S1130C88F0DAF48DF2480000000000000000C9F01A
S1130C9807FFADF0BDF4FAF48B9DF25AF2FBADF008
S1130CA8DAF48DF24800000000C9F007FFADF0BD8A
S1130CB8F4FAF48B9DF26AF202ADF0DAF48DF2489C
S1130CC800001002D72004C9F0E6FFADF0BDF4FA25
S1130CD8F48B9DF26AF210ADF0DAF48DF24800005C
S1130CE830983AB800FCE20D00F1980051039802DC
S1130CF8FCC70B00300410B800FCE20D00F19800AA
S1130D0851039802FCC70B00306400B800FCE20DE4
S1130D1800F1980051039802FCC70B00302800B872
S1130D2800FCE20D00F1980051029802FCC70B0088
S1130D38302800B800FCE20D00F198005128980210
S1130D48FC960B00302800B800FCE20D00F1980076
S1130D58510E9802FC960B00302800B800FCE20DF6
S1130D6800F19800E19802FC960B00306806B80080
S1130D78FCE20D00F1980051069802FC960B003035
S1130D882800B800FCE20D00F1980051809802FC9C
S1130D98960B00302800B800FCE20D001004D7C9F7
S1130DA8F0E2FFADF0BDF4FAF48B9DF25AF2EFAD28
S1130DB8F0DAF48DF2480000C9F218FFA804BDF077
S1130DC8ADF2BDF4DAF4ADF0780000C9F0B201ADCB
S1130DD8F0BDF2DAF2E6780000D72002A806BDF0EA
S1130DE8B800FCA70D00ECF30D0000C9F0E2FFAD5C
S1130DF8F0BDF2FAF28B9DF0314A9DF05AF0016190
S1130E08F8ECF20D00FC2422001002D7C9F0F0001F
S1130E18ADF0BDF4FAF48B9DF26AF220ADF0DAF489
S1130E288DF2480000C9F030FFADF0BDF2DAF2F1FE
S1130E38480000C9F0E7FFADF0BDF4FAF48B9DF269
S1130E486AF201ADF0DAF48DF2480000C9F0E3FF6C
S1130E58ADF0BDF4FAF48B9DF25AF2FEADF0DAF47B
S1130E688DF2480000C9F0EFFFADF0BDF4FAF48B41
S1130E789DF26AF201ADF0DAF48DF2480000C9F08F
S1130E88EBFFADF0BDF4FAF48B9DF26AF201ADF01C
S1130E98DAF48DF2480000C9F222FFC9F022FFAD4E
S1130EA8F0BDF4FAF48B9DF06AF007ADF2BDF4DA04
S1130EB8F48DF0480000C9F030FFADF0BDF2DAF26D
S1130EC85108480000C9F032FFADF0BDF4DAF4511E
S1130ED820480000C9F01000ADF0BDF2DAF2E14894
S1130EE80000C9F01100ADF0BDF4DAF451FF480078
S1130EF800C9F01200ADF0BDF2DAF2F1480000C901
S1130F08F031FFADF0BDF4DAF4F1480000C9F03077
S1130F18FFADF0BDF4FAF48B9DF26AF201ADF0DA9C
S1130F28F48DF2480000D7C9F0E3FFADF0BDF4FA40
S1130F38F48B9DF25AF2FEADF0DAF48DF24800001B
S1130F48C9F0E7FFADF0BDF4FAF48B9DF25AF2FE56
S1130F58ADF0DAF48DF2480000C9F030FFADF0BD11
S1130F68F4FAF48B9DF26AF280ADF0DAF48DF2486B
S1130F780000D7C9F030FFADF0BDF4FAF48B9DF250
S1130F885AF27FADF0DAF48DF2480000C9F0E7FFB9
S1130F98ADF0BDF4FAF48B9DF26AF201ADF0DAF427
S1130FA88DF2480000C9F0E3FFADF0BDF4FAF48B0C
S1130FB89DF25AF2FEADF0DAF48DF2480000D7C97A
S1130FC8F030FFADF0BDF4FAF48B9DF26AF201AD96
S1130FD8F0DAF48DF2480000D7C9F030FFADF0BD67
S1130FE8F4FAF48B9DF25AF2FEADF0DAF48DF2487D
S1130FF80000D7C9F01FFFADF0BDF4FAF48B9DF2E1
S1131008A804BDF0BDF4DAF48DF2480000D761CF2E
S1131018C1C3C5C7C6C4C2C061FC2002C9F0A0FFD1
S1131028ADF0BDF2DAF25110480000C9F0A1FFADED
S1131038F0BDF4FAF48B9DF26AF280ADF0DAF48D27
S1131048F2480000C9F0A4FFADF0BDF4FAF48B9D9A
S1131058F25AF2EFADF0DAF48DF2480000C9F0A1CB
S1131068FFADF0BDF4FAF48B9DF25AF2BFADF0DA9D
S1131078F48DF2480000F6B800EC90100000A800C7
S1131088BDF0A6F0ADF0B800A800BDF044A0006122
S1131098E3EC851000C9F0F300ADF0BDF2DAF2F12B
S11310A8480000C9F0A4FFADF0BDF4FAF48B9DF23A
S11310B85AF2BFADF0DAF48DF2480000C9F0A1FF8E
S11310C8ADF0BDF4FAF48B9DF25AF2FEADF0DAF409
S11310D88DF24800001002D72002C9F0A8FFADF035
S11310E8BDF2FAF28B9DF098011002D7C9F0F00016
S11310F8ADF0BDF4FAF48B9DF26AF280ADF0DAF447
S11311088DF2480000C9F090FFADF0BDF2DAF2F6B6
S1131118780000C9F0E7FFADF0BDF4FAF48B9DF256
S11311286AF204ADF0DAF48DF2480000C9F0E3FF86
S1131138ADF0BDF4FAF48B9DF25AF2FBADF0DAF49B
S11311488DF2480000C9F0EFFFADF0BDF4FAF48B5E
S11311589DF25AF2FBADF0DAF48DF2480000C9F0C2
S1131168EBFFADF0BDF4FAF48B9DF26AF204ADF036
S1131178DAF48DF2480000C9F090FFADF0BDF2DA60
S1131188F230FF0F780000D7C9F2E3FFADF2BDF0EB
S1131198FAF08B9DF45AF4FBADF2DAF08DF44800C2
S11311A800C9F2E7FFADF2BDF0FAF08B9DF45AF4F2
S11311B8FBADF2DAF08DF4480000C9F490FFC9F2EF
S11311C890FFADF2BDF0FAF0ABBDF28DF26C009D6C
S11311D8F08DF36C809DF1ADF4BDF2DAF2ADF078E8
S11311E80000D7C9F2E7FFADF2BDF0FAF08B9DF429
S11311F86AF404ADF2DAF08DF4480000C9F2E3FFB2
S1131208ADF2BDF0FAF08B9DF45AF4FBADF2DAF0CE
S11312188DF4480000C9F490FFC9F290FFADF2BD07
S1131228F0FAF0ABBDF28DF25CFF9DF08DF35C7FBC
S11312389DF1ADF4BDF2DAF2ADF0780000D761CFDC
S1131248C1C3C5C761DFC1C3C5C761CF2002AFA48D
S1131258EFBDF2A6F2ADF2BFA4EFBDF28DF25C03CE
S11312689DF08DF35C009DF1ADF044000061E8EC65
S1131278821200F6B800FCBB2C00100261DFC6C461
S1131288C2C061CFC6C4C2C061FCC9F004FFADF0DE
S1131298BDF2DAF2F1480000C9F007FFADF0BDF283
S11312A8DAF2F1480000C9F03000ADF0BDF2DAF22C
S11312B85108480000C9F03400ADF0BDF2DAF2E19B
S11312C8480000C9F04000ADF0BDF2DAF251084818
S11312D80000C9F024FFADF0BDF2DAF251F1480084
S11312E800C9F025FFADF0BDF2DAF251FF48000065
S11312F8C9F027FFADF0BDF2DAF2F1480000D7C912
S1131308F0F000ADF0BDF4FAF48B9DF26AF280AD12
S1131318F0DAF48DF2480000C9F09DFFADF0BDF499
S1131328FAF48B9DF25AF27FADF0DAF48DF24800AC
S113133800C9F0E7FFADF0BDF4FAF48B9DF26AF250
S113134802ADF0DAF48DF2480000C9F0E3FFADF025
S1131358BDF4FAF48B9DF25AF2FDADF0DAF48DF295
S1131368480000C9F0EFFFADF0BDF4FAF48B9DF22C
S11313786AF202ADF0DAF48DF2480000C9F0EBFF2E
S1131388ADF0BDF4FAF48B9DF26AF202ADF0DAF432
S11313988DF2480000C9F09DFFADF0BDF2DAF251BC
S11313A808480000C9F092FFADF0BDF4DAF4F14842
S11313B80000C9F093FFADF0BDF2DAF2F148000085
S11313C8C9F094FFADF0BDF4DAF4F1480000C9F0B7
S11313D895FFADF0BDF2DAF25102480000C9F0966B
S11313E8FFADF0BDF4DAF45111480000C9F097FFDD
S11313F8ADF0BDF2DAF25104480000C9F098FFAD2F
S1131408F0BDF4DAF45117480000D7C9F09DFFADD8
S1131418F0BDF4FAF48B9DF26AF280ADF0DAF48D43
S1131428F2480000D7C9F09DFFADF0BDF4FAF48B83
S11314389DF25AF27FADF0DAF48DF2480000D7201D
S113144806F6B804C9F29EFFC9F09EFFADF0BDF4DC
S1131458FAF48B9DF06AF001ADF2BDF4DAF48DF084
S1131468480000F6B800F6B802EC84140000A8009E
S1131478040100B800A80261D8A1B802A802440077
S113148800A80061F8443F0161E3EC751400C9F059
S11314989EFFADF0BDF2FAF28B9DF0311A9DF05A21
S11314A8F00161E8ECB91400300300B804ECCF157E
S11314B800C9F092FFADF0BDF4FAF48B9DF2A80ACE
S11314C8BDF0BDF4DAF48DF2480000C9F093FFAD25
S11314D8F0BDF4FAF48B9DF2A80ABDF0DAF08DF2AF
S11314E8480100C9F094FFADF0BDF4FAF48B9DF205
S11314F8A80ABDF0DAF08DF2480200C9F095FFADF4
S1131508F0BDF4FAF48B9DF2A80ABDF0DAF08DF27E
S1131518480400C9F096FFADF0BDF4FAF48B9DF2CF
S1131528A80ABDF0DAF08DF2480300C9F097FFADC0
S1131538F0BDF4FAF48B9DF2A80ABDF0DAF08DF24E
S1131548480500C9F098FFADF0BDF4FAF48B9DF29C
S1131558A80ABDF0DAF08DF2480600C9F29EFFC968
S1131568F09EFFADF0BDF4FAF48B9DF05AF0FEAD99
S1131578F2BDF4DAF48DF0480000F6B800F6B802CB
S1131588EC9B150000A800040100B800A80261D86B
S1131598A1B802A802440000A80061F8443F016110
S11315A8E3EC8C1500C9F09EFFADF0BDF2FAF28BA6
S11315B89DF0311A9DF05AF0014AF00161E8ECCF30
S11315C81500300400B804A804BDF01006D720069E
S11315D8F6B804C9F29EFFC9F09EFFADF0BDF4FA57
S11315E8F48B9DF06AF001ADF2BDF4DAF48DF048A5
S11315F80000F6B800F6B802EC13160000A80004C0
S11316080100B800A80261D8A1B802A802440000E9
S1131618A80061F8443F0161E3EC041600C9F09E98
S1131628FFADF0BDF2FAF28B9DF0311A9DF05AF03D
S11316380161E8EC481600300300B804EC391700DF
S1131648C9F092FF880A9DF2ADF0BDF4DAF48DF288
S1131658480000C9F093FF880B9DF2ADF0BDF4DAA1
S1131668F48DF2480000C9F094FF880C9DF2ADF0A7
S1131678BDF4DAF48DF2480000C9F095FF880E9D98
S1131688F2ADF0BDF4DAF48DF2480000C9F096FF2B
S1131698880D9DF2ADF0BDF4DAF48DF2480000C96E
S11316A8F097FF880F9DF2ADF0BDF4DAF48DF2489F
S11316B80000C9F098FF88109DF2ADF0BDF4DAF48B
S11316C88DF2480000C9F29EFFC9F09EFFADF0BD3F
S11316D8F4FAF48B9DF05AF0FEADF2BDF4DAF48D11
S11316E8F0480000F6B800F6B802EC05170000A8A8
S11316F800040100B800A80261D8A1B802A80244F5
S11317080000A80061F8443F0161E3ECF61600C943
S1131718F09EFFADF0BDF2FAF28B9DF0311A9DF008
S11317285AF0014AF00161E8EC391700300400B8B6
S113173804A804BDF01006D7C9F0F000ADF0BDF45C
S1131748FAF48B9DF26AF204ADF0DAF48DF24800F3
S11317580000000000C9F02601ADF0BDF2DAF23055
S11317681100780000FC721700D761EFC161CFC97E
S1131778E82401C9F62401ADF6BDF0FAF0ABBDF6D4
S11317888DF66C0C9DF48DF76C009DF5DAE8ADF4DC
S1131798780000C9F4E6FFADF4BDF2FAF28B9DF6C9
S11317A86AF601ADF4BDF0DAF08DF6480000C9F42C
S11317B8E2FFADF4BDF2FAF28B9DF65AF6FEADF4F3
S11317C8BDF0DAF08DF6480000C9F4E6FFADF4BDCB
S11317D8F2FAF28B9DF66AF602ADF4BDF0DAF08DFA
S11317E8F6480000C9F4E2FFADF4BDF2FAF28B9DAD
S11317F8F65AF6FDADF4BDF0DAF08DF6480000C9EE
S1131808F4E6FFADF4BDF2FAF28B9DF66AF604AD88
S1131818F4BDF0DAF08DF6480000C9F4E2FFADF447
S1131828BDF2FAF28B9DF65AF6FBADF4BDF0DAF090
S11318388DF6480000C9F4EEFFADF4BDF2FAF28B60
S11318489DF66AF601ADF4BDF0DAF08DF6480000B5
S1131858C9F4EAFFADF4BDF2FAF28B9DF66AF6011B
S1131868ADF4BDF0DAF08DF6480000C9F4EEFFAD32
S1131878F4BDF2FAF28B9DF66AF602ADF4BDF0DA25
S1131888F08DF6480000C9F4EAFFADF4BDF2FAF2AF
S11318988B9DF66AF602ADF4BDF0DAF08DF64800D9
S11318A800C9F41401ADF4BDF2DAF2302200780074
S11318B800C9F41C01ADF4BDF0DAF030978078006B
S11318C800C9F444FFADF4BDF2DAF23000CE78007A
S11318D800C9F67000C9F47000ADF4BDF0FAF08BDD
S11318E89DF46AF404ADF6BDF2DAF28DF448000012
S11318F8C9F40E01ADF4BDF0DAF030070078000049
S1131908C9F41601ADF4BDF2DAF230220178000010
S1131918C9F41E01ADF4BDF0DAF030974078000048
S1131928C9F446FFADF4BDF2DAF23000CE78000017
S1131938C9F62801C9F42801ADF4BDF0FAF0ABBD2D
S1131948F48DF46C049DF28DF56C009DF3ADF6BD39
S1131958F4DAF4ADF2780000C9F43401C9F23401C0
S1131968ADF2BDF0FAF0ABBDF2ADF4BDF0DAF0AD16
S1131978F2780000C9F42A01C9F22A01ADF2BDF0D7
S1131988FAF0ABBDF28DF26C049DF08DF36C009D02
S1131998F1ADF4BDF2DAF2ADF0780000C9F26000FE
S11319A8C9F06000ADF0BDF4FAF48B9DF05AF0F77D
S11319B8ADF2BDF4DAF48DF0480000C9F220FFC995
S11319C8F020FFADF0BDF4FAF48B9DF06AF008AD99
S11319D8F2BDF4DAF48DF0480000C9F26000C9F0F1
S11319E86000ADF0BDF4FAF48B9DF05AF0FBADF253
S11319F8BDF4DAF48DF0480000C9F200FFC9F00024
S1131A08FFADF0BDF4FAF48B9DF06AF004ADF2BDBD
S1131A18F4DAF48DF0480000C9F220FFC9F020FF81
S1131A28ADF0BDF4FAF48B9DF05AF0FBADF2BDF4C1
S1131A38DAF48DF048000061EFC061CFD761EFC1DF
S1131A4861CFC9E82801C9F62801ADF6BDF0FAF05E
S1131A58ABBDF68DF66C049DF48DF76C009DF5DA3C
S1131A68E8ADF4780000C9F62A01C9F42A01ADF4F6
S1131A78BDF2FAF2ABBDF48DF46C049DF28DF56CF5
S1131A88009DF3ADF6BDF4DAF4ADF2780000C9F4C4
S1131A982201C9F22201ADF2BDF0FAF0ABBDF28D1C
S1131AA8F26C0C9DF08DF36C009DF1ADF4BDF2DA8F
S1131AB8F2ADF0780000C9F0E2FFADF0BDF4FAF43D
S1131AC88B9DF25AF2FEADF0DAF48DF2480000C9AB
S1131AD8F0E2FFADF0BDF4FAF48B9DF25AF2FDADDD
S1131AE8F0DAF48DF2480000C9F0E6FFADF0BDF479
S1131AF8FAF48B9DF25AF2FEADF0DAF48DF2480056
S1131B0800C9F0E6FFADF0BDF4FAF48B9DF25AF289
S1131B18FDADF0DAF48DF248000061EFC061CFD773
S1131B28C9F4E6FFADF4BDF0FAF08B9DF66AF60150
S1131B38ADF4BDF2DAF28DF6480000C9F4E6FFAD63
S1131B48F4BDF0FAF08B9DF66AF602ADF4BDF2DA54
S1131B58F28DF6480000C9F62401C9F42401ADF455
S1131B68BDF0FAF0ABBDF48DF46C0C9DF28DF56C00
S1131B78009DF3ADF6BDF4DAF4ADF2780000C9F4D3
S1131B882A01C9F22A01ADF2BDF0FAF0ABBDF28D1B
S1131B98F25CFB9DF08DF35CFF9DF1ADF4BDF2DAD0
S1131BA8F2ADF0780000C9F0E2FFADF0BDF4FAF44C
S1131BB88B9DF25AF2FEADF0DAF48DF2480000C9BA
S1131BC8F0E2FFADF0BDF4FAF48B9DF25AF2FDADEC
S1131BD8F0DAF48DF2480000D72002F6B800A8081D
S1131BE844000061E8ECFA1B00308100B800EC0CFA
S1131BF81C00F6BF10F0A808BDF0BF0EF0A806BD83
S1131C08F0BF12F0A800BDF01002D72002F6B80009
S1131C18A80844000061E8EC2C1C00308100B800DE
S1131C28EC9F1C00A806BDF0BF14F0A808BDF0BFC7
S1131C3816F0C9F0E6FFADF0BDF4FAF48B9DF26A34
S1131C48F201ADF0DAF48DF2480000C9F244FFAFB6
S1131C5814F0BDF0BDF4FAF48B9DF0ADF2BDF4DAE6
S1131C68F48DF0480000AF14F0BDF0A6F0ADF0BF5D
S1131C7814F0AF16F0BDF0B6F0ADF0BF16F0C9F031
S1131C88E6FFADF0BDF4FAF48B9DF25AF2FEADF026
S1131C98DAF48DF2480000A800BDF01002D761CF35
S1131CA8C1C3C5C761DFC1C3C5C761CF2004C9F0BB
S1131CB80601ADF0BDF2FAF2ABBDF08DF05C079809
S1131CC803C9F20E018803705100BDF0ADF2BDF4F2
S1131CD8DAF4ADF07800008803D161F8ECF21C0066
S1131CE888039DF09800FCE81D00C9F046FFADF09C
S1131CF8BDF2FAF28B9DF09802AF0EF0BDF2AF1070
S1131D08F0BDF0ADF246F061E3EC5D1D00AF12F0FA
S1131D18BDF088029DF2ADF0BDF4DAF48DF248000E
S1131D2800AF12F0BDF0A6F0ADF0BF12F0AF10F0A6
S1131D38BDF0A6F0ADF0BF10F0AF0EF0BDF2AF10DD
S1131D48F0BDF0ADF246F061E8EC6A1D00FCDF1D61
S1131D5800EC6A1D008802705100BDF0B800FCE375
S1131D681D00100461DFC6C4C2C061CFC6C4C2C0AE
S1131D7861FC61CFC1C3C5C761DFC1C3C5C761CF3A
S1131D88AF16F0BDF044000061F8ECCD1D00C9F2B7
S1131D9844FFAF14F0BDF0BDF4FAF48B9DF0ADF23E
S1131DA8BDF4DAF48DF0480000AF14F0BDF0A6F0ED
S1131DB8ADF0BF14F0AF16F0BDF0B6F0ADF0BF163D
S1131DC8F0ECD11D00FCE41D0061DFC6C4C2C06193
S1131DD8CFC6C4C2C061FCE519F0D7D7E54FF0D728
S1131DE8D761EFC1C3C561CF2034C9F0F000ADF0AD
S1131DF8BDF2FAF28B98316C019830ADF0DAF288C2
S1131E0830480000C9F0B601ADF0BDF2DAF2304254
S1131E1800780000C9F0B401ADF0BDF2DAF230FF89
S1131E280A780000C9F0E6FFADF0BDF2FAF28B982B
S1131E382F6C10982EADF0DAF2882E480000C9F005
S1131E48E2FFADF0BDF2FAF28B982D5CEF982CAD61
S1131E58F0DAF2882C480000C9F0E6FFADF0BDF2D4
S1131E68FAF28B982B6C20982AADF0DAF2882A487B
S1131E780000C9F0E2FFADF0BDF2FAF28B98295CDC
S1131E88DF9828ADF0DAF28828480000C9F0E5FFA9
S1131E98ADF0BDF2FAF28B98276C809826ADF0DA93
S1131EA8F28826480000C9F0E1FFADF0BDF2FAF26D
S1131EB88B98255C7F9824ADF0DAF28824480000DA
S1131EC8C9F0E6FFADF0BDF2FAF28B98236C4098A6
S1131ED822ADF0DAF28822480000C9F0E2FFADF042
S1131EE8BDF2FAF28B98215CBF9820ADF0DAF28843
S1131EF820480000C9F0E6FFADF0BDF2FAF28B9875
S1131F081F6C80981EADF0DAF2881E480000C9F0F4
S1131F18E2FFADF0BDF2FAF28B981D5C7F981CAD20
S1131F28F0DAF2881C480000C9F0E6FFADF0BDF213
S1131F38FAF28B981B6C04981AADF0DAF2881A48F6
S1131F480000C9F0E2FFADF0BDF2FAF28B98195C1B
S1131F58FB9818ADF0DAF28818480000C9F0E7FFDA
S1131F68ADF0BDF2FAF28B98176C809816ADF0DAE2
S1131F78F28816480000C9F0E3FFADF0BDF2FAF2AA
S1131F888B98155C7F9814ADF0DAF2881448000039
S1131F98C9F0D4FFADF0BDF2FAF28B98136C019836
S1131FA812ADF0DAF28812480000C9F0D0FFADF0A3
S1131FB8BDF2FAF28B98115CFE9810ADF0DAF28853
S1131FC810480000C9F0D4FFADF0BDF2FAF28B98C6
S1131FD80F6C02980EADF0DAF2880E480000C9F0D2
S1131FE8D0FFADF0BDF2FAF28B980D5CFD980CAD04
S1131FF8F0DAF2880C480000C9F0D4FFADF0BDF265
S1132008FAF28B980B6C04980AADF0DAF2880A4855
S11320180000C9F0D0FFADF0BDF2FAF28B98095C6C
S1132028FB9808ADF0DAF28808480000C9F0EEFF22
S1132038ADF0BDF2FAF28B98075CEF9806ADF0DAD2
S1132048F28806480000C9F0EAFFADF0BDF2FAF2E2
S11320588B98055CEF9804ADF0DAF2880448000028
S1132068C9F0EEFFADF0BDF2FAF28B98036C20983C
S113207802ADF0DAF28802480000C9F0EAFFADF0D8
S1132088BDF2FAF28B98016C209800ADF0DAF28870
S113209800480000C9F09001ADF0BDF2DAF230005A
S11320A880780000C9F018FFADF0BDF2DAF230FF15
S11320B8F978000030B801B832C9F0B801ADF0BD04
S11320C8F2FAF2ABBDF08DF05CFE9DEC8DF15CFF95
S11320D89DEDA832BDF0DAF0ADEC780000C9ECBA99
S11320E801C9F0BA01ADF0BDF2FAF2ABBDF08DF062
S11320F85CFE9DEA8DF15CFF9DEBDAECADEA7800BD
S113210800C9F09201ADF0BDF2DAF2F6780000C928
S1132118F01AFFADF0BDF2DAF2303F9C780000C946
S1132128EABE01C9F0BE01ADF0BDF2FAF2ABBDF0F2
S11321388DF05CFD9DE88DF15CFF9DE9DAEAADE880
S1132148780000C9E8BC01C9F0BC01ADF0BDF2FAE1
S1132158F2ABBDF08DF05CFD9DF68DF15CFF9DF753
S1132168DAE8ADF6780000C9F6B801C9F0B801ADEF
S1132178F0BDF2FAF2ABBDF08DF05CFD9DF48DF18B
S11321885CFF9DF5ADF6BDF0DAF0ADF4780000C95A
S1132198F4BA01C9F0BA01ADF0BDF2FAF2ABBDF080
S11321A88DF05CFD9DF28DF15CFF9DF3ADF4BDF007
S11321B8DAF0ADF2780000103461EFC4C2C061CF28
S11321C8D7C9F2E2FFADF2BDF0FAF08B9DF45AF4F0
S11321D8EFADF2DAF08DF4480000C9F2E6FFADF293
S11321E8BDF0FAF08B9DF45AF4EFADF2DAF08DF409
S11321F8480000C9F4B201C9F2B201ADF2BDF0FA67
S1132208F0ABBDF28DF26C019DF08DF36C009DF185
S1132218ADF4BDF2DAF2ADF0780000D7C9F4B40138
S1132228C9F2B401ADF2BDF0FAF0ABBDF28DF26CB7
S1132238019DF08DF36C009DF1ADF4BDF2DAF2ADC1
S1132248F0780000C9F0E6FFADF0BDF4FAF48B9D18
S1132258F26AF210ADF0DAF48DF2480000C9F0E247
S1132268FFADF0BDF4FAF48B9DF25AF2EFADF0DA5B
S1132278F48DF2480000D7C9F2E2FFADF2BDF0FADE
S1132288F08B9DF45AF4DFADF2DAF08DF4480000D7
S1132298C9F2E6FFADF2BDF0FAF08B9DF45AF4DF13
S11322A8ADF2DAF08DF4480000C9F4B201C9F2B213
S11322B801ADF2BDF0FAF0ABBDF28DF26C029DF007
S11322C88DF36C009DF1ADF4BDF2DAF2ADF0780057
S11322D800D7C9F4B401C9F2B401ADF2BDF0FAF003
S11322E8ABBDF28DF26C029DF08DF36C009DF1ADE7
S11322F8F4BDF2DAF2ADF0780000C9F0E6FFADF013
S1132308BDF4FAF48B9DF26AF220ADF0DAF48DF2A2
S1132318480000C9F0E2FFADF0BDF4FAF48B9DF279
S11323285AF2DFADF0DAF48DF2480000D761CFC17C
S1132338C3C5C761DFC1C3C5C761CF2004E6BFDA1F
S1132348EF30E0B1B800300600B802FC131C0010EE
S11323580461DFC6C4C2C061CFC6C4C2C061FC6127
S1132368CFC1C3C5C7C6C4C2C061FC61CFC1C3C5A0
S1132378C7C6C4C2C061FCC9F07700ADF0BDF2DACB
S1132388F2F1480000FCE01000FC221000FC92125C
S113239800FC401700FC140E00FCE91D00FC0713A8
S11323A800FCF41000C9F07800ADF0BDF2DAF2F1E7
S11323B8480000D72002717BFAFC7F2300E6B800AE
S11323C8BDF01002D7200EFCF82400FC721700FCA4
S11323D8451A00FCF41000FC071300FC131400FC5D
S11323E8CD0C00305765B804306C63B806306F6D97
S11323F8B80830650DB80A300A00B80CC9F00E00E8
S1132408AEF8BDF0040E00BDF004F6FFB8003009C4
S113241800B802FC131C00301AF0B800E6B802FC3D
S1132428E11B00ADF0BF50F0FCC70F0000C9F0304D
S1132438FFADF0BDF2FAF28B9DF0317A9DF0D4F045
S113244861E8EC3524003005FFB800300500B80217
S1132458FC290900D4F061F8EC6D2400300500B8BB
S113246800FCD800003005FFB800300400B802FCB6
S1132478290900D4F061F8EC8C2400300300B8007A
S1132488FCD800003005FFB800300300B802FC296E
S11324980900D4F061F8ECAB2400300400B800FC67
S11324A8D800003005FFB800300200B802FC290942
S11324B800D4F061F8ECC82400E6B800FCD80000A9
S11324C88F19F09DF0D4F061F8ECF42400F519F0BC
S11324D88F1AF09DF09800FC5C2500301AF0B800C3
S11324E8E6B802FCE11B00ADF0BF50F0EC3024006C
S11324F8717AFAD7FE24CBF8DCFE410061CF34D8D8
S1132508003600EF61DF3600EF3000EF27311E445C
S11325180000DD0EB161CF11A9BBA5A5A7A761DF96
S1132528EFED61CF3600EF30000061DF308AF0272D
S1132538311E440000DD0AB161CFBBA7A761DFEFFC
S1132548F161CFFCBC230000300000C1C1C1FCCD47
S11325582300EFFE200488084C2461E8EC8625005B
S1132568AFD8EFBDF088089DF2DAF048A6EFAFD8EF
S1132578EFBDF0A6F0ADF0BFD8EFEC3F2600880819
S11325884C0A61E8ECE92500AFD8EFBDF0B6F0AD30
S1132598F004A6EF168B9DF04AF00D61E8ECD62501
S11325A800AF34EFBDF044000061E8ECD62500AF7D
S11325B8D8EFBDF088089DF2DAF048A6EFAFD8EF5F
S11325C8BDF0A6F0DAF0F148A6EFFC462600F4F0D8
S11325D88DF09FA6EFF6BFD8EFF6BF34EFEC3F2699
S11325E800AF34EFBDF044000061E8EC3F2600AFD3
S11325F8D8EFBDF044000061E8EC25260088084CBB
S11326082461F8EC25260030E7B1B800300700B89B
S113261802FC131C00E6BF34EFEC3F2600AFD8EFF2
S1132628BDF088089DF2DAF048A6EFAFD8EFBDF008
S1132638A6F0ADF0BFD8EF88089DF01004D7202C81
S1132648FC532C00ADF044000061F8EC3E2C008FE4
S1132658A7EF9DF0CDF100ADF044420061F8EC0E17
S11326682C00ADF044420071FF61F3ECB82600ADD4
S1132678F044310061F8EC4B2700ADF044310071AF
S1132688FF61F3EC9E2600ADF044300061F8ECEAFB
S11326982600EC1E2C00ADF044320061F8ECAC27A7
S11326A800ADF044330061F8ECE02700EC1E2C0088
S11326B8ADF044440061F8EC2E2800ADF044440029
S11326C871FF61D8EC162C00ADF044450061F8ECBC
S11326D88D2B00ADF0444C0061F8ECCA2800EC1EC8
S11326E82C00AF68EFBDF044010061E8EC0427005A
S11326F851309829F6BF68EFEC0827005133982920
S1132708510D982A510A982B51249F36EF51309F26
S113271837EFF538EF3036EFB800C9F02C00AEF8D3
S1132728BDF0042C00BDF004FDFFB802FC5A3600CD
S1132738300700B800FCD80000300500BFD8EFEC23
S11327483E2C00AF68EFBDF044000061E8EC65275B
S11327580051309829E6BF68EFEC69270051339897
S113276829510D982A510A982B51249F36EF51313B
S11327789F37EFF538EF3036EFB800C9F42C00AEC8
S1132788F8BDF4042C00BDF404FDFFB802FC5A366D
S113279800300600B800FCD80000300500BFD8EFB0
S11327A8EC3E2C0030DCEFB80030A8EFB802FCA8EF
S11327B8360051249F36EF51329F37EF51309F38FE
S11327C8EF510D9F39EF510A9F3AEFF53BEF300572
S11327D800BFD8EFEC3E2C0051249F36EF51339FB5
S11327E837EF51309F38EF51319F39EF51399F3AC4
S11327F8EF51319F3BEF51319F3CEF51399F3DEFF2
S113280851309F3EEF51339F3FEF51389F40EF5176
S11328180D9F41EF510A9F42EFF543EF300D00BF82
S1132828D8EFEC3E2C0030DCEFB800FCCF3600AD1E
S1132838F044200061F3EC7D280051249F36EF51C9
S1132848449F37EF51309F38EF510D9F39EF510AAC
S11328589F3AEFF53BEF300500BFD8EF3072EFB881
S11328680030DCEFB802FCA83600E6B800FCBB2C4C
S113287800EC3E2C00F19800E19802FC960B003025
S11328886806B800FCE20D00F1980051809802FC3B
S1132898960B00306806B800FCE20D0051249F3600
S11328A8EF51449F37EF51339F38EF510D9F39EF64
S11328B8510A9F3AEFF53BEF300500BFD8EFEC3EE5
S11328C82C008FA8EF9DF04AF03061E8EC4F290006
S11328D8C9F004FFADF0BDF6FAF68B9DF25AF2FD8D
S11328E8ADF0BDF4DAF48DF2480000C9F004FFAD90
S11328F8F0BDF6FAF68B9DF25AF2FBADF0BDF4DAB0
S1132908F48DF2480000C9F004FFADF0BDF6FAF604
S11329188B9DF25AF2F7ADF0BDF4DAF48DF248006B
S11329280051249F36EF514C9F37EF51309F38EFB9
S1132938510D9F39EF510A9F3AEFF53BEF300500EF
S1132948BFD8EFEC892B008FA8EF9DF04AF03161D6
S1132958E8ECD42900C9F004FFADF0BDF6FAF68B13
S11329689DF25AF2FDADF0BDF4DAF48DF2480000A0
S1132978C9F004FFADF0BDF6FAF68B9DF25AF2FBEE
S1132988ADF0BDF4DAF48DF2480000C9F004FFADEF
S1132998F0BDF6FAF68B9DF26AF208ADF0BDF4DAF2
S11329A8F48DF248000051249F36EF514C9F37EFC5
S11329B851309F38EF510D9F39EF510A9F3AEFF587
S11329C83BEF300500BFD8EFEC892B008FA8EF9DB3
S11329D8F04AF03261E8EC592A00C9F004FFADF07E
S11329E8BDF6FAF68B9DF26AF202ADF0BDF4DAF4A4
S11329F88DF2480000C9F004FFADF0BDF6FAF68B7D
S1132A089DF25AF2FBADF0BDF4DAF48DF248000001
S1132A18C9F004FFADF0BDF6FAF68B9DF25AF2F751
S1132A28ADF0BDF4DAF48DF248000051249F36EF7E
S1132A38514C9F37EF51309F38EF510D9F39EF516B
S1132A480A9F3AEFF53BEF300500BFD8EFEC892B2E
S1132A58008FA8EF9DF04AF03361E8ECDE2A00C944
S1132A68F004FFADF0BDF6FAF68B9DF25AF2FDAD17
S1132A78F0BDF4DAF48DF2480000C9F004FFADF0BB
S1132A88BDF6FAF68B9DF26AF204ADF0BDF4DAF401
S1132A988DF2480000C9F004FFADF0BDF6FAF68BDC
S1132AA89DF25AF2F7ADF0BDF4DAF48DF248000065
S1132AB851249F36EF514C9F37EF51309F38EF51D7
S1132AC80D9F39EF510A9F3AEFF53BEF300500BFF0
S1132AD8D8EFEC892B008FA8EF9DF04AF03461E819
S1132AE8EC632B00C9F004FFADF0BDF6FAF68B9D3C
S1132AF8F26AF202ADF0BDF4DAF48DF2480000C9CE
S1132B08F004FFADF0BDF6FAF68B9DF26AF204AD5F
S1132B18F0BDF4DAF48DF2480000C9F004FFADF01A
S1132B28BDF6FAF68B9DF25AF2F7ADF0BDF4DAF47D
S1132B388DF248000051249F36EF514C9F37EF51D6
S1132B48309F38EF510D9F39EF510A9F3AEFF53B0B
S1132B58EF300500BFD8EFEC892B0051249F36EFE6
S1132B68514C9F37EF51329F38EF510D9F39EF5138
S1132B780A9F3AEFF53BEF300500BFD8EFEC3E2C47
S1132B8800EC3E2C00FCDC2D008F87F09DF070518A
S1132B9800BDF48F88F09DF0705100BDF28F86F06F
S1132BA89DF0CDF100C9F62C00AEF8BDF6042C005A
S1132BB8BDF604DFFFB80030EFB1B802ADF4B804D5
S1132BC8ADF2B806ADF0B808FC2D36003036EFB8D3
S1132BD800C9F02C00AEF8BDF0042C00BDF004DFF1
S1132BE8FFB802FCA83600C9F42C00AEF8BDF40402
S1132BF82C00BDF404DFFFB800FCCF3600ADF0BFF5
S1132C08D8EFEC3E2C00FCFF2E00EC3E2C00FC69B7
S1132C183100EC3E2C008FA7EF9DF0CDF10030364B
S1132C28EFB8003002B2B802ADF0B804FC2D36009B
S1132C38300500BFD8EFAFD8EFBDF03036EFB8009D
S1132C48ADF0B802FC131C00102CD7200C30A6EFF2
S1132C58B800FCCF3600B6F0ADF004A6EF168B9D95
S1132C68F04AF00A61F8ECB12C00512498078FA7B8
S1132C78EF9DF0980851329809510D980A510A9815
S1132C880B30A6EFB800C9F00C00AEF8BDF0040C88
S1132C9800BDF004FBFFB802FCA83600300500BFF5
S1132CA8D8EFF6B804ECB42C00E6B804A804BDF0D8
S1132CB8100CD761EFC161CF2006A80C4400006155
S1132CC8F8ECDD2C00F6BF6CEFE6BF6AEFF6BFA4A4
S1132CD8EFFC901100AF6AEFBDF044000061F8EC1E
S1132CE8972D00F19800E19802FC960B00306806D5
S1132CF8B800FCE20D00F1980051809802FC960B94
S1132D0800306806B800FCE20D00AF6CEFBDF0B807
S1132D1804EC702D00AF6CEFBDF0040800BDF2A800
S1132D2804BDF0ADF246F061E8EC492D00F19800DD
S1132D3851C09802FC960B00306806B800FCE20DFE
S1132D4800A8040472EFBDF0BDF2FAF28B9DF0E125
S1132D5898008DF09802FC960B00302800B800FC0F
S1132D68E20D00A804A1B804A804BDE83072EFB8C5
S1132D7800FCCF3600B6F0B6F0ADE846F061D8EC0A
S1132D881D2D00AF6CEFBDF0A6F0ADF0BF6CEFAF3A
S1132D986CEFBDF0BDE83072EFB800FCCF3600AD83
S1132DA8F004EFFFBDF0ADE846F061C8ECCC2D00AF
S1132DB83072EFB800FCCF3600ADF044120061F376
S1132DC8ECD42D00F6BF6AEFFCEB1100100661EF9E
S1132DD8C061CFD72002C9F031FFADF0BDF2DAF2FD
S1132DE8F1480000FC2F0F0000C9F030FFADF0BD22
S1132DF8F2FAF28B9DF0317A9DF0D4F061E8ECF1AF
S1132E082D00FC2F0F0000C9F030FFADF0BDF2FA21
S1132E18F28B9DF0317A9DF0D4F061E8EC0F2E002E
S1132E283087F0B800FCFB0F008F87F09DF0311A53
S1132E389DF09F87F0C9F031FFADF0BDF2DAF2E101
S1132E48480000FC2F0F0000C9F030FFADF0BDF2C0
S1132E58FAF28B9DF0317A9DF0D4F061E8EC502EB3
S1132E6800FC2F0F0000C9F030FFADF0BDF2FAF2FC
S1132E788B9DF0317A9DF0D4F061E8EC6E2E003031
S1132E8886F0B800FCFB0F008F86F09DF0312A9D78
S1132E98F09F86F0C9F031FFADF0BDF2DAF25102CD
S1132EA8480000FC2F0F0000C9F030FFADF0BDF260
S1132EB8FAF28B9DF0317A9DF0D4F061E8ECB02EF3
S1132EC800FC2F0F0000C9F030FFADF0BDF2FAF29C
S1132ED88B9DF0317A9DF0D4F061E8ECCE2E003071
S1132EE888F0B800FCFB0F008F88F09DF0312A9D14
S1132EF8F09F88F01002D72022F19819F1981AF15E
S1132F08981BF1981CF1981DF1981EF19813F198EB
S1132F1814F19815F19816F19817F19818300400DF
S1132F28BFD8EFF6B820EC733000AEF8BDF2041940
S1132F3800BDF0A82006F0BDF0BDF4FAF48B9DF2B4
S1132F48AFD8EFBDF004A6EF168B9DF0768DF26135
S1132F580E9DF00CD09DF2AEF8BDF4041900BDF03E
S1132F68A82006F0BDF0BDF4DAF48DF2480000AEF6
S1132F78F8BDF2041300BDF0A82006F0BDF0BDF4BE
S1132F88FAF48B9DF2AFD8EFBDF004A6EF168B9D33
S1132F98F0768DF2610E9DF00CD09DF2AEF8BDF482
S1132FA8041300BDF0A82006F0BDF0BDF4DAF48DDA
S1132FB8F2480000AFD8EFBDF0A6F0ADF0BFD8EFEF
S1132FC8BDF004A6EF168B9DF04AF02C61E8ECEFF7
S1132FD82F00A820A1B820AFD8EFBDF0A6F0ADF01F
S1132FE8BFD8EFEC733000AFD8EFBDF004A6EF16EE
S1132FF88B9DF04AF00D61F8EC733000AEF8BDF229
S1133008041900BDF0A82006F0BDF0BDF4FAF48B55
S11330189DF031499DF2AEF8BDF4041900BDF0A845
S11330282006F0BDF0BDF4DAF48DF2480000AEF8E5
S1133038BDF2041300BDF0A82006F0BDF0BDF4FAFB
S1133048F48B9DF061019DF031299DF1768DF0613D
S11330580E9DF2AEF8BDF4041300BDF0A82006F0EE
S1133068BDF0BDF4DAF48DF2480000AFD8EFBDF03E
S113307804A6EF168B9DF04AF00D61E8EC322F00A0
S1133088C9F02200AEF8BDF0042200BDF004F1FF3F
S1133098B800FCF83200D4F061F8EC0C310088195F
S11330A89DF09812881A9DF09811881B9DF0980F2E
S11330B8881C9DF0980E881D9DF0980D881E9DF023
S11330C8980C300500BFD8EF51249F36EF51429F2A
S11330D837EF51309F38EF510D9F39EF510A9F3A1E
S11330E8EFF53BEFA80CBDF0B800A80EBDF0B80290
S11330F8A810BDF0B80488129DF09806FCD61500F7
S1133108EC663100F1981FAEF8BDF2040800BDF07A
S1133118BDF4DAF4302442780000DAF030320D7865
S11331280200300A00780400C9F02200AEF8BDF0AD
S1133138042200BDF004E6FFB800FCCF3600ADF071
S1133148BFD8EF3036EFB800C9F22200AEF8BDF2AE
S1133158042200BDF204E6FFB802FCA836001022DF
S1133168D761EFC1C3C561CF2020F19811F198123E
S1133178F19813F19814F19815F19816C9F02000F4
S1133188AEF8BDF0042000BDF004F7FFB800FC471A
S11331981400881D9DF09811881C9DF09812881AB7
S11331A89DF0981388199DF0981488189DF0981527
S11331B888179DF09816C9F02000AEF8BDF00420D9
S11331C800BDF004F1FFB800FC703200302000B8F4
S11331D800FC1D3500ADF0B81E88119DF07051003B
S11331E8BDEC88129DF0705100BDEA88139DF07003
S11331F85100BDE888149DF0705100BDF688159DF6
S1133208F0705100BDF488169DF0705100BDF2A80D
S11332181EBDF0B8003009B2B802ADECB804ADEA8E
S1133228B806ADE8B808ADF6B80AADF4B80CADF216
S1133238B80EFC2D3600A81EBDF0B800FCCF360031
S1133248ADF0BFD8EF3036EFB800A81EBDF0B80215
S1133258FCA83600A81EBDF0B800FC0634001020F7
S113326861EFC4C2C061CFD7200651069803F6B8EF
S113327804ECDB3200A804BDF0A80A06F0BDF0BDDA
S1133288F2FAF28B9DF05C0F9802A804BDF0A80A2C
S113329806F0BDF0BDF4FAF48B9DF0314A9801A80C
S11332A804BDF0A80A06F0BDF288019DF061019DF5
S11332B8F031299DF1768DF0610E9DF076880261DA
S11332C80E9DF0ADF2BDF4DAF48DF0480000A804C8
S11332D8A1B8048803705100BDF2A804BDF0ADF292
S11332E846F071FF7177F161F3EC7D32001006D777
S11332F82018301F00B800301C00B802301F00B876
S113330804301E00B806301F00B808301E00B80A82
S1133318301F00B80C301F00B80E301E00B8103033
S11333281F00B812301E00B814301F00B816A81CAD
S1133338A1BDF0BDF2FAF28B9DF04AF00C61E3EC0A
S1133348513300F4F0EC033400A81C040200BDF06F
S1133358BDF4FAF48B9DF0705100BDF2A81CA1BD18
S1133368F0BDF4FAF48B9DF0CDF100ADF001BDF0A1
S1133378C9F41800AEF8BDF4041800BDF406F0BD95
S1133388F004E8FFBDF0BDF4FAF4ABBDF0ADF246CD
S1133398F071FF7177F161E3ECAA3300F4F0EC0308
S11333A83400A81C040300BDF0BDF2FAF28B9DF0B2
S11333B84AF01761E3ECC73300F4F0EC033400A8D7
S11333C81C040400BDF0BDF4FAF48B9DF04AF03BF4
S11333D861E3ECE43300F4F0EC033400A81C0405C6
S11333E800BDF0BDF2FAF28B9DF04AF03B61E3ECCC
S11333F8013400F4F0EC033400E4F01018D761EF62
S1133408C161CFA806BDF6AF70EFBDF2ADF64400BA
S11334180061F8EC603400AF6EEFBDE8ADF246E849
S113342861C8EC603400040400BDF0ADF646F061F8
S1133438E8EC523400EC663400ADF004040046F6BF
S113344861F8EC6A3400ADF0BDF2FAF2AC02BDF0FA
S113345846E861D8EC41340061EFC061CFD7ADF2E2
S1133468BDF0ADF01489D161F8EC603400FAF0AC29
S113347802BDF446E861C8ECDE3400ADF21489D12B
S113348861F8ECC23400ADF41489D161E8ECA434D9
S113349800FAF4AC02BDF4DAF0780200ADF012F1EF
S11334A8480000ADF0BDF2ADF446E861E8EC6034E4
S11334B800ADF2BF6EEFEC603400ADF41489D16155
S11334C8E8ECD33400FAF4AC02BDF4DAF2ADF478E3
S11334D80200ECAF3400ADF21489D161F8ECD334B6
S11334E800ECA43400AEF8BDF0D7A804BDF2A806D9
S11334F8BDF0FAF2AC02BDF426F044040061E3EC3A
S11335081C3500DAF2ADF078020012F1480000AD83
S1133518F4780200D761EFC1C361CFAF70EF440004
S11335280061F8EC053600A808A1BDF0605CFE9DBA
S1133538EA8DF19DEBADEA040400BDE8FCED34002E
S1133548AF6EEFBDF4ADF026F4BDF0ADE846F06122
S1133558E3ECAF3500AF70EFBDF2ADF446F261E3D2
S1133568EC9C3500ADF21489FAF2D161E8ECA73588
S113357800AC02BDF626F204FCFFBDF0ADEA46F04D
S113358861E3ECCB3500ADF6BDF2ADF446F261F380
S1133598EC6C3500C9F0000061EFC2C061CFD7AC54
S11335A802BDF2EC623500ADF412E1480000ADF45E
S11335B806E8BF6EEF78020026EABDF061EFC2C0EC
S11335C861CFD7ADF2040400BDF0ADF212E14800BA
S11335D800ADF006EABDEAADF626EA44040061E36C
S11335E8ECA03500DAF2ADEA780200DAEAF1480034
S11335F800ADF678020061EFC2C061CFD7308AF01F
S1133608BF70EF308AF0BF6EEFEC2F3500A806BD0F
S1133618F2FAF2ABBDF0DAF2A1780000ADF012884C
S113362804480000D72008A80EB800301536B802A0
S1133638AEF8040C00B804AEF8040C00040400B896
S113364806FCF83600A80CBDF2DAF2F148000010C6
S113365808D761EFC161CFA806BDF0BDF2EAF089D1
S1133668D161F8ECA03600A6F2ADF21489D161E874
S1133678EC6F3600A808BDF4ADF4168B9DF6ADF2D8
S1133688128DF6480000A6F2A6F4D4F661E8EC80A0
S1133698360061EFC061CFD7ADF0BDF2EC7C3600E7
S11336A8A804BDF2A806BDF0ADF0168B9DF4ADF2EA
S11336B8128DF4480000A6F2A6F0D4F461E8ECB048
S11336C83600A804BDF0D7A804BDF2BDF0EAF2891B
S11336D8D161F8ECF33600A6F0ADF01489D161E8B5
S11336E8ECDF3600ADF026F2BDF0D7C9F00000D704
S11336F861EFC1C3C561CF20E0F6B82CAEF804DF92
S113370800B814A8EAA1BDEAA8EA168B9DF04AF00D
S11337182561F8EC503700D4F061F8ECFB42008DD9
S1133728F09800A8EEB802A8EC1261DAFBF8FF6181
S1133738792CADEAB8EAA1BDEAA8EA168B9DF04A4D
S1133748F02561E8EC1F3700ADEA168B9DEC4AECD6
S11337582561F8EC864300F19831984E8831983702
S1133768883198364AEC2B61F8ECA637004AEC2BE2
S113377861F3ECAE37004AEC2061F8EC853A004A74
S1133788EC2361E8ECD43700FBF8FF61594EA6EA54
S1133798FAEA8B9DEC4AEC2B61E8EC7537008DEC6A
S11337A89836EC9637004AEC2D61F8ECCA37004A93
S11337B8EC3061E8ECD43700FBF8FF615931EC9642
S11337C83700FBF8FF615937EC963700ADEABDF0D6
S11337D84AEC2A61F8ECD142008DEC0CD09DF0F64D
S11337E8B8384AF00961F3EC3638008DEC9DF2A83C
S11337F838BDF0ADF001BDF0312DBDF4ADF006F4E7
S1133808BDF0A6EACDF300ADF204D0FFBDF2ADF0F1
S113381806F2BDF0FAEA8B9DF20CD09DF34AF30947
S113382861E3ECFB37008DF29DECADF0B8388837D6
S1133838D161F8EC423800F198314AEC2E61F8EC89
S1133848704200C9E8FFFF4AEC6861F8EC62420084
S11338584AEC6C61F8ECF73A004AEC4C61F8ECF786
S11338683A008DEC982EF4F0ADEAA1B8EA882E4C13
S11338786661F8EC103B00882E4C6661E3EC963ADE
S113388800882E4C6F61F8EC694700882E4C6F61F4
S1133898E3EC094300882E4C7361F8ECE646008893
S11338A82E4C7361E3EC754A00882E4C7561F8EC74
S11338B8714C00882E4C7861E8ECAE43003042B27B
S11338C8B816A8F016ABB83CD4F061F8EC8F4600F3
S11338D8A8F016AC02B83EA8F0040400B8F0882E8C
S11338E84C6F61F8ECA64600882E4C7561F8EC190B
S11338F84B00301000B832F6B834F19836FBF8FFB4
S113390830000061293CBDF430000061D8B1612960
S11339183EBDF6883C6BF49842883D6BF598438825
S11339283E6BF69844883F6BF79845A844317A9DD6
S1133938F4300000BDF69DF58DF49DECADE844002F
S11339480061E8EC844400D4EC61E8EC844400AE03
S1133958F804DF00BDEAADE8BDF0ADF0BDE8A83875
S113396846E871FF7177E961D8ECE23A00A8382695
S1133978E8BDEC883676F1612E9DF088366BF0311F
S11339887A318FBDF0ADEC26F0B8168837D161E8EE
S1133998ECF13900A816B1B81E44000071FF61D8D3
S11339A8EC204B00A81EBDECADEAB82AADE8B82E51
S11339B8A8ECBDE8A8EEBDEA51209800ADEAB8022B
S11339C8DAE861DAB6ECADEC44FFFF61E8ECC03943
S11339D800A82ABDEAA82EBDE8A816BDF0A81E2690
S11339E8F0B816A82C06F0B82C8836D161E8EC4457
S11339F84400ADE844000071FF61E3EC3F3A00ADD8
S1133A08EABDEC06E8BDEAADE8B81EADECBDE8A831
S1133A18EEBDECFAE88B9800ADECB802A8EC1261A4
S1133A28DAA6E8ADE846EA61E8EC1B3A00A81EBD50
S1133A38E8A82C06E8B82C8837D161F8EC0B3700D5
S1133A48A816B1BDE844000071FF61D8EC0B37003B
S1133A58A8ECBDEAA8EEBDEC51209800ADECB80284
S1133A68DAEA61DAB6E8ADE844FFFF61E8EC603A07
S1133A7800A81616A82C07B82CEC0B37008836D1EA
S1133A8861E8EC9637008DEC9836EC963700882E72
S1133A984C5861F8EC714C00882E4C5861F3EC4A90
S1133AA84300882E4C4561F8EC2B4400882E4C4783
S1133AB861F8ECBA4300882ED161E8ECAE4300C942
S1133AC8E80300ADEAB8EAC9EA53B2A83846E8718F
S1133AD8FF7177E961C8EC753900F6B8168837D1F3
S1133AE861E8ECF1390030FFFFB816ECF13900FA5F
S1133AF8EA8C01982EA6EAE4F0ADEAA1B8EA882E89
S1133B084C6661E8EC7F3800A4F0ADE8C9EC00002D
S1133B1844000071FF61D8EC824C00F1982ED4F077
S1133B2861F8ECDB4300A8F0040400BDEAA8F01631
S1133B38ABB800A8F016AC02B802FC8D4C008DF0AE
S1133B48981E8DF1981F8DF298208DF398218DF48D
S1133B5898228DF598238DF698248DF798258DF065
S1133B6898168DF198178DF298188DF398198DF48D
S1133B78981A8DF5981B8DF6981C8DF7981DADEA4B
S1133B88B8F0F4F0881698008817980188189802F5
S1133B9888199803881A9804881B9805881C98061D
S1133BA8881D98078DF098089809980A980B980C1E
S1133BB8980D980EF1980FFC128B008DF0D171FFBF
S1133BC861D8EC174A00AEF8045A00BDF4A83806C8
S1133BD8F4BDEAF4F0CDF6F0881698008817980139
S1133BE88818980288199803881A9804881B9805D5
S1133BF8881C9806881D98078DF098089809980AD3
S1133C08980B980C980D8DF6980E513F980FFC2B35
S1133C188A008DF0F4F0D171FF61D8ECAF4700CD84
S1133C28F3E0CDF476CDF548CDF6378DF3980B8DCA
S1133C38F4980C8DF5980D8DF6980E5142980FFC5A
S1133C482B8A00F6B8408DF0D171FF61D8EC3C3D69
S1133C5800ADE8B82AA840BDE888169800881798E7
S1133C68018818980288199803881A9804881B9858
S1133C7805881C9806881D9807F19808F19809F199
S1133C88980A5120980B515F980C51A0980D510235
S1133C98980E5142980FFC6E7D008DF0981E8DF1A0
S1133CA8981F8DF298208DF398218DF498228DF524
S1133CB898238DF698248DF798258DF098168DF114
S1133CC898178DF298188DF398198DF4981A8DF524
S1133CD8981B8DF6981C8DF7981DADE8040A00BD55
S1133CE8E8CDF3E0CDF476CDF548CDF637881698CF
S1133CF800881798018818980288199803881A98D0
S1133D0804881B9805881C9806882598078DF398BD
S1133D180B8DF4980C8DF5980D8DF6980EFC2B8A66
S1133D28008DF0D171FF61C8EC613C00ADE8B8408A
S1133D38A82ABDE8F4F0CDF62488169800881798C8
S1133D48018818980288199803881A9804881B9877
S1133D5805881C9806881D98078DF0980898099876
S1133D680A980B980C980D8DF6980E5140980FFCF4
S1133D782B8A008DF0D171FF61D8EC453E00ADE887
S1133D88B82AA840BDE888169800881798018818AA
S1133D98980288199803881A9804881B9805881C1F
S1133DA89806881D9807F19808F19809F1980AF17E
S1133DB8980BF1980CF1980D5124980E5140980FD6
S1133DC8FC6E7D008DF0981E8DF1981F8DF2982061
S1133DD88DF398218DF498228DF598238DF69824E7
S1133DE88DF798258DF098168DF198178DF29818FF
S1133DF88DF398198DF4981A8DF5981B8DF6981CE7
S1133E088DF7981DA6E888169800881798018818D1
S1133E18980288199803881A9804881B9805881C9E
S1133E28980688259807FC2B8A008DF0D171FF61CC
S1133E38C8EC8E3D00ADE8B840A82ABDE8ADEC4416
S1133E48000061F8ECF24500A840BDECADE846EC92
S1133E5871FF7177ED61E3EC723E00ADEC44FCFF59
S1133E6871FF71C061C8ECA74A00B6E8884ED161F9
S1133E78E8ECF24500E1984E984F882ED161F8ECB1
S1133E88FE4500ADEABDECC9F00000ADE846F071AE
S1133E98FF7177F161D8EC644000ADE8B83AADEC55
S1133EA8B82AADEAB854ADF0BDECECEF3E00A83A40
S1133EB844000061E8ECCA3E00884ED161F8EC3F4A
S1133EC84000A82ABDF6A6F6DAF6512E480000A846
S1133ED82A040200B82AA6ECA83A46EC71FF7177C6
S1133EE8ED61D8EC5440008816980088179801882A
S1133EF818980288199803881A9804881B980588C2
S1133F081C9806881D9807FC7D8E00ADF0B826AD78
S1133F18F2B828ADF0BDE88827317B9DEA9DEBAD6A
S1133F28E8B800ADEAB802FCDE8C008DF0981E8D6E
S1133F38F1981F8DF298208DF398218DF498228D95
S1133F48F598238DF698248DF79825881698008877
S1133F5817980188189802881998038DF098088D85
S1133F68F198098DF2980A8DF3980B8DF4980C8DBD
S1133F78F5980D8DF6980E8DF7980FFC1A66008D3E
S1133F88F098168DF198178DF298188DF398198D6D
S1133F98F4981A8DF5981B8DF6981C8DF7981D8D3D
S1133FA8F098008DF198018DF298028DF398038DA5
S1133FB8F498048DF598058DF698068DF79807F111
S1133FC89808F19809F1980AF1980BF1980CF1986E
S1133FD80D5124980E5140980FFC3B67008DF098C2
S1133FE81E8DF1981F8DF298208DF398218DF498E9
S1133FF8228DF598238DF698248DF798258DF098C1
S1134008168DF198178DF298188DF398198DF498E8
S11340181A8DF5981B8DF6981C8DF7981DA82AA162
S1134028BDF0A82A1288260C30480000ADEC4400E4
S11340380061F8ECB63E00ADF0B82AA6ECA83A4602
S1134048EC71FF7177ED61C8ECEF3E00A82ABDEC76
S1134058ADE8B850ADEAB852A854BDEAF4F0CDF6CC
S1134068148816980088179801881898028819984F
S113407803881A9804881B9805881C9806881D9834
S1134088078DF098089809980A980B980C980D8D44
S1134098F6980E5140980FFC2B8A008DF0D171FFD1
S11340A861D8EC954100ADECB1BDF4C9F20100EC66
S11340B8D54000DAF6480000C9F20000B6F4ADF4C1
S11340C8A1BDF0ADEA46F061C8EC154100ADF4BD00
S11340D8F6168B9DF14AF12E61F8ECC440008DF27E
S11340E8768DF1610E9DF14AF13A61E8ECBB40002E
S11340F8ADF4125130480000C9F20100B6F4ADF431
S1134108A1BDF0ADEA46F061D8ECD54000ADF2446B
S1134118000061F8EC954100882ED161F8ECBE4AA4
S113412800ADECBDF0ADEA46EC61D8EC4D4100ECD5
S1134138764100128DF2480000B6F0ADEA46F0610F
S1134148C8EC764100ADF0B1168B9DF2ADF04AF2A1
S11341582E61E8EC3B41001204FEFF168B48000078
S1134168B6F0B6F0ADEA46F061D8EC4D4100FBF884
S1134178FF617940ADECBDF2AEF8045A00BDECA87D
S11341883806EC125131480000ADF2BDEC884FD12D
S113419861F8ECD44100ADECB1168B9DF24AF230D3
S11341A861E8ECCB4100ADEC04FEFFBDF0ADF0A13D
S11341B8BDECB6F0FAF08C019DF24AF23061F8ECED
S11341C8B541004AF22E61F8EC414B00882ED161CA
S11341D8F8ECDF4500DAEC882E480000A8404400DB
S11341E80071FF61D8EC284B00ADEC040200BDF06F
S11341F8DAEC512B480100ADF0040A00B816C9ECFA
S11342080100ADEAB82AA840BDEAA816BDE8ADEC9D
S1134218B81EADE8A1B816ADEAB800300A00B80275
S1134228FCBD9000DAE88DF00C30480000ADEAB827
S113423800300A00B802FC5C9000ADF0BDEA44000E
S11342480061E8EC5C4200ADEC44010071FF61F3ED
S1134258ECA54500A6ECEC124200FAEA8C01982E73
S1134268A6EAF4F0EC703800FAEA8C019DEC4AEC0A
S11342782A61F8EC854700A6EA0CD09DF0C9E8004D
S1134288004AF00961F3EC4F38008DEC9DF0ADE87D
S113429801BDE8312DBDF2ADE806F2BDE8A6EACDD0
S11342A8F100ADF004D0FFBDF0ADE806F0BDE8FACA
S11342B8EA8B9DF00CD09DF14AF10961E3EC96423A
S11342C8008DF09DECEC4F3800A8F0040200BDF21C
S11342D8A8F016ABBDECB83844000071FF61D8EC07
S11342E8A04700A6EAFAF08C019DECADF2B8F0EC18
S11342F8363800A82CBDF010E061EFC4C2C061CF0D
S1134308D7882E4C6961F8ECAD4600882E4C6E6156
S1134318E8ECA44300A8F016ABD4F061F8EC4B4ADF
S113432800BDF0A82CBDECADF012ADEC7800003166
S11343387B480200480300A8F0040200B8F0EC0B24
S11343483700882E4C6461F8ECAD4600882E4C6426
S113435861F3EC2B4400882E4C6361E8ECAE430017
S1134368A8F0BDEC168B985AC9E80100ADEC04021C
S113437800B8F0AEF8045A00BDEAEC663900A8EAC1
S1134388040200B8EA8DEC9800A8EEB802A8EC1272
S113439861DAFBF8FF61792CEC0B3700882E4C6747
S11343A861F8ECBA4300C9E80300C9EA53B2EC6601
S11343B83900882E0CFE982EADE844000061E8EC24
S11343C8434A00C9E80100ADE8BDECD4F061E8EC6B
S11343D82E3B00A8F0BDF4168B9816ADF4A1168BED
S11343E89817ADF4040200168B9818ADF404030072
S11343F8168B9819ADF4040400168B981AA8F004C7
S11344080500168B981BA8F0040600168B981CA8A8
S1134418F0040700168B981DA8F0040800B8F0EC07
S11344288A3B00C9EC0000ADE844000071FF61C894
S1134438EC263B00C9E80600EC263B0088369800C9
S1134448A8EEB802A8EC1261DAFBF8FF61792CEC4B
S1134458FA3900FBF8FF30000061293CBC3C30000D
S11344680061D8B161293EBC3EE4EC3031B2B816E3
S1134478300A00B832F6B834512D9836AEF804DF55
S113448800BDEAADE8B81EA83CB810A83EB8128D25
S1134498EC9DE8A816BDECB6EAA810BDF4A812BDB8
S11344A8F6A832BDF0A834BDF251C09FE800ADF6BD
S11344B8BEF2ADF4BEF0ADF2BEF4ADF0BEF651C13D
S11344C89FE8008FE8003103FAAEF0BDF4AEF2BD08
S11344D8F6AFE000BDF0AFE200BDF2ADF0B83CAD20
S11344E8F2B83EADF4B816ADF6B818ADEC06F0DA8D
S11344F8EA168B480000A816B810ADF6B812A81230
S1134508440000A81061F844000061E8EC9F4400EE
S1134518A810B83CA812B83E8DE89DECA81EBDE8CA
S113452844000071FF61D8EC6A4600A81426EABD6D
S1134538F0ADE846F071FF7177F161E3EC64450092
S1134548B6EADAEA5130480000A81426EABDF04673
S1134558E871FF7177E961D8EC484500884ED1616C
S1134568F8EC623900D4EC61F8EC623900882E5C0E
S1134578DF9DF24AF25861F8ECF04A00882E4C6F3D
S113458861E8EC623900EAEA894C3061F8EC623996
S113459800ADEAB1BDF0ADEAB1EC054B00A82ABD07
S11345A8EAA81626ECBDF0ADE804F6FFBDF2ADECC2
S11345B8BDF4ADF2BDF6ADF0DAF6168B480000B6E0
S11345C8F4A6F0B6F2ADF444000061E8ECBA450094
S11345D8ADE804F7FFBDEC8831D161E8EC1D460075
S11345E8ADEC26EABDE8EC663900F1984F882ED187
S11345F861E8EC8B3E00A84044000071FF61D8ECF0
S1134608474B00A84016F627BDF0ADEABDECF1987B
S11346182EEC933E00883676F1612E9DF088366B39
S1134628F0317A318FBDF0A83826F0BDF0ADEC2614
S1134638EABDE846F071FF7177F161C8EC663900AC
S1134648B6EADAEA5130480000ADEC26EABDE8AD36
S1134658F046E871FF7177E961F3EC484600EC66CF
S113466839008831D161F8EC334500883676F16138
S11346782E9DF088366BF0317A318FBDF0A838263C
S1134688F0BDE8EC3345008DF0983E983FA8F0045F
S11346980200B8F0882E4C6F61E8ECF0380030085E
S11346A800ECFD3800A8F0BDEC16ABB83CD4F061C2
S11346B8F8EC644A00A8F016AC02B83EA8F004046A
S11346C800B8F0883F71FC61D8EC5B44003031B22B
S11346D8B816300A00B832F6B834EC053900A8F038
S11346E8040200BDF4A8F016ABBDF644000061F85E
S11346F8EC7A4C00ADE844000071FF61D8EC254C1D
S113470800ADF6A1BDF2ADF61489D161F8EC394CCF
S113471800ADE844000061F8EC694C00C9F0000001
S1134728EC404700ADF6A1BDF2ADE846F071FF716B
S113473877F161E3EC504700ADF2BDF6A6F0EAF27A
S113474889D161E8EC2C4700F626F0BDF0ADF606F9
S1134758F0BDEAADF626EABDE8ADF4B8F0EC66398A
S113476800884ED161F8ECC53800ADE8440000611A
S1134778E8ECC53800C9E80100ECC53800A8F01613
S1134788ABBDE8FAEA8C029DECA8F0040200B8F08C
S1134798A6EAA6EAEC4F3800F626ECB838FBF8FF90
S11347A8615937ECEB4200881698008817980188FD
S11347B818980288199803881A9804881B980588F9
S11347C81C9806881D98078DF098089809980A98E7
S11347D80B980C980D980EF1980FFC458900D4F0AD
S11347E861F8ECA04A00CDF3E0CDF4DFCDF57CCD43
S11347F8F6DB8DF3980B8DF4980C8DF5980D8DF6EA
S1134808980E513D980FFCF88B00F6B8408DF0D106
S113481871FF61F3EC074900ADE8B82AA840BDE888
S11348288816980088179801881898028819980398
S1134838881A9804881B9805881C9806881D980768
S1134848F19808F19809F1980A5120980B515F984A
S11348580C51A0980D5102980E5142980FFC3B67D9
S1134868008DF0981E8DF1981F8DF298208DF39885
S1134878218DF498228DF598238DF698248DF79838
S1134888258DF098168DF198178DF298188DF39858
S1134898198DF4981A8DF5981B8DF6981C8DF79838
S11348A81DADE804F6FFBDE8CDF3E0CDF4DFCDF5AA
S11348B87CCDF6DB8816980088179801881898022A
S11348C888199803881A9804881B9805881C9806E0
S11348D8882598078DF3980B8DF4980C8DF5980D11
S11348E88DF6980E513D980FFCF88B008DF0D17120
S11348F8FF61E3EC284800ADE8B840A82ABDE8F415
S1134908F0CDF6F088169800881798018818980250
S113491888199803881A9804881B9805881C98068F
S1134928881D98078DF098089809980A980B980C90
S1134938980D8DF6980E513F980FFC128B008DF050
S1134948D171FF61C8EC453E00ADE8B82AA840BD66
S1134958E888169800881798018818980288199882
S113496803881A9804881B9805881C9806881D983B
S113497807F19808F19809F1980AF1980BF1980C45
S1134988F1980D5124980E5140980FFC3B67008D07
S1134998F0981E8DF1981F8DF298208DF398218D33
S11349A8F498228DF598238DF698248DF798258D03
S11349B8F098168DF198178DF298188DF398198D33
S11349C8F4981A8DF5981B8DF6981C8DF7981DB6DA
S11349D8E8CDF6F088169800881798018818980288
S11349E888199803881A9804881B9805881C9806BF
S11349F8882598078DF6980E513F980FFC128B0066
S1134A088DF0D171FF61D8EC594900EC3D3E008826
S1134A1800984688179847881898488819984988A4
S1134A281A984A881B984B881C984C881D0C8098A7
S1134A384D981D512D9836ECCE3B00C9EC0100EC85
S1134A482F4400BDF0A82CBDECADF012ADEC7800FD
S1134A5800A8F0040200B8F0EC0B3700317B983E54
S1134A68983FADEC040200B8F0ECCB4600882E4C1D
S1134A787061E8ECAE4300A8F0BDEC16ABB83C316D
S1134A887B983E983FADEC040200B8F03031B2B8E0
S1134A9816301000ECFD3800F6B840EC453E00AD89
S1134AA8E826ECB1BDE8884ED161F8EC414C00F140
S1134AB8984FECFE4500ADECA1BDF2ADEA46F261BB
S1134AC8C8EC804100ADECBDE8ADF2BDF0ADF0122C
S1134AD8FAE88B480000B6F0B6E8ADF046EA61E8BB
S1134AE8ECD54A00EC804100ADEAB112882E4800AA
S1134AF800ADEA04FEFFBDF0ADEA04FEFF1251303A
S1134B08480000A81426F0BDE8ADF0BDEAEC66390B
S1134B1800300A00ECFD3800A81EB816ECF1390084
S1134B28ADEC040200BDF0DAEC512D480100A840B8
S1134B3816F627B840ECFF4100B6ECECD44100AEC1
S1134B48F8045A00BDF2A83806F2125130480000A1
S1134B58ADE844000061E8EC6C4B00884ED161F884
S1134B68EC4A4C00ADEA040200BDECDAEA512E48E6
S1134B780100A84044FFFF61F8EC5A4C00ADE8443A
S1134B88000061F8ECF64B00ADECBDF2A840A106BC
S1134B98E8BDF4ADE8BDF0ECB24B00ADECBDF2AD50
S1134BA8F044000061F8ECF64B00A6ECADF21251AB
S1134BB830480000B6F0ADF446F061E8ECA34B00D1
S1134BC88DE87CFF98568DE97CFF9857A856BDF26E
S1134BD8A84046F271FF7177F361D8EC154C00AD2B
S1134BE8F0BDE8F1982EC9F00100EC933E008DE881
S1134BF87CFF98588DE97CFF9859A858BDF0A840C7
S1134C0846F071FF7177F161C8EC624C00884FD1AE
S1134C1861F8ECDF4500F1982EEC9E4100ADF6A159
S1134C28BDF2C9E81027ADF61489D161E8EC244730
S1134C3800C9F00000EC554700E1984E984FECFE8F
S1134C484500ADEAA1BDECA84044FFFF61E8ECF6DD
S1134C584B00ADE8BDF0ECC84B00F1982EEC644075
S1134C6800ADE8BDF0EC5547003031B2B816ECCAD7
S1134C783800C9F622B2ECFC4600F1982EC9E806C1
S1134C8800EC2E3B0061EFC1C3C561CF2024A82EE0
S1134C98B816A830B818AEF8042400BDF004F2FF22
S1134CA8B800ADF004F6FFB802FC849900A81ABD58
S1134CB8ECB800A81CBDEAB802A81EBDE8B804F107
S1134CC89DF4A820BDF0A822BDF28DEC980E8801B1
S1134CD8980F8DEA9810880398118DE89812880522
S1134CE8981388069814880798158DF098008DF104
S1134CF898018DF298028DF398038DF498048DF43D
S1134D0898058DF498068DF49807511E9808FCC0F0
S1134D1897008DEC9800880F98018DEA9802881105
S1134D2898038DE89804881398058DF0980E8DF1F2
S1134D38980F8DF298108DF398118DF498128DF5C3
S1134D4898138DF698148DF798158DF098068DF1B3
S1134D5898078DF298088DF398098DF4980A8DF5C3
S1134D68980B8DF6980C8DF7980DFCBF8F008DF07D
S1134D78980E8DF1980F8DF298108DF398118DF48B
S1134D8898128DF598138DF698148DF79815881444
S1134D989DEC88159DED8DEC9DF68DED9DF7102409
S1134DA861EFC4C2C061CFD761EFC1C3C561CF2071
S1134DB83CA84ABDECA84616ABBDF044010061E32B
S1134DC8ECE96400A84816ABBDF244010061E3ECC9
S1134DD8EF6400ADF044040061E8EC0A4E00A84614
S1134DE8BDF0ADF244040061E8ECF96400EAF0AA0D
S1134DF80261490261F8ECF96400C9F058B2ECF9AF
S1134E086400ADF244040061F8ECEF64004402006D
S1134E1861E8EC7F4E00ADF044020061E8ECE9641F
S1134E2800DAECADF0780000A84616AC027802006F
S1134E38A84616AC04780400A84616AC0678060002
S1134E48A84616AC08780800A84616AC0A780A00E2
S1134E58A84616AC0C780C00A848BDF0A846BDF2CC
S1134E68EAF0168A025E02480200FAF28A035E0336
S1134E78480300ECF56400ADF044020061F8ECEF7F
S1134E886400A84616AC04B83AA84804040016AB53
S1134E98BDF2A846040600168B981AA84604070013
S1134EA8168B981BA846040800168B981CA8460461
S1134EB80900168B981DA846040A00168B981EA88C
S1134EC846040B00168B981FA846040C00168B98F2
S1134ED820A846040D00168B9821A848040600163D
S1134EE88B9812A848040700168B9813A84804083E
S1134EF800168B9814A848040900168B9815A8481E
S1134F08040A00168B9816A848040B00168B9817E9
S1134F18A848040C00168B9818A848040D00168B92
S1134F289819A83A26F2BDF0BDE844000071FF6163
S1134F38C8EC424F00F626F0BDE8ADE8443F0071E6
S1134F48FF61F3EC115900ADF044000071FF61E317
S1134F58EC2F54008812980088139801881498023A
S1134F688815980388169804881798058818980649
S1134F78881998078DE89808FCDA95008DF098321E
S1134F888DF198338DF298348DF398358DF49836E5
S1134F988DF598378DF698388DF79839E1980AF198
S1134FA8980B980C980D980E980F98109811880AD9
S1134FB89800880B9801880C9802880D9803880E2D
S1134FC89804880F98058810980688119807FCC0DB
S1134FD897008DF098228DF198238DF298248DF303
S1134FE898258DF498268DF598278DF698288DF7B1
S1134FF8982951FF982A982B982C982D982E982FF9
S1135008983098318DF076882A610E9DF2E4F08804
S113501822768DF2614E61D8EC28500088119DF0FB
S1135028882B768823610E9DF3E4EA8823768DF332
S1135038614E61D8EC425000F4EA8DF3768DF0614C
S11350480E9DF0E4F14BF361D8EC575000F4F18D68
S1135058EA6BF19DEA8DF09DF3882C768824610E25
S11350689DF4E4F18824768DF4614E61D8EC7B508C
S113507800F4F18DF4768DEA610E9DEAE4F04BF4C8
S113508861D8EC905000F4F08DF16BF09DF18DEA4D
S11350989DF4882D768825610E9DF5E4F0882576A3
S11350A88DF5614E61D8ECB45000F4F08DF5768D31
S11350B8F1610E9DF1E4EA4BF561D8ECC95000F4B6
S11350C8EA8DF06BEA9DF08DF19DF5882E768826A1
S11350D8610E9DF6E4F18826768DF6614E61D8EC72
S11350E8ED5000F4F18DF6768DF0610E9DF0E4EA52
S11350F84BF661D8EC025100F4EA8DF16BEA9DF1AC
S11351088DF09DF6882F768827610E9DF7E4F08848
S113511827768DF7614E61D8EC265100F4F08DF7AF
S1135128768DF1610E9DF1E4EA4BF761D8EC3B51C1
S113513800F4EA8DF06BEA9DF08DF19DF7883076E6
S11351488828610E9DE8E4F18828768DE8614E612F
S1135158D8EC5F5100F4F18DE8768DF0610E9DF086
S1135168E4EA4BE861D8EC745100F4EA8DF16BEA97
S11351789DF18DF09DE88831768829610E768DF150
S1135188610E9DE988125BF2982288135BF39823D9
S113519888145BF4982488155BF5982588165BF6C3
S11351A8982688175BF7982788185BE89828881941
S11351B85BE99829F4F48DF49DF59DF69DF79DE837
S11351C89DE99DEA9DEB8822768DF4612E980AE488
S11351D8F14BF461F3ECE551008DF59DF1882376EC
S11351E88DF5612E980BE4F04BF561F3ECFA510060
S11351F8F4F08DF176880B612E9DF1E4F2880B763C
S11352088DF1614E61F3EC145200F4F28DF06BF2FF
S11352189DF08DF1980B8824768DF6612E980CE418
S1135228F14BF661F3EC335200F4F18DF076880C0F
S1135238612E9DF0E4F2880C768DF0614E61F3ECFA
S11352484D5200F4F28DF16BF29DF18DF0980C88BB
S113525825768DF7612E980DE4F04BF761F3EC6C2D
S11352685200F4F08DF176880D612E9DF1E4F288F8
S11352780D768DF1614E61F3EC865200F4F28DF0F7
S11352886BF29DF08DF1980D8826768DE8612E9845
S11352980EE4F14BE861F3ECA55200F4F18DF076DD
S11352A8880E612E9DF0E4F2880E768DF0614E61D1
S11352B8F3ECBF5200F4F28DF16BF29DF18DF0988E
S11352C80E8827768DE9612E980FE4F04BE961F397
S11352D8ECDE5200F4F08DF176880F612E9DF1E436
S11352E8F2880F768DF1614E61F3ECF85200F4F216
S11352F88DF06BF29DF08DF1980F8828768DEA6118
S11353082E9810E4F14BEA61F3EC175300F4F18D95
S1135318F0768810612E9DF0E4F28810768DF061A5
S11353284E61F3EC315300F4F28DF16BF29DF18D83
S1135338F098108829768DEB612E98118DF1768876
S113534811612E9811882276880A616E9DF088234F
S113535876880B616E9DF1882476880C616E9DF2C7
S1135368882576880D616E9DF3882676880E616E91
S11353789DF4882776880F616E9DF58828768810B5
S1135388616E9DF68829768811616E9DF78DF09877
S1135398008DF198018DF298028DF398038DF4989D
S11353A8048DF598058DF698068DF79807513F9862
S11353B808FCDA95008DF0980A8DF1980B8DF29817
S11353C80C8DF3980D8DF4980E8DF5980F8DF69835
S11353D8108DF798118DF098228DF198238DF298FD
S11353E8248DF398258DF498268DF598278DF698B5
S11353F8288DF7982988326BF0981288336BF198C6
S11354081388346BF2981488356BF3981588366BC7
S1135418F4981688376BF5981788386BF6981888B7
S1135428396BF7EC48590044000061F8EC4A59001C
S1135438A83A06E8B83A881A9800881B9801881C84
S11354489802881D9803881E9804881F9805882048
S11354589806882198078DE89808FCDA95008DF05D
S113546898328DF198338DF298348DF398358DF404
S113547898368DF598378DF698388DF79839E198E0
S11354880AF1980B980C980D980E980F981098118B
S1135498880A9800880B9801880C9802880D98034C
S11354A8880E9804880F980588109806881198071C
S11354B8FCC097008DF098228DF198238DF29824E2
S11354C88DF398258DF498268DF598278DF69828D0
S11354D88DF7982951FF982A982B982C982D982E57
S11354E8982F983098318DF076882A610E9DF2E4D1
S11354F8F08822768DF2614E61D8EC0A5500881145
S11355089DF0882B768823610E9DF3E4EA88237640
S11355188DF3614E61D8EC245500F4EA8DF3768D51
S1135528F0610E9DF0E4F14BF361D8EC395500F4C9
S1135538F18DEA6BF19DEA8DF09DF3882C76882431
S1135548610E9DF4E4F18824768DF4614E61D8EC03
S11355585D5500F4F18DF4768DEA610E9DEAE4F070
S11355684BF461D8EC725500F4F08DF16BF09DF1B9
S11355788DEA9DF4882D768825610E9DF5E4F088E2
S113558825768DF5614E61D8EC965500F4F08DF5CD
S1135598768DF1610E9DF1E4EA4BF561D8ECAB55DB
S11355A800F4EA8DF06BEA9DF08DF19DF5882E7676
S11355B88826610E9DF6E4F18826768DF6614E61A3
S11355C8D8ECCF5500F4F18DF6768DF0610E9DF090
S11355D8E4EA4BF661D8ECE45500F4EA8DF16BEAA1
S11355E89DF18DF09DF6882F768827610E9DF7E44E
S11355F8F08827768DF7614E61D8EC085600F4F0F0
S11356088DF7768DF1610E9DF1E4EA4BF761D8ECE4
S11356181D5600F4EA8DF06BEA9DF08DF19DF78834
S113562830768828610E9DE8E4F18828768DE86153
S11356384E61D8EC415600F4F18DE8768DF0610E98
S11356489DF0E4EA4BE861D8EC565600F4EA8DF193
S11356586BEA9DF18DF09DE88831768829610E7694
S11356688DF1610E9DE9881A5BF29822881B5BF321
S11356789823881C5BF49824881D5BF59825881E5C
S11356885BF69826881F5BF7982788205BE898289C
S113569888215BE99829F4F48DF49DF59DF69DF72E
S11356A89DE89DE99DEA9DEB8822768DF4612E980C
S11356B80AE4F14BF461F3ECC756008DF59DF188CB
S11356C823768DF5612E980BE4F04BF561F3ECDC51
S11356D85600F4F08DF176880B612E9DF1E4F28882
S11356E80B768DF1614E61F3ECF65600F4F28DF011
S11356F86BF29DF08DF1980B8824768DF6612E98C7
S11357080CE4F14BF661F3EC155700F4F18DF076E7
S1135718880C612E9DF0E4F2880C768DF0614E6160
S1135728F3EC2F5700F4F28DF16BF29DF18DF098A4
S11357380C8825768DF7612E980DE4F04BF761F30C
S1135748EC4E5700F4F08DF176880D612E9DF1E44E
S1135758F2880D768DF1614E61F3EC685700F4F22E
S11357688DF06BF29DF08DF1980D8826768DE861A9
S11357782E980EE4F14BE861F3EC875700F4F18DB1
S1135788F076880E612E9DF0E4F2880E768DF06135
S11357984E61F3ECA15700F4F28DF16BF29DF18D9B
S11357A8F0980E8827768DE9612E980FE4F04BE97E
S11357B861F3ECC05700F4F08DF176880F612E9DEB
S11357C8F1E4F2880F768DF1614E61F3ECDA57005B
S11357D8F4F28DF06BF29DF08DF1980F8828768D98
S11357E8EA612E9810E4F14BEA61F3ECF95700F4FE
S11357F8F18DF0768810612E9DF0E4F28810768D94
S1135808F0614E61F3EC135800F4F28DF16BF29DE4
S1135818F18DF098108829768DEB612E98118DF111
S1135828768811612E9811882276880A616E9DF017
S1135838882376880B616E9DF1882476880C616EC6
S11358489DF2882576880D616E9DF3882676880EEC
S1135858616E9DF4882776880F616E9DF588287699
S11358688810616E9DF68829768811616E9DF78D82
S1135878F098008DF198018DF298028DF398038DBC
S1135888F498048DF598058DF698068DF7980751C8
S11358983F9808FCDA95008DF0980A8DF1980B8DE5
S11358A8F2980C8DF3980D8DF4980E8DF5980F8D54
S11358B8F698108DF798118DF098228DF198238D14
S11358C8F298248DF398258DF498268DF598278DD4
S11358D8F698288DF7982988326BF0981A88336BD4
S11358E8F1981B88346BF2981C88356BF3981D88E3
S11358F8366BF4981E88376BF5981F88386BF698C2
S11359082088396BF7EC335900A83A46F271FF71D5
S113591877F361F3EC395900ADF2B83AF1981A9873
S11359281B981C981D981E981F98209821EC4A597A
S113593800F19812981398149815981698179818AF
S11359489819A846BDF2A6F2A6F2FAF2ABBDF0A8E1
S11359584816AC0246F061F8EC2F6200ADF0440042
S11359680061F8ECE85A00881A768812612E9DF0D6
S1135978E4E88812768DF0614E61F3EC895900F4FD
S1135988E8881B768813612E9DF1E4E98813768DE7
S1135998F1614E61F3ECA35900F4E98DE8768DF1D9
S11359A8612E9DE8E4EA4BF161F3ECB85900F4EA9E
S11359B88DE96BEA9DE98DE89DF1881C7688146170
S11359C82E9DF2E4E88814768DF2614E61F3ECDCE6
S11359D85900F4E88DE9768DF2612E9DE9E4EA4BED
S11359E8F261F3ECF15900F4EA8DE86BEA9DE88D75
S11359F8E99DF2881D768815612E9DF3E4E98815E2
S1135A08768DF3614E61F3EC155A00F4E98DE8766E
S1135A188DF3612E9DE8E4EA4BF361F3EC2A5A0016
S1135A28F4EA8DE96BEA9DE98DE89DF3881E768892
S1135A3816612E9DF4E4E88816768DF4614E61F3C0
S1135A48EC4E5A00F4E88DE9768DF4612E9DE9E474
S1135A58EA4BF461F3EC635A00F4EA8DE86BEA9DCF
S1135A68E88DE99DF4881F768817612E9DF5E4E991
S1135A788817768DF5614E61F3EC875A00F4E98D49
S1135A88E8768DF5612E9DE8E4EA4BF561F3EC9C2C
S1135A985A00F4EA8DE96BEA9DE98DE89DF58820C2
S1135AA8768818612E9DF6E4E88818768DF6614E9E
S1135AB861F3ECC05A00F4E88DE9768DF6612E9D09
S1135AC8E9E4EA4BF661F3ECD55A00F4EA8DE86BA5
S1135AD8EA9DE88DE99DF68821768819EC5D5C00DD
S1135AE8881276881A612E9DF0E4E8881A768DF07B
S1135AF8614E61F3EC025B00F4E8881376881B615D
S1135B082E9DF1E4E9881B768DF1614E61F3EC1C5E
S1135B185B00F4E98DE8768DF1612E9DE8E4EA4BAB
S1135B28F161F3EC315B00F4EA8DE96BEA9DE98DF0
S1135B38E89DF1881476881C612E9DF2E4E8881C9F
S1135B48768DF2614E61F3EC555B00F4E88DE976ED
S1135B588DF2612E9DE9E4EA4BF261F3EC6A5B0095
S1135B68F4EA8DE86BEA9DE88DE99DF2881576885C
S1135B781D612E9DF3E4E9881D768DF3614E61F372
S1135B88EC8E5B00F4E98DE8768DF3612E9DE8E4F4
S1135B98EA4BF361F3ECA35B00F4EA8DE96BEA9D4D
S1135BA8E98DE89DF3881676881E612E9DF4E4E855
S1135BB8881E768DF4614E61F3ECC75B00F4E88DC2
S1135BC8E9768DF4612E9DE9E4EA4BF461F3ECDCAB
S1135BD85B00F4EA8DE86BEA9DE88DE99DF488178B
S1135BE876881F612E9DF5E4E9881F768DF5614E50
S1135BF861F3EC005C00F4E98DE8768DF5612E9D87
S1135C08E8E4EA4BF561F3EC155C00F4EA8DE96B22
S1135C18EA9DE98DE89DF58818768820612E9DF621
S1135C28E4E88820768DF6614E61F3EC395C00F483
S1135C38E88DE9768DF6612E9DE9E4EA4BF661F389
S1135C48EC4E5C00F4EA8DE86BEA9DE88DE99DF67C
S1135C588819768821612E9DF78DE8768DF7612E57
S1135C689DE88DF098128DF198138DF298148DF3A8
S1135C7898158DF498168DF598178DF698188DE863
S1135C889819DAECD171FF61D8ECC75C00F6780298
S1135C9800A83A78040088124806008813480700C8
S1135CA8881448080088154809008816480A008896
S1135CB817480B008818480C008819EC8C5E00E61D
S1135CC8780200A83A780400F1981A981B981C984E
S1135CD81D981E981F98209821881276881A612E7C
S1135CE89DF0E4E8881A768DF0614E61F3ECFD5C72
S1135CF80088219DE8881376881B612E9DF1E4E9CC
S1135D08881B768DF1614E61F3EC175D00F4E98D23
S1135D18E8768DF1612E9DE8E4EA4BF161F3EC2C11
S1135D285D00F4EA8DE96BEA9DE98DE89DF188143C
