S01200004564657369676E44656D6F2E6D6F742B
S10700004D20FFFF8D
S1130004B41EB41EB41EB41EB41EB41EB41EB41E58
S1130014B41EB41EB41EB41EB41EB41EB41EB41E48
S1130024BB18E717B41EB41E761EA81EB41EB41E55
S11300345E0BB41E8E0DB41EB41EB41EB41EB41EC8
S1130044B41EB41EB41EB41EB41EB41EB41EB41E18
S1130054B41EB41EB41EB41EB41EB41EB41EB41E08
S1130064B41EB41EB41EB41EB41EB41EB41EB41EF8
S10F0074B41EB41EB41EB41EB41EB41E90
S10700C0EFFFE984DD
S10D00C4000000000000000000002E
S11300D8AF00EFBDF044040061F8ECB60200ADF0E7
S11300E844040071FF61F3EC340100ADF0440100F5
S11300F861F8ECC90100ADF044010071FF61F3EC53
S11301081A0100ADF044000061F8EC800100EC6FC6
S11301180400ADF044020061F8EC180200ADF044AC
S1130128030061F8EC670200EC6F0400ADF04407CB
S11301380061F8EC910300ADF044070071FF61F32E
S1130148EC660100ADF044050061F8ECFD0200AD79
S1130158F044060061F8EC440300EC6F0400ADF0D1
S113016844080061F8ECDE0300ADF044090061F8CE
S1130178EC2B0400EC6F0400A80444030061E8ECD1
S11301889B0100AF00EFBDF0A6F0ADF0BF00EFECAF
S1130198C50100A80444040061E8ECB0010030047F
S11301A800BF00EFECC50100A80444060061E8ECB8
S11301B8C50100300500BF00EFEC6F0400EC6F04CC
S11301C800A80444030061E8ECE40100AF00EFBDBB
S11301D8F0A6F0ADF0BF00EFEC140200A80444044C
S11301E80061E8ECFF0100AF00EFBDF0B6F0ADF040
S11301F8BF00EFEC140200A80444060061E8EC1404
S11302080200300500BF00EFEC6F0400EC6F04003F
S1130218A80444030061E8EC330200AF00EFBDF02A
S1130228A6F0ADF0BF00EFEC630200A8044404009C
S113023861E8EC4E0200AF00EFBDF0B6F0ADF0BFE0
S113024800EFEC630200A80444060061E8EC6302D2
S113025800300500BF00EFEC6F0400EC6F0400A849
S11302680444030061E8EC820200AF00EFBDF0A68D
S1130278F0ADF0BF00EFECB20200A8044404006142
S1130288E8EC9D0200AF00EFBDF0B6F0ADF0BF00A2
S1130298EFECB20200A80444060061E8ECB20200E4
S11302A8300500BF00EFEC6F0400EC6F0400A804F5
S11302B844030061E8ECC90200F6BF00EFECF90260
S11302C800A80444040061E8ECE40200AF00EFBDB8
S11302D8F0B6F0ADF0BF00EFECF90200A804440654
S11302E80061E8ECF90200300500BF00EFEC6F0490
S11302F800EC6F0400A80444030061E8EC18030050
S1130308AF00EFBDF0A6F0ADF0BF00EFEC40030086
S1130318A80444040061E8EC2D0300300900BF0080
S1130328EFEC400300A80444070061E8EC40030034
S1130338F6BF00EFEC6F0400EC6F0400A80444035C
S11303480061E8EC5F0300AF00EFBDF0A6F0ADF08C
S1130358BF00EFEC8D0300A80444040061E8EC7AC4
S11303680300AF00EFBDF0B6F0ADF0BF00EFEC8DC9
S11303780300A80444070061E8EC8D0300F6BF00FD
S1130388EFEC6F0400EC6F0400A80444030061E878
S1130398ECAC0300AF00EFBDF0A6F0ADF0BF00EF8A
S11303A8ECDA0300A80444040061E8ECC70300AFD6
S11303B800EFBDF0B6F0ADF0BF00EFECDA0300A833
S11303C80444070061E8ECDA0300F6BF00EFEC6FC1
S11303D80400EC6F0400A80444030061E8ECF9038A
S11303E800AF00EFBDF0A6F0ADF0BF00EFEC2704BE
S11303F800A80444040061E8EC140400AF00EFBD55
S1130408F0B6F0ADF0BF00EFEC270400A8044407F1
S11304180061E8EC270400F6BF00EFEC6F0400EC81
S11304286F0400A80444030061E8EC4004003005AC
S113043800BF00EFEC6E0400A80444040061E8EC7B
S11304485B0400AF00EFBDF0B6F0ADF0BF00EFEC19
S11304586E0400A80444070061E8EC6E0400F6BFCB
S113046800EFEC6E04000000D72004A808BDF0B823
S113047800A80ABDF0B802FCBF05004AF00161E813
S1130488ECCF0400A80ABDF001BDF00412EFBDF0E2
S1130498BDF2FAF2ABBDF0A1BDF2A80ABDF001BDF0
S11304A8F00412EFBDF0BDF4DAF4ADF2780000A860
S11304B80ABDF001BDF00402EFBDF0BDF2DAF2F6B8
S11304C8780000EC0E0500A80ABDF001BDF0040296
S11304D8EFBDF0BDF4FAF4ABBDF0A1BDF2A80ABDBE
S11304E8F001BDF00402EFBDF0BDF4DAF4ADF2782A
S11304F80000A80ABDF001BDF00412EFBDF0BDF282
S1130508DAF2F6780000A80ABDF001BDF00412EF93
S1130518BDF0BDF4FAF4ABBDF044E20461E3EC765B
S11305280500A80ABDF001BDF00412EFBDF0BDF24C
S1130538DAF230E304780000A80ABDF001BDF00443
S113054822EFBDF0BDF4FAF4ABBDF044000061E85D
S1130558ECBA0500A80ABDF001BDF00422EFBDF015
S1130568BDF2DAF2E6780000E4F0ECBC0500A80A73
S1130578BDF001BDF00402EFBDF0BDF4FAF4ABBD6B
S1130588F044E20461E3ECBA0500A80ABDF001BD39
S1130598F00422EFBDF0BDF2DAF2F6780000A80A02
S11305A8BDF001BDF00402EFBDF0BDF4DAF4F67855
S11305B80000F4F01004D7A806BDF044030061F865
S11305C8EC6F0600ADF044030071FF61F3EC000624
S11305D800ADF044010061F8EC430600ADF04401BD
S11305E80071FF61F3EC590600ADF044000061F8B6
S11305F8EC320600ECDA0600ADF044050061F8ECD4
S11306089B0600ADF044050071FF61D8EC85060037
S1130618ADF044060061F8ECB10600ADF044070003
S113062861F8ECC70600ECDA0600A804BDF0BDF2D8
S1130638EAF2895C019DF0ECDD0600A804BDF0BD7A
S1130648F2FAF28B9DF0311A9DF05AF001ECDD06B6
S113065800A804BDF0BDF2FAF28B9DF0312A9DF09A
S11306685AF001ECDD0600A804BDF0BDF2FAF28BE5
S11306789DF0313A9DF05AF001ECDD0600A804BD66
S1130688F0BDF2FAF28B9DF0314A9DF05AF001EC7C
S1130698DD0600A804BDF0BDF2FAF28B9DF0315AD4
S11306A89DF05AF001ECDD0600A804BDF0BDF2FA95
S11306B8F28B9DF0316A9DF05AF001ECDD0600A83A
S11306C804BDF0BDF2FAF28B9DF0317A9DF0ECDDB9
S11306D80600CDF0FFD72006880C314A9805880A11
S11306E89DF0980088059DF09802FC0F0700880C7F
S11306F85C0F9805880A9DF0980088059DF098027B
S1130708FC0F07001006D720028806D161F8EC37E1
S11307180700C9F007FFADF0BDF4FAF48B9DF26A47
S1130728F201ADF0DAF48DF2480000EC500700C98C
S1130738F007FFADF0BDF4FAF48B9DF25AF2FEAD6A
S1130748F0DAF48DF2480000C9F007FFADF0BDF40B
S1130758FAF48B9DF25AF2FDADF0DAF48DF248000A
S113076800C9F227FFC9F027FFADF0BDF4FAF48BF6
S11307789DF05AF0F0ADF2BDF4DAF48DF0480000C3
S1130788C9F007FFADF0BDF2FAF28B9DF05C0F9D46
S1130798F28808705100BDF0314DBDF08DF26BF058
S11307A89DF09801C9F007FF88019DF2ADF0BDF4F2
S11307B8DAF48DF2480000C9F007FFADF0BDF4FA91
S11307C8F48B9DF26AF204ADF0DAF48DF24800007D
S11307D8000000000000C9F007FFADF0BDF4FAF412
S11307E88B9DF25AF2FBADF0DAF48DF2480000006A
S11307F800C9F007FFADF0BDF4FAF48B9DF26AF27C
S113080802ADF0DAF48DF24800001002D72004C9D2
S1130818F0E6FFADF0BDF4FAF48B9DF26AF210AD88
S1130828F0DAF48DF248000030983AB800FC2A094E
S113083800F1980051039802FC0F0700300410B827
S113084800FC2A0900F1980051039802FC0F0700E4
S1130858306400B800FC2A0900F19800510398029A
S1130868FC0F0700302800B800FC2A0900F19800A2
S113087851029802FC0F0700302800B800FC2A092E
S113088800F1980051289802FCDE0600302800B8D0
S113089800FC2A0900F19800510E9802FCDE0600BB
S11308A8302800B800FC2A0900F19800E19802FCFD
S11308B8DE0600306806B800FC2A0900F1980051E9
S11308C8069802FCDE0600302800B800FC2A09005D
S11308D8F1980051809802FCDE0600302800B80028
S11308E8FC2A09001004D7C9F0E2FFADF0BDF4FA00
S11308F8F48B9DF25AF2EFADF0DAF48DF248000071
S1130908C9F218FFA804BDF0ADF2BDF4DAF4ADF0F5
S1130918780000C9F0B201ADF0BDF2DAF2E6780071
S113092800D72002A806BDF0B800FCEF0800EC3B95
S1130938090000C9F0E2FFADF0BDF2FAF28B9DF0B8
S1130948314A9DF05AF00161F8EC3A0900FC651D42
S1130958001002D7C9F0F000ADF0BDF4FAF48B9D95
S1130968F26AF220ADF0DAF48DF2480000C9F030F2
S1130978FFADF0BDF2DAF2F1480000C9F0E7FFADCF
S1130988F0BDF4FAF48B9DF26AF201ADF0DAF48D5D
S1130998F2480000C9F0E3FFADF0BDF4FAF48B9D12
S11309A8F25AF2FEADF0DAF48DF2480000C9F0EF25
S11309B8FFADF0BDF4FAF48B9DF26AF201ADF0DA02
S11309C8F48DF2480000C9F0EBFFADF0BDF4FAF481
S11309D88B9DF26AF201ADF0DAF48DF2480000C999
S11309E8F222FFC9F022FFADF0BDF4FAF48B9DF0BA
S11309F86AF007ADF2BDF4DAF48DF0480000C9F0EE
S1130A0830FFADF0BDF2DAF25108480000C9F03207
S1130A18FFADF0BDF4DAF45120480000C9F010002D
S1130A28ADF0BDF2DAF2E1480000C9F01100ADF012
S1130A38BDF4DAF451FF480000C9F01200ADF0BD6E
S1130A48F2DAF2F1480000C9F031FFADF0BDF4DA92
S1130A58F4F1480000C9F030FFADF0BDF4FAF48BAE
S1130A689DF26AF201ADF0DAF48DF2480000D7C9BC
S1130A78F0E3FFADF0BDF4FAF48B9DF25AF2FEAD4B
S1130A88F0DAF48DF2480000C9F0E7FFADF0BDF4E8
S1130A98FAF48B9DF25AF2FEADF0DAF48DF24800C6
S1130AA800C9F030FFADF0BDF4FAF48B9DF26AF2A0
S1130AB880ADF0DAF48DF2480000D7C9F030FFAD0C
S1130AC8F0BDF4FAF48B9DF25AF27FADF0DAF48DAE
S1130AD8F2480000C9F0E7FFADF0BDF4FAF48B9DCD
S1130AE8F26AF201ADF0DAF48DF2480000C9F0E3DD
S1130AF8FFADF0BDF4FAF48B9DF25AF2FEADF0DAD4
S1130B08F48DF2480000D7C9F030FFADF0BDF4FA17
S1130B18F48B9DF26AF201ADF0DAF48DF24800002C
S1130B28D7C9F030FFADF0BDF4FAF48B9DF25AF258
S1130B38FEADF0DAF48DF2480000D7C9F01FFFAD1E
S1130B48F0BDF4FAF48B9DF2A804BDF0BDF4DAF418
S1130B588DF2480000D761CFC1C3C5C7C6C4C2C09F
S1130B6861FC2002C9F0A0FFADF0BDF2DAF2511029
S1130B78480000C9F0A1FFADF0BDF4FAF48B9DF272
S1130B886AF280ADF0DAF48DF2480000C9F0A4FFEF
S1130B98ADF0BDF4FAF48B9DF25AF2EFADF0DAF44D
S1130BA88DF2480000C9F0A1FFADF0BDF4FAF48B52
S1130BB89DF25AF2BFADF0DAF48DF2480000F6B8AF
S1130BC800ECD80B0000A800BDF0A6F0ADF0B8000A
S1130BD8A800BDF044A00061E3ECCD0B00C9F0F31C
S1130BE800ADF0BDF2DAF2F1480000C9F0A4FFAD9F
S1130BF8F0BDF4FAF48B9DF25AF2BFADF0DAF48D3D
S1130C08F2480000C9F0A1FFADF0BDF4FAF48B9DE1
S1130C18F25AF2FEADF0DAF48DF24800001002D771
S1130C282002C9F0A8FFADF0BDF2FAF28B9DF0984E
S1130C38011002D7C9F0F000ADF0BDF4FAF48B9DB1
S1130C48F26AF280ADF0DAF48DF2480000C9F0904F
S1130C58FFADF0BDF2DAF2F6780000C9F0E7FFADB7
S1130C68F0BDF4FAF48B9DF26AF204ADF0DAF48D77
S1130C78F2480000C9F0E3FFADF0BDF4FAF48B9D2F
S1130C88F25AF2FBADF0DAF48DF2480000C9F0EF45
S1130C98FFADF0BDF4FAF48B9DF25AF2FBADF0DA35
S1130CA8F48DF2480000C9F0EBFFADF0BDF4FAF49E
S1130CB88B9DF26AF204ADF0DAF48DF2480000C9B3
S1130CC8F090FFADF0BDF2DAF230FF0F780000D7F4
S1130CD8C9F2E3FFADF2BDF0FAF08B9DF45AF4FBD0
S1130CE8ADF2DAF08DF4480000C9F2E7FFADF2BDC9
S1130CF8F0FAF08B9DF45AF4FBADF2DAF08DF44877
S1130D080000C9F490FFC9F290FFADF2BDF0FAF00B
S1130D18ABBDF28DF26C009DF08DF36C809DF1AD4E
S1130D28F4BDF2DAF2ADF0780000D7C9F2E7FFAD0E
S1130D38F2BDF0FAF08B9DF46AF404ADF2DAF08DAA
S1130D48F4480000C9F2E3FFADF2BDF0FAF08B9D60
S1130D58F45AF4FBADF2DAF08DF4480000C9F490CB
S1130D68FFC9F290FFADF2BDF0FAF0ABBDF28DF21F
S1130D785CFF9DF08DF35C7F9DF1ADF4BDF2DAF27A
S1130D88ADF0780000D761CFC1C3C5C761DFC1C367
S1130D98C5C761CFAF6EEFBDF2A6F2ADF2BF6EEF7D
S1130DA8BDF28DF25C039DF08DF35C009DF1ADF016
S1130DB844000061E8ECC50D00FCDD270061DFC6D6
S1130DC8C4C2C061CFC6C4C2C061FCC9F004FFADCF
S1130DD8F0BDF2DAF2F1480000C9F007FFADF0BD4A
S1130DE8F2DAF2F1480000C9F03000ADF0BDF2DAF1
S1130DF8F25108480000C9F03400ADF0BDF2DAF24F
S1130E08E1480000C9F04000ADF0BDF2DAF2510843
S1130E18480000C9F024FFADF0BDF2DAF251F14800
S1130E280000C9F025FFADF0BDF2DAF251FF480029
S1130E3800C9F027FFADF0BDF2DAF2F1480000D79F
S1130E48C9F0F000ADF0BDF4FAF48B9DF26AF280BB
S1130E58ADF0DAF48DF2480000C9F09DFFADF0BDA5
S1130E68F4FAF48B9DF25AF27FADF0DAF48DF2487D
S1130E780000C9F0E7FFADF0BDF4FAF48B9DF26A07
S1130E88F202ADF0DAF48DF2480000C9F0E3FFADE8
S1130E98F0BDF4FAF48B9DF25AF2FDADF0DAF48D5C
S1130EA8F2480000C9F0EFFFADF0BDF4FAF48B9DF1
S1130EB8F26AF202ADF0DAF48DF2480000C9F0EB00
S1130EC8FFADF0BDF4FAF48B9DF26AF202ADF0DAEC
S1130ED8F48DF2480000C9F09DFFADF0BDF2DAF2DE
S1130EE85108480000C9F092FFADF0BDF4DAF4F1FE
S1130EF8480000C9F093FFADF0BDF2DAF2F1480002
S1130F0800C9F094FFADF0BDF4DAF4F1480000C96B
S1130F18F095FFADF0BDF2DAF25102480000C9F0D5
S1130F2896FFADF0BDF4DAF45111480000C9F0970A
S1130F38FFADF0BDF2DAF25104480000C9F098FFA1
S1130F48ADF0BDF4DAF45117480000D7C9F09DFF9D
S1130F58ADF0BDF4FAF48B9DF26AF280ADF0DAF4E8
S1130F688DF2480000D7C9F09DFFADF0BDF4FAF446
S1130F788B9DF25AF27FADF0DAF48DF2480000D777
S1130F882006F6B804C9F29EFFC9F09EFFADF0BD75
S1130F98F4FAF48B9DF06AF001ADF2BDF4DAF48D45
S1130FA8F0480000F6B800F6B802ECC50F0000A837
S1130FB800040100B800A80261D8A1B802A802443C
S1130FC80000A80061F8443F0161E3ECB60F00C9D2
S1130FD8F09EFFADF0BDF2FAF28B9DF0311A9DF050
S1130FE85AF00161E8ECFA0F00300300B804EC1081
S1130FF81100C9F092FFADF0BDF4FAF48B9DF2A88C
S11310080ABDF0BDF4DAF48DF2480000C9F093FF8C
S1131018ADF0BDF4FAF48B9DF2A80ABDF0DAF08DB8
S1131028F2480100C9F094FFADF0BDF4FAF48B9DC9
S1131038F2A80ABDF0DAF08DF2480200C9F095FF73
S1131048ADF0BDF4FAF48B9DF2A80ABDF0DAF08D88
S1131058F2480400C9F096FFADF0BDF4FAF48B9D94
S1131068F2A80ABDF0DAF08DF2480300C9F097FF40
S1131078ADF0BDF4FAF48B9DF2A80ABDF0DAF08D58
S1131088F2480500C9F098FFADF0BDF4FAF48B9D61
S1131098F2A80ABDF0DAF08DF2480600C9F29EFF04
S11310A8C9F09EFFADF0BDF4FAF48B9DF05AF0FE42
S11310B8ADF2BDF4DAF48DF0480000F6B800F6B8E5
S11310C802ECDC100000A800040100B800A80261CA
S11310D8D8A1B802A802440000A80061F8443F015E
S11310E861E3ECCD1000C9F09EFFADF0BDF2FAF259
S11310F88B9DF0311A9DF05AF0014AF00161E8EC39
S1131108101100300400B804A804BDF01006D7205C
S113111806F6B804C9F29EFFC9F09EFFADF0BDF40F
S1131128FAF48B9DF06AF001ADF2BDF4DAF48DF0B7
S1131138480000F6B800F6B802EC54110000A80004
S1131148040100B800A80261D8A1B802A8024400AA
S113115800A80061F8443F0161E3EC451100C9F0BF
S11311689EFFADF0BDF2FAF28B9DF0311A9DF05A54
S1131178F00161E8EC891100300300B804EC7A123C
S113118800C9F092FF880A9DF2ADF0BDF4DAF48D3F
S1131198F2480000C9F093FF880B9DF2ADF0BDF44E
S11311A8DAF48DF2480000C9F094FF880C9DF2AD82
S11311B8F0BDF4DAF48DF2480000C9F095FF880E0A
S11311C89DF2ADF0BDF4DAF48DF2480000C9F09652
S11311D8FF880D9DF2ADF0BDF4DAF48DF2480000FD
S11311E8C9F097FF880F9DF2ADF0BDF4DAF48DF2E3
S11311F8480000C9F098FF88109DF2ADF0BDF4DAFC
S1131208F48DF2480000C9F29EFFC9F09EFFADF0CC
S1131218BDF4FAF48B9DF05AF0FEADF2BDF4DAF4A5
S11312288DF0480000F6B800F6B802EC461200004B
S1131238A800040100B800A80261D8A1B802A80255
S1131248440000A80061F8443F0161E3EC37120050
S1131258C9F09EFFADF0BDF2FAF28B9DF0311A9DF4
S1131268F05AF0014AF00161E8EC7A120030040007
S1131278B804A804BDF01006D7C9F0F000ADF0BD5D
S1131288F4FAF48B9DF26AF204ADF0DAF48DF248C4
S1131298000000000000C9F02601ADF0BDF2DAF24A
S11312A8301100780000FCB31200D761EFC161CFA0
S11312B8C9E82401C9F62401ADF6BDF0FAF0ABBDC6
S11312C8F68DF66C0C9DF48DF76C009DF5DAE8AD9F
S11312D8F4780000C9F4E6FFADF4BDF2FAF28B9D90
S11312E8F66AF601ADF4BDF0DAF08DF6480000C9EF
S11312F8F4E2FFADF4BDF2FAF28B9DF65AF6FEADB8
S1131308F4BDF0DAF08DF6480000C9F4E6FFADF458
S1131318BDF2FAF28B9DF66AF602ADF4BDF0DAF08E
S11313288DF6480000C9F4E2FFADF4BDF2FAF28B81
S11313389DF65AF6FDADF4BDF0DAF08DF6480000DE
S1131348C9F4E6FFADF4BDF2FAF28B9DF66AF60431
S1131358ADF4BDF0DAF08DF6480000C9F4E2FFAD53
S1131368F4BDF2FAF28B9DF65AF6FBADF4BDF0DA51
S1131378F08DF6480000C9F4EEFFADF4BDF2FAF2C0
S11313888B9DF66AF601ADF4BDF0DAF08DF64800EF
S113139800C9F4EAFFADF4BDF2FAF28B9DF66AF6E1
S11313A801ADF4BDF0DAF08DF6480000C9F4EEFFA3
S11313B8ADF4BDF2FAF28B9DF66AF602ADF4BDF017
S11313C8DAF08DF6480000C9F4EAFFADF4BDF2FA8C
S11313D8F28B9DF66AF602ADF4BDF0DAF08DF648AC
S11313E80000C9F41401ADF4BDF2DAF23022007839
S11313F80000C9F41C01ADF4BDF0DAF03097807830
S11314080000C9F444FFADF4BDF2DAF23000CE783E
S11314180000C9F67000C9F47000ADF4BDF0FAF02C
S11314288B9DF46AF404ADF6BDF2DAF28DF448004B
S113143800C9F40E01ADF4BDF0DAF030070078000D
S113144800C9F41601ADF4BDF2DAF23022017800D5
S113145800C9F41E01ADF4BDF0DAF030974078000D
S113146800C9F446FFADF4BDF2DAF23000CE7800DC
S113147800C9F62801C9F42801ADF4BDF0FAF0ABAF
S1131488BDF48DF46C049DF28DF56C009DF3ADF6FE
S1131498BDF4DAF4ADF2780000C9F43401C9F234C9
S11314A801ADF2BDF0FAF0ABBDF2ADF4BDF0DAF087
S11314B8ADF2780000C9F42A01C9F22A01ADF2BDDF
S11314C8F0FAF0ABBDF28DF26C049DF08DF36C0074
S11314D89DF1ADF4BDF2DAF2ADF0780000C9F26026
S11314E800C9F06000ADF0BDF4FAF48B9DF05AF039
S11314F8F7ADF2BDF4DAF48DF0480000C9F220FF2C
S1131508C9F020FFADF0BDF4FAF48B9DF06AF00841
S1131518ADF2BDF4DAF48DF0480000C9F26000C9F8
S1131528F06000ADF0BDF4FAF48B9DF05AF0FBAD19
S1131538F2BDF4DAF48DF0480000C9F200FFC9F0F6
S113154800FFADF0BDF4FAF48B9DF06AF004ADF23F
S1131558BDF4DAF48DF0480000C9F220FFC9F02088
S1131568FFADF0BDF4FAF48B9DF05AF0FBADF2BD7B
S1131578F4DAF48DF048000061EFC061CFD761EF71
S1131588C161CFC9E82801C9F62801ADF6BDF0FA52
S1131598F0ABBDF68DF66C049DF48DF76C009DF5EB
S11315A8DAE8ADF4780000C9F62A01C9F42A01ADD5
S11315B8F4BDF2FAF2ABBDF48DF46C049DF28DF532
S11315C86C009DF3ADF6BDF4DAF4ADF2780000C911
S11315D8F42201C9F22201ADF2BDF0FAF0ABBDF27A
S11315E88DF26C0C9DF08DF36C009DF1ADF4BDF2A1
S11315F8DAF2ADF0780000C9F0E2FFADF0BDF4FA1C
S1131608F48B9DF25AF2FEADF0DAF48DF248000044
S1131618C9F0E2FFADF0BDF4FAF48B9DF25AF2FD85
S1131628ADF0DAF48DF2480000C9F0E6FFADF0BD84
S1131638F4FAF48B9DF25AF2FEADF0DAF48DF24826
S11316480000C9F0E6FFADF0BDF4FAF48B9DF25A40
S1131658F2FDADF0DAF48DF248000061EFC061CF1D
S1131668D7C9F4E6FFADF4BDF0FAF08B9DF66AF63F
S113167801ADF4BDF2DAF28DF6480000C9F4E6FFD4
S1131688ADF4BDF0FAF08B9DF66AF602ADF4BDF246
S1131698DAF28DF6480000C9F62401C9F42401AD34
S11316A8F4BDF0FAF0ABBDF48DF46C0C9DF28DF53D
S11316B86C009DF3ADF6BDF4DAF4ADF2780000C920
S11316C8F42A01C9F22A01ADF2BDF0FAF0ABBDF279
S11316D88DF25CFB9DF08DF35CFF9DF1ADF4BDF2E2
S11316E8DAF2ADF0780000C9F0E2FFADF0BDF4FA2B
S11316F8F48B9DF25AF2FEADF0DAF48DF248000054
S1131708C9F0E2FFADF0BDF4FAF48B9DF25AF2FD94
S1131718ADF0DAF48DF2480000D72002F6B800A83C
S11317280844000061E8EC3B1700308100B800EC85
S11317384D1700F6BFDAEFA808BDF0BFD8EFA8062A
S1131748BDF0BFDCEFA800BDF01002D72002F6B848
S113175800A80844000061E8EC6D1700308100B867
S113176800ECE01700A806BDF0BFDEEFA808BDF046
S1131778BFE0EFC9F0E6FFADF0BDF4FAF48B9DF2DB
S11317886AF201ADF0DAF48DF2480000C9F244FFC0
S1131798AFDEEFBDF0BDF4FAF48B9DF0ADF2BDF40D
S11317A8DAF48DF0480000AFDEEFBDF0A6F0ADF03E
S11317B8BFDEEFAFE0EFBDF0B6F0ADF0BFE0EFC9CC
S11317C8F0E6FFADF0BDF4FAF48B9DF25AF2FEADEB
S11317D8F0DAF48DF2480000A800BDF01002D761D9
S11317E8CFC1C3C5C761DFC1C3C5C761CF2004C9A1
S11317F8F00601ADF0BDF2FAF2ABBDF08DF05C0776
S11318089803C9F20E018803705100BDF0ADF2BD12
S1131818F4DAF4ADF07800008803D161F8EC3318F9
S11318280088039DF09800FC291900C9F046FFAD13
S1131838F0BDF2FAF28B9DF09802AFD8EFBDF2AF8B
S1131848DAEFBDF0ADF246F061E3EC9E1800AFDCD0
S1131858EFBDF088029DF2ADF0BDF4DAF48DF248E4
S11318680000AFDCEFBDF0A6F0ADF0BFDCEFAFDAFF
S1131878EFBDF0A6F0ADF0BFDAEFAFD8EFBDF2AF31
S1131888DAEFBDF0ADF246F061E8ECAB1800FC20ED
S11318981900ECAB18008802705100BDF0B800FCC8
S11318A8241900100461DFC6C4C2C061CFC6C4C213
S11318B8C061FC61CFC1C3C5C761DFC1C3C5C7610E
S11318C8CFAFE0EFBDF044000061F8EC0E1900C999
S11318D8F244FFAFDEEFBDF0BDF4FAF48B9DF0AD3A
S11318E8F2BDF4DAF48DF0480000AFDEEFBDF0A6E7
S11318F8F0ADF0BFDEEFAFE0EFBDF0B6F0ADF0BF96
S1131908E0EFEC121900FC25190061DFC6C4C2C05F
S113191861CFC6C4C2C061FCE5E3EFD7D7E519F0CF
S1131928D7D761EFC1C3C561CF2034C9F0F000AD8A
S1131938F0BDF2FAF28B98316C019830ADF0DAF21E
S11319488830480000C9F0B601ADF0BDF2DAF230D3
S11319584200780000C9F0B401ADF0BDF2DAF2300B
S1131968FF0A780000C9F0E6FFADF0BDF2FAF28B89
S1131978982F6C10982EADF0DAF2882E480000C922
S1131988F0E2FFADF0BDF2FAF28B982D5CEF982CE3
S1131998ADF0DAF2882C480000C9F0E6FFADF0BDDE
S11319A8F2FAF28B982B6C20982AADF0DAF2882A96
S11319B8480000C9F0E2FFADF0BDF2FAF28B9829B5
S11319C85CDF9828ADF0DAF28828480000C9F0E511
S11319D8FFADF0BDF2FAF28B98276C809826ADF033
S11319E8DAF28826480000C9F0E1FFADF0BDF2FA4A
S11319F8F28B98255C7F9824ADF0DAF288244800AD
S1131A0800C9F0E6FFADF0BDF2FAF28B98236C4002
S1131A189822ADF0DAF28822480000C9F0E2FFAD5E
S1131A28F0BDF2FAF28B98215CBF9820ADF0DAF29F
S1131A388820480000C9F0E6FFADF0BDF2FAF28B49
S1131A48981F6C80981EADF0DAF2881E480000C911
S1131A58F0E2FFADF0BDF2FAF28B981D5C7F981CA2
S1131A68ADF0DAF2881C480000C9F0E6FFADF0BD1D
S1131A78F2FAF28B981B6C04981AADF0DAF2881A11
S1131A88480000C9F0E2FFADF0BDF2FAF28B9819F4
S1131A985CFB9818ADF0DAF28818480000C9F0E742
S1131AA8FFADF0BDF2FAF28B98176C809816ADF082
S1131AB8DAF28816480000C9F0E3FFADF0BDF2FA87
S1131AC8F28B98155C7F9814ADF0DAF2881448000C
S1131AD800C9F0D4FFADF0BDF2FAF28B98136C0193
S1131AE89812ADF0DAF28812480000C9F0D0FFADC0
S1131AF8F0BDF2FAF28B98115CFE9810ADF0DAF2B0
S1131B088810480000C9F0D4FFADF0BDF2FAF28B9A
S1131B18980F6C02980EADF0DAF2880E480000C9EE
S1131B28F0D0FFADF0BDF2FAF28B980D5CFD980C85
S1131B38ADF0DAF2880C480000C9F0D4FFADF0BD6E
S1131B48F2FAF28B980B6C04980AADF0DAF2880A70
S1131B58480000C9F0D0FFADF0BDF2FAF28B980945
S1131B685CFB9808ADF0DAF28808480000C9F0EE8A
S1131B78FFADF0BDF2FAF28B98075CEF9806ADF072
S1131B88DAF28806480000C9F0EAFFADF0BDF2FABF
S1131B98F28B98055CEF9804ADF0DAF288044800FB
S1131BA800C9F0EEFFADF0BDF2FAF28B98036C2099
S1131BB89802ADF0DAF28802480000C9F0EAFFADF5
S1131BC8F0BDF2FAF28B98016C209800ADF0DAF2CD
S1131BD88800480000C9F09001ADF0BDF2DAF23097
S1131BE80080780000C9F018FFADF0BDF2DAF230D9
S1131BF8FFF978000030B801B832C9F0B801ADF087
S1131C08BDF2FAF2ABBDF08DF05CFE9DEC8DF15C9B
S1131C18FF9DEDA832BDF0DAF0ADEC780000C9EC18
S1131C28BA01C9F0BA01ADF0BDF2FAF2ABBDF08D5C
S1131C38F05CFE9DEA8DF15CFF9DEBDAECADEA7891
S1131C480000C9F09201ADF0BDF2DAF2F6780000B6
S1131C58C9F01AFFADF0BDF2DAF2303F9C7800000B
S1131C68C9EABE01C9F0BE01ADF0BDF2FAF2ABBDDE
S1131C78F08DF05CFD9DE88DF15CFF9DE9DAEAAD3D
S1131C88E8780000C9E8BC01C9F0BC01ADF0BDF2B8
S1131C98FAF2ABBDF08DF05CFD9DF68DF15CFF9D15
S1131CA8F7DAE8ADF6780000C9F6B801C9F0B8016A
S1131CB8ADF0BDF2FAF2ABBDF08DF05CFD9DF48D94
S1131CC8F15CFF9DF5ADF6BDF0DAF0ADF4780000F7
S1131CD8C9F4BA01C9F0BA01ADF0BDF2FAF2ABBD6C
S1131CE8F08DF05CFD9DF28DF15CFF9DF3ADF4BDCC
S1131CF8F0DAF0ADF2780000103461EFC4C2C061CC
S1131D08CFD7C9F2E2FFADF2BDF0FAF08B9DF45AD9
S1131D18F4EFADF2DAF08DF4480000C9F2E6FFAD55
S1131D28F2BDF0FAF08B9DF45AF4EFADF2DAF08DCF
S1131D38F4480000C9F4B201C9F2B201ADF2BDF031
S1131D48FAF0ABBDF28DF26C019DF08DF36C009D41
S1131D58F1ADF4BDF2DAF2ADF0780000D7C9F4B40D
S1131D6801C9F2B401ADF2BDF0FAF0ABBDF28DF2E7
S1131D786C019DF08DF36C009DF1ADF4BDF2DAF2C7
S1131D88ADF0780000C9F0E6FFADF0BDF4FAF48BCD
S1131D989DF26AF210ADF0DAF48DF2480000C9F051
S1131DA8E2FFADF0BDF4FAF48B9DF25AF2EFADF018
S1131DB8DAF48DF2480000D7C9F2E2FFADF2BDF0C3
S1131DC8FAF08B9DF45AF4DFADF2DAF08DF44800A2
S1131DD800C9F2E6FFADF2BDF0FAF08B9DF45AF4B7
S1131DE8DFADF2DAF08DF4480000C9F4B201C9F2AB
S1131DF8B201ADF2BDF0FAF0ABBDF28DF26C029D0A
S1131E08F08DF36C009DF1ADF4BDF2DAF2ADF0782B
S1131E180000D7C9F4B401C9F2B401ADF2BDF0FAB7
S1131E28F0ABBDF28DF26C029DF08DF36C009DF168
S1131E38ADF4BDF2DAF2ADF0780000C9F0E6FFAD1A
S1131E48F0BDF4FAF48B9DF26AF220ADF0DAF48D69
S1131E58F2480000C9F0E2FFADF0BDF4FAF48B9D3E
S1131E68F25AF2DFADF0DAF48DF2480000D761CF10
S1131E78C1C3C5C761DFC1C3C5C761CF2004E6BFFD
S1131E88A4EF30C4A7B800300600B802FC54170009
S1131E98100461DFC6C4C2C061CFC6C4C2C061FC3D
S1131EA861CFC1C3C5C7C6C4C2C061FC61CFC1C3C9
S1131EB8C5C7C6C4C2C061FCC9F07700ADF0BDF2A5
S1131EC8DAF2F1480000FC280C00FC6A0B00FCD391
S1131ED80D00FC811200FC5C0900FC2A1900FC4876
S1131EE80E00FC3C0C00C9F07800ADF0BDF2DAF24B
S1131EF8F1480000D72002717BFAFCC01E00E6B846
S1131F0800BDF01002D7200EFC472000FCB31200DD
S1131F18FC861500FC3C0C00FC150800305765B81D
S1131F2804306C63B806306F6DB80830650DB80AB4
S1131F38300A00B80CC9F00E00AEF8BDF0040E006B
S1131F48BDF004F6FFB800300900B802FC541700CD
S1131F5830E4EFB800E6B802FC221700ADF0BF1A6F
S1131F68F0FC0F0B0000C9F030FFADF0BDF2FAF23F
S1131F788B9DF0317A9DF0D4F061E8EC6E1F00304F
S1131F8805FFB800300500B802FC710400D4F06104
S1131F98F8ECAB1F0030CBA7B800300300B802FC44
S1131FA85417003005FFB800300400B802FC71046F
S1131FB800D4F061F8ECCF1F0030CFA7B80030038D
S1131FC800B802FC5417003005FFB800300300B80D
S1131FD802FC710400D4F061F8ECF31F0030D3A7BD
S1131FE8B800300300B802FC5417003005FFB800ED
S1131FF8300200B802FC710400D4F061F8EC172038
S11320080030D7A7B800300300B802FC5417008F7B
S1132018E3EF9DF0D4F061F8EC432000F5E3EF8F93
S1132028E4EF9DF09800FCAB200030E4EFB800E644
S1132038B802FC221700ADF0BF1AF0EC691F00715A
S11320487AFAD74D20CBF8DCFE410061CF34D800B2
S11320583600EF61DF3600EF3000EF27311E440011
S113206800DD0EB161CF11A9BBA5A5A7A761DFEF5C
S1132078ED61CF3600EF30000061DF3054F02731D6
S11320881E440000DD0AB161CFBBA7A761DFEFF1F1
S113209861CFFCFD1E0000300000C1C1C1FC0E1F51
S11320A800EFFE200488084C2461E8ECD52000AF3A
S11320B8A2EFBDF088089DF2DAF04870EFAFA2EF06
S11320C8BDF0A6F0ADF0BFA2EFEC8E210088084C5D
S11320D80A61E8EC382100AFA2EFBDF0B6F0ADF02C
S11320E80470EF168B9DF04AF00D61E8EC25210091
S11320F8AF34EFBDF044000061E8EC252100AFA245
S1132108EFBDF088089DF2DAF04870EFAFA2EFBD9A
S1132118F0A6F0DAF0F14870EFFC952100F4F08DA8
S1132128F09F70EFF6BFA2EFF6BF34EFEC8E2100FC
S1132138AF34EFBDF044000061E8EC8E2100AFA29B
S1132148EFBDF044000061E8EC74210088084C24D9
S113215861F8EC74210030DBA7B800300700B8023E
S1132168FC541700E6BF34EFEC8E2100AFA2EFBD9C
S1132178F088089DF2DAF04870EFAFA2EFBDF0A640
S1132188F0ADF0BFA2EF88089DF01004D7202AFC18
S1132198752700ADF044000061F8EC6027008F71EA
S11321A8EF9DF0CDF100ADF044330061F8EC12235B
S11321B800ADF044330071FF61F3ECED2100ADF0A4
S11321C844310061F8EC862200ADF044310071FF1F
S11321D861F3ECDE2200ADF044300061F8EC2E220D
S11321E800EC1B2700ADF044440061F8EC602300C8
S11321F8ADF044440071FF61F3EC142200ADF044E7
S1132208420061F8EC132700EC1B2700ADF04445AD
S11322180061F8ECA02600ADF0444C0061F8ECFB3A
S11322282300EC1B2700AF68EFBDF044010061E810
S1132238EC48220051309827F6BF68EFEC4C220096
S113224851339827510D9828510A982951249F36BB
S1132258EF51309F37EFF538EF3036EFB800C9F05B
S11322682A00AEF8BDF0042A00BDF004FDFFB80250
S1132278FC3E2C00300500BFA2EFEC602700AF68DD
S1132288EFBDF044000061E8ECA02200513098272B
S1132298E6BF68EFECA4220051339827510D982823
S11322A8510A982951249F36EF51319F37EFF53859
S11322B8EF3036EFB800C9F22A00AEF8BDF2042AAE
S11322C800BDF204FDFFB802FC3E2C00300500BF3F
S11322D8A2EFEC60270030A6EFB8003072EFB80226
S11322E8FC8C2C0051249F36EF51329F37EF51302C
S11322F89F38EF510D9F39EF510A9F3AEFF53BEFA5
S1132308300500BFA2EFEC60270051249F36EF513F
S1132318339F37EF51309F38EF51319F39EF51399F
S11323289F3AEF51319F3BEF51319F3CEF51399F19
S11323383DEF51309F3EEF51339F3FEF51389F405F
S1132348EF510D9F41EF510A9F42EFF543EF300DD6
S113235800BFA2EFEC60270030A6EFB800FCB32C56
S113236800ADF044200061F3ECAE230051249F3605
S1132378EF51449F37EF51309F38EF510D9F39EF9C
S1132388510A9F3AEFF53BEF300500BFA2EFF6BFC5
S11323986CEFE6BF6AEFF6BF6EEFFCD80C00FCDD0D
S11323A82700EC602700F19800E19802FCDE0600A3
S11323B8306806B800FC2A0900F198005180980298
S11323C8FCDE0600306806B800FC2A090051249F88
S11323D836EF51449F37EF51339F38EF510D9F39F2
S11323E8EF510A9F3AEFF53BEF300500BFA2EFEC3F
S11323F86027008F72EF9DF04AF03061E8EC7A2490
S113240800C9F004FFADF0BDF4FAF48B9DF25AF262
S1132418FDADF0DAF48DF2480000C9F004FFADF028
S1132428BDF4FAF48B9DF25AF2FBADF0DAF48DF2B6
S1132438480000C9F004FFADF0BDF4FAF48B9DF236
S11324485AF2F7ADF0DAF48DF248000051249F36C1
S1132458EF514C9F37EF51309F38EF510D9F39EFB3
S1132468510A9F3AEFF53BEF300500BFA2EFEC9C11
S113247826008F72EF9DF04AF03161E8ECF92400F0
S1132488C9F004FFADF0BDF4FAF48B9DF25AF2FDE5
S1132498ADF0DAF48DF2480000C9F004FFADF0BDE8
S11324A8F4FAF48B9DF25AF2FBADF0DAF48DF248AB
S11324B80000C9F004FFADF0BDF4FAF48B9DF26A94
S11324C8F208ADF0DAF48DF248000051249F36EF9B
S11324D8514C9F37EF51309F38EF510D9F39EF51D1
S11324E80A9F3AEFF53BEF300500BFA2EFEC9C26BC
S11324F8008F72EF9DF04AF03261E8EC782500C94C
S1132508F004FFADF0BDF4FAF48B9DF26AF202AD6B
S1132518F0DAF48DF2480000C9F004FFADF0BDF420
S1132528FAF48B9DF25AF2FBADF0DAF48DF248001E
S113253800C9F004FFADF0BDF4FAF48B9DF25AF231
S1132548F7ADF0DAF48DF248000051249F36EF51CC
S11325584C9F37EF51309F38EF510D9F39EF510A97
S11325689F3AEFF53BEF300500BFA2EFEC9C260045
S11325788F72EF9DF04AF03361E8ECF72500C9F05B
S113258804FFADF0BDF4FAF48B9DF25AF2FDADF000
S1132598DAF48DF2480000C9F004FFADF0BDF4FA96
S11325A8F48B9DF26AF204ADF0DAF48DF24800007F
S11325B8C9F004FFADF0BDF4FAF48B9DF25AF2F7BA
S11325C8ADF0DAF48DF248000051249F36EF514CF7
S11325D89F37EF51309F38EF510D9F39EF510A9FC4
S11325E83AEFF53BEF300500BFA2EFEC9C26008FD5
S11325F872EF9DF04AF03461E8EC762600C9F004E5
S1132608FFADF0BDF4FAF48B9DF26AF202ADF0DA94
S1132618F48DF2480000C9F004FFADF0BDF4FAF4FB
S11326288B9DF26AF204ADF0DAF48DF2480000C929
S1132638F004FFADF0BDF4FAF48B9DF25AF2F7AD55
S1132648F0DAF48DF248000051249F36EF514C9F84
S113265837EF51309F38EF510D9F39EF510A9F3AA8
S1132668EFF53BEF300500BFA2EFEC9C26005124A8
S11326789F36EF514C9F37EF51329F38EF510D9FE2
S113268839EF510A9F3AEFF53BEF300500BFA2EF4F
S1132698EC602700EC602700FCE328008F51F09DD4
S11326A8F0705100BDF28F52F09DF0CDF100C9F4E5
S11326B82A00AEF8BDF4042A00BDF404DFFFB80014
S11326C830E3A7B802ADF2B804ADF0B806FC112C9B
S11326D8003036EFB800C9F02A00AEF8BDF0042A7D
S11326E800BDF004DFFFB802FC8C2C00C9F22A00FC
S11326F8AEF8BDF2042A00BDF204DFFFB800FCB353
S11327082C00ADF0BFA2EFEC602700FCA72900EC79
S113271860270051249F36EFF537EF3036EFB800C5
S11327283071EFB802FC3E2C003036EFB800FCB331
S11327382C00ADF00436EFBDF0BDF4DAF4513148A5
S11327480000DAF0510D480100510A480200F1482E
S11327580300300500BFA2EFAFA2EFBDF03036EFA3
S1132768B800ADF0B802FC541700102AD7200C307A
S113277870EFB800FCB32C00B6F0ADF00470EF169F
S11327888B9DF04AF00A61F8ECD32700512498078E
S11327988F71EF9DF0980851329809510D980A519C
S11327A80A980B3070EFB800C9F00C00AEF8BDF011
S11327B8040C00BDF004FBFFB802FC8C2C003005AF
S11327C800BFA2EFF6B804ECD62700E6B804A804C4
S11327D8BDF0100CD761EFC161CF2006AF6AEFBD21
S11327E8F044000061F8EC9E2800F19800E198029A
S11327F8FCDE0600306806B800FC2A0900F19800DF
S113280851809802FCDE0600306806B800FC2A09EC
S113281800AF6CEFBDF0B804EC772800AF6CEFBDE7
S1132828F0040800BDF2A804BDF0ADF246F061E87A
S1132838EC502800F1980051C09802FCDE060030E4
S11328486806B800FC2A0900A80404A6EFBDF0BD78
S1132858F2FAF28B9DF0E198008DF09802FCDE0606
S113286800302800B800FC2A0900A804A1B804A86C
S113287804BDE830A6EFB800FCB32C00B6F0B6F0FF
S1132888ADE846F061D8EC242800AF6CEFBDF0A6A3
S1132898F0ADF0BF6CEFAF6CEFBDF0BDE830A6EF64
S11328A8B800FCB32C00ADF004EFFFBDF0ADE84672
S11328B8F061C8ECD3280030A6EFB800FCB32C00B4
S11328C8ADF044120061F3ECDB2800F6BF6AEFFCBC
S11328D8330D00100661EFC061CFD72002C9F03173
S11328E8FFADF0BDF2DAF2F1480000FC770A00000F
S11328F8C9F030FFADF0BDF2FAF28B9DF0317A9D4C
S1132908F0D4F061E8ECF82800FC770A0000C9F07C
S113291830FFADF0BDF2FAF28B9DF0317A9DF0D420
S1132928F061E8EC1629003051F0B800FC430B00C4
S11329388F51F09DF0311A9DF09F51F0C9F031FF8D
S1132948ADF0BDF2DAF25102480000FC770A00004B
S1132958C9F030FFADF0BDF2FAF28B9DF0317A9DEB
S1132968F0D4F061E8EC582900FC770A0000C9F0BB
S113297830FFADF0BDF2FAF28B9DF0317A9DF0D4C0
S1132988F061E8EC7629003052F0B800FC430B0003
S11329988F52F09DF0312A9DF09F52F01002D720FB
S11329A81CF19813F19814F19815F19816F19817E9
S11329B8F19818300400BFA2EFF6B81AEC872A0081
S11329C8AEF8BDF2041300BDF0A81A06F0BDF0BDC0
S11329D8F4FAF48B9DF2AFA2EFBDF00470EF168BFE
S11329E89DF0768DF2610E9DF00CD09DF2AEF8BD8F
S11329F8F4041300BDF0A81A06F0BDF0BDF4DAF42F
S1132A088DF2480000AFA2EFBDF0A6F0ADF0BFA272
S1132A18EFBDF00470EF168B9DF04AF02C61E8ECE2
S1132A28402A00A81AA1B81AAFA2EFBDF0A6F0ADCB
S1132A38F0BFA2EFEC872A00AFA2EFBDF00470EF5D
S1132A48168B9DF04AF00D61F8EC872A00AEF8BDAC
S1132A58F2041300BDF0A81A06F0BDF0BDF4FAF4B0
S1132A688B9DF031499DF2AEF8BDF4041300BDF01E
S1132A78A81A06F0BDF0BDF4DAF48DF2480000AFF0
S1132A88A2EFBDF00470EF168B9DF04AF00D61E8DB
S1132A98ECC8290088139DF0981288149DF09811A9
S1132AA888159DF0980F88169DF0980E88179DF04C
S1132AB8980D88189DF0980CF1981988139DF0CDFD
S1132AC8F100C9F21C00AEF8BDF2041C00BDF2040A
S1132AD8ECFFB80030F4A7B802ADF0B804FC112C30
S1132AE800C9F41C00AEF8BDF4041C00BDF404ECE9
S1132AF8FFB800FCB32C00ADF0BFA2EF3036EFB83E
S1132B0800C9F01C00AEF8BDF0041C00BDF004ECD4
S1132B18FFB802FC8C2C008819D161E8EC442B0026
S1132B28A80CBDF0B800A80EBDF0B802A810BDF0FE
S1132B38B80488129DF09806FC171100101CD7A839
S1132B4804BDF0BDF2FAF28B9DF04AF09961E3EC12
S1132B58622B00CDF002ECF82B00A804A1BDF0BD57
S1132B68F2FAF28B9DF04AF01261E3EC7E2B00CD71
S1132B78F002ECF82B00A804040200BDF0BDF2FA40
S1132B88F28B9DF04AF03161E3EC9C2B00CDF0020E
S1132B98ECF82B00A804040300BDF0BDF2FAF28B94
S1132BA89DF04AF02461E3ECBA2B00CDF002ECF876
S1132BB82B00A804040400BDF0BDF2FAF28B9DF0CA
S1132BC84AF06061E3ECD82B00CDF002ECF82B005E
S1132BD8A804040500BDF0BDF2FAF28B9DF04AF09A
S1132BE86061E3ECF62B00CDF002ECF82B00F4F076
S1132BF8D7A806BDF2FAF2ABBDF0DAF2A17800006C
S1132C08ADF0128804480000D72008A80EB8003098
S1132C18F92BB802AEF8040C00B804AEF8040C00A2
S1132C28040400B806FCDC2C00A80CBDF2DAF2F1AE
S1132C384800001008D761EFC161CFA806BDF0BDF8
S1132C48F2EAF089D161F8EC842C00A6F2ADF21412
S1132C5889D161E8EC532C00A808BDF4ADF4168BB7
S1132C689DF6ADF2128DF6480000A6F2A6F4D4F64D
S1132C7861E8EC642C0061EFC061CFD7ADF0BDF220
S1132C88EC602C00A804BDF2A806BDF0ADF0168BCC
S1132C989DF4ADF2128DF4480000A6F2A6F0D4F427
S1132CA861E8EC942C00A804BDF0D7A804BDF2BDDB
S1132CB8F0EAF289D161F8ECD72C00A6F0ADF01453
S1132CC889D161E8ECC32C00ADF026F2BDF0D7C978
S1132CD8F00000D761EFC1C3C561CF20E0F6B82C7E
S1132CE8AEF804DF00B814A8EAA1BDEAA8EA168B76
S1132CF89DF04AF02561F8EC342D00D4F061F8EC2D
S1132D08DF38008DF09800A8EEB802A8EC1261DA5A
S1132D18FBF8FF61792CADEAB8EAA1BDEAA8EA1686
S1132D288B9DF04AF02561E8EC032D00ADEA168B83
S1132D389DEC4AEC2561F8EC6A3900F19831984E1B
S1132D4888319837883198364AEC2B61F8EC8A2D0B
S1132D58004AEC2B61F3EC922D004AEC2061F8EC6C
S1132D686930004AEC2361E8ECB82D00FBF8FF61F8
S1132D78594EA6EAFAEA8B9DEC4AEC2B61E8EC5929
S1132D882D008DEC9836EC7A2D004AEC2D61F8EC88
S1132D98AE2D004AEC3061E8ECB82D00FBF8FF6179
S1132DA85931EC7A2D00FBF8FF615937EC7A2D0084
S1132DB8ADEABDF04AEC2A61F8ECB538008DEC0CAC
S1132DC8D09DF0F6B8384AF00961F3EC1A2E008D5C
S1132DD8EC9DF2A838BDF0ADF001BDF0312DBDF485
S1132DE8ADF006F4BDF0A6EACDF300ADF204D0FFD1
S1132DF8BDF2ADF006F2BDF0FAEA8B9DF20CD09D5F
S1132E08F34AF30961E3ECDF2D008DF29DECADF09C
S1132E18B8388837D161F8EC262E00F198314AEC9D
S1132E282E61F8EC543800C9E8FFFF4AEC6861F8F1
S1132E38EC4638004AEC6C61F8ECDB30004AEC4CA8
S1132E4861F8ECDB30008DEC982EF4F0ADEAA1B813
S1132E58EA882E4C6661F8ECF43000882E4C6661E2
S1132E68E3EC7A3000882E4C6F61F8EC4D3D008815
S1132E782E4C6F61E3ECED3800882E4C7361F8EC4E
S1132E88CA3C00882E4C7361E3EC594000882E4CF0
S1132E987561F8EC554200882E4C7861E8EC92395B
S1132EA800301AA8B816A8F016ABB83CD4F061F8EC
S1132EB8EC733C00A8F016AC02B83EA8F004040079
S1132EC8B8F0882E4C6F61F8EC8A3C00882E4C755B
S1132ED861F8ECFD4000301000B832F6B834F198CF
S1132EE836FBF8FF30000061293CBDF43000006176
S1132EF8D8B161293EBDF6883C6BF49842883D6B95
S1132F08F59843883E6BF69844883F6BF79845A834
S1132F1844317A9DF4300000BDF69DF58DF49DECA6
S1132F28ADE844000061E8EC683A00D4EC61E8ECF0
S1132F38683A00AEF804DF00BDEAADE8BDF0ADF0D4
S1132F48BDE8A83846E871FF7177E961D8ECC63066
S1132F5800A83826E8BDEC883676F1612E9DF08805
S1132F68366BF0317A318FBDF0ADEC26F0B81688A7
S1132F7837D161E8ECD52F00A816B1B81E4400007B
S1132F8871FF61D8EC044100A81EBDECADEAB82A73
S1132F98ADE8B82EA8ECBDE8A8EEBDEA512098002B
S1132FA8ADEAB802DAE861DAB6ECADEC44FFFF61E9
S1132FB8E8ECA42F00A82ABDEAA82EBDE8A816BDEF
S1132FC8F0A81E26F0B816A82C06F0B82C8836D11E
S1132FD861E8EC283A00ADE844000071FF61E3ECD5
S1132FE8233000ADEABDEC06E8BDEAADE8B81EAD95
S1132FF8ECBDE8A8EEBDECFAE88B9800ADECB8029D
S1133008A8EC1261DAA6E8ADE846EA61E8ECFF2F1D
S113301800A81EBDE8A82C06E8B82C8837D161F8AA
S1133028ECEF2C00A816B1BDE844000071FF61D88C
S1133038ECEF2C00A8ECBDEAA8EEBDEC51209800FA
S1133048ADECB802DAEA61DAB6E8ADE844FFFF614C
S1133058E8EC443000A81616A82C07B82CECEF2C82
S1133068008836D161E8EC7A2D008DEC9836EC7A3C
S11330782D00882E4C5861F8EC554200882E4C5887
S113308861F3EC2E3900882E4C4561F8EC0F3A00B8
S1133098882E4C4761F8EC9E3900882ED161E8EC03
S11330A8923900C9E80300ADEAB8EAC9EA2BA8A82E
S11330B83846E871FF7177E961C8EC592F00F6B812
S11330C8168837D161E8ECD52F0030FFFFB816EC2D
S11330D8D52F00FAEA8C01982EA6EAE4F0ADEAA10D
S11330E8B8EA882E4C6661E8EC632E00A4F0ADE8DB
S11330F8C9EC000044000071FF61D8EC664200F19D
S1133108982ED4F061F8ECBF3900A8F0040400BD8F
S1133118EAA8F016ABB800A8F016AC02B802FC7125
S113312842008DF0981E8DF1981F8DF298208DF332
S113313898218DF498228DF598238DF698248DF78F
S113314898258DF098168DF198178DF298188DF3AF
S113315898198DF4981A8DF5981B8DF6981C8DF78F
S1133168981DADEAB8F0F4F088169800881798010D
S11331788818980288199803881A9804881B98054F
S1133188881C9806881D98078DF098089809980A4D
S1133198980B980C980D980EF1980FFCF680008DFA
S11331A8F0D171FF61D8ECFB3F00AEF8045A00BDC2
S11331B8F4A83806F4BDEAF4F0CDF6F088169800C1
S11331C8881798018818980288199803881A980407
S11331D8881B9805881C9806881D98078DF0980800
S11331E89809980A980B980C980D8DF6980E513FEB
S11331F8980FFC0F80008DF0F4F0D171FF61D8ECCA
S1133208933D00CDF3E0CDF476CDF548CDF6378D7A
S1133218F3980B8DF4980C8DF5980D8DF6980E5146
S113322842980FFC0F8000F6B8408DF0D171FF6111
S1133238D8EC203300ADE8B82AA840BDE888169831
S113324800881798018818980288199803881A988A
S113325804881B9805881C9806881D9807F1980807
S1133268F19809F1980A5120980B515F980C51A0D4
S1133278980D5102980E5142980FFC5273008DF02C
S1133288981E8DF1981F8DF298208DF398218DF456
S113329898228DF598238DF698248DF798258DF02E
S11332A898168DF198178DF298188DF398198DF456
S11332B8981A8DF5981B8DF6981C8DF7981DADE816
S11332C8040A00BDE8CDF3E0CDF476CDF548CDF69B
S11332D837881698008817980188189802881998CA
S11332E803881A9804881B9805881C9806882598CA
S11332F8078DF3980B8DF4980C8DF5980D8DF69831
S11333080EFC0F80008DF0D171FF61C8EC453200CE
S1133318ADE8B840A82ABDE8F4F0CDF6248816989C
S113332800881798018818980288199803881A98A9
S113333804881B9805881C9806881D98078DF098A2
S1133348089809980A980B980C980D8DF6980E51C0
S113335840980FFC0F80008DF0D171FF61D8EC29E3
S11333683400ADE8B82AA840BDE888169800881744
S113337898018818980288199803881A9804881B51
S11333889805881C9806881D9807F19808F19809EB
S1133398F1980AF1980BF1980CF1980D5124980EB4
S11333A85140980FFC5273008DF0981E8DF1981FB0
S11333B88DF298208DF398218DF498228DF5982319
S11333C88DF698248DF798258DF098168DF1981719
S11333D88DF298188DF398198DF4981A8DF5981B19
S11333E88DF6981C8DF7981DA6E8881698008817FE
S11333F898018818980288199803881A9804881BD1
S11334089805881C980688259807FC0F80008DF07D
S1133418D171FF61C8EC723300ADE8B840A82ABD89
S1133428E8ADEC44000061F8ECD63B00A840BDECE4
S1133438ADE846EC71FF7177ED61E3EC563400AD0D
S1133448EC44FCFF71FF71C061C8EC8B4000B6E826
S1133458884ED161E8ECD63B00E1984E984F882E0F
S1133468D161F8ECE23B00ADEABDECC9F00000AD77
S1133478E846F071FF7177F161D8EC483600ADE8A1
S1133488B83AADECB82AADEAB854ADF0BDECECD31B
S11334983400A83A44000061E8ECAE3400884ED108
S11334A861F8EC233600A82ABDF6A6F6DAF6512E02
S11334B8480000A82A040200B82AA6ECA83A46EC58
S11334C871FF7177ED61D8EC38360088169800885A
S11334D81798018818980288199803881A980488F4
S11334E81B9805881C9806881D9807FC618400AD04
S11334F8F0B826ADF2B828ADF0BDE88827317B9D39
S1133508EA9DEBADE8B800ADEAB802FCC282008DD2
S1133518F0981E8DF1981F8DF298208DF398218DC7
S1133528F498228DF598238DF698248DF79825889C
S11335381698008817980188189802881998038D96
S1133548F098088DF198098DF2980A8DF3980B8DEF
S1133558F4980C8DF5980D8DF6980E8DF7980FFC50
S1133568FE5B008DF098168DF198178DF298188DE2
S1133578F398198DF4981A8DF5981B8DF6981C8D6F
S1133588F7981D8DF098008DF198018DF298028DB1
S1133598F398038DF498048DF598058DF698068DA7
S11335A8F79807F19808F19809F1980AF1980BF13E
S11335B8980CF1980D5124980E5140980FFC1F5DFA
S11335C8008DF0981E8DF1981F8DF298208DF39838
S11335D8218DF498228DF598238DF698248DF798EB
S11335E8258DF098168DF198178DF298188DF3980B
S11335F8198DF4981A8DF5981B8DF6981C8DF798EB
S11336081DA82AA1BDF0A82A1288260C304800005B
S1133618ADEC44000061F8EC9A3400ADF0B82AA689
S1133628ECA83A46EC71FF7177ED61C8ECD334002D
S1133638A82ABDECADE8B850ADEAB852A854BDEA22
S1133648F4F0CDF61488169800881798018818980D
S11336580288199803881A9804881B9805881C9866
S113366806881D98078DF098089809980A980B9869
S11336780C980D8DF6980E5140980FFC0F80008D14
S1133688F0D171FF61D8EC793700ADECB1BDF4C964
S1133698F20100ECB93600DAF6480000C9F200007D
S11336A8B6F4ADF4A1BDF0ADEA46F061C8ECF93664
S11336B800ADF4BDF6168B9DF14AF12E61F8ECA825
S11336C836008DF2768DF1610E9DF14AF13A61E88A
S11336D8EC9F3600ADF4125130480000C9F20100E5
S11336E8B6F4ADF4A1BDF0ADEA46F061D8ECB93654
S11336F800ADF244000061F8EC793700882ED161FE
S1133708F8ECA24000ADECBDF0ADEA46EC61D8ECB3
S1133718313700EC5A3700128DF2480000B6F0AD8C
S1133728EA46F061C8EC5A3700ADF0B1168B9DF249
S1133738ADF04AF22E61E8EC1F37001204FEFF16C2
S11337488B480000B6F0B6F0ADEA46F061D8EC312B
S11337583700FBF8FF617940ADECBDF2AEF8045ACE
S113376800BDECA83806EC125131480000ADF2BD9A
S1133778EC884FD161F8ECB83700ADECB1168B9DED
S1133788F24AF23061E8ECAF3700ADEC04FEFFBD5D
S1133798F0ADF0A1BDECB6F0FAF08C019DF24AF25E
S11337A83061F8EC9937004AF22E61F8EC254100B3
S11337B8882ED161F8ECC33B00DAEC882E4800006F
S11337C8A84044000071FF61D8EC0C4100ADEC0442
S11337D80200BDF0DAEC512B480100ADF0040A00F8
S11337E8B816C9EC0100ADEAB82AA840BDEAA81683
S11337F8BDE8ADECB81EADE8A1B816ADEAB8003026
S11338080A00B802FCA18600DAE88DF00C30480002
S113381800ADEAB800300A00B802FC408600ADF0FA
S1133828BDEA44000061E8EC403800ADEC44010016
S113383871FF61F3EC893B00A6ECECF63700FAEA79
S11338488C01982EA6EAF4F0EC542E00FAEA8C01C6
S11338589DEC4AEC2A61F8EC693D00A6EA0CD09D7F
S1133868F0C9E800004AF00961F3EC332E008DEC4E
S11338789DF0ADE801BDE8312DBDF2ADE806F2BD1D
S1133888E8A6EACDF100ADF004D0FFBDF0ADE8063E
S1133898F0BDE8FAEA8B9DF00CD09DF14AF109617C
S11338A8E3EC7A38008DF09DECEC332E00A8F0049C
S11338B80200BDF2A8F016ABBDECB83844000071A4
S11338C8FF61D8EC843D00A6EAFAF08C019DECADCA
S11338D8F2B8F0EC1A2E00A82CBDF010E061EFC489
S11338E8C2C061CFD7882E4C6961F8EC913C00883E
S11338F82E4C6E61E8EC883900A8F016ABD4F06160
S1133908F8EC2F4000BDF0A82CBDECADF012ADECE6
S1133918780000317B480200480300A8F004020044
S1133928B8F0ECEF2C00882E4C6461F8EC913C0064
S1133938882E4C6461F3EC0F3A00882E4C6361E8DE
S1133948EC923900A8F0BDEC168B985AC9E801002E
S1133958ADEC040200B8F0AEF8045A00BDEAEC4A33
S11339682F00A8EA040200B8EA8DEC9800A8EEB883
S113397802A8EC1261DAFBF8FF61792CECEF2C0059
S1133988882E4C6761F8EC9E3900C9E80300C9EA3F
S11339982BA8EC4A2F00882E0CFE982EADE8440084
S11339A80061E8EC274000C9E80100ADE8BDECD4AB
S11339B8F061E8EC123100A8F0BDF4168B9816AD4E
S11339C8F4A1168B9817ADF4040200168B9818AD61
S11339D8F4040300168B9819ADF4040400168B98AC
S11339E81AA8F0040500168B981BA8F00406001604
S11339F88B981CA8F0040700168B981DA8F00408DF
S1133A0800B8F0EC6E3100C9EC0000ADE8440000E9
S1133A1871FF61C8EC0A3100C9E80600EC0A3100FC
S1133A2888369800A8EEB802A8EC1261DAFBF8FF11
S1133A3861792CECDE2F00FBF8FF30000061293C93
S1133A48BC3C30000061D8B161293EBC3EE4EC3096
S1133A5809A8B816300A00B832F6B834512D983689
S1133A68AEF804DF00BDEAADE8B81EA83CB810A85B
S1133A783EB8128DEC9DE8A816BDECB6EAA810BDB8
S1133A88F4A812BDF6A832BDF0A834BDF251C09F07
S1133A98E800ADF6BEF2ADF4BEF0ADF2BEF4ADF0A2
S1133AA8BEF651C19FE8008FE8003103FAAEF0BDBD
S1133AB8F4AEF2BDF6AFE000BDF0AFE200BDF2AD8A
S1133AC8F0B83CADF2B83EADF4B816ADF6B818ADE2
S1133AD8EC06F0DAEA168B480000A816B810ADF622
S1133AE8B812A812440000A81061F844000061E864
S1133AF8EC833A00A810B83CA812B83E8DE89DECB7
S1133B08A81EBDE844000071FF61D8EC4E3C00A833
S1133B181426EABDF0ADE846F071FF7177F161E370
S1133B28EC483B00B6EADAEA5130480000A814260B
S1133B38EABDF046E871FF7177E961D8EC2C3B00E7
S1133B48884ED161F8EC462F00D4EC61F8EC462F8E
S1133B5800882E5CDF9DF24AF25861F8ECD44000EC
S1133B68882E4C6F61E8EC462F00EAEA894C3061F4
S1133B78F8EC462F00ADEAB1BDF0ADEAB1ECE9408E
S1133B8800A82ABDEAA81626ECBDF0ADE804F6FFA5
S1133B98BDF2ADECBDF4ADF2BDF6ADF0DAF6168BC0
S1133BA8480000B6F4A6F0B6F2ADF444000061E8AB
S1133BB8EC9E3B00ADE804F7FFBDEC8831D161E829
S1133BC8EC013C00ADEC26EABDE8EC4A2F00F19884
S1133BD84F882ED161E8EC6F3400A840440000718E
S1133BE8FF61D8EC2B4100A84016F627BDF0ADEADA
S1133BF8BDECF1982EEC773400883676F1612E9D71
S1133C08F088366BF0317A318FBDF0A83826F0BDD4
S1133C18F0ADEC26EABDE846F071FF7177F161C8B2
S1133C28EC4A2F00B6EADAEA5130480000ADEC2637
S1133C38EABDE8ADF046E871FF7177E961F3EC2C71
S1133C483C00EC4A2F008831D161F8EC173B00881E
S1133C583676F1612E9DF088366BF0317A318FBD5E
S1133C68F0A83826F0BDE8EC173B008DF0983E9894
S1133C783FA8F0040200B8F0882E4C6F61E8ECD439
S1133C882E00300800ECE12E00A8F0BDEC16ABB80D
S1133C983CD4F061F8EC484000A8F016AC02B83EF9
S1133CA8A8F0040400B8F0883F71FC61D8EC3F3AEE
S1133CB8003009A8B816300A00B832F6B834ECE96E
S1133CC82E00A8F0040200BDF4A8F016ABBDF6441B
S1133CD8000061F8EC5E4200ADE844000071FF6149
S1133CE8D8EC094200ADF6A1BDF2ADF61489D16154
S1133CF8F8EC1D4200ADE844000061F8EC4D4200C8
S1133D08C9F00000EC243D00ADF6A1BDF2ADE846D3
S1133D18F071FF7177F161E3EC343D00ADF2BDF66B
S1133D28A6F0EAF289D161E8EC103D00F626F0BD70
S1133D38F0ADF606F0BDEAADF626EABDE8ADF4B896
S1133D48F0EC4A2F00884ED161F8ECA92E00ADE8BA
S1133D5844000061E8ECA92E00C9E80100ECA92E92
S1133D6800A8F016ABBDE8FAEA8C029DECA8F004B2
S1133D780200B8F0A6EAA6EAEC332E00F626ECB860
S1133D8838FBF8FF615937ECCF380088169800885B
S1133D981798018818980288199803881A9804882B
S1133DA81B9805881C9806881D98078DF098089814
S1133DB809980A980B980C980D980EF1980FFC29FD
S1133DC87F00D4F061F8EC844000CDF3E0CDF4DF5B
S1133DD8CDF57CCDF6DB8DF3980B8DF4980C8DF531
S1133DE8980D8DF6980E513D980FFCDC8100F6B8BD
S1133DF8408DF0D171FF61F3ECEB3E00ADE8B82AD9
S1133E08A840BDE888169800881798018818980271
S1133E1888199803881A9804881B9805881C98069A
S1133E28881D9807F19808F19809F1980A51209883
S1133E380B515F980C51A0980D5102980E5142985D
S1133E480FFC1F5D008DF0981E8DF1981F8DF29860
S1133E58208DF398218DF498228DF598238DF6986A
S1133E68248DF798258DF098168DF198178DF29872
S1133E78188DF398198DF4981A8DF5981B8DF6986A
S1133E881C8DF7981DADE804F6FFBDE8CDF3E0CD31
S1133E98F4DFCDF57CCDF6DB8816980088179801F9
S1133EA88818980288199803881A9804881B980512
S1133EB8881C9806882598078DF3980B8DF4980C20
S1133EC88DF5980D8DF6980E513D980FFCDC810008
S1133ED88DF0D171FF61E3EC0C3E00ADE8B840A869
S1133EE82ABDE8F4F0CDF6F08816980088179801F2
S1133EF88818980288199803881A9804881B9805C2
S1133F08881C9806881D98078DF098089809980ABF
S1133F18980B980C980D8DF6980E513F980FFCF657
S1133F2880008DF0D171FF61C8EC293400ADE8B888
S1133F382AA840BDE8881698008817980188189818
S1133F480288199803881A9804881B9805881C986D
S1133F5806881D9807F19808F19809F1980AF198CC
S1133F680BF1980CF1980D5124980E5140980FFCC0
S1133F781F5D008DF0981E8DF1981F8DF298208D8D
S1133F88F398218DF498228DF598238DF698248D35
S1133F98F798258DF098168DF198178DF298188D4D
S1133FA8F398198DF4981A8DF5981B8DF6981C8D35
S1133FB8F7981DB6E8CDF6F088169800881798018A
S1133FC88818980288199803881A9804881B9805F1
S1133FD8881C9806882598078DF6980E513F980FE7
S1133FE8FCF680008DF0D171FF61D8EC3D3F00EC08
S1133FF82134008800984688179847881898488874
S1134008199849881A984A881B984B881C984C8890
S11340181D0C80984D981D512D9836ECB23100C96D
S1134028EC0100EC133A00BDF0A82CBDECADF01285
S1134038ADEC780000A8F0040200B8F0ECEF2C0016
S1134048317B983E983FADEC040200B8F0ECAF3CED
S113405800882E4C7061E8EC923900A8F0BDEC168B
S1134068ABB83C317B983E983FADEC040200B8F005
S11340783009A8B816301000ECE12E00F6B840EC70
S1134088293400ADE826ECB1BDE8884ED161F8ECDE
S1134098254200F1984FECE23B00ADECA1BDF2AD36
S11340A8EA46F261C8EC643700ADECBDE8ADF2BD98
S11340B8F0ADF012FAE88B480000B6F0B6E8ADF0BF
S11340C846EA61E8ECB94000EC643700ADEAB112A5
S11340D8882E480000ADEA04FEFFBDF0ADEA04FEF8
S11340E8FF125130480000A81426F0BDE8ADF0BD19
S11340F8EAEC4A2F00300A00ECE12E00A81EB8169C
S1134108ECD52F00ADEC040200BDF0DAEC512D48DB
S11341180100A84016F627B840ECE33700B6ECECEB
S1134128B83700AEF8045A00BDF2A83806F21251A6
S113413830480000ADE844000061E8EC50410088D4
S11341484ED161F8EC2E4200ADEA040200BDECDA6F
S1134158EA512E480100A84044FFFF61F8EC3E42B2
S113416800ADE844000061F8ECDA4100ADECBDF2C2
S1134178A840A106E8BDF4ADE8BDF0EC964100AD59
S1134188ECBDF2ADF044000061F8ECDA4100A6ECB5
S1134198ADF2125130480000B6F0ADF446F061E8D3
S11341A8EC8741008DE87CFF98568DE97CFF985791
S11341B8A856BDF2A84046F271FF7177F361D8ECB6
S11341C8F94100ADF0BDE8F1982EC9F00100EC7793
S11341D834008DE87CFF98588DE97CFF9859A858DD
S11341E8BDF0A84046F071FF7177F161C8EC464212
S11341F800884FD161F8ECC33B00F1982EEC82376C
S113420800ADF6A1BDF2C9E81027ADF61489D16155
S1134218E8EC083D00C9F00000EC393D00E1984E97
S1134228984FECE23B00ADEAA1BDECA84044FFFF87
S113423861E8ECDA4100ADE8BDF0ECAC4100F1987E
S11342482EEC483600ADE8BDF0EC393D003009A845
S1134258B816ECAE2E00C9F6FAA7ECE03C00F198CB
S11342682EC9E80600EC12310061EFC1C3C561CF65
S11342782024A82EB816A830B818AEF8042400BD17
S1134288F004F2FFB800ADF004F6FFB802FC688F42
S113429800A81ABDECB800A81CBDEAB802A81EBD47
S11342A8E8B804F19DF4A820BDF0A822BDF28DEC75
S11342B8980E8801980F8DEA9810880398118DE854
S11342C898128805981388069814880798158DF00D
S11342D898008DF198018DF298028DF398038DF46E
S11342E898048DF498058DF498068DF49807511E5A
S11342F89808FCA48D008DEC9800880F98018DEA2D
S11343089802881198038DE89804881398058DF00D
S1134318980E8DF1980F8DF298108DF398118DF4F5
S113432898128DF598138DF698148DF798158DF0CD
S113433898068DF198078DF298088DF398098DF4F5
S1134348980A8DF5980B8DF6980C8DF7980DFCA3AB
S113435885008DF0980E8DF1980F8DF298108DF3DD
S113436898118DF498128DF598138DF698148DF78D
S1134378981588149DEC88159DED8DEC9DF68DEDB2
S11343889DF7102461EFC4C2C061CFD761EFC1C3E8
S1134398C561CF203CA84ABDECA84616ABBDF04485
S11343A8010061E3ECCD5A00A84816ABBDF2440104
S11343B80061E3ECD35A00ADF044040061E8ECEE8C
S11343C84300A846BDF0ADF244040061E8ECDD5AB0
S11343D800EAF0AA0261490261F8ECDD5A00C9F06A
S11343E830A8ECDD5A00ADF244040061F8ECD35A6D
S11343F80044020061E8EC634400ADF0440200614B
S1134408E8ECCD5A00DAECADF0780000A84616AC1A
S113441802780200A84616AC04780400A84616AC34
S113442806780600A84616AC08780800A84616AC14
S11344380A780A00A84616AC0C780C00A848BDF007
S1134448A846BDF2EAF0168A025E02480200FAF2B1
S11344588A035E03480300ECD95A00ADF044020015
S113446861F8ECD35A00A84616AC04B83AA8480434
S1134478040016ABBDF2A846040600168B981AA8C9
S113448846040700168B981BA846040800168B9848
S11344981CA846040900168B981DA846040A001691
S11344A88B981EA846040B00168B981FA846040C6C
S11344B800168B9820A846040D00168B9821A8484E
S11344C8040600168B9812A848040700168B981344
S11344D8A848040800168B9814A848040900168BE9
S11344E89815A848040A00168B9816A848040B00C7
S11344F8168B9817A848040C00168B9818A848041B
S11345080D00168B9819A83A26F2BDF0BDE84400B0
S11345180071FF61C8EC264500F626F0BDE8ADE859
S1134528443F0071FF61F3ECF54E00ADF044000028
S113453871FF61E3EC134A0088129800881398010C
S1134548881498028815980388169804881798057B
S113455888189806881998078DE89808FCBE8B0077
S11345688DF098328DF198338DF298348DF3983517
S11345788DF498368DF598378DF698388DF79839E7
S1134588E1980AF1980B980C980D980E980F9810CA
S11345989811880A9800880B9801880C9802880D4D
S11345A89803880E9804880F98058810980688112F
S11345B89807FCA48D008DF098228DF198238DF234
S11345C898248DF398258DF498268DF598278DF6E3
S11345D898288DF7982951FF982A982B982C982D6C
S11345E8982E982F983098318DF076882A610E9DF0
S11345F8F2E4F08822768DF2614E61D8EC0C460024
S113460888119DF0882B768823610E9DF3E4EA884F
S113461823768DF3614E61D8EC264600F4EA8DF3D7
S1134628768DF0610E9DF0E4F14BF361D8EC3B46D6
S113463800F4F18DEA6BF19DEA8DF09DF3882C76F8
S11346488824610E9DF4E4F18824768DF4614E612A
S1134658D8EC5F4600F4F18DF4768DEA610E9DEA9C
S1134668E4F04BF461D8EC744600F4F08DF16BF08F
S11346789DF18DEA9DF4882D768825610E9DF5E4DB
S1134688F08825768DF5614E61D8EC984600F4F0F3
S11346988DF5768DF1610E9DF1E4EA4BF561D8EC68
S11346A8AD4600F4EA8DF06BEA9DF08DF19DF58836
S11346B82E768826610E9DF6E4F18826768DF661BD
S11346C84E61D8ECD14600F4F18DF6768DF0610E8A
S11346D89DF0E4EA4BF661D8ECE64600F4EA8DF185
S11346E86BEA9DF18DF09DF6882F768827610E9DE3
S11346F8F7E4F08827768DF7614E61D8EC0A470015
S1134708F4F08DF7768DF1610E9DF1E4EA4BF761D3
S1134718D8EC1F4700F4EA8DF06BEA9DF08DF19D0B
S1134728F78830768828610E9DE8E4F18828768D2C
S1134738E8614E61D8EC434700F4F18DE8768DF0DA
S1134748610E9DF0E4EA4BE861D8EC584700F4EABE
S11347588DF16BEA9DF18DF09DE8883176882961A9
S11347680E768DF1610E9DE988125BF2982288130A
S11347785BF3982388145BF4982488155BF59825D3
S113478888165BF6982688175BF7982788185BE8DD
S1134798982888195BE99829F4F48DF49DF59DF619
S11347A89DF79DE89DE99DEA9DEB8822768DF4614D
S11347B82E980AE4F14BF461F3ECC947008DF59D9A
S11347C8F18823768DF5612E980BE4F04BF561F3AF
S11347D8ECDE4700F4F08DF176880B612E9DF1E450
S11347E8F2880B768DF1614E61F3ECF84700F4F230
S11347F88DF06BF29DF08DF1980B8824768DF6611F
S11348082E980CE4F14BF661F3EC174800F4F18DA3
S1134818F076880C612E9DF0E4F2880C768DF061B8
S11348284E61F3EC314800F4F28DF16BF29DF18D99
S1134838F0980C8825768DF7612E980DE4F04BF7E7
S113484861F3EC504800F4F08DF176880D612E9DEB
S1134858F1E4F2880D768DF1614E61F3EC6A48005B
S1134868F4F28DF06BF29DF08DF1980D8826768D1B
S1134878E8612E980EE4F14BE861F3EC894800F402
S1134888F18DF076880E612E9DF0E4F2880E768D17
S1134898F0614E61F3ECA34800F4F28DF16BF29DE4
S11348A8F18DF0980E8827768DE9612E980FE4F043
S11348B84BE961F3ECC24800F4F08DF176880F619E
S11348C82E9DF1E4F2880F768DF1614E61F3ECDCF4
S11348D84800F4F28DF06BF29DF08DF1980F882862
S11348E8768DEA612E9810E4F14BEA61F3ECFB480B
S11348F800F4F18DF0768810612E9DF0E4F28810B2
S1134908768DF0614E61F3EC154900F4F28DF16B8C
S1134918F29DF18DF098108829768DEB612E98110F
S11349288DF1768811612E9811882276880A616E35
S11349389DF0882376880B616E9DF1882476880C17
S1134948616E9DF2882576880D616E9DF3882676C2
S1134958880E616E9DF4882776880F616E9DF588B0
S113496828768810616E9DF68829768811616E9D77
S1134978F78DF098008DF198018DF298028DF398D7
S1134988038DF498048DF598058DF698068DF7989F
S113499807513F9808FCBE8B008DF0980A8DF1985A
S11349A80B8DF2980C8DF3980D8DF4980E8DF59867
S11349B80F8DF698108DF798118DF098228DF19837
S11349C8238DF298248DF398258DF498268DF598E7
S11349D8278DF698288DF7982988326BF0981288D5
S11349E8336BF1981388346BF2981488356BF39809
S11349F81588366BF4981688376BF5981788386BD2
S1134A08F6981888396BF7EC2C4F0044000061F8CD
S1134A18EC2E4F00A83A06E8B83A881A9800881B82
S1134A289801881C9802881D9803881E9804881F7A
S1134A38980588209806882198078DE89808FCBE70
S1134A488B008DF098328DF198338DF298348DF374
S1134A5898358DF498368DF598378DF698388DF706
S1134A689839E1980AF1980B980C980D980E980FBC
S1134A7898109811880A9800880B9801880C980255
S1134A88880D9803880E9804880F9805881098064E
S1134A9888119807FCA48D008DF098228DF1982335
S1134AA88DF298248DF398258DF498268DF5982702
S1134AB88DF698288DF7982951FF982A982B982CC9
S1134AC8982D982E982F983098318DF076882A61F1
S1134AD80E9DF2E4F08822768DF2614E61D8ECEEF8
S1134AE84A0088119DF0882B768823610E9DF3E493
S1134AF8EA8823768DF3614E61D8EC084B00F4EA1A
S1134B088DF3768DF0610E9DF0E4F14BF361D8ECF2
S1134B181D4B00F4F18DEA6BF19DEA8DF09DF3884D
S1134B282C768824610E9DF4E4F18824768DF46152
S1134B384E61D8EC414B00F4F18DF4768DEA610EA8
S1134B489DEAE4F04BF461D8EC564B00F4F08DF197
S1134B586BF09DF18DEA9DF4882D768825610E9D74
S1134B68F5E4F08825768DF5614E61D8EC7A4B0032
S1134B78F4F08DF5768DF1610E9DF1E4EA4BF56163
S1134B88D8EC8F4B00F4EA8DF06BEA9DF08DF19D23
S1134B98F5882E768826610E9DF6E4F18826768DB2
S1134BA8F6614E61D8ECB34B00F4F18DF6768DF0D6
S1134BB8610E9DF0E4EA4BF661D8ECC84B00F4EAC8
S1134BC88DF16BEA9DF18DF09DF6882F768827612B
S1134BD80E9DF7E4F08827768DF7614E61D8ECECEA
S1134BE84B00F4F08DF7768DF1610E9DF1E4EA4BFC
S1134BF8F761D8EC014C00F4EA8DF06BEA9DF08D76
S1134C08F19DF78830768828610E9DE8E4F18828BC
S1134C18768DE8614E61D8EC254C00F4F18DE87688
S1134C288DF0610E9DF0E4EA4BE861D8EC3A4C0053
S1134C38F4EA8DF16BEA9DF18DF09DE88831768870
S1134C4829610E768DF1610E9DE9881A5BF298222E
S1134C58881B5BF39823881C5BF49824881D5BF5F8
S1134C689825881E5BF69826881F5BF79827882066
S1134C785BE8982888215BE99829F4F48DF49DF57C
S1134C889DF69DF79DE89DE99DEA9DEB8822768D2A
S1134C98F4612E980AE4F14BF461F3ECAB4C008D0B
S1134CA8F59DF18823768DF5612E980BE4F04BF58C
S1134CB861F3ECC04C00F4F08DF176880B612E9D05
S1134CC8F1E4F2880B768DF1614E61F3ECDA4C0075
S1134CD8F4F28DF06BF29DF08DF1980B8824768DAB
S1134CE8F6612E980CE4F14BF661F3ECF94C00F400
S1134CF8F18DF076880C612E9DF0E4F2880C768DA7
S1134D08F0614E61F3EC134D00F4F28DF16BF29DFA
S1134D18F18DF0980C8825768DF7612E980DE4F0C6
S1134D284BF761F3EC324D00F4F08DF176880D61A8
S1134D382E9DF1E4F2880D768DF1614E61F3EC4C11
S1134D484D00F4F28DF06BF29DF08DF1980D8826EC
S1134D58768DE8612E980EE4F14BE861F3EC6B4D27
S1134D6800F4F18DF076880E612E9DF0E4F2880E41
S1134D78768DF0614E61F3EC854D00F4F28DF16BA4
S1134D88F29DF18DF0980E8827768DE9612E980FA3
S1134D98E4F04BE961F3ECA44D00F4F08DF176886E
S1134DA80F612E9DF1E4F2880F768DF1614E61F367
S1134DB8ECBE4D00F4F28DF06BF29DF08DF1980F7E
S1134DC88828768DEA612E9810E4F14BEA61F3ECB9
S1134DD8DD4D00F4F18DF0768810612E9DF0E4F23B
S1134DE88810768DF0614E61F3ECF74D00F4F28D86
S1134DF8F16BF29DF18DF098108829768DEB612E78
S1134E0898118DF1768811612E9811882276880A76
S1134E18616E9DF0882376880B616E9DF1882476F7
S1134E28880C616E9DF2882576880D616E9DF388E5
S1134E382676880E616E9DF4882776880F616E9DAC
S1134E48F58828768810616E9DF688297688116120
S1134E586E9DF78DF098008DF198018DF298028D72
S1134E68F398038DF498048DF598058DF698068DBE
S1134E78F79807513F9808FCBE8B008DF0980A8D6F
S1134E88F1980B8DF2980C8DF3980D8DF4980E8D86
S1134E98F5980F8DF698108DF798118DF098228D4E
S1134EA8F198238DF298248DF398258DF498268D06
S1134EB8F598278DF698288DF7982988326BF098FD
S1134EC81A88336BF1981B88346BF2981C88356BFD
S1134ED8F3981D88366BF4981E88376BF5981F88ED
S1134EE8386BF6982088396BF7EC174F00A83A46C8
S1134EF8F271FF7177F361F3EC1D4F00ADF2B83A2C
S1134F08F1981A981B981C981D981E981F98209819
S1134F1821EC2E4F00F198129813981498159816AE
S1134F28981798189819A846BDF2A6F2A6F2FAF2AC
S1134F38ABBDF0A84816AC0246F061F8EC13580073
S1134F48ADF044000061F8ECCC5000881A76881261
S1134F58612E9DF0E4E88812768DF0614E61F3ECE1
S1134F686D4F00F4E8881B768813612E9DF1E4E9FF
S1134F788813768DF1614E61F3EC874F00F4E98D67
S1134F88E8768DF1612E9DE8E4EA4BF161F3EC9C3F
S1134F984F00F4EA8DE96BEA9DE98DE89DF1881CE0
S1134FA8768814612E9DF2E4E88814768DF2614EB9
S1134FB861F3ECC04F00F4E88DE9768DF2612E9D23
S1134FC8E9E4EA4BF261F3ECD54F00F4EA8DE86BBF
S1134FD8EA9DE88DE99DF2881D768815612E9DF37A
S1134FE8E4E98815768DF3614E61F3ECF94F00F42A
S1134FF8E98DE8768DF3612E9DE8E4EA4BF361F3DD
S1135008EC0E5000F4EA8DE96BEA9DE98DE89DF316
S1135018881E768816612E9DF4E4E88816768DF449
S1135028614E61F3EC325000F4E88DE9768DF46159
S11350382E9DE9E4EA4BF461F3EC475000F4EA8D61
S1135048E86BEA9DE88DE99DF4881F768817612E40
S11350589DF5E4E98817768DF5614E61F3EC6B50A4
S113506800F4E98DE8768DF5612E9DE8E4EA4BF5C8
S113507861F3EC805000F4EA8DE96BEA9DE98DE870
S11350889DF58820768818612E9DF6E4E8881876C0
S11350988DF6614E61F3ECA45000F4E88DE9768D49
S11350A8F6612E9DE9E4EA4BF661F3ECB95000F49D
S11350B8EA8DE86BEA9DE88DE99DF68821768819E2
S11350C8EC415200881276881A612E9DF0E4E88833
S11350D81A768DF0614E61F3ECE65000F4E888131B
S11350E876881B612E9DF1E4E9881B768DF1614E6B
S11350F861F3EC005100F4E98DE8768DF1612E9DA1
S1135108E8E4EA4BF161F3EC155100F4EA8DE96B3C
S1135118EA9DE98DE89DF1881476881C612E9DF23C
S1135128E4E8881C768DF2614E61F3EC395100F4A1
S1135138E88DE9768DF2612E9DE9E4EA4BF261F39C
S1135148EC4E5100F4EA8DE86BEA9DE88DE99DF296
S1135158881576881D612E9DF3E4E9881D768DF304
S1135168614E61F3EC725100F4E98DE8768DF361D8
S11351782E9DE8E4EA4BF361F3EC875100F4EA8DE1
S1135188E96BEA9DE98DE89DF3881676881E612E01
S11351989DF4E4E8881E768DF4614E61F3ECAB511E
S11351A800F4E88DE9768DF4612E9DE9E4EA4BF488
S11351B861F3ECC05100F4EA8DE86BEA9DE88DE9EF
S11351C89DF4881776881F612E9DF5E4E9881F767B
S11351D88DF5614E61F3ECE45100F4E98DE8768DC8
S11351E8F5612E9DE8E4EA4BF561F3ECF95100F41E
S11351F8EA8DE96BEA9DE98DE89DF58818768820A3
S1135208612E9DF6E4E88820768DF6614E61F3EC14
S11352181D5200F4E88DE9768DF6612E9DE9E4EAE5
S11352284BF661F3EC325200F4EA8DE86BEA9DE840
S11352388DE99DF68819768821612E9DF78DE8768B
S11352488DF7612E9DE88DF098128DF198138DF2EB
S113525898148DF398158DF498168DF598178DF686
S113526898188DE89819DAECD171FF61D8ECAB5233
S113527800F6780200A83A780400881248060088E4
S11352881348070088144808008815480900881638
S1135298480A008817480B008818480C008819EC3D
S11352A8705400E6780200A83A780400F1981A9835
S11352B81B981C981D981E981F9820982188127670
S11352C8881A612E9DF0E4E8881A768DF0614E61A3
S11352D8F3ECE1520088219DE8881376881B612E3F
S11352E89DF1E4E9881B768DF1614E61F3ECFB5284
S11352F800F4E98DE8768DF1612E9DE8E4EA4BF13E
S113530861F3EC105300F4EA8DE96BEA9DE98DE84A
S11353189DF1881476881C612E9DF2E4E8881C7639
S11353288DF2614E61F3EC345300F4E88DE9768D27
S1135338F2612E9DE9E4EA4BF261F3EC495300F47F
S1135348EA8DE86BEA9DE88DE99DF2881576881D5B
S1135358612E9DF3E4E9881D768DF3614E61F3ECCB
S11353686D5300F4E98DE8768DF3612E9DE8E4EA47
S11353784BF361F3EC825300F4EA8DE96BEA9DE99F
S11353888DE89DF3881676881E612E9DF4E4E888DE
S11353981E768DF4614E61F3ECA65300F4E88DE9B2
S11353A8768DF4612E9DE9E4EA4BF461F3ECBB538A
S11353B800F4EA8DE86BEA9DE88DE99DF488177698
S11353C8881F612E9DF5E4E9881F768DF5614E618D
S11353D8F3ECDF5300F4E98DE8768DF5612E9DE852
S11353E8E4EA4BF561F3ECF45300F4EA8DE96BEA73
S11353F89DE98DE89DF58818768820612E9DF6E450
S1135408E88820768DF6614E61F3EC185400F4E8D0
S11354188DE9768DF6612E9DE9E4EA4BF661F3ECAD
S11354282D5400F4EA8DE86BEA9DE88DE99DF68831
S113543819768821612E9DF78DE8768DF7612E9D6A
S1135448E8DAEC8DF04806008DF14807008DF24843
S113545808008DF34809008DF4480A008DF5480BBF
S1135468008DF6480C008DE8480D00FAEC8C06987F
S1135478128C0798138C0898148C0998158C0A9820
S1135488168C0B98178C0C98188C0D981951FF983A
S11354981A981B981C981D981E981F982098218864
S11354A81A768812610E9DF0E4E98812768DF0610F
S11354B84E61D8ECC15400F4E9881B768813610E58
S11354C89DF1E4E88813768DF1614E61D8ECDB54E4
S11354D800F4E88DF1768DE9610E9DE9E4EA4BF17B
S11354E861D8ECF05400F4EA8DE86BEA9DE88DE9A4
S11354F89DF1881C768814610E9DF2E4E98814767F
S11355088DF2614E61D8EC145500F4E98DF2768D74
S1135518E8610E9DE8E4EA4BF261D8EC295500F401
S1135528EA8DE96BEA9DE98DE89DF2881D76881578
S1135538610E9DF3E4E88815768DF3614E61D8EC2D
S11355484D5500F4E88DF3768DE9610E9DE9E4EAA2
S11355584BF361D8EC625500F4EA8DE86BEA9DE8F8
S11355688DE99DF3881E768816610E9DF4E4E9881A
S113557816768DF4614E61D8EC865500F4E98DF405
S1135588768DE8610E9DE8E4EA4BF461D8EC9B550E
S113559800F4EA8DE96BEA9DE98DE89DF4881F76AD
S11355A88817610E9DF5E4E88817768DF5614E61DC
S11355B8D8ECBF5500F4E88DF5768DE9610E9DE9C8
S11355C8E4EA4BF561D8ECD45500F4EA8DE86BEACB
S11355D89DE88DE99DF58820768818610E9DF6E48E
S11355E8E98818768DF6614E61D8ECF85500F4E92F
S11355F88DF6768DE8610E9DE8E4EA4BF661D8EC09
S11356080D5600F4EA8DE96BEA9DE98DE89DF6886C
S113561821768819610E768DE9610E9DF74AF70F98
S113562861F3ECC759004AF70F61F8ECD0570088CA
S11356381261019DF0E4E88812768DF0614E61D81C
S1135648EC4E5600F4E8881361019DF1E4E98813EF
S1135658768DF1614E61D8EC655600F4E98DF176EA
S11356688DE8610E9DE8E4EA4BF161D8EC7A5600C6
S1135678F4EA8DE96BEA9DE98DE89DF188146101EE
S11356889DF2E4E88814768DF2614E61D8EC9B565D
S113569800F4E88DF2768DE9610E9DE9E4EA4BF2B7
S11356A861D8ECB05600F4EA8DE86BEA9DE88DE920
S11356B89DF2881561019DF3E4E98815768DF361FF
S11356C84E61D8ECD15600F4E98DF3768DE8610E7D
S11356D89DE8E4EA4BF361D8ECE65600F4EA8DE978
S11356E86BEA9DE98DE89DF3881661019DF4E4E871
S11356F88816768DF4614E61D8EC075700F4E88D6E
S1135708F4768DE9610E9DE9E4EA4BF461D8EC1C6A
S11357185700F4EA8DE86BEA9DE88DE99DF4881753
S113572861019DF5E4E98817768DF5614E61D8EC41
S11357383D5700F4E98DF5768DE8610E9DE8E4EABD
S11357484BF561D8EC525700F4EA8DE96BEA9DE910
S11357588DE89DF5881861019DF6E4E88818768D32
S1135768F6614E61D8EC735700F4E88DF6768DE94E
S1135778610E9DE9E4EA4BF661D8EC885700F4EA37
S11357888DE86BEA9DE88DE99DF688196101768DAF
S1135798E8610E9DE8DAEC8DF04806008DF14807C3
S11357A8008DF24808008DF34809008DF4480A007A
S11357B88DF5480B008DF6480C008DE8480D00FA6D
S11357C8EC618904EC7354004AF6FF61E8EC37563F
S11357D8004AF5FF61E8EC3756004AF4FF61E8EC4B
S11357E83756004AF3FF61E8EC3756004AF2FF6186
S11357F8E8EC3756004AF1FF61E8EC3756004AF006
S1135808FE61E3EC375600ECC75900DAECADF078EA
S11358180200A83A780400881A768812610E9DF06E
S1135828E4E88812768DF0614E61D8EC395800F4BA
S1135838E8881B768813610E9DF1E4E98813768D58
S1135848F1614E61D8EC535800F4E98DF1768DE896
S1135858610E9DE8E4EA4BF161D8EC685800F4EA7B
S11358688DE96BEA9DE98DE89DF1881C76881461C1
S11358780E9DF2E4E88814768DF2614E61D8EC8CC2
S11358885800F4E88DF2768DE9610E9DE9E4EA4B5F
S1135898F261D8ECA15800F4EA8DE86BEA9DE88D32
S11358A8E99DF2881D768815610E9DF3E4E9881553
S11358B8768DF3614E61D8ECC55800F4E98DF37622
S11358C88DE8610E9DE8E4EA4BF361D8ECDA580000
S11358D8F4EA8DE96BEA9DE98DE89DF3881E7688E4
S11358E816610E9DF4E4E88816768DF4614E61D84D
S11358F8ECFE5800F4E88DF4768DE9610E9DE9E438
S1135908EA4BF461D8EC135900F4EA8DE86BEA9D8C
S1135918E88DE99DF4881F768817610E9DF5E4E902
S11359288817768DF5614E61D8EC375900F4E98D06
S1135938F5768DE8610E9DE8E4EA4BF561D8EC4C08
S11359485900F4EA8DE96BEA9DE98DE89DF5882014
S1135958768818610E9DF6E4E88818768DF6614E0F
S113596861D8EC705900F4E88DF6768DE9610E9DE6
S1135978E9E4EA4BF661D8EC855900F4EA8DE86B62
S1135988EA9DE88DE99DF68821768819610E768D61
S1135998E8610E9DE8DAEC8DF04806008DF14807C1
S11359A8008DF24808008DF34809008DF4480A0078
S11359B88DF5480B008DF6480C008DE8480D00DA8B
S11359C8EC300300780000FAEC8C069DF08C079DFF
S11359D8F18C089DF28C099DF38C0A9DF48C0B9D27
S11359E8F58C0C9DF68C0D9DF74AF71F61E3ECD9F5
S11359F85A00F19813F19814F19815F19816F19842
S1135A0817F19818F198198DF05C0198128DF09897
S1135A18008DF198018DF298028DF398038DF49816
S1135A28048DF598058DF698068DF79807E1980882
S1135A38FCBE8B008DF0981A8DF1981B8DF2981C82
S1135A488DF3981D8DF4981E8DF5981F8DF698206A
S1135A588DF79821F19DF19DF29DF39DF49DF59D9F
S1135A68F6881A768812616E9DF0881B6BF19DF199
S1135A78881C6BF29DF2881D6BF39DF3881E6BF4F2
S1135A889DF4881F6BF59DF588206BF69DF688219B
S1135A989DF7DAEC8DF04806008DF14807008DF289
S1135AA84808008DF34809008DF4480A008DF5482C
S1135AB80B008DF6480C008DF7480D00FAEC61795F
S1135AC804ECD95A00A846ECDB5A00A848ECDB5A87
S1135AD800ADECBDF0103C61EFC4C2C061CFD7612A
S1135AE8EFC1C3C561CF204888529DF088539DF10A
S1135AF888549DF288559DF388569DF488579DF5E2
S1135B0888589DF688599DF7885A9806885B98079F
S1135B18885C9808885D9809885E980A885F980B5D
S1135B288860980C8861980D8DF0980E8DF1980F07
S1135B388DF298108DF398118DF498128DF59813B1
S1135B488DF698148DF7981588069816880798176F
S1135B588808981888099819880A981A880B981B2D
S1135B68880C981C880D981DAEF8044800BDF004F4
S1135B78C6FFB800ADF004D6FFB802FCB6A000AE6C
S1135B88F8044800BDF004CEFFB800ADF004E4FF0B
S1135B98B802FCB6A000AEF8044800BDF004D6FF75
S1135BA8B800ADF004E4FFB802ADF004F2FFB804A5
S1135BB8FC944300ADF0B800FCF490008DF0980616
S1135BC88DF198078DF298088DF398098DF4980A49
S1135BD88DF5980B8DF6980C8DF7980D880C9DEC27
S1135BE8880D9DED8DEC9DF68DED9DF7104861EFC8
S1135BF8C4C2C061CFD761EFC1C3C561CF20488893
S1135C08529DF088539DF188549DF288559DF388E0
S1135C18569DF488579DF588589DF688599DF788B0
S1135C285A9806885B9807885C9808885D9809885C
S1135C385E980A885F980B8860980C8861980D8D27
S1135C48F0980E8DF1980F8DF298108DF398118DB0
S1135C58F498128DF598138DF698148DF798158885
S1135C68069816880798178808981888099819882C
S1135C780A981A880B981B880C981C880D981DAED6
S1135C88F8044800BDF004C6FFB800ADF004D6FF20
S1135C98B802FCB6A000AEF8044800BDF004CEFF7C
S1135CA8B800ADF004E4FFB802FCB6A000A82E7C4E
S1135CB800087C0108B82EAEF8044800BDF004D6EC
S1135CC8FFB800ADF004E4FFB802ADF004F2FFB889
S1135CD804FC944300ADF0B800FCF490008DF098F7
S1135CE8068DF198078DF298088DF398098DF4982C
S1135CF80A8DF5980B8DF6980C8DF7980D880C9DE8
S1135D08EC880D9DED8DEC9DF68DED9DF7104861A9
S1135D18EFC4C2C061CFD761EFC1C3C561CF208AC8
S1135D28889498108895981188969812889798134B
