S01200004564657369676E44656D6F2E6D6F742B
S1070000332CFFFF9B
S1130004242A242A242A242A242A242A242A242A78
S1130014242A242A242A242A242A5022242A242A44
S1130024E1210D21242A242AE629182A242A242A0F
S11300341810242A4812242A242A242A242A242A62
S1130044242A242A242A242A242A242A242A242A38
S1130054242A242A242A242A242A242A242A242A28
S1130064242A242A242A242A242A242A242A242A18
S10F0074242A242A242A242A242A242AA8
S10700C0EFFFE984DD
S10D00C4000000000000000000002E
S10500D8010120
S11300DA2002AF02EFBDF044040061F8ECBA02005A
S11300EAADF044040071FF61F3EC380100ADF04453
S11300FA010061F8ECCD0100ADF044010071FF612B
S113010AF3EC1E0100ADF044000061F8EC84010038
S113011AEC730400ADF044020061F8EC1C0200AD7B
S113012AF044030061F8EC6B0200EC730400ADF0D8
S113013A44070061F8EC950300ADF044070071FF31
S113014A61F3EC6A0100ADF044050061F8EC0103C7
S113015A00ADF044060061F8EC480300EC730400B7
S113016AADF044080061F8ECE20300ADF044090084
S113017A61F8EC2F0400EC730400A8064403006140
S113018AE8EC9F0100AF02EFBDF0A6F0ADF0BF02AC
S113019AEFECC90100A80644040061E8ECB40100CC
S11301AA300400BF02EFECC90100A806440600614E
S11301BAE8ECC90100300500BF02EFEC730400EC5F
S11301CA730400A80644030061E8ECE80100AF02E6
S11301DAEFBDF0A6F0ADF0BF02EFEC180200A806DE
S11301EA44040061E8EC030200AF02EFBDF0B6F08C
S11301FAADF0BF02EFEC180200A80644060061E85D
S113020AEC180200300500BF02EFEC730400EC7333
S113021A0400A80644030061E8EC370200AF02EFC9
S113022ABDF0A6F0ADF0BF02EFEC670200A80644E9
S113023A040061E8EC520200AF02EFBDF0B6F0AD83
S113024AF0BF02EFEC670200A80644060061E8EC7E
S113025A670200300500BF02EFEC730400EC73047C
S113026A00A80644030061E8EC860200AF02EFBD71
S113027AF0A6F0ADF0BF02EFECB60200A806440403
S113028A0061E8ECA10200AF02EFBDF0B6F0ADF0F8
S113029ABF02EFECB60200A80644060061E8ECB619
S11302AA0200300500BF02EFEC730400EC73040093
S11302BAA80644030061E8ECCD0200F6BF02EFECA5
S11302CAFD0200A80644040061E8ECE80200AF025B
S11302DAEFBDF0B6F0ADF0BF02EFECFD0200A806E8
S11302EA44060061E8ECFD0200300500BF02EFECB1
S11302FA730400EC730400A80644030061E8EC1CD0
S113030A0300AF02EFBDF0A6F0ADF0BF02EFEC447C
S113031A0300A80644040061E8EC31030030090034
S113032ABF02EFEC440300A80644070061E8EC446A
S113033A0300F6BF02EFEC730400EC730400A80692
S113034A44030061E8EC630300AF02EFBDF0A6F0DA
S113035AADF0BF02EFEC910300A80644040061E883
S113036AEC7E0300AF02EFBDF0B6F0ADF0BF02EFD2
S113037AEC910300A80644070061E8EC910300F637
S113038ABF02EFEC730400EC730400A806440300F4
S113039A61E8ECB00300AF02EFBDF0A6F0ADF0BF28
S11303AA02EFECDE0300A80644040061E8ECCB0388
S11303BA00AF02EFBDF0B6F0ADF0BF02EFECDE0322
S11303CA00A80644070061E8ECDE0300F6BF02EF6A
S11303DAEC730400EC730400A80644030061E8EC1F
S11303EAFD0300AF02EFBDF0A6F0ADF0BF02EFECE3
S11303FA2B0400A80644040061E8EC180400AF02C8
S113040AEFBDF0B6F0ADF0BF02EFEC2B0400A80686
S113041A44070061E8EC2B0400F6BF02EFEC730416
S113042A00EC730400A80644030061E8EC440400E9
S113043A300500BF02EFEC720400A8064404006110
S113044AE8EC5F0400AF02EFBDF0B6F0ADF0BF0216
S113045AEFEC720400A80644070061E8EC72040099
S113046AF6BF02EFEC72040000AF02EFBDF04404E1
S113047A0061F8EC8F0500ADF044040071FF61F3EC
S113048AECCF0400ADF044010061F8EC380500AD8E
S113049AF044010071FF61F3ECB50400ADF04400CF
S11304AA0061F8EC1B0500EC280900ADF0440200D9
S11304BA61F8EC550500ADF044030061F8EC7205EF
S11304CA00EC280900ADF044070061F8EC120700BB
S11304DAADF044070071FF61F3EC010500ADF0448F
S11304EA050061F8ECAC0500ADF044060061F8ECD7
S11304FA5F0600EC280900ADF044080061F8ECC579
S113050A0700ADF044090061F8EC780800EC28090A
S113051A0051309F78EF510D9F79EF510A9F7AEF7E
S113052AF57BEFE6B800FC593400EC280900513198
S113053A9F78EF510D9F79EF510A9F7AEFF57BEF80
S113054AE6B800FC593400EC28090051329F78EFD0
S113055A510D9F79EF510A9F7AEFF57BEFE6B800C8
S113056AFC593400EC28090051339F78EF510D9F50
S113057A79EF510A9F7AEFF57BEFE6B800FC59341C
S113058A00EC28090051349F78EF510D9F79EF51FF
S113059A0A9F7AEFF57BEFE6B800FC593400EC28A1
S11305AA090051539F78EF51779F79EF51699F7AE8
S11305BAEF51749F7BEF51639F7CEF51689F7DEFEE
S11305CA51209F7EEF51739F7FEF51749F80EF51AB
S11305DA619F81EF51749F82EF51659F83EF512090
S11305EA9F84EF513D9F85EF51209F86EF51309FA5
S11305FA87EF510D9F88EF510A9F89EFF58AEFE63D
S113060AB800FC593400C9F004FFADF0BDF4FAF4A3
S113061A8B9DF25AF2FDADF0DAF48DF2480000C96E
S113062AF004FFADF0BDF4FAF48B9DF25AF2FBAD7F
S113063AF0DAF48DF2480000C9F004FFADF0BDF41D
S113064AFAF48B9DF25AF2F7ADF0DAF48DF248001F
S113065A00EC28090051539F78EF51779F79EF51A5
S113066A699F7AEF51749F7BEF51639F7CEF5168C6
S113067A9F7DEF51209F7EEF51739F7FEF51749FAF
S113068A80EF51619F81EF51749F82EF51659F837F
S113069AEF51209F84EF513D9F85EF51209F86EFB4
S11306AA51319F87EF510D9F88EF510A9F89EFF5CA
S11306BA8AEFE6B800FC593400C9F004FFADF0BD76
S11306CAF4FAF48B9DF25AF2FDADF0DAF48DF248A5
S11306DA0000C9F004FFADF0BDF4FAF48B9DF25AA0
S11306EAF2FBADF0DAF48DF2480000C9F004FFAD74
S11306FAF0BDF4FAF48B9DF26AF208ADF0DAF48DE7
S113070AF2480000EC28090051539F78EF51779F73
S113071A79EF51699F7AEF51749F7BEF51639F7C04
S113072AEF51689F7DEF51209F7EEF51739F7FEFBA
S113073A51749F80EF51619F81EF51749F82EF51F1
S113074A659F83EF51209F84EF513D9F85EF512090
S113075A9F86EF51329F87EF510D9F88EF510A9F71
S113076A89EFF58AEFE6B800FC593400C9F004FFB2
S113077AADF0BDF4FAF48B9DF26AF202ADF0DAF44C
S113078A8DF2480000C9F004FFADF0BDF4FAF48B11
S113079A9DF25AF2FBADF0DAF48DF2480000C9F08A
S11307AA04FFADF0BDF4FAF48B9DF25AF2F7ADF002
S11307BADAF48DF2480000EC28090051539F78EFCF
S11307CA51779F79EF51699F7AEF51749F7BEF516B
S11307DA639F7CEF51689F7DEF51209F7EEF517399
S11307EA9F7FEF51749F80EF51619F81EF51749FF6
S11307FA82EF51659F83EF51209F84EF513D9F857E
S113080AEF51209F86EF51339F87EF510D9F88EF59
S113081A510A9F89EFF58AEFE6B800FC593400C9FA
S113082AF004FFADF0BDF4FAF48B9DF25AF2FDAD7B
S113083AF0DAF48DF2480000C9F004FFADF0BDF41B
S113084AFAF48B9DF26AF204ADF0DAF48DF2480000
S113085A00C9F004FFADF0BDF4FAF48B9DF25AF22C
S113086AF7ADF0DAF48DF2480000EC280900515390
S113087A9F78EF51779F79EF51699F7AEF51749F6F
S113088A7BEF51639F7CEF51689F7DEF51209F7EE0
S113089AEF51739F7FEF51749F80EF51619F81EFF6
S11308AA51749F82EF51659F83EF51209F84EF51CA
S11308BA3D9F85EF51209F86EF51349F87EF510D5D
S11308CA9F88EF510A9F89EFF58AEFE6B800FC5931
S11308DA3400C9F004FFADF0BDF4FAF48B9DF26A5A
S11308EAF202ADF0DAF48DF2480000C9F004FFAD6B
S11308FAF0BDF4FAF48B9DF26AF204ADF0DAF48DE9
S113090AF2480000C9F004FFADF0BDF4FAF48B9D7F
S113091AF25AF2F7ADF0DAF48DF248000000100250
S113092AD72004A808BDF0B800A80ABDF0B802FC94
S113093A790A004AF00161E8EC890900A80ABDF0C5
S113094A01BDF00414EFBDF0BDF2FAF2ABBDF0A1A3
S113095ABDF2A80ABDF001BDF00414EFBDF0BDF468
S113096ADAF4ADF2780000A80ABDF001BDF004047F
S113097AEFBDF0BDF2DAF2F6780000ECC80900A87F
S113098A0ABDF001BDF00404EFBDF0BDF4FAF4AB06
S113099ABDF0A1BDF2A80ABDF001BDF00404EFBD8B
S11309AAF0BDF4DAF4ADF2780000A80ABDF001BD96
S11309BAF00414EFBDF0BDF2DAF2F6780000A80AEA
S11309CABDF001BDF00414EFBDF0BDF4FAF4ABBD03
S11309DAF044E20461E3EC300A00A80ABDF001BD68
S11309EAF00414EFBDF0BDF2DAF230E3047800004B
S11309FAA80ABDF001BDF00424EFBDF0BDF4FAF479
S1130A0AABBDF044000061E8EC740A00A80ABDF02A
S1130A1A01BDF00424EFBDF0BDF2DAF2E67800007D
S1130A2AE4F0EC760A00A80ABDF001BDF00404EF74
S1130A3ABDF0BDF4FAF4ABBDF044E20461E3EC7436
S1130A4A0A00A80ABDF001BDF00424EFBDF0BDF20E
S1130A5ADAF2F6780000A80ABDF001BDF00404EF4A
S1130A6ABDF0BDF4DAF4F6780000F4F01004D7A867
S1130A7A06BDF044030061F8EC290B00ADF0440311
S1130A8A0071FF61F3ECBA0A00ADF044010061F8A9
S1130A9AECFD0A00ADF044010071FF61F3EC130BA5
S1130AAA00ADF044000061F8ECEC0A00EC940B0091
S1130ABAADF044050061F8EC550B00ADF0440500B7
S1130ACA71FF61D8EC3F0B00ADF044060061F8EC0D
S1130ADA6B0B00ADF044070061F8EC810B00EC9459
S1130AEA0B00A804BDF0BDF2EAF2895C019DF0ECAA
S1130AFA970B00A804BDF0BDF2FAF28B9DF0311AEF
S1130B0A9DF05AF001EC970B00A804BDF0BDF2FA6F
S1130B1AF28B9DF0312A9DF05AF001EC970B00A854
S1130B2A04BDF0BDF2FAF28B9DF0313A9DF05AF011
S1130B3A01EC970B00A804BDF0BDF2FAF28B9DF00C
S1130B4A314A9DF05AF001EC970B00A804BDF0BDA0
S1130B5AF2FAF28B9DF0315A9DF05AF001EC970BA0
S1130B6A00A804BDF0BDF2FAF28B9DF0316A9DF043
S1130B7A5AF001EC970B00A804BDF0BDF2FAF28B0F
S1130B8A9DF0317A9DF0EC970B00CDF0FFD720064B
S1130B9A880C314A9805880A9DF0980088059DF0CA
S1130BAA9802FCC90B00880C5C0F9805880A9DF012
S1130BBA980088059DF09802FCC90B001006D720FE
S1130BCA028806D161F8ECF10B00C9F007FFADF019
S1130BDABDF4FAF48B9DF26AF201ADF0DAF48DF207
S1130BEA480000EC0A0C00C9F007FFADF0BDF4FAA6
S1130BFAF48B9DF25AF2FEADF0DAF48DF24800005D
S1130C0AC9F007FFADF0BDF4FAF48B9DF25AF2FD78
S1130C1AADF0DAF48DF2480000C9F227FFC9F027D3
S1130C2AFFADF0BDF4FAF48B9DF05AF0F0ADF2BDCD
S1130C3AF4DAF48DF0480000C9F007FFADF0BDF214
S1130C4AFAF28B9DF05C0F9DF28808705100BDF09A
S1130C5A314DBDF08DF26BF09DF09801C9F007FF9C
S1130C6A88019DF2ADF0BDF4DAF48DF2480000C9B2
S1130C7AF007FFADF0BDF4FAF48B9DF26AF204AD0D
S1130C8AF0DAF48DF2480000000000000000C9F018
S1130C9A07FFADF0BDF4FAF48B9DF25AF2FBADF006
S1130CAADAF48DF24800000000C9F007FFADF0BD88
S1130CBAF4FAF48B9DF26AF202ADF0DAF48DF2489A
S1130CCA00001002D72004C9F0E6FFADF0BDF4FA23
S1130CDAF48B9DF26AF210ADF0DAF48DF24800005A
S1130CEA30983AB800FCE40D00F1980051039802D8
S1130CFAFCC90B00300410B800FCE40D00F19800A4
S1130D0A51039802FCC90B00306400B800FCE40DDE
S1130D1A00F1980051039802FCC90B00302800B86E
S1130D2A00FCE40D00F1980051029802FCC90B0082
S1130D3A302800B800FCE40D00F19800512898020C
S1130D4AFC980B00302800B800FCE40D00F1980070
S1130D5A510E9802FC980B00302800B800FCE40DF0
S1130D6A00F19800E19802FC980B00306806B8007C
S1130D7AFCE40D00F1980051069802FC980B00302F
S1130D8A2800B800FCE40D00F1980051809802FC98
S1130D9A980B00302800B800FCE40D001004D7C9F1
S1130DAAF0E2FFADF0BDF4FAF48B9DF25AF2EFAD26
S1130DBAF0DAF48DF2480000C9F218FFA804BDF075
S1130DCAADF2BDF4DAF4ADF0780000C9F0B201ADC9
S1130DDAF0BDF2DAF2E6780000D72002A806BDF0E8
S1130DEAB800FCA90D00ECF50D0000C9F0E2FFAD56
S1130DFAF0BDF2FAF28B9DF0314A9DF05AF001618E
S1130E0AF8ECF40D00FCD528001002D7C9F0F00064
S1130E1AADF0BDF4FAF48B9DF26AF220ADF0DAF487
S1130E2A8DF2480000C9F030FFADF0BDF2DAF2F1FC
S1130E3A480000C9F0E7FFADF0BDF4FAF48B9DF267
S1130E4A6AF201ADF0DAF48DF2480000C9F0E3FF6A
S1130E5AADF0BDF4FAF48B9DF25AF2FEADF0DAF479
S1130E6A8DF2480000C9F0EFFFADF0BDF4FAF48B3F
S1130E7A9DF26AF201ADF0DAF48DF2480000C9F08D
S1130E8AEBFFADF0BDF4FAF48B9DF26AF201ADF01A
S1130E9ADAF48DF2480000C9F222FFC9F022FFAD4C
S1130EAAF0BDF4FAF48B9DF06AF007ADF2BDF4DA02
S1130EBAF48DF0480000C9F030FFADF0BDF2DAF26B
S1130ECA5108480000C9F032FFADF0BDF4DAF4511C
S1130EDA20480000C9F01000ADF0BDF2DAF2E14892
S1130EEA0000C9F01100ADF0BDF4DAF451FF480076
S1130EFA00C9F01200ADF0BDF2DAF2F1480000C9FF
S1130F0AF031FFADF0BDF4DAF4F1480000C9F03075
S1130F1AFFADF0BDF4FAF48B9DF26AF201ADF0DA9A
S1130F2AF48DF2480000D7C9F0E3FFADF0BDF4FA3E
S1130F3AF48B9DF25AF2FEADF0DAF48DF248000019
S1130F4AC9F0E7FFADF0BDF4FAF48B9DF25AF2FE54
S1130F5AADF0DAF48DF2480000C9F030FFADF0BD0F
S1130F6AF4FAF48B9DF26AF280ADF0DAF48DF24869
S1130F7A0000D7C9F030FFADF0BDF4FAF48B9DF24E
S1130F8A5AF27FADF0DAF48DF2480000C9F0E7FFB7
S1130F9AADF0BDF4FAF48B9DF26AF201ADF0DAF425
S1130FAA8DF2480000C9F0E3FFADF0BDF4FAF48B0A
S1130FBA9DF25AF2FEADF0DAF48DF2480000D7C978
S1130FCAF030FFADF0BDF4FAF48B9DF26AF201AD94
S1130FDAF0DAF48DF2480000D7C9F030FFADF0BD65
S1130FEAF4FAF48B9DF25AF2FEADF0DAF48DF2487B
S1130FFA0000D7C9F01FFFADF0BDF4FAF48B9DF2DF
S113100AA804BDF0BDF4DAF48DF2480000D761CF2C
S113101AC1C3C5C7C6C4C2C061FC2002C9F0A0FFCF
S113102AADF0BDF2DAF25110480000C9F0A1FFADEB
S113103AF0BDF4FAF48B9DF26AF280ADF0DAF48D25
S113104AF2480000C9F0A4FFADF0BDF4FAF48B9D98
S113105AF25AF2EFADF0DAF48DF2480000C9F0A1C9
S113106AFFADF0BDF4FAF48B9DF25AF2BFADF0DA9B
S113107AF48DF2480000F6B800EC92100000A800C3
S113108ABDF0A6F0ADF0B800A800BDF044A0006120
S113109AE3EC871000C9F0F300ADF0BDF2DAF2F127
S11310AA480000C9F0A4FFADF0BDF4FAF48B9DF238
S11310BA5AF2BFADF0DAF48DF2480000C9F0A1FF8C
S11310CAADF0BDF4FAF48B9DF25AF2FEADF0DAF407
S11310DA8DF24800001002D72002C9F0A8FFADF033
S11310EABDF2FAF28B9DF098011002D7C9F0F00014
S11310FAADF0BDF4FAF48B9DF26AF280ADF0DAF445
S113110A8DF2480000C9F090FFADF0BDF2DAF2F6B4
S113111A780000C9F0E7FFADF0BDF4FAF48B9DF254
S113112A6AF204ADF0DAF48DF2480000C9F0E3FF84
S113113AADF0BDF4FAF48B9DF25AF2FBADF0DAF499
S113114A8DF2480000C9F0EFFFADF0BDF4FAF48B5C
S113115A9DF25AF2FBADF0DAF48DF2480000C9F0C0
S113116AEBFFADF0BDF4FAF48B9DF26AF204ADF034
S113117ADAF48DF2480000C9F090FFADF0BDF2DA5E
S113118AF2302000780000D7C9F2E3FFADF2BDF0D7
S113119AFAF08B9DF45AF4FBADF2DAF08DF44800C0
S11311AA00C9F2E7FFADF2BDF0FAF08B9DF45AF4F0
S11311BAFBADF2DAF08DF4480000C9F490FFC9F2ED
S11311CA90FFADF2BDF0FAF0ABBDF28DF26C009D6A
S11311DAF08DF36C809DF1ADF4BDF2DAF2ADF078E6
S11311EA0000D7C9F2E7FFADF2BDF0FAF08B9DF427
S11311FA6AF404ADF2DAF08DF4480000C9F2E3FFB0
S113120AADF2BDF0FAF08B9DF45AF4FBADF2DAF0CC
S113121A8DF4480000C9F490FFC9F290FFADF2BD05
S113122AF0FAF0ABBDF28DF25CFF9DF08DF35C7FBA
S113123A9DF1ADF4BDF2DAF2ADF0780000D761CFDA
S113124AC1C3C5C761DFC161CFAFACEFBDF0A6F0C2
S113125AADF0BFACEF8F34EF9DF0A4F08DF09F3466
S113126AEFAFACEFBDF044F30161E3EC801200E5AB
S113127AE0EFF6BFACEF8F34EF9DF04AF06761E31D
S113128AEC941200E5AAEFF534EF61DFC061CFC632
S113129AC4C2C061FCC9F001FFADF0BDF2DAF2F1DB
S11312AA480000C9F004FFADF0BDF2DAF2F14800DB
S11312BA00C9F007FFADF0BDF2DAF2F1480000C947
S11312CAF03000ADF0BDF2DAF25108480000C9F07E
S11312DA3400ADF0BDF2DAF2E1480000C9F0400092
S11312EAADF0BDF2DAF25108480000C9F04100AD90
S11312FAF0BDF2DAF25140480000C9F021FFADF026
S113130ABDF2DAF2515F480000C9F024FFADF0BD26
S113131AF2DAF251F1480000C9F025FFADF0BDF24E
S113132ADAF251FF480000C9F027FFADF0BDF2DA46
S113133AF2F1480000D7C9F0F000ADF0BDF4FAF4B8
S113134A8B9DF26AF280ADF0DAF48DF2480000C99E
S113135AF09DFFADF0BDF4FAF48B9DF25AF27FAD25
S113136AF0DAF48DF2480000C9F0E7FFADF0BDF4FD
S113137AFAF48B9DF26AF202ADF0DAF48DF24800C7
S113138A00C9F0E3FFADF0BDF4FAF48B9DF25AF212
S113139AFDADF0DAF48DF2480000C9F0EFFFADF0CC
S11313AABDF4FAF48B9DF26AF202ADF0DAF48DF22E
S11313BA480000C9F0EBFFADF0BDF4FAF48B9DF2DE
S11313CA6AF202ADF0DAF48DF2480000C9F09DFF2A
S11313DAADF0BDF2DAF25108480000C9F092FFAD4F
S11313EAF0BDF4DAF4F1480000C9F093FFADF0BDA2
S11313FAF2DAF2F1480000C9F094FFADF0BDF4DA74
S113140AF4F1480000C9F095FFADF0BDF2DAF251EB
S113141A02480000C9F096FFADF0BDF4DAF45111A8
S113142A480000C9F097FFADF0BDF2DAF251044862
S113143A0000C9F098FFADF0BDF4DAF45117480082
S113144A00D7C9F09DFFADF0BDF4FAF48B9DF26AA2
S113145AF280ADF0DAF48DF2480000D7C9F09DFFAE
S113146AADF0BDF4FAF48B9DF25AF27FADF0DAF4E2
S113147A8DF2480000D72006F6B804C9F29EFFC9C7
S113148AF09EFFADF0BDF4FAF48B9DF06AF001AD65
S113149AF2BDF4DAF48DF0480000F6B800F6B802AA
S11314AAECBD140000A800040100B800A80261D829
S11314BAA1B802A802440000A80061F8443F0161EF
S11314CAE3ECAE1400C9F09EFFADF0BDF2FAF28B64
S11314DA9DF0311A9DF05AF00161E8ECF2140030E3
S11314EA0300B804EC081600C9F092FFADF0BDF48D
S11314FAFAF48B9DF2A80ABDF0BDF4DAF48DF24831
S113150A0000C9F093FFADF0BDF4FAF48B9DF2A884
S113151A0ABDF0DAF08DF2480100C9F094FFADF08B
S113152ABDF4FAF48B9DF2A80ABDF0DAF08DF24804
S113153A0200C9F095FFADF0BDF4FAF48B9DF2A850
S113154A0ABDF0DAF08DF2480400C9F096FFADF056
S113155ABDF4FAF48B9DF2A80ABDF0DAF08DF248D4
S113156A0300C9F097FFADF0BDF4FAF48B9DF2A81D
S113157A0ABDF0DAF08DF2480500C9F098FFADF023
S113158ABDF4FAF48B9DF2A80ABDF0DAF08DF248A4
S113159A0600C9F29EFFC9F09EFFADF0BDF4FAF44D
S11315AA8B9DF05AF0FEADF2BDF4DAF48DF04800EA
S11315BA00F6B800F6B802ECD4150000A80004013D
S11315CA00B800A80261D8A1B802A802440000A881
S11315DA0061F8443F0161E3ECC51500C9F09EFFC0
S11315EAADF0BDF2FAF28B9DF0311A9DF05AF0017A
S11315FA4AF00161E8EC081600300400B804A804B3
S113160ABDF01006D72006F6B804C9F29EFFC9F049
S113161A9EFFADF0BDF4FAF48B9DF06AF001ADF2D1
S113162ABDF4DAF48DF0480000F6B800F6B802EC1E
S113163A4C160000A800040100B800A80261D8A151
S113164AB802A802440000A80061F8443F0161E31B
S113165AEC3D1600C9F09EFFADF0BDF2FAF28B9D87
S113166AF0311A9DF05AF00161E8EC81160030035A
S113167A00B804EC721700C9F092FF880A9DF2AD13
S113168AF0BDF4DAF48DF2480000C9F093FF880B38
S113169A9DF2ADF0BDF4DAF48DF2480000C9F0947D
S11316AAFF880C9DF2ADF0BDF4DAF48DF248000027
S11316BAC9F095FF880E9DF2ADF0BDF4DAF48DF20F
S11316CA480000C9F096FF880D9DF2ADF0BDF4DA2A
S11316DAF48DF2480000C9F097FF880F9DF2ADF02F
S11316EABDF4DAF48DF2480000C9F098FF88109D21
S11316FAF2ADF0BDF4DAF48DF2480000C9F29EFFAF
S113170AC9F09EFFADF0BDF4FAF48B9DF05AF0FED9
S113171AADF2BDF4DAF48DF0480000F6B800F6B87C
S113172A02EC3E170000A800040100B800A80261F8
S113173AD8A1B802A802440000A80061F8443F01F5
S113174A61E3EC2F1700C9F09EFFADF0BDF2FAF287
S113175A8B9DF0311A9DF05AF0014AF00161E8ECD0
S113176A721700300400B804A804BDF01006D7C9E3
S113177AF0F000ADF0BDF4FAF48B9DF26AF204AD18
S113178AF0DAF48DF248000000000000C9F02601E6
S113179AADF0BDF2DAF2301000780000FCAF1700A9
S11317AAFCE31C00D761EFC161CFC9E82401C9F683
S11317BA2401ADF6BDF0FAF0ABBDF68DF66C0C9DC6
S11317CAF48DF76C009DF5DAE8ADF4780000C9F4FD
S11317DAE6FFADF4BDF2FAF28B9DF66AF601ADF4BA
S11317EABDF0DAF08DF6480000C9F4E2FFADF4BDAD
S11317FAF2FAF28B9DF65AF6FEADF4BDF0DAF08DEC
S113180AF6480000C9F4E6FFADF4BDF2FAF28B9D86
S113181AF66AF602ADF4BDF0DAF08DF6480000C9B6
S113182AF4E2FFADF4BDF2FAF28B9DF65AF6FDAD81
S113183AF4BDF0DAF08DF6480000C9F4E6FFADF421
S113184ABDF2FAF28B9DF66AF604ADF4BDF0DAF055
S113185A8DF6480000C9F4E2FFADF4BDF2FAF28B4A
S113186A9DF65AF6FBADF4BDF0DAF08DF6480000A9
S113187AC9F4EEFFADF4BDF2FAF28B9DF66AF601F5
S113188AADF4BDF0DAF08DF6480000C9F4EAFFAD14
S113189AF4BDF2FAF28B9DF66AF601ADF4BDF0DA04
S11318AAF08DF6480000C9F4EEFFADF4BDF2FAF289
S11318BA8B9DF66AF602ADF4BDF0DAF08DF64800B7
S11318CA00C9F4EAFFADF4BDF2FAF28B9DF66AF6AA
S11318DA02ADF4BDF0DAF08DF6480000C9F4140143
S11318EAADF4BDF2DAF2302280780000C9F41C01AA
S11318FAADF4BDF0DAF0309780780000C9F444FF03
S113190AADF4BDF2DAF23000CE780000C9F6700008
S113191AC9F47000ADF4BDF0FAF08B9DF46AF404D6
S113192AADF6BDF2DAF28DF4480000C9F40E01AD49
S113193AF4BDF0DAF0300700780000C9F41601ADFE
S113194AF4BDF2DAF2302281780000C9F41E01AD46
S113195AF4BDF0DAF0309740780000C9F446FFADE0
S113196AF4BDF2DAF23000CE780000C9F62801C9D3
S113197AF42801ADF4BDF0FAF0ABBDF48DF46C04B7
S113198A9DF28DF56C009DF3ADF6BDF4DAF4ADF27B
S113199A780000C9F43401C9F23401ADF2BDF0FA99
S11319AAF0ABBDF2ADF4BDF0DAF0ADF2780000C9E7
S11319BAF42A01C9F22A01ADF2BDF0FAF0ABBDF284
S11319CA8DF26C049DF08DF36C009DF1ADF4BDF2C3
S11319DADAF2ADF0780000C9F26000C9F06000AD37
S11319EAF0BDF4FAF48B9DF05AF0F7ADF2BDF4DAD7
S11319FAF48DF0480000C9F220FFC9F020FFADF0D1
S1131A0ABDF4FAF48B9DF06AF008ADF2BDF4DAF491
S1131A1A8DF0480000C9F26000C9F06000ADF0BD65
S1131A2AF4FAF48B9DF05AF0FBADF2BDF4DAF48DBE
S1131A3AF0480000C9F200FFC9F000FFADF0BDF4A0
S1131A4AFAF48B9DF06AF004ADF2BDF4DAF48DF089
S1131A5A480000C9F220FFC9F020FFADF0BDF4FA36
S1131A6AF48B9DF05AF0FBADF2BDF4DAF48DF04834
S1131A7A000061EFC061CFD761EFC161CFC9E82827
S1131A8A01C9F62801ADF6BDF0FAF0ABBDF68DF644
S1131A9A6C049DF48DF76C009DF5DAE8ADF47800DA
S1131AAA00C9F62A01C9F42A01ADF4BDF2FAF2AB6F
S1131ABABDF48DF46C049DF28DF56C009DF3ADF6C6
S1131ACABDF4DAF4ADF2780000C9F42201C9F222B5
S1131ADA01ADF2BDF0FAF0ABBDF28DF26C0C9DF0E3
S1131AEA8DF36C009DF1ADF4BDF2DAF2ADF078003D
S1131AFA00C9F0E2FFADF0BDF4FAF48B9DF25AF29C
S1131B0AFEADF0DAF48DF2480000C9F0E2FFADF060
S1131B1ABDF4FAF48B9DF25AF2FDADF0DAF48DF2CB
S1131B2A480000C9F0E6FFADF0BDF4FAF48B9DF26B
S1131B3A5AF2FEADF0DAF48DF2480000C9F0E6FF7D
S1131B4AADF0BDF4FAF48B9DF25AF2FDADF0DAF47D
S1131B5A8DF248000061EFC061CFD7C9F4E6FFAD4A
S1131B6AF4BDF0FAF08B9DF66AF601ADF4BDF2DA33
S1131B7AF28DF6480000C9F4E6FFADF4BDF0FAF0C0
S1131B8A8B9DF66AF602ADF4BDF2DAF28DF64800E0
S1131B9A00C9F62401C9F42401ADF4BDF0FAF0AB8E
S1131BAABDF48DF46C0C9DF28DF56C009DF3ADF6CD
S1131BBABDF4DAF4ADF2780000C9F42A01C9F22AB4
S1131BCA01ADF2BDF0FAF0ABBDF28DF25CFB9DF013
S1131BDA8DF35CFF9DF1ADF4BDF2DAF2ADF078005D
S1131BEA00C9F0E2FFADF0BDF4FAF48B9DF25AF2AB
S1131BFAFEADF0DAF48DF2480000C9F0E2FFADF070
S1131C0ABDF4FAF48B9DF25AF2FDADF0DAF48DF2DA
S1131C1A480000D72002F6B800A80844000061E88A
S1131C2AEC371C00308100B800EC491C00F6BF1ADE
S1131C3AF0A808BDF0BF18F0A806BDF0BF1EF0A8B2
S1131C4A00BDF01002D72002F6B800A8084400002C
S1131C5A61E8EC691C00308100B800ECDC1C00A8C7
S1131C6A06BDF0BF24F0A808BDF0BF2AF0C9F0E60B
S1131C7AFFADF0BDF4FAF48B9DF26AF201ADF0DA2D
S1131C8AF48DF2480000C9F244FFAF24F0BDF0BD60
S1131C9AF4FAF48B9DF0ADF2BDF4DAF48DF0480059
S1131CAA00AF24F0BDF0A6F0ADF0BF24F0AF2AF0E7
S1131CBABDF0B6F0ADF0BF2AF0C9F0E6FFADF0BD55
S1131CCAF4FAF48B9DF25AF2FEADF0DAF48DF2488E
S1131CDA0000A800BDF01002D761EFC1C361CFC9EB
S1131CEAEA2401C9E82401FAE8ABBDE88DE86C01ED
S1131CFA9DF68DE96C009DF7DAEAADF6780000C925
S1131D0AF6E5FFADF6BDF0FAF08B9DE86AE820AD82
S1131D1AF6BDF2DAF28DE8480000C9F6E1FFADF645
S1131D2ABDF4FAF48B9DE85AE8DFADF6BDF0DAF0BB
S1131D3A8DE8480000C9F6EDFFADF6BDF2FAF28B64
S1131D4A9DE86AE820ADF6BDF4DAF48DE8480000AF
S1131D5AC9F6E9FFADF6BDF0FAF08B9DE86AE82012
S1131D6AADF6BDF2DAF28DE8480000C9F60801AD15
S1131D7AF6BDF4DAF4300300780000C9F61001ADB8
S1131D8AF6BDF0DAF0302100780000C9F61801AD8A
S1131D9AF6BDF2DAF23007D0780000C9F610FFADCA
S1131DAAF6BDF4DAF430003E780000C9E82801C927
S1131DBAF62801ADF6BDF0FAF0ABBDF68DF65CFF80
S1131DCA9DF48DF75CFE9DF5DAE8ADF4780000C960
S1131DDAF62801C9F42801ADF4BDF2FAF2ABBDF458
S1131DEA8DF45CFE9DF28DF55CFF9DF3ADF6BDF4BA
S1131DFADAF4ADF2780000C9F42A01C9F22A01AD75
S1131E0AF2BDF0FAF0ABBDF28DF26C019DF08DF3E8
S1131E1A6C009DF1ADF4BDF2DAF2ADF0780000C9C0
S1131E2AF221FFC9F021FFADF0BDF4FAF48B9DF065
S1131E3A6AF002ADF2BDF4DAF48DF0480000C9F29A
S1131E4A01FFC9F001FFADF0BDF4FAF48B9DF06A0D
S1131E5AF004ADF2BDF4DAF48DF0480000C9F221C1
S1131E6AFFC9F021FFADF0BDF4FAF48B9DF05AF0EE
S1131E7AFBADF2BDF4DAF48DF0480000C9F201FFBB
S1131E8AC9F001FFADF0BDF4FAF48B9DF06AF001DC
S1131E9AADF2BDF4DAF48DF0480000C9F221FFC9AD
S1131EAAF021FFADF0BDF4FAF48B9DF05AF0FEADCB
S1131EBAF2BDF4DAF48DF048000061EFC2C061CFDC
S1131ECAD761EFC1C361CFC9EA2801C9E82801FA79
S1131EDAE8ABBDE88DE85CFF9DF68DE95CFE9DF7F5
S1131EEADAEAADF6780000C9E82801C9F62801AD96
S1131EFAF6BDF0FAF0ABBDF68DF65CFE9DF48DF7F7
S1131F0A5CFF9DF5DAE8ADF4780000C9F62A01C948
S1131F1AF42A01ADF4BDF2FAF2ABBDF48DF46C010E
S1131F2A9DF28DF56C009DF3ADF6BDF4DAF4ADF2D5
S1131F3A780000C9F42201C9F22201ADF2BDF0FA17
S1131F4AF0ABBDF28DF26C019DF08DF36C009DF146
S1131F5AADF4BDF2DAF2ADF0780000C9F0E1FFADFC
S1131F6AF0BDF4FAF48B9DF25AF2DFADF0DAF48D97
S1131F7AF2480000C9F0E5FFADF0BDF4FAF48B9D18
S1131F8AF25AF2DFADF0DAF48DF248000061EFC2E2
S1131F9AC061CFD7C9F4E5FFADF4BDF0FAF08B9D6B
S1131FAAF66AF620ADF4BDF2DAF28DF6480000C9FD
S1131FBAF62401C9F42401ADF4BDF0FAF0ABBDF482
S1131FCA8DF46C019DF28DF56C009DF3ADF6BDF4B4
S1131FDADAF4ADF2780000C9F42A01C9F22A01AD93
S1131FEAF2BDF0FAF0ABBDF28DF25CFE9DF08DF31A
S1131FFA5CFF9DF1ADF4BDF2DAF2ADF0780000C9F0
S113200AF0E1FFADF0BDF4FAF48B9DF25AF2DFADC4
S113201AF0DAF48DF2480000D72002F6B800A808D6
S113202A44000061E8EC3C2000308100B800EC0672
S113203A2100A808BDF2BF28F0A808BDF2BF1CF011
S113204AA806BDF2BF2CF0A80ABDF2BF26F0C9F457
S113205A1001C9F21001ADF2BDF0FAF0ABBDF28D78
S113206AF26C019DF08DF36C009DF1ADF4BDF2DAD2
S113207AF2ADF0780000C9F0E5FFADF0BDF4FAF472
S113208A8B9DF26AF220ADF0DAF48DF2480000AFCB
S113209A2CF0BDF044000061F8ECD22000C9F21023
S11320AAFFAF2CF0BDF0BDF4FAF48B9DF0ADF2BD98
S11320BAF4DAF48DF0480000AF2CF0BDF0A6F0ADD0
S11320CAF0BF2CF0ECE12000C9F010FFADF0BDF236
S11320DADAF251FF480000AF1CF0BDF0B6F0ADF0E3
S11320EABF1CF0C9F0E5FFADF0BDF4FAF48B9DF224
S11320FA5AF2DFADF0DAF48DF2480000A800BDF020
S113210A1002D761CFC1C3C5C761DFC1C3C5C761E7
S113211ACF2004C9F00601ADF0BDF2FAF2ABBDF06E
S113212A8DF05C079803C9F20E018803705100BD53
S113213AF0ADF2BDF4DAF4ADF07800008803D161B1
S113214AF8EC59210088039DF09800FC4F2200C93D
S113215AF046FFADF0BDF2FAF28B9DF09802AF188B
S113216AF0BDF2AF1AF0BDF0ADF246F061E3ECC493
S113217A2100AF1EF0BDF088029DF2ADF0BDF4DA85
S113218AF48DF2480000AF1EF0BDF0A6F0ADF0BF2A
S113219A1EF0AF1AF0BDF0A6F0ADF0BF1AF0AF18FA
S11321AAF0BDF2AF1AF0BDF0ADF246F061E8ECD141
S11321BA2100FC462200ECD121008802705100BDA6
S11321CAF0B800FC4A2200100461DFC6C4C2C06130
S11321DACFC6C4C2C061FC61CFC1C3C5C761DFC178
S11321EAC3C5C761CFAF2AF0BDF044000061F8EC63
S11321FA342200C9F244FFAF24F0BDF0BDF4FAF46E
S113220A8B9DF0ADF2BDF4DAF48DF0480000AF24F2
S113221AF0BDF0A6F0ADF0BF24F0AF2AF0BDF0B6E1
S113222AF0ADF0BF2AF0EC382200FC4B220061DF4B
S113223AC6C4C2C061CFC6C4C2C061FCE52FF0D710
S113224AD7E565F0D7D761CFC1C3C5C761DFC1C3BD
S113225AC5C761EFC1C361CF2004C9F00001ADF065
S113226ABDF4FAF4ABBDF08DF05C019803C9F4082F
S113227A018803705100BDF0ADF4BDF6DAF6ADF095
S113228A78000088034C0161E8ECA5220088039DCC
S113229AF09800FC252400EC0D2400AF1CF0BDF0DE
S11322AA44000061F8EC2A2300AF28F0BDF0B1BD68
S11322BAF2AF1CF0BDF0ADF246F061F8ECF3220087
S11322CAAF26F0BDF0C9F210FFADF2BDF4FAF48BFB
S11322DA9DF2ADF0BDF6DAF68DF2480000AF26F0B5
S11322EABDF0A6F0ADF0BF26F0C9F210FFAF2CF096
S11322FABDF0BDF4FAF48B9DF0ADF2BDF6DAF68DBD
S113230AF0480000AF2CF0BDF0A6F0ADF0BF2CF001
S113231AAF1CF0BDF0B6F0ADF0BF1CF0EC0D24001C
S113232AC9F01001ADF0BDF2FAF2ABBDF08DF05C6C
S113233A019DF28DF15C009DF3ADF244000061F859
S113234AECEC2300FC262400AF26F0BDF0C9F21001
S113235AFFADF2BDF4FAF48B9DF2ADF0BDF6DAF6F8
S113236A8DF2480000AF26F0BDF0A6F0ADF0BF260E
S113237AF0C9F21001C9F01001ADF0BDF4FAF4ABE2
S113238ABDF08DF05CFE9DE88DF15CFF9DE9ADF238
S113239ABDF6DAF6ADE8780000C9F00001ADF0BD8B
S11323AAF2FAF2ABBDF08DF05C409DEA8DF15C006F
S11323BA9DEBADEA44000061E8EC0D2400AF26F081
S11323CABDF0C9F210FFADF2BDF4FAF48B9DF2AD83
S11323DAF0BDF6DAF68DF2480000FC212400EC0D7B
S11323EA2400AF26F0BDF0C9F210FFADF2BDF4FA35
S11323FAF48B9DF2ADF0BDF6DAF68DF2480000FCDE
S113240A212400100461EFC2C061DFC6C4C2C061E6
S113241ACFC6C4C2C061FCF500EFD7D7F501EFD728
S113242A61EFC1C3C561CF2034C9F0F000ADF0BD7E
S113243AF2FAF28B98316C019830ADF0BDF4DAF40B
S113244A8830480000C9F0B601ADF0BDF2DAF230C6
S113245A0400780000C9F0B401ADF0BDF4DAF43038
S113246AFF0A780000C9F0E6FFADF0BDF2FAF28B7C
S113247A982F6C10982EADF0BDF4DAF4882E48002B
S113248A00C9F0E2FFADF0BDF2FAF28B982D5CEFD1
S113249A982CADF0BDF4DAF4882C480000C9F0E6B3
S11324AAFFADF0BDF2FAF28B982B6C20982AADF0AE
S11324BABDF4DAF4882A480000C9F0E2FFADF0BDA1
S11324CAF2FAF28B98295CDF9828ADF0BDF4DAF4BD
S11324DA8828480000C9F0E5FFADF0BDF2FAF28B96
S11324EA98276C809826ADF0BDF4DAF48826480063
S11324FA00C9F0E1FFADF0BDF2FAF28B98255C7FDA
S113250A9824ADF0BDF4DAF48824480000C9F0E652
S113251AFFADF0BDF2FAF28B98236C409822ADF02D
S113252ABDF4DAF48822480000C9F0E2FFADF0BD38
S113253AF2FAF28B98215CBF9820ADF0BDF4DAF47C
S113254A8820480000C9F0E6FFADF0BDF2FAF28B2C
S113255A981F6C80981EADF0BDF4DAF4881E48000A
S113256A00C9F0E2FFADF0BDF2FAF28B981D5C7F70
S113257A981CADF0BDF4DAF4881C480000C9F0E6F2
S113258AFFADF0BDF2FAF28B981B6C04981AADF009
S113259ABDF4DAF4881A480000C9F0E2FFADF0BDD0
S11325AAF2FAF28B98195CFB9818ADF0BDF4DAF4E0
S11325BA8818480000C9F0E7FFADF0BDF2FAF28BC3
S11325CA98176C809816ADF0BDF4DAF488164800B2
S11325DA00C9F0E3FFADF0BDF2FAF28B98155C7F07
S11325EA9814ADF0BDF4DAF48814480000C9F0D4A4
S11325FAFFADF0BDF2FAF28B98136C019812ADF0AC
S113260ABDF4DAF48812480000C9F0D0FFADF0BD79
S113261AF2FAF28B98115CFE9810ADF0BDF4DAF47C
S113262A8810480000C9F0D4FFADF0BDF2FAF28B6D
S113263A980F6C02980EADF0BDF4DAF4880E4800D7
S113264A00C9F0D0FFADF0BDF2FAF28B980D5CFD33
S113265A980CADF0BDF4DAF4880C480000C9F0D443
S113266AFFADF0BDF2FAF28B980B6C04980AADF048
S113267ABDF4DAF4880A480000C9F0D0FFADF0BD11
S113268AF2FAF28B98095CFB9808ADF0BDF4DAF41F
S113269A8808480000C9F0EEFFADF0BDF2FAF28BEB
S11326AA98075CEF9806ADF0BDF4DAF488064800A2
S11326BA00C9F0EAFFADF0BDF2FAF28B98055CEFBF
S11326CA9804ADF0BDF4DAF48804480000C9F0EEC9
S11326DAFFADF0BDF2FAF28B98036C209802ADF0CC
S11326EABDF4DAF48802480000C9F0EAFFADF0BD8F
S11326FAF2FAF28B98016C209800ADF0BDF4DAF48A
S113270A8800480000C9F09001ADF0BDF2DAF2F693
S113271A780000C9F018FFADF0BDF4DAF430FFF91F
S113272A78000030B801B832C9F0B801ADF0BDF292
S113273AFAF2ABBDF08DF05CFE9DEC8DF15CFF9D71
S113274AEDA832BDF4DAF4ADEC780000C9ECBA01B4
S113275AC9F0BA01ADF0BDF2FAF2ABBDF08DF05C8E
S113276AFE9DEA8DF15CFF9DEBDAECADEA780000A0
S113277AC9F09201ADF0BDF4DAF4300690780000A5
S113278AC9F01AFFADF0BDF2DAF230FF0F7800009B
S113279AC9EABE01C9F0BE01ADF0BDF4FAF4ABBD9D
S11327AAF08DF05CFD9DE88DF15CFF9DE9DAEAAD00
S11327BAE8780000C9E8BC01C9F0BC01ADF0BDF27B
S11327CAFAF2ABBDF08DF05CFD9DF68DF15CFF9DD8
S11327DAF7DAE8ADF6780000C9F6B801C9F0B8012D
S11327EAADF0BDF4FAF4ABBDF08DF05CFD9DF48D53
S11327FAF15CFF9DF5ADF6BDF0DAF0ADF4780000BA
S113280AC9F4BA01C9F0BA01ADF0BDF2FAF2ABBD2E
S113281AF08DF05CFD9DF28DF15CFF9DF3ADF4BD8E
S113282AF0DAF0ADF2780000C9F27100C9F0710073
S113283AADF0BDF4FAF48B9DF05AF0FDADF2BDF49F
S113284ADAF48DF0480000C9F221FFC9F021FFAD86
S113285AF0BDF4FAF48B9DF06AF040ADF2BDF4DAFF
S113286AF48DF0480000103461EFC4C2C061CFD7C0
S113287AC9F2E2FFADF2BDF0FAF08B9DF45AF4EF1F
S113288AADF2DAF08DF4480000C9F2E6FFADF2BD0C
S113289AF0FAF08B9DF45AF4EFADF2DAF08DF448C5
S11328AA0000C9F4B201C9F2B201ADF2BDF0FAF006
S11328BAABBDF28DF26C019DF08DF36C009DF1AD10
S11328CAF4BDF2DAF2ADF0780000D7C9F4B401C964
S11328DAF2B401ADF2BDF0FAF0ABBDF28DF26C01C7
S11328EA9DF08DF36C009DF1ADF4BDF2DAF2ADF01A
S11328FA780000C9F0E6FFADF0BDF4FAF48B9DF25E
S113290A6AF210ADF0DAF48DF2480000C9F0E2FF81
S113291AADF0BDF4FAF48B9DF25AF2EFADF0DAF4AD
S113292A8DF2480000D7C9F2E2FFADF2BDF0FAF029
S113293A8B9DF45AF4DFADF2DAF08DF4480000C945
S113294AF2E6FFADF2BDF0FAF08B9DF45AF4DFAD76
S113295AF2DAF08DF4480000C9F4B201C9F2B20106
S113296AADF2BDF0FAF0ABBDF28DF26C029DF08DC2
S113297AF36C009DF1ADF4BDF2DAF2ADF07800002B
S113298AD7C9F4B401C9F2B401ADF2BDF0FAF0AB9F
S113299ABDF28DF26C029DF08DF36C009DF1ADF4E5
S11329AABDF2DAF2ADF0780000C9F0E6FFADF0BD91
S11329BAF4FAF48B9DF26AF220ADF0DAF48DF2485F
S11329CA0000C9F0E2FFADF0BDF4FAF48B9DF25AAF
S11329DAF2DFADF0DAF48DF2480000D761CFC1C35B
S11329EAC5C761DFC1C3C5C761CF2004E6BFE4EF31
S11329FA30B0BCB800300600B802FC501C00100409
S1132A0A61DFC6C4C2C061CFC6C4C2C061FC61CFA3
S1132A1AC1C3C5C7C6C4C2C061FC61CFC1C3C5C7EF
S1132A2AC6C4C2C061FCC9F07700ADF0BDF2DAF2E7
S1132A3AF1480000FCE21000FC241000FC9F120084
S1132A4AFC791700FC160E00FC2A2400FC40130033
S1132A5AFCF61000C9F07800ADF0BDF2DAF2F148E4
S1132A6A0000D72002717BFAFC302A00E6B800BDC8
S1132A7AF01002D7200EFC2D2C00FCAF1700FC82AC
S1132A8A1A00FCF61000FC921100FC401300FC4CE6
S1132A9A1400FC2A2400FC302900FCE31C00FCCBB3
S1132AAA1E00C9F001FFADF0BDF4FAF48B9DF26A81
S1132ABAF220ADF0DAF48DF2480000FCCF0C00519C
S1132ACA509F78EF516F9F79EF51749F7AEF51615C
S1132ADA9F7BEF51749F7CEF516F9F7DEF51209F35
S1132AEA7EEF514F9F7FEF51539F80EF51209F817B
S1132AFAEF51339F82EF512E9F83EF51309F84EF22
S1132B0A510D9F85EF510A9F86EFF587EFE6B800CE
S1132B1AFC593400305765B804306C63B806306F1A
S1132B2A6DB80830650DB80A300A00B80CC9F00E41
S1132B3A00AEF8BDF0040E00BDF004F6FFB8003094
S1132B4A0900B802FC501C003030F0B800E6B802A4
S1132B5AFC1E1C00ADF0BF66F0FCC90F0000C9F0F2
S1132B6A30FFADF0BDF2FAF28B9DF0317A9DF0D4CC
S1132B7AF061E8EC682B003005FFB800300500B8B6
S1132B8A02FC2B0900D4F061F8ECA02B00300500FC
S1132B9AB800FCDA00003005FFB800300400B802BF
S1132BAAFC2B0900D4F061F8ECBF2B00300300B809
S1132BBA00FCDA00003005FFB800300300B802FC5C
S1132BCA2B0900D4F061F8ECDE2B00300400B800C5
S1132BDAFCDA00003005FFB800E6B802FC2B090055
S1132BEAD4F061F8ECF92B00E6B800FCDA0000FC3A
S1132BFAC63B008F2FF09DF0D4F061F8EC292C002D
S1132C0AF52FF08F30F09DF09800FC912C003030B5
S1132C1AF0B800E6B802FC1E1C00ADF0BF66F0EC8A
S1132C2A632B00717AFAD7332CCBF8DCFE410061AE
S1132C3ACF34D8003600EF61DF3600EF3002EF27D9
S1132C4A311E440000DD0EB161CF11A9BBA5A5A7B1
S1132C5AA761DFEFED61CF3602EF30000061DF30AC
S1132C6AA0F027311E440000DD0AB161CFBBA7A73B
S1132C7A61DFEFF161CFFC6D2A0000300000C1C1B1
S1132C8AC1FC7E2A00EFFE200488084C2461E8EC8B
S1132C9ABB2C00AFE2EFBDF088089DF2DAF048AE33
S1132CAAEFAFE2EFBDF0A6F0ADF0BFE2EFEC742DAA
S1132CBA0088084C0A61E8EC1E2D00AFE2EFBDF073
S1132CCAB6F0ADF004AEEF168B9DF04AF00D61E854
S1132CDAEC0B2D00AF38EFBDF044000061E8EC0BBB
S1132CEA2D00AFE2EFBDF088089DF2DAF048AEEFAE
S1132CFAAFE2EFBDF0A6F0DAF0F148AEEFFC7B2DBF
S1132D0A00F4F08DF09FAEEFF6BFE2EFF6BF38EFB6
S1132D1AEC742D00AF38EFBDF044000061E8EC74A8
S1132D2A2D00AFE2EFBDF044000061E8EC5A2D003B
S1132D3A88084C2461F8EC5A2D0030B7BCB800302E
S1132D4A0700B802FC501C00E6BF38EFEC742D00F3
S1132D5AAFE2EFBDF088089DF2DAF048AEEFAFE2D9
S1132D6AEFBDF0A6F0ADF0BFE2EF88089DF01004C5
S1132D7AD7202CFCF13300ADF044000061F8ECDC00
S1132D8A33008FAFEF9DF0CDF100ADF04443006105
S1132D9AF8EC7B3300ADF044430071FF61F3ECF8C7
S1132DAA2D00ADF044320061F8EC112F00ADF0446F
S1132DBA320071FF61F3ECDE2D00ADF044300061A6
S1132DCAF8EC4F2E00ADF044310061F8ECB02E005F
S1132DDAECBC3300ADF044330061F8EC452F00AD90
S1132DEAF044420061F8EC733300ECBC3300ADF0FC
S1132DFA44490061F8EC833300ADF044490071FFA3
S1132E0A61F3EC2A2E00ADF044440061F8EC932FF0
S1132E1A00ADF044450061F8ECF23200ECBC33003A
S1132E2AADF044580061F8ECAC3300ADF0445900FD
S1132E3A61F8ECB43300ADF0444C0061F8EC2F3087
S1132E4A00ECBC3300AF6EEFBDF044010061E8EC66
S1132E5A692E0051309829F6BF6EEFEC6D2E0051A1
S1132E6A339829510D982A510A982B51249F3CEFE3
S1132E7A51309F3DEFF53EEF303CEFB800C9F02CDE
S1132E8A00AEF8BDF0042C00BDF004FDFFB802FC4E
S1132E9A2A4100300700B800FCDA0000300500BF00
S1132EAAE2EFECDC3300AF6EEFBDF044000061E802
S1132EBAECCA2E0051309829E6BF6EEFECCE2E00F4
S1132ECA51339829510D982A510A982B51249F3C21
S1132EDAEF51319F3DEFF53EEF303CEFB800C9F4B6
S1132EEA2C00AEF8BDF4042C00BDF404FDFFB802B6
S1132EFAFC2A4100300600B800FCDA000030050064
S1132F0ABFE2EFECDC330030E6EFB80030B0EFB8E4
S1132F1A02FC78410051249F3CEF51329F3DEF510E
S1132F2A309F3EEF510D9F3FEF510A9F40EFF5410D
S1132F3AEF300500BFE2EFECDC330051249F3CEF95
S1132F4A51339F3DEF51309F3EEF51319F3FEF5137
S1132F5A399F40EF51319F41EF51319F42EF51392F
S1132F6A9F43EF51309F44EF51339F45EF51389FB0
S1132F7A46EF510D9F47EF510A9F48EFF549EF304D
S1132F8A0D00BFE2EFECDC330030E6EFB800FC9F43
S1132F9A4100ADF044200061F3ECE22F0051249F7C
S1132FAA3CEF51449F3DEF51309F3EEF510D9F3FFF
S1132FBAEF510A9F40EFF541EF300500BFE2EF30D1
S1132FCA78EFB80030E6EFB802FC784100E6B800C2
S1132FDAFC593400ECDC3300F19800E19802FC98C7
S1132FEA0B00306806B800FCE40D00F1980051802B
S1132FFA9802FC980B00306806B800FCE40D0051F6
S113300A249F3CEF51449F3DEF51339F3EEF510DB6
S113301A9F3FEF510A9F40EFF541EF300500BFE2B1
S113302AEFECDC33008FB0EF9DF04AF03061E8EC4E
S113303AB43000C9F004FFADF0BDF6FAF68B9DF288
S113304A5AF2FDADF0BDF4DAF48DF2480000C9F08D
S113305A04FFADF0BDF6FAF68B9DF25AF2FBADF021
S113306ABDF4DAF48DF2480000C9F004FFADF0BDF6
S113307AF6FAF68B9DF25AF2F7ADF0BDF4DAF48D56
S113308AF248000051249F3CEF514C9F3DEF5130D0
S113309A9F3EEF510D9F3FEF510A9F40EFF541EFDD
S11330AA300500BFE2EFECEE32008FB0EF9DF04A3C
S11330BAF03161E8EC393100C9F004FFADF0BDF636
S11330CAFAF68B9DF25AF2FDADF0BDF4DAF48DF204
S11330DA480000C9F004FFADF0BDF6FAF68B9DF284
S11330EA5AF2FBADF0BDF4DAF48DF2480000C9F0EF
S11330FA04FFADF0BDF6FAF68B9DF26AF208ADF064
S113310ABDF4DAF48DF248000051249F3CEF514C8F
S113311A9F3DEF51309F3EEF510D9F3FEF510A9F64
S113312A40EFF541EF300500BFE2EFECEE32008FDD
S113313AB0EF9DF04AF03261E8ECBE3100C9F00408
S113314AFFADF0BDF6FAF68B9DF26AF202ADF0BD60
S113315AF4DAF48DF2480000C9F004FFADF0BDF6CC
S113316AFAF68B9DF25AF2FBADF0BDF4DAF48DF265
S113317A480000C9F004FFADF0BDF6FAF68B9DF2E3
S113318A5AF2F7ADF0BDF4DAF48DF2480000512496
S113319A9F3CEF514C9F3DEF51309F3EEF510D9FA5
S11331AA3FEF510A9F40EFF541EF300500BFE2EFD0
S11331BAECEE32008FB0EF9DF04AF03361E8EC4355
S11331CA3200C9F004FFADF0BDF6FAF68B9DF25A4F
S11331DAF2FDADF0BDF4DAF48DF2480000C9F00452
S11331EAFFADF0BDF6FAF68B9DF26AF204ADF0BDBE
S11331FAF4DAF48DF2480000C9F004FFADF0BDF62C
S113320AFAF68B9DF25AF2F7ADF0BDF4DAF48DF2C8
S113321A48000051249F3CEF514C9F3DEF51309F91
S113322A3EEF510D9F3FEF510A9F40EFF541EF30BA
S113323A0500BFE2EFECEE32008FB0EF9DF04AF0EA
S113324A3461E8ECC83200C9F004FFADF0BDF6FA07
S113325AF68B9DF26AF202ADF0BDF4DAF48DF2480F
S113326A0000C9F004FFADF0BDF6FAF68B9DF26AD0
S113327AF204ADF0BDF4DAF48DF2480000C9F004AA
S113328AFFADF0BDF6FAF68B9DF25AF2F7ADF0BD3A
S113329AF4DAF48DF248000051249F3CEF514C9F1C
S11332AA3DEF51309F3EEF510D9F3FEF510A9F4032
S11332BAEFF541EF300500BFE2EFECEE32005124A6
S11332CA9F3CEF514C9F3DEF51329F3EEF510D9F72
S11332DA3FEF510A9F40EFF541EF300500BFE2EF9F
S11332EAECDC3300ECDC3300FC7235008F9DF09D7E
S11332FAF0705100BDF48F9EF09DF0705100BDF244
S113330A8F9CF09DF0CDF100C9F62C00AEF8BDF605
S113331A042C00BDF604DFFFB80030BFBCB802AD10
S113332AF4B804ADF2B806ADF0B808FCFD400030BC
S113333A3CEFB800C9F02C00AEF8BDF0042C00BD77
S113334AF004DFFFB802FC784100C9F42C00AEF89F
S113335ABDF4042C00BDF404DFFFB800FC9F410057
S113336AADF0BFE2EFECDC3300FC953600ECDC3365
S113337A00FCFF3800ECDC3300AF3AEFBDF0303C20
S113338AEFB80030D2BCB802ADF0B804FCFD40007E
S113339A303CEFB800FC9F4100ADF0BFE2EFECDC3B
S11333AA3300FC7C3C00ECDC3300FC243E00ECDC07
S11333BA33008FAFEF9DF0CDF100303CEFB8003011
S11333CADCBCB802ADF0B804FCFD4000300500BF17
S11333DAE2EFAFE2EFBDF0303CEFB800ADF0B80277
S11333EAFC501C00102CD7200C30AEEFB800FC9F08
S11333FA4100B6F0ADF004AEEF168B9DF04AF00A28
S113340A61F8EC4F3400512498078FAFEF9DF09880
S113341A0851329809510D980A510A980B30AEEFA7
S113342AB800C9F00C00AEF8BDF0040C00BDF004FD
S113343AFBFFB802FC784100300500BFE2EFF6B8A2
S113344A04EC523400E6B804A804BDF0100CD761A9
S113345AEFC161CF2006A80C44000061F8EC773470
S113346A00F6BF72EFE6BF70EFF6BFACEFAF70EFD6
S113347ABDF044000061F8EC313500F19800E198A0
S113348A02FC980B00306806B800FCE40D00F198C1
S113349A0051809802FC980B00306806B800FCE4DE
S11334AA0D00AF72EFBDF0B804EC0A3500AF72EF4D
S11334BABDF0040800BDF2A804BDF0ADF246F06107
S11334CAE8ECE33400F1980051C09802FC980B0030
S11334DA306806B800FCE40D00A8040478EFBDF0D7
S11334EABDF2FAF28B9DF0E198008DF09802FC98F7
S11334FA0B00302800B800FCE40D00A804A1B804AD
S113350AA804BDE83078EFB800FC9F4100B6F0B6D5
S113351AF0ADE846F061D8ECB73400AF72EFBDF015
S113352AA6F0ADF0BF72EFAF72EFBDF0BDE8307830
S113353AEFB800FC9F4100ADF004EFFFBDF0ADE829
S113354A46F061C8EC6635003078EFB800FC9F415C
S113355A00ADF044120061F3EC6A3500F6BF70EF77
S113356A100661EFC061CFD72002C9F031FFADF078
S113357ABDF2DAF2F1480000FC310F0000C9F03064
S113358AFFADF0BDF2FAF28B9DF0317A9DF0D4F0E2
S113359A61E8EC873500FC310F0000C9F030FFAD5B
S11335AAF0BDF2FAF28B9DF0317A9DF0D4F061E825
S11335BAECA53500309DF0B800FCFD0F008F9DF09E
S11335CA9DF0311A9DF09F9DF0C9F031FFADF0BD19
S11335DAF2DAF2E1480000FC310F0000C9F030FFD2
S11335EAADF0BDF2FAF28B9DF0317A9DF0D4F06120
S11335FAE8ECE63500FC310F0000C9F030FFADF00D
S113360ABDF2FAF28B9DF0317A9DF0D4F061E8ECC8
S113361A043600309CF0B800FCFD0F008F9CF09D2E
S113362AF0312A9DF09F9CF0C9F031FFADF0BDF254
S113363ADAF25102480000FC310F0000C9F030FFF1
S113364AADF0BDF2FAF28B9DF0317A9DF0D4F061BF
S113365AE8EC463600FC310F0000C9F030FFADF04B
S113366ABDF2FAF28B9DF0317A9DF0D4F061E8EC68
S113367A643600309EF0B800FCFD0F008F9EF09D6A
S113368AF0312A9DF09F9EF01002D72022F198195A
S113369AF1981AF1981BF1981CF1981DF1981EF1F2
S11336AA9813F19814F19815F19816F19817F1985E
S11336BA18300400BFE2EFF6B820EC093800AEF87F
S11336CABDF2041900BDF0A82006F0BDF0BDF4FA5D
S11336DAF48B9DF2AFE2EFBDF004AEEF168B9DF0D2
S11336EA768DF2610E9DF00CD09DF2AEF8BDF40415
S11336FA1900BDF0A82006F0BDF0BDF4DAF48DF28D
S113370A480000AEF8BDF2041300BDF0A82006F08C
S113371ABDF0BDF4FAF48B9DF2AFE2EFBDF004AE56
S113372AEF168B9DF0768DF2610E9DF00CD09DF212
S113373AAEF8BDF4041300BDF0A82006F0BDF0BD38
S113374AF4DAF48DF2480000AFE2EFBDF0A6F0AD72
S113375AF0BFE2EFBDF004AEEF168B9DF04AF02CF9
S113376A61E8EC853700A820A1B820AFE2EFBDF0EC
S113377AA6F0ADF0BFE2EFEC093800AFE2EFBDF01E
S113378A04AEEF168B9DF04AF00D61F8EC0938008F
S113379AAEF8BDF2041900BDF0A82006F0BDF0BDD4
S11337AAF4FAF48B9DF031499DF2AEF8BDF4041994
S11337BA00BDF0A82006F0BDF0BDF4DAF48DF2489D
S11337CA0000AEF8BDF2041300BDF0A82006F0BD57
S11337DAF0BDF4FAF48B9DF061019DF031299DF15D
S11337EA768DF0610E9DF2AEF8BDF4041300BDF0BF
S11337FAA82006F0BDF0BDF4DAF48DF2480000AF5B
S113380AE2EFBDF004AEEF168B9DF04AF00D61E8CD
S113381AECC83600C9F02200AEF8BDF0042200BD9F
S113382AF004F1FFB800FC8E3A00D4F061F8ECA27F
S113383A380088199DF09812881A9DF09811881BEF
S113384A9DF0980F881C9DF0980E881D9DF0980D88
S113385A881E9DF0980C300500BFE2EF51249F3C6E
S113386AEF51429F3DEF51309F3EEF510D9F3FEF85
S113387A510A9F40EFF541EFA80CBDF0B800A80E1D
S113388ABDF0B802A810BDF0B80488129DF09806DD
S113389AFC0F1600ECFC3800F1981FAEF8BDF204D8
S11338AA0800BDF0BDF4DAF4302442780000DAF0FE
S11338BA30320D780200300A00780400C9F0220080
S11338CAAEF8BDF0042200BDF004E6FFB800FC9F88
S11338DA4100ADF0BFE2EF303CEFB800C9F222007C
S11338EAAEF8BDF2042200BDF204E6FFB802FC7889
S11338FA41001022D761EFC1C3C561CF2020F198DE
S113390A11F19812F19813F19814F19815F1981687
S113391AC9F02000AEF8BDF0042000BDF004F7FFA2
S113392AB800FC801400881D9DF09811881C9DF035
S113393A9812881A9DF0981388199DF0981488187B
S113394A9DF0981588179DF09816C9F02000AEF8D6
S113395ABDF0042000BDF004F1FFB800FC063A00F3
S113396A302000B800FCED3F00ADF0B81E88119D70
S113397AF0705100BDEC88129DF0705100BDEA88C8
S113398A139DF0705100BDE888149DF0705100BD7C
S113399AF688159DF0705100BDF488169DF070519B
S11339AA00BDF2A81EBDF0B80030E3BCB802ADEC0D
S11339BAB804ADEAB806ADE8B808ADF6B80AADF48D
S11339CAB80CADF2B80EFCFD4000A81EBDF0B8005C
S11339DAFC9F4100ADF0BFE2EF303CEFB800A81EF7
S11339EABDF0B802FC784100A81EBDF0B800FCD6B0
S11339FA3E00102061EFC4C2C061CFD72006510631
S1133A0A9803F6B804EC713A00A804BDF0A80A06B3
S1133A1AF0BDF0BDF2FAF28B9DF05C0F9802A80497
S1133A2ABDF0A80A06F0BDF0BDF4FAF48B9DF0319E
S1133A3A4A9801A804BDF0A80A06F0BDF288019DBF
S1133A4AF061019DF031299DF1768DF0610E9DF0B2
S1133A5A768802610E9DF0ADF2BDF4DAF48DF04879
S1133A6A0000A804A1B8048803705100BDF2A80498
S1133A7ABDF0ADF246F071FF7177F161F3EC133AE0
S1133A8A001006D72018301F00B800301C00B802F6
S1133A9A301F00B804301E00B806301F00B80830C2
S1133AAA1E00B80A301F00B80C301F00B80E301EB2
S1133ABA00B810301F00B812301E00B814301F00AE
S1133ACAB816A81CA1BDF0BDF2FAF28B9DF04AF01B
S1133ADA0C61F3ECF53A00A81CA1BDF0BDF4FAF4AC
S1133AEA8B9DF0D4F061E8ECFB3A00F4F0ECC33BB4
S1133AFA00A81C040200BDF0BDF2FAF28B9DF0701E
S1133B0A5100BDF2A81CA1BDF0BDF4FAF48B9DF0DE
S1133B1ACDF100ADF001BDF0C9F41800AEF8BDF462
S1133B2A041800BDF406F0BDF004E8FFBDF0BDF4CE
S1133B3AFAF4ABBDF0ADF246F071FF7177F161F3BF
S1133B4AEC643B00A81C040200BDF0BDF2FAF28B3F
S1133B5A9DF0D4F061E8EC6A3B00F4F0ECC33B005E
S1133B6AA81C040300BDF0BDF4FAF48B9DF04AF0DE
S1133B7A1761E3EC873B00F4F0ECC33B00A81C0498
S1133B8A0400BDF0BDF2FAF28B9DF04AF03B61E30A
S1133B9AECA43B00F4F0ECC33B00A81C040500BDF4
S1133BAAF0BDF4FAF48B9DF04AF03B61E3ECC13BBF
S1133BBA00F4F0ECC33B00E4F01018D720028FE0C5
S1133BCAEF9DF0D4F061F8ECDF3B00F5E0EFF6B8D6
S1133BDA00FC5934008FAAEF9DF0D4F061F8EC454B
S1133BEA3C00F5AAEFC9F001FFC9F201FFADF2BD2D
S1133BFAF4FAF48B9DF2317A9DF27AF2018DF23164
S1133C0A799DF2ADF0BDF4FAF48B9DF35AF37F8DEE
S1133C1AF36BF29DF2ADF0DAF48DF2480000C9F0CC
S1133C2A01FFADF0BDF2FAF28B9DF0317A9DF0D42A
S1133C3AF061E8EC453C00FC483C001002D7200245
S1133C4AC9F08201ADF0BDF2FAF2ABBDF03000105A
S1133C5A26F0B800BDF0314EBDF0BF3AEFBDF00416
S1133C6ACEFFBDF0BF3AEFFC8B2900FC30290010CF
S1133C7A02D7203451069811C9F001FFADF0BDF402
S1133C8AFAF48B9DF25AF2DFADF0DAF48DF24800C1
S1133C9A00C9F03400AEF8BDF0043400BDF004DD10
S1133CAAFFB800E6B802C9F43400AEF8BDF404342F
S1133CBA00BDF404D3FFB804FC232000008F00EFF6
S1133CCA9DF0D4F061E8ECC73C00E501EFE500EFB4
S1133CDAC9F001FFADF0BDF4FAF48B9DF26AF2204B
S1133CEAADF0DAF48DF2480000306400B800FCE468
S1133CFA0D0051029811F19812F198135149981430
S1133D0AC9F001FFADF0BDF4FAF48B9DF25AF2DF6B
S1133D1AADF0DAF48DF2480000C9F03400AEF8BD13
S1133D2AF0043400BDF004DDFFB800300400B8022A
S1133D3AC9F43400AEF8BDF4043400BDF404D3FF6E
S1133D4AB804FC232000008F00EF9DF0D4F061E852
S1133D5AEC513D00E501EFE500EFC9F001FFADF0DC
S1133D6ABDF4FAF48B9DF26AF220ADF0DAF48DF226
S1133D7A480000306400B800FCE40D0051049811B6
S1133D8AC9F001FFADF0BDF4FAF48B9DF25AF2DFEB
S1133D9AADF0DAF48DF2480000C9F03400AEF8BD93
S1133DAAF0043400BDF004DDFFB800E6B802C9F43B
S1133DBA3400AEF8BDF4043400BDF404D3FFB804EF
S1133DCAFC232000008F00EF9DF0D4F061E8ECCFD3
S1133DDA3D00E501EFE500EFC9F001FFADF0BDF4E8
S1133DEAFAF48B9DF26AF220ADF0DAF48DF248000F
S1133DFA00306400B800FCE40D0051249F3CEF51EC
S1133E0A589F3DEF510D9F3EEF510A9F3FEFF540FA
S1133E1AEF300400BFE2EF1034D720345103982A5C
S1133E2AF1982BF1982CC9F001FFADF0BDF4FAF426
S1133E3A8B9DF25AF2DFADF0DAF48DF2480000E518
S1133E4A00EFE501EFC9F03400AEF8BDF004340028
S1133E5ABDF004F6FFB800300400B802C9F4340017
S1133E6AAEF8BDF4043400BDF404D3FFB804FC2353
S1133E7A2000008F00EF9DF0D4F061E8EC7D3E0055
S1133E8A8F01EF9DF0D4F061E8EC7D3E00E500EF90
S1133E9AE501EFC9F001FFADF0BDF4FAF48B9DF230
S1133EAA6AF220ADF0DAF48DF2480000E6BFE2EFE0
S1133EBA880A9DF0CDF100303CEFB80030FCBCB864
S1133ECA02ADF0B804FCFD40001034D761EFC161C3
S1133EDACFA806BDF6AF76EFBDF2ADF64400006199
S1133EEAF8EC303F00AF74EFBDE8ADF246E861C8C4
S1133EFAEC303F00040400BDF0ADF646F061E8EC96
S1133F0A223F00EC363F00ADF004040046F661F8A7
S1133F1AEC3A3F00ADF0BDF2FAF2AC02BDF046E86D
S1133F2A61D8EC113F0061EFC061CFD7ADF2BDF0AB
S1133F3AADF01489D161F8EC303F00FAF0AC02BD5F
S1133F4AF446E861C8ECAE3F00ADF21489D161F8D9
S1133F5AEC923F00ADF41489D161E8EC743F00FAA5
S1133F6AF4AC02BDF4DAF0780200ADF012F14800C4
S1133F7A00ADF0BDF2ADF446E861E8EC303F00ADC7
S1133F8AF2BF74EFEC303F00ADF41489D161E8EC70
S1133F9AA33F00FAF4AC02BDF4DAF2ADF4780200FD
S1133FAAEC7F3F00ADF21489D161F8ECA33F00EC39
S1133FBA743F00AEF8BDF0D7A804BDF2A806BDF060
S1133FCAFAF2AC02BDF426F044040061E3ECEC3FDF
S1133FDA00DAF2ADF078020012F1480000ADF4788C
S1133FEA0200D761EFC1C361CFAF76EF440000612D
S1133FFAF8ECD54000A808A1BDF0605CFE9DEA8DEE
S113400AF19DEBADEA040400BDE8FCBD3F00AF74CA
S113401AEFBDF4ADF026F4BDF0ADE846F061E3EC93
S113402A7F4000AF76EFBDF2ADF446F261E3EC6C8B
S113403A4000ADF21489FAF2D161E8EC774000ACA1
S113404A02BDF626F204FCFFBDF0ADEA46F061E3D8
S113405AEC9B4000ADF6BDF2ADF446F261F3EC3CE4
S113406A4000C9F0000061EFC2C061CFD7AC02BD05
S113407AF2EC324000ADF412E1480000ADF406E877
S113408ABF74EF78020026EABDF061EFC2C061CFC7
S113409AD7ADF2040400BDF0ADF212E1480000AD60
S11340AAF006EABDEAADF626EA44040061E3EC70E0
S11340BA4000DAF2ADEA780200DAEAF1480000AD2B
S11340CAF678020061EFC2C061CFD730A0F0BF76A4
S11340DAEF30A0F0BF74EFECFF3F00A806BDF2FA80
S11340EAF2ABBDF0DAF2A1780000ADF01288044810
S11340FA0000D72008A80EB80030E540B802AEF890
S113410A040C00B804AEF8040C00040400B806FC5D
S113411AC84100A80CBDF2DAF2F14800001008D731
S113412A61EFC161CFA806BDF0BDF2EAF089D161A1
S113413AF8EC704100A6F2ADF21489D161E8EC3FC3
S113414A4100A808BDF4ADF4168B9DF6ADF2128DAC
S113415AF6480000A6F2A6F4D4F661E8EC50410051
S113416A61EFC061CFD7ADF0BDF2EC4C4100A804B9
S113417ABDF2A806BDF0ADF0168B9DF4ADF2128D1A
S113418AF4480000A6F2A6F0D4F461E8EC804100F9
S113419AA804BDF0D7A804BDF2BDF0EAF289D16142
S11341AAF8ECC34100A6F0ADF01489D161E8ECAF94
S11341BA4100ADF026F2BDF0D7C9F00000D761EF97
S11341CAC1C3C561CF20E0F6B82CAEF804DF00B84D
S11341DA14A8EAA1BDEAA8EA168B9DF04AF0256163
S11341EAF8EC204200D4F061F8ECCB4D008DF09845
S11341FA00A8EEB802A8EC1261DAFBF8FF61792C88
S113420AADEAB8EAA1BDEAA8EA168B9DF04AF02500
S113421A61E8ECEF4100ADEA168B9DEC4AEC2561AE
S113422AF8EC564E00F19831984E88319837883117
S113423A98364AEC2B61F8EC7642004AEC2B61F38F
S113424AEC7E42004AEC2061F8EC5545004AEC2326
S113425A61E8ECA44200FBF8FF61594EA6EAFAEAC7
S113426A8B9DEC4AEC2B61E8EC4542008DEC9836C8
S113427AEC6642004AEC2D61F8EC9A42004AEC30B2
S113428A61E8ECA44200FBF8FF615931EC66420094
S113429AFBF8FF615937EC664200ADEABDF04AEC1F
S11342AA2A61F8ECA14D008DEC0CD09DF0F6B838DB
S11342BA4AF00961F3EC0643008DEC9DF2A838BD7F
S11342CAF0ADF001BDF0312DBDF4ADF006F4BDF052
S11342DAA6EACDF300ADF204D0FFBDF2ADF006F2CA
S11342EABDF0FAEA8B9DF20CD09DF34AF30961E31F
S11342FAECCB42008DF29DECADF0B8388837D16131
S113430AF8EC124300F198314AEC2E61F8EC404D76
S113431A00C9E8FFFF4AEC6861F8EC324D004AEC48
S113432A6C61F8ECC745004AEC4C61F8ECC74500EF
S113433A8DEC982EF4F0ADEAA1B8EA882E4C6661A9
S113434AF8ECE04500882E4C6661E3EC664500888B
S113435A2E4C6F61F8EC395200882E4C6F61E3ECF5
S113436AD94D00882E4C7361F8ECB65100882E4C56
S113437A7361E3EC455500882E4C7561F8EC41579E
S113438A00882E4C7861E8EC7E4E00301FBDB816CA
S113439AA8F016ABB83CD4F061F8EC5F5100A8F071
S11343AA16AC02B83EA8F0040400B8F0882E4C6F8C
S11343BA61F8EC765100882E4C7561F8ECE95500E9
S11343CA301000B832F6B834F19836FBF8FF3000F2
S11343DA0061293CBDF430000061D8B161293EBDB9
S11343EAF6883C6BF49842883D6BF59843883E6B9B
S11343FAF69844883F6BF79845A844317A9DF4307F
S113440A0000BDF69DF58DF49DECADE84400006115
S113441AE8EC544F00D4EC61E8EC544F00AEF804D5
S113442ADF00BDEAADE8BDF0ADF0BDE8A83846E866
S113443A71FF7177E961D8ECB24500A83826E8BD66
S113444AEC883676F1612E9DF088366BF0317A313C
S113445A8FBDF0ADEC26F0B8168837D161E8ECC10F
S113446A4400A816B1B81E44000071FF61D8ECF0EC
S113447A5500A81EBDECADEAB82AADE8B82EA8ECE2
S113448ABDE8A8EEBDEA51209800ADEAB802DAE820
S113449A61DAB6ECADEC44FFFF61E8EC904400A8A5
S11344AA2ABDEAA82EBDE8A816BDF0A81E26F0B8B3
S11344BA16A82C06F0B82C8836D161E8EC144F0003
S11344CAADE844000071FF61E3EC0F4500ADEABDBD
S11344DAEC06E8BDEAADE8B81EADECBDE8A8EEBD51
S11344EAECFAE88B9800ADECB802A8EC1261DAA6F3
S11344FAE8ADE846EA61E8ECEB4400A81EBDE8A88A
S113450A2C06E8B82C8837D161F8ECDB4100A816F0
S113451AB1BDE844000071FF61D8ECDB4100A8ECAE
S113452ABDEAA8EEBDEC51209800ADECB802DAEA77
S113453A61DAB6E8ADE844FFFF61E8EC304500A86B
S113454A1616A82C07B82CECDB41008836D161E892
S113455AEC6642008DEC9836EC664200882E4C5884
S113456A61F8EC415700882E4C5861F3EC1A4E005E
S113457A882E4C4561F8ECFB4E00882E4C4761F8B6
S113458AEC8A4E00882ED161E8EC7E4E00C9E8031D
S113459A00ADEAB8EAC9EA30BDA83846E871FF7145
S11345AA77E961C8EC454400F6B8168837D161E862
S11345BAECC1440030FFFFB816ECC14400FAEA8C9F
S11345CA01982EA6EAE4F0ADEAA1B8EA882E4C6670
S11345DA61E8EC4F4300A4F0ADE8C9EC00004400E4
S11345EA0071FF61D8EC525700F1982ED4F061F8AB
S11345FAECAB4E00A8F0040400BDEAA8F016ABB870
S113460A00A8F016AC02B802FC5D57008DF0981EA3
S113461A8DF1981F8DF298208DF398218DF49822AC
S113462A8DF598238DF698248DF798258DF0981694
S113463A8DF198178DF298188DF398198DF4981AAC
S113464A8DF5981B8DF6981C8DF7981DADEAB8F078
S113465AF4F088169800881798018818980288191F
S113466A9803881A9804881B9805881C9806881D3C
S113467A98078DF098089809980A980B980C980D41
S113468A980EF1980FFCE295008DF0D171FF61D874
S113469AECE75400AEF8045A00BDF4A83806F4BD99
S11346AAEAF4F0CDF6F0881698008817980188186D
S11346BA980288199803881A9804881B9805881CF4
S11346CA9806881D98078DF098089809980A980BF7
S11346DA980C980D8DF6980E513F980FFCFB940098
S11346EA8DF0F4F0D171FF61D8EC7F5200CDF3E084
S11346FACDF476CDF548CDF6378DF3980B8DF49835
S113470A0C8DF5980D8DF6980E5142980FFCFB947A
S113471A00F6B8408DF0D171FF61D8EC0C4800ADB9
S113472AE8B82AA840BDE88816980088179801882E
S113473A18980288199803881A9804881B98058877
S113474A1C9806881D9807F19808F19809F1980AA7
S113475A5120980B515F980C51A0980D5102980E54
S113476A5142980FFC3E88008DF0981E8DF1981FD7
S113477A8DF298208DF398218DF498228DF5982343
S113478A8DF698248DF798258DF098168DF1981743
S113479A8DF298188DF398198DF4981A8DF5981B43
S11347AA8DF6981C8DF7981DADE8040A00BDE8CD76
S11347BAF3E0CDF476CDF548CDF63788169800881F
S11347CA1798018818980288199803881A980488EF
S11347DA1B9805881C9806882598078DF3980B8DD5
S11347EAF4980C8DF5980D8DF6980EFCFB94008DBB
S11347FAF0D171FF61C8EC314700ADE8B840A82A8E
S113480ABDE8F4F0CDF62488169800881798018834
S113481A18980288199803881A9804881B98058896
S113482A1C9806881D98078DF098089809980A9884
S113483A0B980C980D8DF6980E5140980FFCFB942A
S113484A008DF0D171FF61D8EC154900ADE8B82AA2
S113485AA840BDE888169800881798018818980215
S113486A88199803881A9804881B9805881C98063E
S113487A881D9807F19808F19809F1980AF1980B9C
S113488AF1980CF1980D5124980E5140980FFC3E62
S113489A88008DF0981E8DF1981F8DF298208DF363
S11348AA98218DF498228DF598238DF698248DF706
S11348BA98258DF098168DF198178DF298188DF326
S11348CA98198DF4981A8DF5981B8DF6981C8DF706
S11348DA981DA6E8881698008817980188189802DF
S11348EA88199803881A9804881B9805881C9806BE
S11348FA88259807FCFB94008DF0D171FF61C8EC00
S113490A5E4800ADE8B840A82ABDE8ADEC44000012
S113491A61F8ECC25000A840BDECADE846EC71FF6A
S113492A7177ED61E3EC424900ADEC44FCFF71FFA1
S113493A71C061C8EC775500B6E8884ED161E8ECDD
S113494AC25000E1984E984F882ED161F8ECCE50AF
S113495A00ADEABDECC9F00000ADE846F071FF71A4
S113496A77F161D8EC344B00ADE8B83AADECB82A2B
S113497AADEAB854ADF0BDECECBF4900A83A440026
S113498A0061E8EC9A4900884ED161F8EC0F4B00BB
S113499AA82ABDF6A6F6DAF6512E480000A82A047B
S11349AA0200B82AA6ECA83A46EC71FF7177ED61C9
S11349BAD8EC244B00881698008817980188189810
S11349CA0288199803881A9804881B9805881C98E1
S11349DA06881D9807FC4D9900ADF0B826ADF2B8CB
S11349EA28ADF0BDE88827317B9DEA9DEBADE8B898
S11349FA00ADEAB802FCAE97008DF0981E8DF198CE
S1134A0A1F8DF298208DF398218DF498228DF598B4
S1134A1A238DF698248DF798258816980088179878
S1134A2A0188189802881998038DF098088DF198CE
S1134A3A098DF2980A8DF3980B8DF4980C8DF598DC
S1134A4A0D8DF6980E8DF7980FFCEA70008DF0988C
S1134A5A168DF198178DF298188DF398198DF4988C
S1134A6A1A8DF5981B8DF6981C8DF7981D8DF09864
S1134A7A008DF198018DF298028DF398038DF498C4
S1134A8A048DF598058DF698068DF79807F1980820
S1134A9AF19809F1980AF1980BF1980CF1980D51D3
S1134AAA24980E5140980FFC0B72008DF0981E8DBD
S1134ABAF1981F8DF298208DF398218DF498228D08
S1134ACAF598238DF698248DF798258DF098168DF0
S1134ADAF198178DF298188DF398198DF4981A8D08
S1134AEAF5981B8DF6981C8DF7981DA82AA1BDF080
S1134AFAA82A1288260C30480000ADEC4400006154
S1134B0AF8EC864900ADF0B82AA6ECA83A46EC714E
S1134B1AFF7177ED61C8ECBF4900A82ABDECADE886
S1134B2AB850ADEAB852A854BDEAF4F0CDF61488E8
S1134B3A1698008817980188189802881998038883
S1134B4A1A9804881B9805881C9806881D98078D4E
S1134B5AF098089809980A980B980C980D8DF6986D
S1134B6A0E5140980FFCFB94008DF0D171FF61D86F
S1134B7AEC654C00ADECB1BDF4C9F20100ECA54BF7
S1134B8A00DAF6480000C9F20000B6F4ADF4A1BD9B
S1134B9AF0ADEA46F061C8ECE54B00ADF4BDF6169B
S1134BAA8B9DF14AF12E61F8EC944B008DF2768DCF
S1134BBAF1610E9DF14AF13A61E8EC8B4B00ADF4D8
S1134BCA125130480000C9F20100B6F4ADF4A1BD97
S1134BDAF0ADEA46F061D8ECA54B00ADF244000012
S1134BEA61F8EC654C00882ED161F8EC8E5500AD65
S1134BFAECBDF0ADEA46EC61D8EC1D4C00EC464C39
S1134C0A00128DF2480000B6F0ADEA46F061C8EC35
S1134C1A464C00ADF0B1168B9DF2ADF04AF22E610E
S1134C2AE8EC0B4C001204FEFF168B480000B6F0A9
S1134C3AB6F0ADEA46F061D8EC1D4C00FBF8FF6112
S1134C4A7940ADECBDF2AEF8045A00BDECA83806C2
S1134C5AEC125131480000ADF2BDEC884FD161F835
S1134C6AECA44C00ADECB1168B9DF24AF23061E82B
S1134C7AEC9B4C00ADEC04FEFFBDF0ADF0A1BDEC25
S1134C8AB6F0FAF08C019DF24AF23061F8EC854CE8
S1134C9A004AF22E61F8EC115600882ED161F8EC24
S1134CAAAF5000DAEC882E480000A8404400007196
S1134CBAFF61D8ECF85500ADEC040200BDF0DAEC63
S1134CCA512B480100ADF0040A00B816C9EC0100E2
S1134CDAADEAB82AA840BDEAA816BDE8ADECB81EEC
S1134CEAADE8A1B816ADEAB800300A00B802FC8DE6
S1134CFA9B00DAE88DF00C30480000ADEAB80030C9
S1134D0A0A00B802FC2C9B00ADF0BDEA4400006125
S1134D1AE8EC2C4D00ADEC44010071FF61F3EC7535
S1134D2A5000A6ECECE24C00FAEA8C01982EA6EAB2
S1134D3AF4F0EC404300FAEA8C019DEC4AEC2A6157
S1134D4AF8EC555200A6EA0CD09DF0C9E800004AD6
S1134D5AF00961F3EC1F43008DEC9DF0ADE801BD51
S1134D6AE8312DBDF2ADE806F2BDE8A6EACDF100C0
S1134D7AADF004D0FFBDF0ADE806F0BDE8FAEA8B69
S1134D8A9DF00CD09DF14AF10961E3EC664D008D6A
S1134D9AF09DECEC1F4300A8F0040200BDF2A8F059
S1134DAA16ABBDECB83844000071FF61D8EC705200
S1134DBA00A6EAFAF08C019DECADF2B8F0EC0643D9
S1134DCA00A82CBDF010E061EFC4C2C061CFD7883F
S1134DDA2E4C6961F8EC7D5100882E4C6E61E8EC2A
S1134DEA744E00A8F016ABD4F061F8EC1B5500BD64
S1134DFAF0A82CBDECADF012ADEC780000317B4884
S1134E0A0200480300A8F0040200B8F0ECDB4100F9
S1134E1A882E4C6461F8EC7D5100882E4C6461F351
S1134E2AECFB4E00882E4C6361E8EC7E4E00A8F041
S1134E3ABDEC168B985AC9E80100ADEC040200B81F
S1134E4AF0AEF8045A00BDEAEC364400A8EA0402BB
S1134E5A00B8EA8DEC9800A8EEB802A8EC1261DA60
S1134E6AFBF8FF61792CECDB4100882E4C6761F872
S1134E7AEC8A4E00C9E80300C9EA30BDEC364400A6
S1134E8A882E0CFE982EADE844000061E8EC135518
S1134E9A00C9E80100ADE8BDECD4F061E8ECFE45D8
S1134EAA00A8F0BDF4168B9816ADF4A1168B9817CA
S1134EBAADF4040200168B9818ADF4040300168BA3
S1134ECA9819ADF4040400168B981AA8F004050086
S1134EDA168B981BA8F0040600168B981CA8F004DD
S1134EEA0700168B981DA8F0040800B8F0EC5A467F
S1134EFA00C9EC0000ADE844000071FF61C8ECF69B
S1134F0A4500C9E80600ECF6450088369800A8EE84
S1134F1AB802A8EC1261DAFBF8FF61792CECCA44F6
S1134F2A00FBF8FF30000061293CBC3C3000006102
S1134F3AD8B161293EBC3EE4EC300EBDB816300A45
S1134F4A00B832F6B834512D9836AEF804DF00BDF5
S1134F5AEAADE8B81EA83CB810A83EB8128DEC9D7C
S1134F6AE8A816BDECB6EAA810BDF4A812BDF6A8C6
S1134F7A32BDF0A834BDF251C09FE800ADF6BEF2CE
S1134F8AADF4BEF0ADF2BEF4ADF0BEF651C19FE889
S1134F9A008FE8003103FAAEF0BDF4AEF2BDF6AF0D
S1134FAAE000BDF0AFE200BDF2ADF0B83CADF2B83E
S1134FBA3EADF4B816ADF6B818ADEC06F0DAEA165A
S1134FCA8B480000A816B810ADF6B812A81244000F
S1134FDA00A81061F844000061E8EC6F4F00A810C3
S1134FEAB83CA812B83E8DE89DECA81EBDE8440062
S1134FFA0071FF61D8EC3A5100A81426EABDF0AD5D
S113500AE846F071FF7177F161E3EC345000B6EAD7
S113501ADAEA5130480000A81426EABDF046E871DD
S113502AFF7177E961D8EC185000884ED161F8EC29
S113503A324400D4EC61F8EC324400882E5CDF9DE3
S113504AF24AF25861F8ECC05500882E4C6F61E8B8
S113505AEC324400EAEA894C3061F8EC324400AD9F
S113506AEAB1BDF0ADEAB1ECD55500A82ABDEAA86B
S113507A1626ECBDF0ADE804F6FFBDF2ADECBDF4C6
S113508AADF2BDF6ADF0DAF6168B480000B6F4A61A
S113509AF0B6F2ADF444000061E8EC8A5000ADE8E1
S11350AA04F7FFBDEC8831D161E8ECED5000ADECBA
S11350BA26EABDE8EC364400F1984F882ED161E81F
S11350CAEC5B4900A84044000071FF61D8EC175614
S11350DA00A84016F627BDF0ADEABDECF1982EEC17
S11350EA634900883676F1612E9DF088366BF0317B
S11350FA7A318FBDF0A83826F0BDF0ADEC26EABDB2
S113510AE846F071FF7177F161C8EC364400B6EAFB
S113511ADAEA5130480000ADEC26EABDE8ADF046C3
S113512AE871FF7177E961F3EC185100EC36440039
S113513A8831D161F8EC035000883676F1612E9DEE
S113514AF088366BF0317A318FBDF0A83826F0BD7D
S113515AE8EC0350008DF0983E983FA8F004020052
S113516AB8F0882E4C6F61E8ECC04300300800ECBC
S113517ACD4300A8F0BDEC16ABB83CD4F061F8EC12
S113518A345500A8F016AC02B83EA8F0040400B8DE
S113519AF0883F71FC61D8EC2B4F00300EBDB81675
S11351AA300A00B832F6B834ECD54300A8F0040249
S11351BA00BDF4A8F016ABBDF644000061F8EC4A51
S11351CA5700ADE844000071FF61D8ECF55600AD14
S11351DAF6A1BDF2ADF61489D161F8EC095700AD18
S11351EAE844000061F8EC395700C9F00000EC10FB
S11351FA5200ADF6A1BDF2ADE846F071FF7177F148
S113520A61E3EC205200ADF2BDF6A6F0EAF289D1D0
S113521A61E8ECFC5100F626F0BDF0ADF606F0BDEF
S113522AEAADF626EABDE8ADF4B8F0EC36440088F7
S113523A4ED161F8EC954300ADE844000061E8EC16
S113524A954300C9E80100EC954300A8F016ABBDEC
S113525AE8FAEA8C029DECA8F0040200B8F0A6EA87
S113526AA6EAEC1F4300F626ECB838FBF8FF6159AE
S113527A37ECBB4D0088169800881798018818984F
S113528A0288199803881A9804881B9805881C9818
S113529A06881D98078DF098089809980A980B981B
S11352AA0C980D980EF1980FFC159400D4F061F83F
S11352BAEC705500CDF3E0CDF4DFCDF57CCDF6DB13
S11352CA8DF3980B8DF4980C8DF5980D8DF6980E38
S11352DA513D980FFCC89600F6B8408DF0D171FF85
S11352EA61F3ECD75300ADE8B82AA840BDE88816A4
S11352FA9800881798018818980288199803881AB8
S113530A9804881B9805881C9806881D9807F198A4
S113531A08F19809F1980A5120980B515F980C5199
S113532AA0980D5102980E5142980FFC0B72008DF1
S113533AF0981E8DF1981F8DF298208DF398218D87
S113534AF498228DF598238DF698248DF798258D57
S113535AF098168DF198178DF298188DF398198D87
S113536AF4981A8DF5981B8DF6981C8DF7981DAD37
S113537AE804F6FFBDE8CDF3E0CDF4DFCDF57CCD4E
S113538AF6DB8816980088179801881898028819F5
S113539A9803881A9804881B9805881C98068825F7
S11353AA98078DF3980B8DF4980C8DF5980D8DF65E
S11353BA980E513D980FFCC896008DF0D171FF618B
S11353CAE3ECF85200ADE8B840A82ABDE8F4F0CD01
S11353DAF6F0881698008817980188189802881990
S11353EA9803881A9804881B9805881C9806881DAF
S11353FA98078DF098089809980A980B980C980DB4
S113540A8DF6980E513F980FFCE295008DF0D171FC
S113541AFF61C8EC154900ADE8B82AA840BDE88880
S113542A169800881798018818980288199803888A
S113543A1A9804881B9805881C9806881D9807F1F1
S113544A9808F19809F1980AF1980BF1980CF198D7
S113545A0D5124980E5140980FFC0B72008DF09850
S113546A1E8DF1981F8DF298208DF398218DF49852
S113547A228DF598238DF698248DF798258DF0982A
S113548A168DF198178DF298188DF398198DF49852
S113549A1A8DF5981B8DF6981C8DF7981DB6E8CDD4
S11354AAF6F08816980088179801881898028819BF
S11354BA9803881A9804881B9805881C98068825D6
S11354CA98078DF6980E513F980FFCE295008DF0DF
S11354DAD171FF61D8EC295400EC0D490088009879
S11354EA46881798478818984888199849881A98AE
S11354FA4A881B984B881C984C881D0C80984D9898
S113550A1D512D9836EC9E4600C9EC0100ECFF4E65
S113551A00BDF0A82CBDECADF012ADEC780000A8EB
S113552AF0040200B8F0ECDB4100317B983E983F6E
S113553AADEC040200B8F0EC9B5100882E4C70616B
S113554AE8EC7E4E00A8F0BDEC16ABB83C317B9873
S113555A3E983FADEC040200B8F0300EBDB81630E8
S113556A1000ECCD4300F6B840EC154900ADE8262E
S113557AECB1BDE8884ED161F8EC115700F1984FAF
S113558AECCE5000ADECA1BDF2ADEA46F261C8EC36
S113559A504C00ADECBDE8ADF2BDF0ADF012FAE846
S11355AA8B480000B6F0B6E8ADF046EA61E8ECA52F
S11355BA5500EC504C00ADEAB112882E480000ADFB
S11355CAEA04FEFFBDF0ADEA04FEFF1251304800C2
S11355DA00A81426F0BDE8ADF0BDEAEC364400306C
S11355EA0A00ECCD4300A81EB816ECC14400ADEC89
S11355FA040200BDF0DAEC512D480100A84016F669
S113560A27B840ECCF4C00B6ECECA44C00AEF8043E
S113561A5A00BDF2A83806F2125130480000ADE82B
S113562A44000061E8EC3C5600884ED161F8EC1A5B
S113563A5700ADEA040200BDECDAEA512E48010033
S113564AA84044FFFF61F8EC2A5700ADE844000083
S113565A61F8ECC65600ADECBDF2A840A106E8BD5F
S113566AF4ADE8BDF0EC825600ADECBDF2ADF04409
S113567A000061F8ECC65600A6ECADF212513048AF
S113568A0000B6F0ADF446F061E8EC7356008DE81C
S113569A7CFF98568DE97CFF9857A856BDF2A8401E
S11356AA46F271FF7177F361D8ECE55600ADF0BDAF
S11356BAE8F1982EC9F00100EC6349008DE87CFFFB
S11356CA98588DE97CFF9859A858BDF0A84046F02F
S11356DA71FF7177F161C8EC325700884FD161F8D4
S11356EAECAF5000F1982EEC6E4C00ADF6A1BDF271
S11356FAC9E81027ADF61489D161E8ECF45100C960
S113570AF00000EC255200E1984E984FECCE500080
S113571AADEAA1BDECA84044FFFF61E8ECC656001F
S113572AADE8BDF0EC985600F1982EEC344B00AD80
S113573AE8BDF0EC255200300EBDB816EC9A4300D1
S113574AC9F6FFBCECCC5100F1982EC9E80600EC6E
S113575AFE450061EFC1C3C561CF2024A82EB81647
S113576AA830B818AEF8042400BDF004F2FFB8005B
S113577AADF004F6FFB802FC54A400A81ABDECB8B4
S113578A00A81CBDEAB802A81EBDE8B804F19DF43D
S113579AA820BDF0A822BDF28DEC980E8801980FBE
S11357AA8DEA9810880398118DE898128805981341
S11357BA88069814880798158DF098008DF1980139
S11357CA8DF298028DF398038DF498048DF498055C
S11357DA8DF498068DF49807511E9808FC90A2003F
S11357EA8DEC9800880F98018DEA98028811980325
S11357FA8DE89804881398058DF0980E8DF1980F0A
S113580A8DF298108DF398118DF498128DF59813E2
S113581A8DF698148DF798158DF098068DF19807E2
S113582A8DF298088DF398098DF4980A8DF5980BE2
S113583A8DF6980C8DF7980DFC8F9A008DF0980EC2
S113584A8DF1980F8DF298108DF398118DF49812AA
S113585A8DF598138DF698148DF7981588149DEC88
S113586A88159DED8DEC9DF68DED9DF7102461EF65
S113587AC4C2C061CFD761EFC1C3C561CF203CA800
S113588A4ABDECA84616ABBDF044010061E3ECB98D
S113589A6F00A84816ABBDF244010061E3ECBF6F88
S11358AA00ADF044040061E8ECDA5800A846BDF003
S11358BAADF244040061E8ECC96F00EAF0AA02619F
S11358CA490261F8ECC96F00C9F034BDECC96F0034
S11358DAADF244040061F8ECBF6F0044020061E8D1
S11358EAEC4F5900ADF044020061E8ECB96F00DAFC
S11358FAECADF0780000A84616AC02780200A8467F
S113590A16AC04780400A84616AC06780600A84625
S113591A16AC08780800A84616AC0A780A00A84605
S113592A16AC0C780C00A848BDF0A846BDF2EAF003
S113593A168A025E02480200FAF28A035E034803E8
S113594A00ECC56F00ADF044020061F8ECBF6F00D3
S113595AA84616AC04B83AA84804040016ABBDF22B
S113596AA846040600168B981AA846040700168B44
S113597A981BA846040800168B981CA8460409001C
S113598A168B981DA846040A00168B981EA846046E
S113599A0B00168B981FA846040C00168B9820A897
S11359AA46040D00168B9821A848040600168B9805
S11359BA12A848040700168B9813A848040800166E
S11359CA8B9814A848040900168B9815A848040A49
S11359DA00168B9816A848040B00168B9817A8482B
S11359EA040C00168B9818A848040D00168B9819F5
S11359FAA83A26F2BDF0BDE844000071FF61C8EC84
S1135A0A125A00F626F0BDE8ADE8443F0071FF6182
S1135A1AF3ECE16300ADF044000071FF61E3ECFFD5
S1135A2A5E008812980088139801881498028815D1
S1135A3A9803881698048817980588189806881968
S1135A4A98078DE89808FCAAA0008DF098328DF189
S1135A5A98338DF298348DF398358DF498368DF504
S1135A6A98378DF698388DF79839E1980AF1980B9A
S1135A7A980C980D980E980F98109811880A980007
S1135A8A880B9801880C9802880D9803880E98044C
S1135A9A880F98058810980688119807FC90A20028
S1135AAA8DF098228DF198238DF298248DF3982500
S1135ABA8DF498268DF598278DF698288DF79829D0
S1135ACA51FF982A982B982C982D982E982F983015
S1135ADA98318DF076882A610E9DF2E4F088227658
S1135AEA8DF2614E61D8ECF85A0088119DF0882B2A
S1135AFA768823610E9DF3E4EA8823768DF3614E5A
S1135B0A61D8EC125B00F4EA8DF3768DF0610E9D98
S1135B1AF0E4F14BF361D8EC275B00F4F18DEA6B06
S1135B2AF19DEA8DF09DF3882C768824610E9DF40C
S1135B3AE4F18824768DF4614E61D8EC4B5B00F471
S1135B4AF18DF4768DEA610E9DEAE4F04BF461D8A6
S1135B5AEC605B00F4F08DF16BF09DF18DEA9DF43D
S1135B6A882D768825610E9DF5E4F08825768DF5D5
S1135B7A614E61D8EC845B00F4F08DF5768DF161A9
S1135B8A0E9DF1E4EA4BF561D8EC995B00F4EA8DD9
S1135B9AF06BEA9DF08DF19DF5882E768826610ECC
S1135BAA9DF6E4F18826768DF6614E61D8ECBD5BEC
S1135BBA00F4F18DF6768DF0610E9DF0E4EA4BF671
S1135BCA61D8ECD25B00F4EA8DF16BEA9DF18DF0B9
S1135BDA9DF6882F768827610E9DF7E4F08827764C
S1135BEA8DF7614E61D8ECF65B00F4F08DF7768D93
S1135BFAF1610E9DF1E4EA4BF761D8EC0B5C00F419
S1135C0AEA8DF06BEA9DF08DF19DF788307688284D
S1135C1A610E9DE8E4F18828768DE8614E61D8EC3E
S1135C2A2F5C00F4F18DE8768DF0610E9DF0E4EAC4
S1135C3A4BE861D8EC445C00F4EA8DF16BEA9DF11F
S1135C4A8DF09DE88831768829610E768DF1610E92
S1135C5A9DE988125BF2982288135BF398238814CF
S1135C6A5BF4982488155BF5982588165BF69826C4
S1135C7A88175BF7982788185BE8982888195BE9DE
S1135C8A9829F4F48DF49DF59DF69DF79DE89DE918
S1135C9A9DEA9DEB8822768DF4612E980AE4F14BF5
S1135CAAF461F3ECB55C008DF59DF18823768DF5EE
S1135CBA612E980BE4F04BF561F3ECCA5C00F4F046
S1135CCA8DF176880B612E9DF1E4F2880B768DF1C5
S1135CDA614E61F3ECE45C00F4F28DF06BF29DF03A
S1135CEA8DF1980B8824768DF6612E980CE4F14B8D
S1135CFAF661F3EC035D00F4F18DF076880C612E05
S1135D0A9DF0E4F2880C768DF0614E61F3EC1D5D32
S1135D1A00F4F28DF16BF29DF18DF0980C882576E2
