S01200004564657369676E44656D6F2E6D6F742B
S10700000A26FFFFCA
S11300041A241A241A241A241A241A241A241A24F8
S11300141A241A241A241A241A241A241A241A24E8
S1130024B11DDD1C1A241A24DC230E241A241A24D8
S113003416101A2446121A241A241A241A241A24C6
S11300441A241A241A241A241A241A241A241A24B8
S11300541A241A241A241A241A241A241A241A24A8
S11300641A241A241A241A241A241A241A241A2498
S10F00741A241A241A241A241A241A2408
S10700C0EFFFE984DD
S10D00C4000000000000000000002E
S11300D82002AF00EFBDF044040061F8ECB8020060
S11300E8ADF044040071FF61F3EC360100ADF04457
S11300F8010061F8ECCB0100ADF044010071FF612F
S1130108F3EC1C0100ADF044000061F8EC8201003E
S1130118EC710400ADF044020061F8EC1A0200AD81
S1130128F044030061F8EC690200EC710400ADF0DE
S113013844070061F8EC930300ADF044070071FF35
S113014861F3EC680100ADF044050061F8ECFF02CE
S113015800ADF044060061F8EC460300EC710400BD
S1130168ADF044080061F8ECE00300ADF044090088
S113017861F8EC2D0400EC710400A8064403006146
S1130188E8EC9D0100AF00EFBDF0A6F0ADF0BF00B4
S1130198EFECC70100A80644040061E8ECB20100D2
S11301A8300400BF00EFECC70100A8064406006154
S11301B8E8ECC70100300500BF00EFEC710400EC67
S11301C8710400A80644030061E8ECE60100AF00EE
S11301D8EFBDF0A6F0ADF0BF00EFEC160200A806E4
S11301E844040061E8EC010200AF00EFBDF0B6F092
S11301F8ADF0BF00EFEC160200A80644060061E863
S1130208EC160200300500BF00EFEC710400EC713D
S11302180400A80644030061E8EC350200AF00EFCF
S1130228BDF0A6F0ADF0BF00EFEC650200A80644EF
S1130238040061E8EC500200AF00EFBDF0B6F0AD89
S1130248F0BF00EFEC650200A80644060061E8EC84
S1130258650200300500BF00EFEC710400EC710486
S113026800A80644030061E8EC840200AF00EFBD77
S1130278F0A6F0ADF0BF00EFECB40200A806440409
S11302880061E8EC9F0200AF00EFBDF0B6F0ADF0FE
S1130298BF00EFECB40200A80644060061E8ECB421
S11302A80200300500BF00EFEC710400EC7104009B
S11302B8A80644030061E8ECCB0200F6BF00EFECAB
S11302C8FB0200A80644040061E8ECE60200AF0063
S11302D8EFBDF0B6F0ADF0BF00EFECFB0200A806EE
S11302E844060061E8ECFB0200300500BF00EFECB7
S11302F8710400EC710400A80644030061E8EC1AD8
S11303080300AF00EFBDF0A6F0ADF0BF00EFEC4284
S11303180300A80644040061E8EC2F030030090038
S1130328BF00EFEC420300A80644070061E8EC4272
S11303380300F6BF00EFEC710400EC710400A8069A
S113034844030061E8EC610300AF00EFBDF0A6F0E0
S1130358ADF0BF00EFEC8F0300A80644040061E889
S1130368EC7C0300AF00EFBDF0B6F0ADF0BF00EFDA
S1130378EC8F0300A80644070061E8EC8F0300F63D
S1130388BF00EFEC710400EC710400A806440300FC
S113039861E8ECAE0300AF00EFBDF0A6F0ADF0BF2E
S11303A800EFECDC0300A80644040061E8ECC90390
S11303B800AF00EFBDF0B6F0ADF0BF00EFECDC032A
S11303C800A80644070061E8ECDC0300F6BF00EF70
S11303D8EC710400EC710400A80644030061E8EC25
S11303E8FB0300AF00EFBDF0A6F0ADF0BF00EFECEB
S11303F8290400A80644040061E8EC160400AF00D0
S1130408EFBDF0B6F0ADF0BF00EFEC290400A8068C
S113041844070061E8EC290400F6BF00EFEC71041E
S113042800EC710400A80644030061E8EC420400EF
S1130438300500BF00EFEC700400A8064404006116
S1130448E8EC5D0400AF00EFBDF0B6F0ADF0BF001E
S1130458EFEC700400A80644070061E8EC7004009F
S1130468F6BF00EFEC70040000AF00EFBDF04404E9
S11304780061F8EC8D0500ADF044040071FF61F3F0
S1130488ECCD0400ADF044010061F8EC360500AD94
S1130498F044010071FF61F3ECB30400ADF04400D3
S11304A80061F8EC190500EC260900ADF0440200DF
S11304B861F8EC530500ADF044030061F8EC7005F5
S11304C800EC260900ADF044070061F8EC100700C1
S11304D8ADF044070071FF61F3ECFF0400ADF04494
S11304E8050061F8ECAA0500ADF044060061F8ECDB
S11304F85D0600EC260900ADF044080061F8ECC381
S11305080700ADF044090061F8EC760800EC260910
S11305180051309F76EF510D9F77EF510A9F78EF86
S1130528F579EFE6B800FC0A2E00EC2609005131F3
S11305389F76EF510D9F77EF510A9F78EFF579EF8A
S1130548E6B800FC0A2E00EC26090051329F76EF2B
S1130558510D9F77EF510A9F78EFF579EFE6B800D0
S1130568FC0A2E00EC26090051339F76EF510D9FAB
S113057877EF510A9F78EFF579EFE6B800FC0A2E79
S113058800EC26090051349F76EF510D9F77EF5107
S11305980A9F78EFF579EFE6B800FC0A2E00EC26FE
S11305A8090051539F76EF51779F77EF51699F78F0
S11305B8EF51749F79EF51639F7AEF51689F7BEFF6
S11305C851209F7CEF51739F7DEF51749F7EEF51B3
S11305D8619F7FEF51749F80EF51659F81EF512098
S11305E89F82EF513D9F83EF51209F84EF51309FAD
S11305F885EF510D9F86EF510A9F87EFF588EFE647
S1130608B800FC0A2E00C9F004FFADF0BDF4FAF4FA
S11306188B9DF25AF2FDADF0DAF48DF2480000C970
S1130628F004FFADF0BDF4FAF48B9DF25AF2FBAD81
S1130638F0DAF48DF2480000C9F004FFADF0BDF41F
S1130648FAF48B9DF25AF2F7ADF0DAF48DF2480021
S113065800EC26090051539F76EF51779F77EF51AD
S1130668699F78EF51749F79EF51639F7AEF5168CE
S11306789F7BEF51209F7CEF51739F7DEF51749FB7
S11306887EEF51619F7FEF51749F80EF51659F8189
S1130698EF51209F82EF513D9F83EF51209F84EFBC
S11306A851319F85EF510D9F86EF510A9F87EFF5D2
S11306B888EFE6B800FC0A2E00C9F004FFADF0BDCF
S11306C8F4FAF48B9DF25AF2FDADF0DAF48DF248A7
S11306D80000C9F004FFADF0BDF4FAF48B9DF25AA2
S11306E8F2FBADF0DAF48DF2480000C9F004FFAD76
S11306F8F0BDF4FAF48B9DF26AF208ADF0DAF48DE9
S1130708F2480000EC26090051539F76EF51779F79
S113071877EF51699F78EF51749F79EF51639F7A0E
S1130728EF51689F7BEF51209F7CEF51739F7DEFC2
S113073851749F7EEF51619F7FEF51749F80EF51F9
S1130748659F81EF51209F82EF513D9F83EF512098
S11307589F84EF51329F85EF510D9F86EF510A9F79
S113076887EFF588EFE6B800FC0A2E00C9F004FF0D
S1130778ADF0BDF4FAF48B9DF26AF202ADF0DAF44E
S11307888DF2480000C9F004FFADF0BDF4FAF48B13
S11307989DF25AF2FBADF0DAF48DF2480000C9F08C
S11307A804FFADF0BDF4FAF48B9DF25AF2F7ADF004
S11307B8DAF48DF2480000EC26090051539F76EFD5
S11307C851779F77EF51699F78EF51749F79EF5173
S11307D8639F7AEF51689F7BEF51209F7CEF5173A1
S11307E89F7DEF51749F7EEF51619F7FEF51749FFE
S11307F880EF51659F81EF51209F82EF513D9F8388
S1130808EF51209F84EF51339F85EF510D9F86EF61
S1130818510A9F87EFF588EFE6B800FC0A2E00C955
S1130828F004FFADF0BDF4FAF48B9DF25AF2FDAD7D
S1130838F0DAF48DF2480000C9F004FFADF0BDF41D
S1130848FAF48B9DF26AF204ADF0DAF48DF2480002
S113085800C9F004FFADF0BDF4FAF48B9DF25AF22E
S1130868F7ADF0DAF48DF2480000EC260900515394
S11308789F76EF51779F77EF51699F78EF51749F77
S113088879EF51639F7AEF51689F7BEF51209F7CEA
S1130898EF51739F7DEF51749F7EEF51619F7FEFFE
S11308A851749F80EF51659F81EF51209F82EF51D2
S11308B83D9F83EF51209F84EF51349F85EF510D65
S11308C89F86EF510A9F87EFF588EFE6B800FC0A88
S11308D82E00C9F004FFADF0BDF4FAF48B9DF26A62
S11308E8F202ADF0DAF48DF2480000C9F004FFAD6D
S11308F8F0BDF4FAF48B9DF26AF204ADF0DAF48DEB
S1130908F2480000C9F004FFADF0BDF4FAF48B9D81
S1130918F25AF2F7ADF0DAF48DF248000000100252
S1130928D72004A808BDF0B800A80ABDF0B802FC96
S1130938770A004AF00161E8EC870900A80ABDF0CB
S113094801BDF00412EFBDF0BDF2FAF2ABBDF0A1A7
S1130958BDF2A80ABDF001BDF00412EFBDF0BDF46C
S1130968DAF4ADF2780000A80ABDF001BDF0040283
S1130978EFBDF0BDF2DAF2F6780000ECC60900A883
S11309880ABDF001BDF00402EFBDF0BDF4FAF4AB0A
S1130998BDF0A1BDF2A80ABDF001BDF00402EFBD8F
S11309A8F0BDF4DAF4ADF2780000A80ABDF001BD98
S11309B8F00412EFBDF0BDF2DAF2F6780000A80AEE
S11309C8BDF001BDF00412EFBDF0BDF4FAF4ABBD07
S11309D8F044E20461E3EC2E0A00A80ABDF001BD6C
S11309E8F00412EFBDF0BDF2DAF230E3047800004F
S11309F8A80ABDF001BDF00422EFBDF0BDF4FAF47D
S1130A08ABBDF044000061E8EC720A00A80ABDF02E
S1130A1801BDF00422EFBDF0BDF2DAF2E678000081
S1130A28E4F0EC740A00A80ABDF001BDF00402EF7A
S1130A38BDF0BDF4FAF4ABBDF044E20461E3EC723A
S1130A480A00A80ABDF001BDF00422EFBDF0BDF212
S1130A58DAF2F6780000A80ABDF001BDF00402EF4E
S1130A68BDF0BDF4DAF4F6780000F4F01004D7A869
S1130A7806BDF044030061F8EC270B00ADF0440315
S1130A880071FF61F3ECB80A00ADF044010061F8AD
S1130A98ECFB0A00ADF044010071FF61F3EC110BAB
S1130AA800ADF044000061F8ECEA0A00EC920B0097
S1130AB8ADF044050061F8EC530B00ADF0440500BB
S1130AC871FF61D8EC3D0B00ADF044060061F8EC11
S1130AD8690B00ADF044070061F8EC7F0B00EC9261
S1130AE80B00A804BDF0BDF2EAF2895C019DF0ECAC
S1130AF8950B00A804BDF0BDF2FAF28B9DF0311AF3
S1130B089DF05AF001EC950B00A804BDF0BDF2FA73
S1130B18F28B9DF0312A9DF05AF001EC950B00A858
S1130B2804BDF0BDF2FAF28B9DF0313A9DF05AF013
S1130B3801EC950B00A804BDF0BDF2FAF28B9DF010
S1130B48314A9DF05AF001EC950B00A804BDF0BDA4
S1130B58F2FAF28B9DF0315A9DF05AF001EC950BA4
S1130B6800A804BDF0BDF2FAF28B9DF0316A9DF045
S1130B785AF001EC950B00A804BDF0BDF2FAF28B13
S1130B889DF0317A9DF0EC950B00CDF0FFD720064F
S1130B98880C314A9805880A9DF0980088059DF0CC
S1130BA89802FCC70B00880C5C0F9805880A9DF016
S1130BB8980088059DF09802FCC70B001006D72002
S1130BC8028806D161F8ECEF0B00C9F007FFADF01D
S1130BD8BDF4FAF48B9DF26AF201ADF0DAF48DF209
S1130BE8480000EC080C00C9F007FFADF0BDF4FAAA
S1130BF8F48B9DF25AF2FEADF0DAF48DF24800005F
S1130C08C9F007FFADF0BDF4FAF48B9DF25AF2FD7A
S1130C18ADF0DAF48DF2480000C9F227FFC9F027D5
S1130C28FFADF0BDF4FAF48B9DF05AF0F0ADF2BDCF
S1130C38F4DAF48DF0480000C9F007FFADF0BDF216
S1130C48FAF28B9DF05C0F9DF28808705100BDF09C
S1130C58314DBDF08DF26BF09DF09801C9F007FF9E
S1130C6888019DF2ADF0BDF4DAF48DF2480000C9B4
S1130C78F007FFADF0BDF4FAF48B9DF26AF204AD0F
S1130C88F0DAF48DF2480000000000000000C9F01A
S1130C9807FFADF0BDF4FAF48B9DF25AF2FBADF008
S1130CA8DAF48DF24800000000C9F007FFADF0BD8A
S1130CB8F4FAF48B9DF26AF202ADF0DAF48DF2489C
S1130CC800001002D72004C9F0E6FFADF0BDF4FA25
S1130CD8F48B9DF26AF210ADF0DAF48DF24800005C
S1130CE830983AB800FCE20D00F1980051039802DC
S1130CF8FCC70B00300410B800FCE20D00F19800AA
S1130D0851039802FCC70B00306400B800FCE20DE4
S1130D1800F1980051039802FCC70B00302800B872
S1130D2800FCE20D00F1980051029802FCC70B0088
S1130D38302800B800FCE20D00F198005128980210
S1130D48FC960B00302800B800FCE20D00F1980076
S1130D58510E9802FC960B00302800B800FCE20DF6
S1130D6800F19800E19802FC960B00306806B80080
S1130D78FCE20D00F1980051069802FC960B003035
S1130D882800B800FCE20D00F1980051809802FC9C
S1130D98960B00302800B800FCE20D001004D7C9F7
S1130DA8F0E2FFADF0BDF4FAF48B9DF25AF2EFAD28
S1130DB8F0DAF48DF2480000C9F218FFA804BDF077
S1130DC8ADF2BDF4DAF4ADF0780000C9F0B201ADCB
S1130DD8F0BDF2DAF2E6780000D72002A806BDF0EA
S1130DE8B800FCA70D00ECF30D0000C9F0E2FFAD5C
S1130DF8F0BDF2FAF28B9DF0314A9DF05AF0016190
S1130E08F8ECF20D00FCCB22001002D7C9F0F00078
S1130E18ADF0BDF4FAF48B9DF26AF220ADF0DAF489
S1130E288DF2480000C9F030FFADF0BDF2DAF2F1FE
S1130E38480000C9F0E7FFADF0BDF4FAF48B9DF269
S1130E486AF201ADF0DAF48DF2480000C9F0E3FF6C
S1130E58ADF0BDF4FAF48B9DF25AF2FEADF0DAF47B
S1130E688DF2480000C9F0EFFFADF0BDF4FAF48B41
S1130E789DF26AF201ADF0DAF48DF2480000C9F08F
S1130E88EBFFADF0BDF4FAF48B9DF26AF201ADF01C
S1130E98DAF48DF2480000C9F222FFC9F022FFAD4E
S1130EA8F0BDF4FAF48B9DF06AF007ADF2BDF4DA04
S1130EB8F48DF0480000C9F030FFADF0BDF2DAF26D
S1130EC85108480000C9F032FFADF0BDF4DAF4511E
S1130ED820480000C9F01000ADF0BDF2DAF2E14894
S1130EE80000C9F01100ADF0BDF4DAF451FF480078
S1130EF800C9F01200ADF0BDF2DAF2F1480000C901
S1130F08F031FFADF0BDF4DAF4F1480000C9F03077
S1130F18FFADF0BDF4FAF48B9DF26AF201ADF0DA9C
S1130F28F48DF2480000D7C9F0E3FFADF0BDF4FA40
S1130F38F48B9DF25AF2FEADF0DAF48DF24800001B
S1130F48C9F0E7FFADF0BDF4FAF48B9DF25AF2FE56
S1130F58ADF0DAF48DF2480000C9F030FFADF0BD11
S1130F68F4FAF48B9DF26AF280ADF0DAF48DF2486B
S1130F780000D7C9F030FFADF0BDF4FAF48B9DF250
S1130F885AF27FADF0DAF48DF2480000C9F0E7FFB9
S1130F98ADF0BDF4FAF48B9DF26AF201ADF0DAF427
S1130FA88DF2480000C9F0E3FFADF0BDF4FAF48B0C
S1130FB89DF25AF2FEADF0DAF48DF2480000D7C97A
S1130FC8F030FFADF0BDF4FAF48B9DF26AF201AD96
S1130FD8F0DAF48DF2480000D7C9F030FFADF0BD67
S1130FE8F4FAF48B9DF25AF2FEADF0DAF48DF2487D
S1130FF80000D7C9F01FFFADF0BDF4FAF48B9DF2E1
S1131008A804BDF0BDF4DAF48DF2480000D761CF2E
S1131018C1C3C5C7C6C4C2C061FC2002C9F0A0FFD1
S1131028ADF0BDF2DAF25110480000C9F0A1FFADED
S1131038F0BDF4FAF48B9DF26AF280ADF0DAF48D27
S1131048F2480000C9F0A4FFADF0BDF4FAF48B9D9A
S1131058F25AF2EFADF0DAF48DF2480000C9F0A1CB
S1131068FFADF0BDF4FAF48B9DF25AF2BFADF0DA9D
S1131078F48DF2480000F6B800EC90100000A800C7
S1131088BDF0A6F0ADF0B800A800BDF044A0006122
S1131098E3EC851000C9F0F300ADF0BDF2DAF2F12B
S11310A8480000C9F0A4FFADF0BDF4FAF48B9DF23A
S11310B85AF2BFADF0DAF48DF2480000C9F0A1FF8E
S11310C8ADF0BDF4FAF48B9DF25AF2FEADF0DAF409
S11310D88DF24800001002D72002C9F0A8FFADF035
S11310E8BDF2FAF28B9DF098011002D7C9F0F00016
S11310F8ADF0BDF4FAF48B9DF26AF280ADF0DAF447
S11311088DF2480000C9F090FFADF0BDF2DAF2F6B6
S1131118780000C9F0E7FFADF0BDF4FAF48B9DF256
S11311286AF204ADF0DAF48DF2480000C9F0E3FF86
S1131138ADF0BDF4FAF48B9DF25AF2FBADF0DAF49B
S11311488DF2480000C9F0EFFFADF0BDF4FAF48B5E
S11311589DF25AF2FBADF0DAF48DF2480000C9F0C2
S1131168EBFFADF0BDF4FAF48B9DF26AF204ADF036
S1131178DAF48DF2480000C9F090FFADF0BDF2DA60
S1131188F2302000780000D7C9F2E3FFADF2BDF0D9
S1131198FAF08B9DF45AF4FBADF2DAF08DF44800C2
S11311A800C9F2E7FFADF2BDF0FAF08B9DF45AF4F2
S11311B8FBADF2DAF08DF4480000C9F490FFC9F2EF
S11311C890FFADF2BDF0FAF0ABBDF28DF26C009D6C
S11311D8F08DF36C809DF1ADF4BDF2DAF2ADF078E8
S11311E80000D7C9F2E7FFADF2BDF0FAF08B9DF429
S11311F86AF404ADF2DAF08DF4480000C9F2E3FFB2
S1131208ADF2BDF0FAF08B9DF45AF4FBADF2DAF0CE
S11312188DF4480000C9F490FFC9F290FFADF2BD07
S1131228F0FAF0ABBDF28DF25CFF9DF08DF35C7FBC
S11312389DF1ADF4BDF2DAF2ADF0780000D761CFDC
S1131248C1C3C5C761DFC161CFAFAAEFBDF0A6F0C6
S1131258ADF0BFAAEF8F32EF9DF0A4F08DF09F326E
S1131268EFAFAAEFBDF044F30161E3EC7E1200E5B1
S1131278DEEFF6BFAAEF8F32EF9DF04AF06761E325
S1131288EC921200E5A8EFF532EF61DFC061CFC63A
S1131298C4C2C061FCC9F001FFADF0BDF2DAF2F1DD
S11312A8480000C9F004FFADF0BDF2DAF2F14800DD
S11312B800C9F007FFADF0BDF2DAF2F1480000C949
S11312C8F03000ADF0BDF2DAF25108480000C9F080
S11312D83400ADF0BDF2DAF2E1480000C9F0400094
S11312E8ADF0BDF2DAF25108480000C9F04100AD92
S11312F8F0BDF2DAF25140480000C9F021FFADF028
S1131308BDF2DAF2517F480000C9F024FFADF0BD08
S1131318F2DAF251F1480000C9F025FFADF0BDF250
S1131328DAF251FF480000C9F027FFADF0BDF2DA48
S1131338F2F1480000D7C9F0F000ADF0BDF4FAF4BA
S11313488B9DF26AF280ADF0DAF48DF2480000C9A0
S1131358F09DFFADF0BDF4FAF48B9DF25AF27FAD27
S1131368F0DAF48DF2480000C9F0E7FFADF0BDF4FF
S1131378FAF48B9DF26AF202ADF0DAF48DF24800C9
S113138800C9F0E3FFADF0BDF4FAF48B9DF25AF214
S1131398FDADF0DAF48DF2480000C9F0EFFFADF0CE
S11313A8BDF4FAF48B9DF26AF202ADF0DAF48DF230
S11313B8480000C9F0EBFFADF0BDF4FAF48B9DF2E0
S11313C86AF202ADF0DAF48DF2480000C9F09DFF2C
S11313D8ADF0BDF2DAF25108480000C9F092FFAD51
S11313E8F0BDF4DAF4F1480000C9F093FFADF0BDA4
S11313F8F2DAF2F1480000C9F094FFADF0BDF4DA76
S1131408F4F1480000C9F095FFADF0BDF2DAF251ED
S113141802480000C9F096FFADF0BDF4DAF45111AA
S1131428480000C9F097FFADF0BDF2DAF251044864
S11314380000C9F098FFADF0BDF4DAF45117480084
S113144800D7C9F09DFFADF0BDF4FAF48B9DF26AA4
S1131458F280ADF0DAF48DF2480000D7C9F09DFFB0
S1131468ADF0BDF4FAF48B9DF25AF27FADF0DAF4E4
S11314788DF2480000D72006F6B804C9F29EFFC9C9
S1131488F09EFFADF0BDF4FAF48B9DF06AF001AD67
S1131498F2BDF4DAF48DF0480000F6B800F6B802AC
S11314A8ECBB140000A800040100B800A80261D82D
S11314B8A1B802A802440000A80061F8443F0161F1
S11314C8E3ECAC1400C9F09EFFADF0BDF2FAF28B68
S11314D89DF0311A9DF05AF00161E8ECF0140030E7
S11314E80300B804EC061600C9F092FFADF0BDF491
S11314F8FAF48B9DF2A80ABDF0BDF4DAF48DF24833
S11315080000C9F093FFADF0BDF4FAF48B9DF2A886
S11315180ABDF0DAF08DF2480100C9F094FFADF08D
S1131528BDF4FAF48B9DF2A80ABDF0DAF08DF24806
S11315380200C9F095FFADF0BDF4FAF48B9DF2A852
S11315480ABDF0DAF08DF2480400C9F096FFADF058
S1131558BDF4FAF48B9DF2A80ABDF0DAF08DF248D6
S11315680300C9F097FFADF0BDF4FAF48B9DF2A81F
S11315780ABDF0DAF08DF2480500C9F098FFADF025
S1131588BDF4FAF48B9DF2A80ABDF0DAF08DF248A6
S11315980600C9F29EFFC9F09EFFADF0BDF4FAF44F
S11315A88B9DF05AF0FEADF2BDF4DAF48DF04800EC
S11315B800F6B800F6B802ECD2150000A800040141
S11315C800B800A80261D8A1B802A802440000A883
S11315D80061F8443F0161E3ECC31500C9F09EFFC4
S11315E8ADF0BDF2FAF28B9DF0311A9DF05AF0017C
S11315F84AF00161E8EC061600300400B804A804B7
S1131608BDF01006D72006F6B804C9F29EFFC9F04B
S11316189EFFADF0BDF4FAF48B9DF06AF001ADF2D3
S1131628BDF4DAF48DF0480000F6B800F6B802EC20
S11316384A160000A800040100B800A80261D8A155
S1131648B802A802440000A80061F8443F0161E31D
S1131658EC3B1600C9F09EFFADF0BDF2FAF28B9D8B
S1131668F0311A9DF05AF00161E8EC7F160030035E
S113167800B804EC701700C9F092FF880A9DF2AD17
S1131688F0BDF4DAF48DF2480000C9F093FF880B3A
S11316989DF2ADF0BDF4DAF48DF2480000C9F0947F
S11316A8FF880C9DF2ADF0BDF4DAF48DF248000029
S11316B8C9F095FF880E9DF2ADF0BDF4DAF48DF211
S11316C8480000C9F096FF880D9DF2ADF0BDF4DA2C
S11316D8F48DF2480000C9F097FF880F9DF2ADF031
S11316E8BDF4DAF48DF2480000C9F098FF88109D23
S11316F8F2ADF0BDF4DAF48DF2480000C9F29EFFB1
S1131708C9F09EFFADF0BDF4FAF48B9DF05AF0FEDB
S1131718ADF2BDF4DAF48DF0480000F6B800F6B87E
S113172802EC3C170000A800040100B800A80261FC
S1131738D8A1B802A802440000A80061F8443F01F7
S113174861E3EC2D1700C9F09EFFADF0BDF2FAF28B
S11317588B9DF0311A9DF05AF0014AF00161E8ECD2
S1131768701700300400B804A804BDF01006D7C9E7
S1131778F0F000ADF0BDF4FAF48B9DF26AF204AD1A
S1131788F0DAF48DF248000000000000C9F02601E8
S1131798ADF0BDF2DAF2301100780000FCA91700B0
S11317A8D761EFC161CFC9E82401C9F62401ADF6B8
S11317B8BDF0FAF0ABBDF68DF66C0C9DF48DF76CAC
S11317C8009DF5DAE8ADF4780000C9F4E6FFADF45D
S11317D8BDF2FAF28B9DF66AF601ADF4BDF0DAF0CB
S11317E88DF6480000C9F4E2FFADF4BDF2FAF28BBD
S11317F89DF65AF6FEADF4BDF0DAF08DF648000019
S1131808C9F4E6FFADF4BDF2FAF28B9DF66AF6026E
S1131818ADF4BDF0DAF08DF6480000C9F4E2FFAD8E
S1131828F4BDF2FAF28B9DF65AF6FDADF4BDF0DA8A
S1131838F08DF6480000C9F4E6FFADF4BDF2FAF203
S11318488B9DF66AF604ADF4BDF0DAF08DF6480027
S113185800C9F4E2FFADF4BDF2FAF28B9DF65AF634
S1131868FBADF4BDF0DAF08DF6480000C9F4EEFFE4
S1131878ADF4BDF2FAF28B9DF66AF601ADF4BDF053
S1131888DAF08DF6480000C9F4EAFFADF4BDF2FAC7
S1131898F28B9DF66AF601ADF4BDF0DAF08DF648E8
S11318A80000C9F4EEFFADF4BDF2FAF28B9DF66ABE
S11318B8F602ADF4BDF0DAF08DF6480000C9F4EA9A
S11318C8FFADF4BDF2FAF28B9DF66AF602ADF4BDF3
S11318D8F0DAF08DF6480000C9F41401ADF4BDF255
S11318E8DAF2302200780000C9F41C01ADF4BDF02E
S11318F8DAF0309780780000C9F444FFADF4BDF203
S1131908DAF23000CE780000C9F67000C9F470002D
S1131918ADF4BDF0FAF08B9DF46AF404ADF6BDF2B3
S1131928DAF28DF4480000C9F40E01ADF4BDF0DA22
S1131938F0300700780000C9F41601ADF4BDF2DAFE
S1131948F2302201780000C9F41E01ADF4BDF0DACA
S1131958F0309740780000C9F446FFADF4BDF2DAE0
S1131968F23000CE780000C9F62801C9F42801AD88
S1131978F4BDF0FAF0ABBDF48DF46C049DF28DF572
S11319886C009DF3ADF6BDF4DAF4ADF2780000C94D
S1131998F43401C9F23401ADF2BDF0FAF0ABBDF292
S11319A8ADF4BDF0DAF0ADF2780000C9F42A01C94B
S11319B8F22A01ADF2BDF0FAF0ABBDF28DF26C047F
S11319C89DF08DF36C009DF1ADF4BDF2DAF2ADF04B
S11319D8780000C9F26000C9F06000ADF0BDF4FA07
S11319E8F48B9DF05AF0F7ADF2BDF4DAF48DF048BB
S11319F80000C9F220FFC9F020FFADF0BDF4FAF4ED
S1131A088B9DF06AF008ADF2BDF4DAF48DF048006D
S1131A1800C9F26000C9F06000ADF0BDF4FAF48BBF
S1131A289DF05AF0FBADF2BDF4DAF48DF0480000F5
S1131A38C9F200FFC9F000FFADF0BDF4FAF48B9DC4
S1131A48F06AF004ADF2BDF4DAF48DF0480000C990
S1131A58F220FFC9F020FFADF0BDF4FAF48B9DF03D
S1131A685AF0FBADF2BDF4DAF48DF048000061EFF2
S1131A78C061CFD761EFC161CFC9E82801C9F62891
S1131A8801ADF6BDF0FAF0ABBDF68DF66C049DF42D
S1131A988DF76C009DF5DAE8ADF4780000C9F62AF4
S1131AA801C9F42A01ADF4BDF2FAF2ABBDF48DF428
S1131AB86C049DF28DF56C009DF3ADF6BDF4DAF47B
S1131AC8ADF2780000C9F42201C9F22201ADF2BDD9
S1131AD8F0FAF0ABBDF28DF26C0C9DF08DF36C0056
S1131AE89DF1ADF4BDF2DAF2ADF0780000C9F0E290
S1131AF8FFADF0BDF4FAF48B9DF25AF2FEADF0DAC4
S1131B08F48DF2480000C9F0E2FFADF0BDF4FAF438
S1131B188B9DF25AF2FDADF0DAF48DF2480000C95B
S1131B28F0E6FFADF0BDF4FAF48B9DF25AF2FEAD87
S1131B38F0DAF48DF2480000C9F0E6FFADF0BDF428
S1131B48FAF48B9DF25AF2FDADF0DAF48DF2480006
S1131B580061EFC061CFD7C9F4E6FFADF4BDF0FA78
S1131B68F08B9DF66AF601ADF4BDF2DAF28DF64813
S1131B780000C9F4E6FFADF4BDF0FAF08B9DF66AF7
S1131B88F602ADF4BDF2DAF28DF6480000C9F62487
S1131B9801C9F42401ADF4BDF0FAF0ABBDF48DF441
S1131BA86C0C9DF28DF56C009DF3ADF6BDF4DAF482
S1131BB8ADF2780000C9F42A01C9F22A01ADF2BDD8
S1131BC8F0FAF0ABBDF28DF25CFB9DF08DF35CFF97
S1131BD89DF1ADF4BDF2DAF2ADF0780000C9F0E29F
S1131BE8FFADF0BDF4FAF48B9DF25AF2FEADF0DAD3
S1131BF8F48DF2480000C9F0E2FFADF0BDF4FAF448
S1131C088B9DF25AF2FDADF0DAF48DF2480000D75C
S1131C182002F6B800A80844000061E8EC311C0072
S1131C28308100B800EC431C00F6BF18F0A808BDCA
S1131C38F0BF16F0A806BDF0BF1AF0A800BDF0105A
S1131C4802D72002F6B800A80844000061E8EC6353
S1131C581C00308100B800ECD61C00A806BDF0BFFB
S1131C681CF0A808BDF0BF1EF0C9F0E6FFADF0BD3A
S1131C78F4FAF48B9DF26AF201ADF0DAF48DF248CD
S1131C880000C9F244FFAF1CF0BDF0BDF4FAF48BB8
S1131C989DF0ADF2BDF4DAF48DF0480000AF1CF00D
S1131CA8BDF0A6F0ADF0BF1CF0AF1EF0BDF0B6F06D
S1131CB8ADF0BF1EF0C9F0E6FFADF0BDF4FAF48B49
S1131CC89DF25AF2FEADF0DAF48DF2480000A80055
S1131CD8BDF01002D761CFC1C3C5C761DFC1C3C599
S1131CE8C761CF2004C9F00601ADF0BDF2FAF2AB2A
S1131CF8BDF08DF05C079803C9F20E01880370519A
S1131D0800BDF0ADF2BDF4DAF4ADF078000088035C
S1131D18D161F8EC291D0088039DF09800FC1F1E72
S1131D2800C9F046FFADF0BDF2FAF28B9DF09802BF
S1131D38AF16F0BDF2AF18F0BDF0ADF246F061E3B6
S1131D48EC941D00AF1AF0BDF088029DF2ADF0BD11
S1131D58F4DAF48DF2480000AF1AF0BDF0A6F0AD45
S1131D68F0BF1AF0AF18F0BDF0A6F0ADF0BF18F050
S1131D78AF16F0BDF2AF18F0BDF0ADF246F061E871
S1131D88ECA11D00FC161E00ECA11D008802705178
S1131D9800BDF0B800FC1A1E00100461DFC6C4C2FE
S1131DA8C061CFC6C4C2C061FC61CFC1C3C5C7612D
S1131DB8DFC1C3C5C761CFAF1EF0BDF044000061E9
S1131DC8F8EC041E00C9F244FFAF1CF0BDF0BDF4EA
S1131DD8FAF48B9DF0ADF2BDF4DAF48DF04800000E
S1131DE8AF1CF0BDF0A6F0ADF0BF1CF0AF1EF0BD07
S1131DF8F0B6F0ADF0BF1EF0EC081E00FC1B1E0090
S1131E0861DFC6C4C2C061CFC6C4C2C061FCE521DB
S1131E18F0D7D7E557F0D7D761EFC1C3C561CF2055
S1131E2834C9F0F000ADF0BDF2FAF28B98316C01D0
S1131E389830ADF0BDF4DAF48830480000C9F0B643
S1131E4801ADF0BDF2DAF2300400780000C9F0B454
S1131E5801ADF0BDF4DAF430FF0A780000C9F0E609
S1131E68FFADF0BDF2FAF28B982F6C10982EADF0FE
S1131E78BDF4DAF4882E480000C9F0E2FFADF0BDE5
S1131E88F2FAF28B982D5CEF982CADF0BDF4DAF4ED
S1131E98882C480000C9F0E6FFADF0BDF2FAF28BD9
S1131EA8982B6C20982AADF0BDF4DAF4882A4800FF
S1131EB800C9F0E2FFADF0BDF2FAF28B98295CDFBD
S1131EC89828ADF0BDF4DAF48828480000C9F0E594
S1131ED8FFADF0BDF2FAF28B98276C809826ADF02E
S1131EE8BDF4DAF48826480000C9F0E1FFADF0BD7E
S1131EF8F2FAF28B98255C7F9824ADF0BDF4DAF4FD
S1131F088824480000C9F0E6FFADF0BDF2FAF28B70
S1131F1898236C409822ADF0BDF4DAF48822480086
S1131F2800C9F0E2FFADF0BDF2FAF28B98215CBF74
S1131F389820ADF0BDF4DAF48820480000C9F0E632
S1131F48FFADF0BDF2FAF28B981F6C80981EADF0CD
S1131F58BDF4DAF4881E480000C9F0E2FFADF0BD14
S1131F68F2FAF28B981D5C7F981CADF0BDF4DAF49C
S1131F78881C480000C9F0E6FFADF0BDF2FAF28B08
S1131F88981B6C04981AADF0BDF4DAF4881A48006A
S1131F9800C9F0E2FFADF0BDF2FAF28B98195CFBD0
S1131FA89818ADF0BDF4DAF48818480000C9F0E7D1
S1131FB8FFADF0BDF2FAF28B98176C809816ADF06D
S1131FC8BDF4DAF48816480000C9F0E3FFADF0BDAB
S1131FD8F2FAF28B98155C7F9814ADF0BDF4DAF43C
S1131FE88814480000C9F0D4FFADF0BDF2FAF28BB2
S1131FF898136C019812ADF0BDF4DAF48812480015
S113200800C9F0D0FFADF0BDF2FAF28B98115CFE76
S11320189810ADF0BDF4DAF48810480000C9F0D483
S1132028FFADF0BDF2FAF28B980F6C02980EADF08A
S1132038BDF4DAF4880E480000C9F0D0FFADF0BD55
S1132048F2FAF28B980D5CFD980CADF0BDF4DAF45D
S1132058880C480000C9F0D4FFADF0BDF2FAF28B49
S1132068980B6C04980AADF0BDF4DAF4880A4800B9
S113207800C9F0D0FFADF0BDF2FAF28B98095CFB11
S11320889808ADF0BDF4DAF48808480000C9F0EE09
S1132098FFADF0BDF2FAF28B98075CEF9806ADF04D
S11320A8BDF4DAF48806480000C9F0EAFFADF0BDD3
S11320B8F2FAF28B98055CEF9804ADF0BDF4DAF40B
S11320C88804480000C9F0EEFFADF0BDF2FAF28BC7
S11320D898036C209802ADF0BDF4DAF48802480045
S11320E800C9F0EAFFADF0BDF2FAF28B98016C205A
S11320F89800ADF0BDF4DAF48800480000C9F09007
S113210801ADF0BDF2DAF2F6780000C9F018FFADBF
S1132118F0BDF4DAF430FFF978000030B801B832D1
S1132128C9F0B801ADF0BDF2FAF2ABBDF08DF05CC8
S1132138FE9DEC8DF15CFF9DEDA832BDF4DAF4ADA3
S1132148EC780000C9ECBA01C9F0BA01ADF0BDF2EF
S1132158FAF2ABBDF08DF05CFE9DEA8DF15CFF9D5B
S1132168EBDAECADEA780000C9F09201ADF0BDF409
S1132178DAF4300690780000C9F01AFFADF0BDF229
S1132188DAF230FF0F780000C9EABE01C9F0BE01D7
S1132198ADF0BDF4FAF4ABBDF08DF05CFD9DE88DB7
S11321A8F15CFF9DE9DAEAADE8780000C9E8BC0112
S11321B8C9F0BC01ADF0BDF2FAF2ABBDF08DF05C34
S11321C8FD9DF68DF15CFF9DF7DAE8ADF678000029
S11321D8C9F6B801C9F0B801ADF0BDF4FAF4ABBD65
S11321E8F08DF05CFD9DF48DF15CFF9DF5ADF6BDC1
S11321F8F0DAF0ADF4780000C9F4BA01C9F0BA0114
S1132208ADF0BDF2FAF2ABBDF08DF05CFD9DF28D40
S1132218F15CFF9DF3ADF4BDF0DAF0ADF2780000A7
S1132228C9F27100C9F07100ADF0BDF4FAF48B9DE8
S1132238F05AF0FDADF2BDF4DAF48DF0480000C9AF
S1132248F221FFC9F021FFADF0BDF4FAF48B9DF043
S11322586AF040ADF2BDF4DAF48DF04800001034B1
S113226861EFC4C2C061CFD7C9F2E2FFADF2BDF0DD
S1132278FAF08B9DF45AF4EFADF2DAF08DF44800DD
S113228800C9F2E6FFADF2BDF0FAF08B9DF45AF402
S1132298EFADF2DAF08DF4480000C9F4B201C9F2E6
S11322A8B201ADF2BDF0FAF0ABBDF28DF26C019D56
S11322B8F08DF36C009DF1ADF4BDF2DAF2ADF07877
S11322C80000D7C9F4B401C9F2B401ADF2BDF0FA03
S11322D8F0ABBDF28DF26C019DF08DF36C009DF1B5
S11322E8ADF4BDF2DAF2ADF0780000C9F0E6FFAD66
S11322F8F0BDF4FAF48B9DF26AF210ADF0DAF48DC5
S1132308F2480000C9F0E2FFADF0BDF4FAF48B9D89
S1132318F25AF2EFADF0DAF48DF2480000D7C9F2C0
S1132328E2FFADF2BDF0FAF08B9DF45AF4DFADF2A2
S1132338DAF08DF4480000C9F2E6FFADF2BDF0FA18
S1132348F08B9DF45AF4DFADF2DAF08DF448000016
S1132358C9F4B201C9F2B201ADF2BDF0FAF0ABBDF5
S1132368F28DF26C029DF08DF36C009DF1ADF4BD1D
S1132378F2DAF2ADF0780000D7C9F4B401C9F2B4C6
S113238801ADF2BDF0FAF0ABBDF28DF26C029DF036
S11323988DF36C009DF1ADF4BDF2DAF2ADF0780086
S11323A800C9F0E6FFADF0BDF4FAF48B9DF26AF2D1
S11323B820ADF0DAF48DF2480000C9F0E2FFADF088
S11323C8BDF4FAF48B9DF25AF2DFADF0DAF48DF233
S11323D8480000D761CFC1C3C5C761DFC1C3C5C742
S11323E861CF2004E6BFE2EF30DCB3B8003006006A
S11323F8B802FC4A1C00100461DFC6C4C2C061CF25
S1132408C6C4C2C061FC61CFC1C3C5C7C6C4C2C00B
S113241861FC61CFC1C3C5C7C6C4C2C061FCC9F0F1
S11324287700ADF0BDF2DAF2F1480000FCE01000EC
S1132438FC221000FC9D1200FC771700FC140E000F
S1132448FC201E00FC3E1300FCF41000C9F07800C8
S1132458ADF0BDF2DAF2F1480000D72002717BFA40
S1132468FC262400E6B800BDF01002D7200EFC04B8
S11324782600FCA91700FC7C1A00FCF41000FC9050
S11324881100FC3E1300FC4A1400FC201E00FC262C
S11324982300FCCD0C0051509F76EF516F9F77EFCE
S11324A851749F78EF51619F79EF51749F7AEF517E
S11324B86F9F7BEF51209F7CEF514F9F7DEF5153CE
S11324C89F7EEF51209F7FEF51339F80EF512E9FC6
S11324D881EF51309F82EF510D9F83EF510A9F8402
S11324E8EFF585EFE6B800FC0A2E00305765B8040E
S11324F8306C63B806306F6DB80830650DB80A30B3
S11325080A00B80CC9F00E00AEF8BDF0040E00BD08
S1132518F004F6FFB800300900B802FC4A1C003089
S113252822F0B800E6B802FC181C00ADF0BF58F061
S1132538FCC70F0000C9F030FFADF0BDF2FAF28B12
S11325489DF0317A9DF0D4F061E8EC3D250030052A
S1132558FFB800300500B802FC290900D4F061F87E
S1132568EC752500300500B800FCD800003005FFE4
S1132578B800300400B802FC290900D4F061F8EC72
S1132588942500300300B800FCD800003005FFB8DB
S113259800300300B802FC290900D4F061F8ECB358
S11325A82500300400B800FCD800003005FFB8004E
S11325B8300200B802FC290900D4F061F8ECD025F7
S11325C800E6B800FCD80000FC4D35008F21F09DD2
S11325D8F0D4F061F8EC002600F521F08F22F09D8C
S11325E8F09800FC6826003022F0B800E6B802FC37
S11325F8181C00ADF0BF58F0EC382500717AFAD7F2
S11326080A26CBF8DCFE410061CF34D8003600EF4F
S113261861DF3600EF3000EF27311E440000DD0E85
S1132628B161CF11A9BBA5A5A7A761DFEFED61CF64
S11326383600EF30000061DF3092F027311E44008D
S113264800DD0AB161CFBBA7A761DFEFF161CFFC61
S113265863240000300000C1C1C1FC742400EFFEF3
S1132668200488084C2461E8EC922600AFE0EFBD12
S1132678F088089DF2DAF048ACEFAFE0EFBDF0A6C1
S1132688F0ADF0BFE0EFEC4B270088084C0A61E896
S1132698ECF52600AFE0EFBDF0B6F0ADF004ACEF1A
S11326A8168B9DF04AF00D61E8ECE22600AF36EF98
S11326B8BDF044000061E8ECE22600AFE0EFBDF0B5
S11326C888089DF2DAF048ACEFAFE0EFBDF0A6F071
S11326D8DAF0F148ACEFFC522700F4F08DF09FAC2F
S11326E8EFF6BFE0EFF6BF36EFEC4B2700AF36EF5F
S11326F8BDF044000061E8EC4B2700AFE0EFBDF00B
S113270844000061E8EC31270088084C2461F8ECA7
S113271831270030E3B3B800300700B802FC4A1C84
S113272800E6BF36EFEC4B2700AFE0EFBDF08808BA
S11327389DF2DAF048ACEFAFE0EFBDF0A6F0ADF0F3
S1132748BFE0EF88089DF01004D7202CFCA22D00D0
S1132758ADF044000061F8EC8D2D008FADEF9DF0D5
S1132768CDF100ADF044420061F8EC342D00ADF039
S113277844420071FF61F3ECC42700ADF04431001A
S113278861F8EC712800ADF044310071FF61F3EC9D
S1132798AA2700ADF044300061F8EC102800EC6D75
S11327A82D00ADF044320061F8ECD22800ADF044BD
S11327B8330061F8EC062900EC6D2D00ADF04445BA
S11327C80061F8ECB32C00ADF044450071FF61F3EF
S11327D8ECF62700ADF044430061F8EC3C2D00AD65
S11327E8F044440061F8EC542900EC6D2D00ADF080
S11327F844490061F8EC442D00ADF0444C0061F804
S1132808ECF02900EC6D2D00AF6CEFBDF044010035
S113281861E8EC2A280051309829F6BF6CEFEC2EB9
S1132828280051339829510D982A510A982B51247C
S11328389F3AEF51309F3BEFF53CEF303AEFB80049
S1132848C9F02C00AEF8BDF0042C00BDF004FDFF67
S1132858B802FC573800300700B800FCD800003034
S11328680500BFE0EFEC8D2D00AF6CEFBDF0440028
S11328780061E8EC8B280051309829E6BF6CEFEC36
S11328888F280051339829510D982A510A982B51B1
S1132898249F3AEF51319F3BEFF53CEF303AEFB8C4
S11328A800C9F42C00AEF8BDF4042C00BDF404FDFA
S11328B8FFB802FC573800300600B800FCD8000006
S11328C8300500BFE0EFEC8D2D0030E4EFB80030A8
S11328D8AEEFB802FCA5380051249F3AEF51329F5D
S11328E83BEF51309F3CEF510D9F3DEF510A9F3E06
S11328F8EFF53FEF300500BFE0EFEC8D2D005124DC
S11329089F3AEF51339F3BEF51309F3CEF51319F3A
S11329183DEF51399F3EEF51319F3FEF51319F4079
S1132928EF51399F41EF51309F42EF51339F43EFAD
S113293851389F44EF510D9F45EF510A9F46EFF5DB
S113294847EF300D00BFE0EFEC8D2D0030E4EFB819
S113295800FCCC3800ADF044200061F3ECA329005E
S113296851249F3AEF51449F3BEF51309F3CEF5124
S11329780D9F3DEF510A9F3EEFF53FEF300500BF35
S1132988E0EF3076EFB80030E4EFB802FCA5380089
S1132998E6B800FC0A2E00EC8D2D00F19800E198B1
S11329A802FC960B00306806B800FCE20D00F198B2
S11329B80051809802FC960B00306806B800FCE2CF
S11329C80D0051249F3AEF51449F3BEF51339F3CF4
S11329D8EF510D9F3DEF510A9F3EEFF53FEF300554
S11329E800BFE0EFEC8D2D008FAEEF9DF04AF03084
S11329F861E8EC752A00C9F004FFADF0BDF6FAF6FB
S1132A088B9DF25AF2FDADF0BDF4DAF48DF2480074
S1132A1800C9F004FFADF0BDF6FAF68B9DF25AF248
S1132A28FBADF0BDF4DAF48DF2480000C9F004FF00
S1132A38ADF0BDF6FAF68B9DF25AF2F7ADF0BDF49F
S1132A48DAF48DF248000051249F3AEF514C9F3B31
S1132A58EF51309F3CEF510D9F3DEF510A9F3EEFE0
S1132A68F53FEF300500BFE0EFECAF2C008FAEEF81
S1132A789DF04AF03161E8ECFA2A00C9F004FFAD90
S1132A88F0BDF6FAF68B9DF25AF2FDADF0BDF4DA1C
S1132A98F48DF2480000C9F004FFADF0BDF6FAF673
S1132AA88B9DF25AF2FBADF0BDF4DAF48DF24800D6
S1132AB800C9F004FFADF0BDF6FAF68B9DF26AF298
S1132AC808ADF0BDF4DAF48DF248000051249F3AC1
S1132AD8EF514C9F3BEF51309F3CEF510D9F3DEF21
S1132AE8510A9F3EEFF53FEF300500BFE0EFECAF32
S1132AF82C008FAEEF9DF04AF03261E8EC7F2B009A
S1132B08C9F004FFADF0BDF6FAF68B9DF26AF20245
S1132B18ADF0BDF4DAF48DF2480000C9F004FFAD5D
S1132B28F0BDF6FAF68B9DF25AF2FBADF0BDF4DA7D
S1132B38F48DF2480000C9F004FFADF0BDF6FAF6D2
S1132B488B9DF25AF2F7ADF0BDF4DAF48DF2480039
S1132B580051249F3AEF514C9F3BEF51309F3CEF7B
S1132B68510D9F3DEF510A9F3EEFF53FEF300500B1
S1132B78BFE0EFECAF2C008FAEEF9DF04AF033616D
S1132B88E8EC042C00C9F004FFADF0BDF6FAF68BAE
S1132B989DF25AF2FDADF0BDF4DAF48DF24800006E
S1132BA8C9F004FFADF0BDF6FAF68B9DF26AF204A3
S1132BB8ADF0BDF4DAF48DF2480000C9F004FFADBD
S1132BC8F0BDF6FAF68B9DF25AF2F7ADF0BDF4DAE1
S1132BD8F48DF248000051249F3AEF514C9F3BEF8B
S1132BE851309F3CEF510D9F3DEF510A9F3EEFF549
S1132BF83FEF300500BFE0EFECAF2C008FAEEF9D48
S1132C08F04AF03461E8EC892C00C9F004FFADF017
S1132C18BDF6FAF68B9DF26AF202ADF0BDF4DAF471
S1132C288DF2480000C9F004FFADF0BDF6FAF68B4A
S1132C389DF26AF204ADF0BDF4DAF48DF2480000B6
S1132C48C9F004FFADF0BDF6FAF68B9DF25AF2F71F
S1132C58ADF0BDF4DAF48DF248000051249F3AEF48
S1132C68514C9F3BEF51309F3CEF510D9F3DEF512D
S1132C780A9F3EEFF53FEF300500BFE0EFECAF2CC5
S1132C880051249F3AEF514C9F3BEF51329F3CEF48
S1132C98510D9F3DEF510A9F3EEFF53FEF30050080
S1132CA8BFE0EFEC8D2D00EC8D2D00FC232F008F61
S1132CB88FF09DF0705100BDF48F90F09DF070512D
S1132CC800BDF28F8EF09DF0CDF100C9F62C00AE58
S1132CD8F8BDF6042C00BDF604DFFFB80030EBB3F2
S1132CE8B802ADF4B804ADF2B806ADF0B808FC2AE1
S1132CF83800303AEFB800C9F02C00AEF8BDF00443
S1132D082C00BDF004DFFFB802FCA53800C9F42C80
S1132D1800AEF8BDF4042C00BDF404DFFFB800FCD9
S1132D28CC3800ADF0BFE0EFEC8D2D00FC46300050
S1132D38EC8D2D00FCB03200EC8D2D00AF38EFBDCA
S1132D48F0303AEFB80030FEB3B802ADF0B804FC86
S1132D582A3800303AEFB800FCCC3800ADF0BFE0B8
S1132D68EFEC8D2D008FADEF9DF0CDF100303AEFF3
S1132D78B8003006B4B802ADF0B804FC2A38003004
S1132D880500BFE0EFAFE0EFBDF0303AEFB800ADBB
S1132D98F0B802FC4A1C00102CD7200C30ACEFB859
S1132DA800FCCC3800B6F0ADF004ACEF168B9DF007
S1132DB84AF00A61F8EC002E00512498078FADEF11
S1132DC89DF0980851329809510D980A510A980BA8
S1132DD830ACEFB800C9F00C00AEF8BDF0040C003C
S1132DE8BDF004FBFFB802FCA53800300500BFE0C5
S1132DF8EFF6B804EC032E00E6B804A804BDF010FE
S1132E080CD761EFC161CF2006A80C44000061F81B
S1132E18EC282E00F6BF70EFE6BF6EEFF6BFAAEF00
S1132E28AF6EEFBDF044000061F8ECE22E00F198BB
S1132E3800E19802FC960B00306806B800FCE20D2D
S1132E4800F1980051809802FC960B00306806B88F
S1132E5800FCE20D00AF70EFBDF0B804ECBB2E002F
S1132E68AF70EFBDF0040800BDF2A804BDF0ADF2E8
S1132E7846F061E8EC942E00F1980051C09802FCE9
S1132E88960B00306806B800FCE20D00A80404762E
S1132E98EFBDF0BDF2FAF28B9DF0E198008DF09849
S1132EA802FC960B00302800B800FCE20D00A804D0
S1132EB8A1B804A804BDE83076EFB800FCCC38000B
S1132EC8B6F0B6F0ADE846F061D8EC682E00AF7005
S1132ED8EFBDF0A6F0ADF0BF70EFAF70EFBDF0BD81
S1132EE8E83076EFB800FCCC3800ADF004EFFFBD55
S1132EF8F0ADE846F061C8EC172F003076EFB80063
S1132F08FCCC3800ADF044120061F3EC1B2F00F642
S1132F18BF6EEF100661EFC061CFD72002C9F03150
S1132F28FFADF0BDF2DAF2F1480000FC2F0F00000B
S1132F38C9F030FFADF0BDF2FAF28B9DF0317A9D05
S1132F48F0D4F061E8EC382F00FC2F0F0000C9F032
S1132F5830FFADF0BDF2FAF28B9DF0317A9DF0D4DA
S1132F68F061E8EC562F00308FF0B800FCFB0F003E
S1132F788F8FF09DF0311A9DF09F8FF0C9F031FFCB
S1132F88ADF0BDF2DAF2E1480000FC2F0F0000C9F1
S1132F98F030FFADF0BDF2FAF28B9DF0317A9DF07E
S1132FA8D4F061E8EC972F00FC2F0F0000C9F03033
S1132FB8FFADF0BDF2FAF28B9DF0317A9DF0D4F0BA
S1132FC861E8ECB52F00308EF0B800FCFB0F008FE1
S1132FD88EF09DF0312A9DF09F8EF0C9F031FFAD3F
S1132FE8F0BDF2DAF25102480000FC2F0F0000C9CC
S1132FF8F030FFADF0BDF2FAF28B9DF0317A9DF01E
S1133008D4F061E8ECF72F00FC2F0F0000C9F03072
S1133018FFADF0BDF2FAF28B9DF0317A9DF0D4F059
S113302861E8EC1530003090F0B800FCFB0F008F1D
S113303890F09DF0312A9DF09F90F01002D7202245
S1133048F19819F1981AF1981BF1981CF1981DF14F
S1133058981EF19813F19814F19815F19816F198AF
S113306817F19818300400BFE0EFF6B820ECBA3135
S113307800AEF8BDF2041900BDF0A82006F0BDF0BA
S1133088BDF4FAF48B9DF2AFE0EFBDF004ACEF169B
S11330988B9DF0768DF2610E9DF00CD09DF2AEF80A
S11330A8BDF4041900BDF0A82006F0BDF0BDF4DAA3
S11330B8F48DF2480000AEF8BDF2041300BDF0A888
S11330C82006F0BDF0BDF4FAF48B9DF2AFE0EFBD3D
S11330D8F004ACEF168B9DF0768DF2610E9DF00C2A
S11330E8D09DF2AEF8BDF4041300BDF0A82006F09C
S11330F8BDF0BDF4DAF48DF2480000AFE0EFBDF0A6
S1133108A6F0ADF0BFE0EFBDF004ACEF168B9DF078
S11331184AF02C61E8EC363100A820A1B820AFE0D1
S1133128EFBDF0A6F0ADF0BFE0EFECBA3100AFE0D0
S1133138EFBDF004ACEF168B9DF04AF00D61F8EC8E
S1133148BA3100AEF8BDF2041900BDF0A82006F0AB
S1133158BDF0BDF4FAF48B9DF031499DF2AEF8BD93
S1133168F4041900BDF0A82006F0BDF0BDF4DAF4AB
S11331788DF2480000AEF8BDF2041300BDF0A8209B
S113318806F0BDF0BDF4FAF48B9DF061019DF031B9
S1133198299DF1768DF0610E9DF2AEF8BDF404130D
S11331A800BDF0A82006F0BDF0BDF4DAF48DF248B5
S11331B80000AFE0EFBDF004ACEF168B9DF04AF0D1
S11331C80D61E8EC793000C9F02200AEF8BDF004D6
S11331D82200BDF004F1FFB800FC3F3400D4F061D4
S11331E8F8EC53320088199DF09812881A9DF098CB
S11331F811881B9DF0980F881C9DF0980E881D9DC2
S1133208F0980D881E9DF0980C300500BFE0EF5132
S1133218249F3AEF51429F3BEF51309F3CEF510DB1
S11332289F3DEF510A9F3EEFF53FEFA80CBDF0B864
S113323800A80EBDF0B802A810BDF0B80488129D0D
S1133248F09806FC0D1600ECAD3200F1981FAEF8AC
S1133258BDF2040800BDF0BDF4DAF430244278006D
S113326800DAF030320D780200300A00780400C920
S1133278F02200AEF8BDF0042200BDF004E6FFB869
S113328800FCCC3800ADF0BFE0EF303AEFB800C92D
S1133298F22200AEF8BDF2042200BDF204E6FFB843
S11332A802FCA538001022D761EFC1C3C561CF2045
S11332B820F19811F19812F19813F19814F19815D6
S11332C8F19816C9F02000AEF8BDF0042000BDF056
S11332D804F7FFB800FC7E1400881D9DF09811883F
S11332E81C9DF09812881A9DF0981388199DF098DF
S11332F81488189DF0981588179DF09816C9F02021
S113330800AEF8BDF0042000BDF004F1FFB800FCE5
S1133318B73300302000B800FC1A3700ADF0B81EEF
S113332888119DF0705100BDEC88129DF070510019
S1133338BDEA88139DF0705100BDE888149DF070B3
S11333485100BDF688159DF0705100BDF488169D96
S1133358F0705100BDF2A81EBDF0B800300DB4B82D
S113336802ADECB804ADEAB806ADE8B808ADF6B8F5
S11333780AADF4B80CADF2B80EFC2A3800A81EBD8C
S1133388F0B800FCCC3800ADF0BFE0EF303AEFB84D
S113339800A81EBDF0B802FCA53800A81EBDF0B8F0
S11333A800FC033600102061EFC4C2C061CFD720EF
S11333B80651069803F6B804EC223400A804BDF0BC
S11333C8A80A06F0BDF0BDF2FAF28B9DF05C0F98E6
S11333D802A804BDF0A80A06F0BDF0BDF4FAF48B07
S11333E89DF0314A9801A804BDF0A80A06F0BDF280
S11333F888019DF061019DF031299DF1768DF06180
S11334080E9DF0768802610E9DF0ADF2BDF4DAF4FB
S11334188DF0480000A804A1B8048803705100BDC9
S1133428F2A804BDF0ADF246F071FF7177F161F3D3
S1133438ECC433001006D72018301F00B800301C25
S113344800B802301F00B804301E00B806301F0050
S1133458B808301E00B80A301F00B80C301F00B876
S11334680E301E00B810301F00B812301E00B814F9
S1133478301F00B816A81CA1BDF0BDF2FAF28B9D4E
S1133488F04AF00C61E3EC983400F4F0EC4A3500AF
S1133498A81C040200BDF0BDF4FAF48B9DF0705131
S11334A800BDF2A81CA1BDF0BDF4FAF48B9DF0CDCB
S11334B8F100ADF001BDF0C9F41800AEF8BDF40494
S11334C81800BDF406F0BDF004E8FFBDF0BDF4FA41
S11334D8F4ABBDF0ADF246F071FF7177F161E3EC46
S11334E8F13400F4F0EC4A3500A81C040300BDF0E4
S11334F8BDF2FAF28B9DF04AF01761E3EC0E350049
S1133508F4F0EC4A3500A81C040400BDF0BDF4FA3C
S1133518F48B9DF04AF03B61E3EC2B3500F4F0ECBE
S11335284A3500A81C040500BDF0BDF2FAF28B9DD3
S1133538F04AF03B61E3EC483500F4F0EC4A35001E
S1133548E4F01018D720028FDEEF9DF0D4F061F874
S1133558EC663500F5DEEFF6B800FC0A2E008FA8FD
S1133568EF9DF0D4F061F8ECCC3500F5A8EFC9F084
S113357801FFC9F201FFADF2BDF4FAF48B9DF231FB
S11335887A9DF27AF2018DF231799DF2ADF0BDF4B3
S1133598FAF48B9DF35AF37F8DF36BF29DF2ADF041
S11335A8DAF48DF2480000C9F001FFADF0BDF2FA7B
S11335B8F28B9DF0317A9DF0D4F061E8ECCC3500C3
S11335C8FCCF35001002D72002C9F08201ADF0BD4E
S11335D8F2FAF2ABBDF030001026F0B800BDF031BD
S11335E84EBDF0BF38EFBDF004CEFFBDF0BF38EFDD
S11335F8FC812300FC2623001002D761EFC161CFB0
S1133608A806BDF6AF74EFBDF2ADF644000061F84C
S1133618EC5D3600AF72EFBDE8ADF246E861C8EC88
S11336285D3600040400BDF0ADF646F061E8EC4FE9
S11336383600EC633600ADF004040046F661F8EC9D
S1133648673600ADF0BDF2FAF2AC02BDF046E861AF
S1133658D8EC3E360061EFC061CFD7ADF2BDF0AD16
S1133668F01489D161F8EC5D3600FAF0AC02BDF4CF
S113367846E861C8ECDB3600ADF21489D161F8EC98
S1133688BF3600ADF41489D161E8ECA13600FAF430
S1133698AC02BDF4DAF0780200ADF012F148000093
S11336A8ADF0BDF2ADF446E861E8EC5D3600ADF28C
S11336B8BF72EFEC5D3600ADF41489D161E8ECD04B
S11336C83600FAF4AC02BDF4DAF2ADF4780200EC98
S11336D8AC3600ADF21489D161F8ECD03600ECA117
S11336E83600AEF8BDF0D7A804BDF2A806BDF0FABE
S11336F8F2AC02BDF426F044040061E3EC1937008F
S1133708DAF2ADF078020012F1480000ADF4780264
S113371800D761EFC1C361CFAF74EF44000061F813
S1133728EC023800A808A1BDF0605CFE9DEA8DF1AA
S11337389DEBADEA040400BDE8FCEA3600AF72EF85
S1133748BDF4ADF026F4BDF0ADE846F061E3ECACB1
S11337583700AF74EFBDF2ADF446F261E3EC99378C
S113376800ADF21489FAF2D161E8ECA43700AC0296
S1133778BDF626F204FCFFBDF0ADEA46F061E3ECC9
S1133788C83700ADF6BDF2ADF446F261F3EC693723
S113379800C9F0000061EFC2C061CFD7AC02BDF22E
S11337A8EC5F3700ADF412E1480000ADF406E8BF61
S11337B872EF78020026EABDF061EFC2C061CFD78C
S11337C8ADF2040400BDF0ADF212E1480000ADF022
S11337D806EABDEAADF626EA44040061E3EC9D3747
S11337E800DAF2ADEA780200DAEAF1480000ADF650
S11337F878020061EFC2C061CFD73092F0BF74EF96
S11338083092F0BF72EFEC2C3700A806BDF2FAF242
S1133818ABBDF0DAF2A1780000ADF01288044800DC
S113382800D72008A80EB800301238B802AEF80441
S11338380C00B804AEF8040C00040400B806FCF547
S11338483800A80CBDF2DAF2F14800001008D7617C
S1133858EFC161CFA806BDF0BDF2EAF089D161F8E5
S1133868EC9D3800A6F2ADF21489D161E8EC6C380D
S113387800A808BDF4ADF4168B9DF6ADF2128DF6D2
S1133888480000A6F2A6F4D4F661E8EC7D3800619D
S1133898EFC061CFD7ADF0BDF2EC793800A804BD14
S11338A8F2A806BDF0ADF0168B9DF4ADF2128DF4BE
S11338B8480000A6F2A6F0D4F461E8ECAD3800A8FC
S11338C804BDF0D7A804BDF2BDF0EAF289D161F8CD
S11338D8ECF03800A6F0ADF01489D161E8ECDC38DE
S11338E800ADF026F2BDF0D7C9F00000D761EFC1F2
S11338F8C3C561CF20E0F6B82CAEF804DF00B814D5
S1133908A8EAA1BDEAA8EA168B9DF04AF02561F859
S1133918EC4D3900D4F061F8ECF844008DF09800CF
S1133928A8EEB802A8EC1261DAFBF8FF61792CADB5
S1133938EAB8EAA1BDEAA8EA168B9DF04AF0256127
S1133948E8EC1C3900ADEA168B9DEC4AEC2561F8CD
S1133958EC834500F19831984E883198378831982E
S1133968364AEC2B61F8ECA339004AEC2B61F3ECF2
S1133978AB39004AEC2061F8EC823C004AEC236144
S1133988E8ECD13900FBF8FF61594EA6EAFAEA8B54
S11339989DEC4AEC2B61E8EC7239008DEC9836EC1E
S11339A89339004AEC2D61F8ECC739004AEC3061D0
S11339B8E8ECD13900FBF8FF615931EC933900FB8D
S11339C8F8FF615937EC933900ADEABDF04AEC2AA7
S11339D861F8ECCE44008DEC0CD09DF0F6B8384A72
S11339E8F00961F3EC333A008DEC9DF2A838BDF090
S11339F8ADF001BDF0312DBDF4ADF006F4BDF0A677
S1133A08EACDF300ADF204D0FFBDF2ADF006F2BD8D
S1133A18F0FAEA8B9DF20CD09DF34AF30961E3ECCA
S1133A28F839008DF29DECADF0B8388837D161F8DB
S1133A38EC3F3A00F198314AEC2E61F8EC6D440001
S1133A48C9E8FFFF4AEC6861F8EC5F44004AEC6C93
S1133A5861F8ECF43C004AEC4C61F8ECF43C008D61
S1133A68EC982EF4F0ADEAA1B8EA882E4C6661F819
S1133A78EC0D3D00882E4C6661E3EC933C00882EE7
S1133A884C6F61F8EC664900882E4C6F61E3EC06D4
S1133A984500882E4C7361F8ECE34800882E4C737B
S1133AA861E3EC724C00882E4C7561F8EC6E4E00A4
S1133AB8882E4C7861E8ECAB45003046B4B816A8BB
S1133AC8F016ABB83CD4F061F8EC8C4800A8F016BA
S1133AD8AC02B83EA8F0040400B8F0882E4C6F611C
S1133AE8F8ECA34800882E4C7561F8EC164D0030AC
S1133AF81000B832F6B834F19836FBF8FF300000FD
S1133B0861293CBDF430000061D8B161293EBDF69D
S1133B18883C6BF49842883D6BF59843883E6BF675
S1133B289844883F6BF79845A844317A9DF430004F
S1133B3800BDF69DF58DF49DECADE844000061E808
S1133B48EC814600D4EC61E8EC814600AEF804DF71
S1133B5800BDEAADE8BDF0ADF0BDE8A83846E871AF
S1133B68FF7177E961D8ECDF3C00A83826E8BDECA2
S1133B78883676F1612E9DF088366BF0317A318F74
S1133B88BDF0ADEC26F0B8168837D161E8ECEE3B11
S1133B9800A816B1B81E44000071FF61D8EC1D4D91
S1133BA800A81EBDECADEAB82AADE8B82EA8ECBD55
S1133BB8E8A8EEBDEA51209800ADEAB802DAE86157
S1133BC8DAB6ECADEC44FFFF61E8ECBD3B00A82A93
S1133BD8BDEAA82EBDE8A816BDF0A81E26F0B816A2
S1133BE8A82C06F0B82C8836D161E8EC414600AD23
S1133BF8E844000071FF61E3EC3C3C00ADEABDEC35
S1133C0806E8BDEAADE8B81EADECBDE8A8EEBDEC2B
S1133C18FAE88B9800ADECB802A8EC1261DAA6E8D1
S1133C28ADE846EA61E8EC183C00A81EBDE8A82CFB
S1133C3806E8B82C8837D161F8EC083900A816B121
S1133C48BDE844000071FF61D8EC083900A8ECBD58
S1133C58EAA8EEBDEC51209800ADECB802DAEA61AE
S1133C68DAB6E8ADE844FFFF61E8EC5D3C00A8166D
S1133C7816A82C07B82CEC0839008836D161E8EC72
S1133C889339008DEC9836EC933900882E4C5861A2
S1133C98F8EC6E4E00882E4C5861F3EC47450088CA
S1133CA82E4C4561F8EC284600882E4C4761F8EC08
S1133CB8B74500882ED161E8ECAB4500C9E803009C
S1133CC8ADEAB8EAC9EA57B4A83846E871FF71778B
S1133CD8E961C8EC723B00F6B8168837D161E8ECA4
S1133CE8EE3B0030FFFFB816ECEE3B00FAEA8C011D
S1133CF8982EA6EAE4F0ADEAA1B8EA882E4C6661EB
S1133D08E8EC7C3A00A4F0ADE8C9EC0000440000FB
S1133D1871FF61D8EC7F4E00F1982ED4F061F8EC75
S1133D28D84500A8F0040400BDEAA8F016ABB80012
S1133D38A8F016AC02B802FC8A4E008DF0981E8DCD
S1133D48F1981F8DF298208DF398218DF498228D87
S1133D58F598238DF698248DF798258DF098168D6F
S1133D68F198178DF298188DF398198DF4981A8D87
S1133D78F5981B8DF6981C8DF7981DADEAB8F0F4EC
S1133D88F088169800881798018818980288199856
S1133D9803881A9804881B9805881C9806881D9817
S1133DA8078DF098089809980A980B980C980D981C
S1133DB80EF1980FFC0F8D008DF0D171FF61D8ECD6
S1133DC8144C00AEF8045A00BDF4A83806F4BDEA51
S1133DD8F4F0CDF6F088169800881798018818989A
S1133DE80288199803881A9804881B9805881C98CF
S1133DF806881D98078DF098089809980A980B98D2
S1133E080C980D8DF6980E513F980FFC288C008D58
S1133E18F0F4F0D171FF61D8ECAC4900CDF3E0CDFA
S1133E28F476CDF548CDF6378DF3980B8DF4980CD0
S1133E388DF5980D8DF6980E5142980FFC288C003C
S1133E48F6B8408DF0D171FF61D8EC393F00ADE888
S1133E58B82AA840BDE888169800881798018818D9
S1133E68980288199803881A9804881B9805881C4E
S1133E789806881D9807F19808F19809F1980A514D
S1133E8820980B515F980C51A0980D5102980E512F
S1133E9842980FFC6B7F008DF0981E8DF1981F8D52
S1133EA8F298208DF398218DF498228DF598238D1E
S1133EB8F698248DF798258DF098168DF198178D1E
S1133EC8F298188DF398198DF4981A8DF5981B8D1E
S1133ED8F6981C8DF7981DADE8040A00BDE8CDF3EB
S1133EE8E0CDF476CDF548CDF637881698008817D6
S1133EF898018818980288199803881A9804881BC6
S1133F089805881C9806882598078DF3980B8DF4D6
S1133F18980C8DF5980D8DF6980EFC288C008DF074
S1133F28D171FF61C8EC5E3E00ADE8B840A82ABD77
S1133F38E8F4F0CDF62488169800881798018818B4
S1133F48980288199803881A9804881B9805881C6D
S1133F589806881D98078DF098089809980A980B70
S1133F68980C980D8DF6980E5140980FFC288C00EB
S1133F788DF0D171FF61D8EC424000ADE8B82AA8B1
S1133F8840BDE88816980088179801881898028810
S1133F98199803881A9804881B9805881C98068819
S1133FA81D9807F19808F19809F1980AF1980BF10E
S1133FB8980CF1980D5124980E5140980FFC6B7F82
S1133FC8008DF0981E8DF1981F8DF298208DF3982E
S1133FD8218DF498228DF598238DF698248DF798E1
S1133FE8258DF098168DF198178DF298188DF39801
S1133FF8198DF4981A8DF5981B8DF6981C8DF798E1
S11340081DA6E888169800881798018818980288C9
S1134018199803881A9804881B9805881C98068898
S1134028259807FC288C008DF0D171FF61C8EC8BB2
S11340383F00ADE8B840A82ABDE8ADEC44000061F3
S1134048F8ECEF4700A840BDECADE846EC71FF7111
S113405877ED61E3EC6F4000ADEC44FCFF71FF7158
S1134068C061C8ECA44C00B6E8884ED161E8ECEF16
S11340784700E1984E984F882ED161F8ECFB470031
S1134088ADEABDECC9F00000ADE846F071FF717708
S1134098F161D8EC614200ADE8B83AADECB82AADAC
S11340A8EAB854ADF0BDECECEC4000A83A4400008A
S11340B861E8ECC74000884ED161F8EC3C4200A8A6
S11340C82ABDF6A6F6DAF6512E480000A82A0402FC
S11340D800B82AA6ECA83A46EC71FF7177ED61D8CE
S11340E8EC5142008816980088179801881898029D
S11340F888199803881A9804881B9805881C9806B8
S1134108881D9807FC7A9000ADF0B826ADF2B8285F
S1134118ADF0BDE88827317B9DEA9DEBADE8B8009A
S1134128ADEAB802FCDB8E008DF0981E8DF1981F65
S11341388DF298208DF398218DF498228DF598238B
S11341488DF698248DF79825881698008817980175
S113415888189802881998038DF098088DF19809A1
S11341688DF2980A8DF3980B8DF4980C8DF5980DB3
S11341788DF6980E8DF7980FFC1768008DF0981639
S11341888DF198178DF298188DF398198DF4981A63
S11341988DF5981B8DF6981C8DF7981D8DF0980059
S11341A88DF198018DF298028DF398038DF498049B
S11341B88DF598058DF698068DF79807F19808F10E
S11341C89809F1980AF1980BF1980CF1980D51247B
S11341D8980E5140980FFC3869008DF0981E8DF1A7
S11341E8981F8DF298208DF398218DF498228DF5DF
S11341F898238DF698248DF798258DF098168DF1CF
S113420898178DF298188DF398198DF4981A8DF5DE
S1134218981B8DF6981C8DF7981DA82AA1BDF0A8A7
S11342282A1288260C30480000ADEC44000061F8DE
S1134238ECB34000ADF0B82AA6ECA83A46EC71FFFE
S11342487177ED61C8ECEC4000A82ABDECADE8B884
S113425850ADEAB852A854BDEAF4F0CDF614881665
S11342689800881798018818980288199803881A5A
S11342789804881B9805881C9806881D98078DF053
S113428898089809980A980B980C980D8DF6980E2A
S11342985140980FFC288C008DF0D171FF61D8EC47
S11342A8924300ADECB1BDF4C9F20100ECD2420076
S11342B8DAF6480000C9F20000B6F4ADF4A1BDF086
S11342C8ADEA46F061C8EC124300ADF4BDF6168BB6
S11342D89DF14AF12E61F8ECC142008DF2768DF120
S11342E8610E9DF14AF13A61E8ECB84200ADF4126E
S11342F85130480000C9F20100B6F4ADF4A1BDF094
S1134308ADEA46F061D8ECD24200ADF24400006157
S1134318F8EC924300882ED161F8ECBB4C00ADEC6C
S1134328BDF0ADEA46EC61D8EC4A4300EC734300B7
S1134338128DF2480000B6F0ADEA46F061C8EC739D
S11343484300ADF0B1168B9DF2ADF04AF22E61E850
S1134358EC3843001204FEFF168B480000B6F0B692
S1134368F0ADEA46F061D8EC4A4300FBF8FF617906
S113437840ADECBDF2AEF8045A00BDECA83806EC2A
S1134388125131480000ADF2BDEC884FD161F8EC10
S1134398D14300ADECB1168B9DF24AF23061E8ECE2
S11343A8C84300ADEC04FEFFBDF0ADF0A1BDECB612
S11343B8F0FAF08C019DF24AF23061F8ECB2430055
S11343C84AF22E61F8EC3E4D00882ED161F8ECDCFF
S11343D84700DAEC882E480000A84044000071FF2A
S11343E861D8EC254D00ADEC040200BDF0DAEC51C7
S11343F82B480100ADF0040A00B816C9EC0100AD61
S1134408EAB82AA840BDEAA816BDE8ADECB81EADC6
S1134418E8A1B816ADEAB800300A00B802FCBA92AE
S113442800DAE88DF00C30480000ADEAB800300A34
S113443800B802FC599200ADF0BDEA44000061E8FE
S1134448EC594400ADEC44010071FF61F3ECA24760
S113445800A6ECEC0F4400FAEA8C01982EA6EAF4C4
S1134468F0EC6D3A00FAEA8C019DEC4AEC2A61F80A
S1134478EC824900A6EA0CD09DF0C9E800004AF095
S11344880961F3EC4C3A008DEC9DF0ADE801BDE810
S1134498312DBDF2ADE806F2BDE8A6EACDF100ADD6
S11344A8F004D0FFBDF0ADE806F0BDE8FAEA8B9D54
S11344B8F00CD09DF14AF10961E3EC9344008DF0CE
S11344C89DECEC4C3A00A8F0040200BDF2A8F016EA
S11344D8ABBDECB83844000071FF61D8EC9D4900CD
S11344E8A6EAFAF08C019DECADF2B8F0EC333A0090
S11344F8A82CBDF010E061EFC4C2C061CFD7882EEC
S11345084C6961F8ECAA4800882E4C6E61E8ECA16D
S11345184500A8F016ABD4F061F8EC484C00BDF0A7
S1134528A82CBDECADF012ADEC780000317B48024C
S113453800480300A8F0040200B8F0EC0839008829
S11345482E4C6461F8ECAA4800882E4C6461F3ECA4
S1134558284600882E4C6361E8ECAB4500A8F0BD02
S1134568EC168B985AC9E80100ADEC040200B8F0C7
S1134578AEF8045A00BDEAEC633B00A8EA04020062
S1134588B8EA8DEC9800A8EEB802A8EC1261DAFB40
S1134598F8FF61792CEC083900882E4C6761F8EC37
S11345A8B74500C9E80300C9EA57B4EC633B00887F
S11345B82E0CFE982EADE844000061E8EC404C0057
S11345C8C9E80100ADE8BDECD4F061E8EC2B3D008E
S11345D8A8F0BDF4168B9816ADF4A1168B9817ADF8
S11345E8F4040200168B9818ADF4040300168B9893
S11345F819ADF4040400168B981AA8F004050016E3
S11346088B981BA8F0040600168B981CA8F00407C6
S113461800168B981DA8F0040800B8F0EC873D003C
S1134628C9EC0000ADE844000071FF61C8EC233D0B
S113463800C9E80600EC233D0088369800A8EEB8C7
S113464802A8EC1261DAFBF8FF61792CECF73B0065
S1134658FBF8FF30000061293CBC3C30000061D805
S1134668B161293EBC3EE4EC3035B4B816300A00DA
S1134678B832F6B834512D9836AEF804DF00BDEAE6
S1134688ADE8B81EA83CB810A83EB8128DEC9DE859
S1134698A816BDECB6EAA810BDF4A812BDF6A83257
S11346A8BDF0A834BDF251C09FE800ADF6BEF2AD2E
S11346B8F4BEF0ADF2BEF4ADF0BEF651C19FE80011
S11346C88FE8003103FAAEF0BDF4AEF2BDF6AFE008
S11346D800BDF0AFE200BDF2ADF0B83CADF2B83EBB
S11346E8ADF4B816ADF6B818ADEC06F0DAEA168BE8
S11346F8480000A816B810ADF6B812A81244000075
S1134708A81061F844000061E8EC9C4600A810B8C1
S11347183CA812B83E8DE89DECA81EBDE8440000F4
S113472871FF61D8EC674800A81426EABDF0ADE82B
S113473846F071FF7177F161E3EC614700B6EADA9C
S1134748EA5130480000A81426EABDF046E871FF93
S11347587177E961D8EC454700884ED161F8EC5F80
S11347683B00D4EC61F8EC5F3B00882E5CDF9DF2E3
S11347784AF25861F8ECED4C00882E4C6F61E8EC75
S11347885F3B00EAEA894C3061F8EC5F3B00ADEA34
S1134798B1BDF0ADEAB1EC024D00A82ABDEAA816F5
S11347A826ECBDF0ADE804F6FFBDF2ADECBDF4AD0A
S11347B8F2BDF6ADF0DAF6168B480000B6F4A6F0B2
S11347C8B6F2ADF444000061E8ECB74700ADE80484
S11347D8F7FFBDEC8831D161E8EC1A4800ADEC264E
S11347E8EABDE8EC633B00F1984F882ED161E8EC10
S11347F8884000A84044000071FF61D8EC444D0093
S1134808A84016F627BDF0ADEABDECF1982EEC9061
S11348184000883676F1612E9DF088366BF0317A47
S1134828318FBDF0A83826F0BDF0ADEC26EABDE81E
S113483846F071FF7177F161C8EC633B00B6EADAC0
S1134848EA5130480000ADEC26EABDE8ADF046E890
S113485871FF7177E961F3EC454800EC633B00882C
S113486831D161F8EC304700883676F1612E9DF03D
S113487888366BF0317A318FBDF0A83826F0BDE860
S1134888EC3047008DF0983E983FA8F0040200B839
S1134898F0882E4C6F61E8ECED3A00300800ECFA31
S11348A83A00A8F0BDEC16ABB83CD4F061F8EC6162
S11348B84C00A8F016AC02B83EA8F0040400B8F006
S11348C8883F71FC61D8EC5846003035B4B81630CE
S11348D80A00B832F6B834EC023B00A8F00402002F
S11348E8BDF4A8F016ABBDF644000061F8EC774EB1
S11348F800ADE844000071FF61D8EC224E00ADF62B
S1134908A1BDF2ADF61489D161F8EC364E00ADE8DC
S113491844000061F8EC664E00C9F00000EC3D4923
S113492800ADF6A1BDF2ADE846F071FF7177F16113
S1134938E3EC4D4900ADF2BDF6A6F0EAF289D16187
S1134948E8EC294900F626F0BDF0ADF606F0BDEA1C
S1134958ADF626EABDE8ADF4B8F0EC633B00884E4A
S1134968D161F8ECC23A00ADE844000061E8ECC259
S11349783A00C9E80100ECC23A00A8F016ABBDE859
S1134988FAEA8C029DECA8F0040200B8F0A6EAA6A4
S1134998EAEC4C3A00F626ECB838FBF8FF615937D4
S11349A8ECE844008816980088179801881898023B
S11349B888199803881A9804881B9805881C9806EF
S11349C8881D98078DF098089809980A980B980CF0
S11349D8980D980EF1980FFC428B00D4F061F8EC16
S11349E89D4C00CDF3E0CDF4DFCDF57CCDF6DB8D29
S11349F8F3980B8DF4980C8DF5980D8DF6980E514F
S1134A083D980FFCF58D00F6B8408DF0D171FF612B
S1134A18F3EC044B00ADE8B82AA840BDE888169822
S1134A2800881798018818980288199803881A9892
S1134A3804881B9805881C9806881D9807F198080F
S1134A48F19809F1980A5120980B515F980C51A0DC
S1134A58980D5102980E5142980FFC3869008DF058
S1134A68981E8DF1981F8DF298208DF398218DF45E
S1134A7898228DF598238DF698248DF798258DF036
S1134A8898168DF198178DF298188DF398198DF45E
S1134A98981A8DF5981B8DF6981C8DF7981DADE81E
S1134AA804F6FFBDE8CDF3E0CDF4DFCDF57CCDF61B
S1134AB8DB8816980088179801881898028819982E
S1134AC803881A9804881B9805881C9806882598D2
S1134AD8078DF3980B8DF4980C8DF5980D8DF69839
S1134AE80E513D980FFCF58D008DF0D171FF61E3F7
S1134AF8EC254A00ADE8B840A82ABDE8F4F0CDF6A4
S1134B08F0881698008817980188189802881998C8
S1134B1803881A9804881B9805881C9806881D9889
S1134B28078DF098089809980A980B980C980D8D99
S1134B38F6980E513F980FFC0F8D008DF0D171FF40
S1134B4861C8EC424000ADE8B82AA840BDE8881620
S1134B589800881798018818980288199803881A61
S1134B689804881B9805881C9806881D9807F1984E
S1134B7808F19809F1980AF1980BF1980CF1980D3D
S1134B885124980E5140980FFC3869008DF0981EF6
S1134B988DF1981F8DF298208DF398218DF4982229
S1134BA88DF598238DF698248DF798258DF0981611
S1134BB88DF198178DF298188DF398198DF4981A29
S1134BC88DF5981B8DF6981C8DF7981DB6E8CDF6D3
S1134BD8F0881698008817980188189802881998F8
S1134BE803881A9804881B9805881C9806882598B1
S1134BF8078DF6980E513F980FFC0F8D008DF0D15C
S1134C0871FF61D8EC564B00EC3A40008800984696
S1134C18881798478818984888199849881A984A84
S1134C28881B984B881C984C881D0C80984D981D9F
S1134C38512D9836ECCB3D00C9EC0100EC2C460014
S1134C48BDF0A82CBDECADF012ADEC780000A8F0D6
S1134C58040200B8F0EC083900317B983E983FAD67
S1134C68EC040200B8F0ECC84800882E4C7061E8E7
S1134C78ECAB4500A8F0BDEC16ABB83C317B983ED4
S1134C88983FADEC040200B8F03035B4B8163010D3
S1134C9800ECFA3A00F6B840EC424000ADE826ECE5
S1134CA8B1BDE8884ED161F8EC3E4E00F1984FEC66
S1134CB8FB4700ADECA1BDF2ADEA46F261C8EC7D5C
S1134CC84300ADECBDE8ADF2BDF0ADF012FAE88BEF
S1134CD8480000B6F0B6E8ADF046EA61E8ECD24C1C
S1134CE800EC7D4300ADEAB112882E480000ADEA1D
S1134CF804FEFFBDF0ADEA04FEFF12513048000087
S1134D08A81426F0BDE8ADF0BDEAEC633B00300A18
S1134D1800ECFA3A00A81EB816ECEE3B00ADEC0421
S1134D280200BDF0DAEC512D480100A84016F62720
S1134D38B840ECFC4300B6ECECD14300AEF8045A9E
S1134D4800BDF2A83806F2125130480000ADE8441C
S1134D58000061E8EC694D00884ED161F8EC474EDB
S1134D6800ADEA040200BDECDAEA512E480100A8BD
S1134D784044FFFF61F8EC574E00ADE84400006181
S1134D88F8ECF34D00ADECBDF2A840A106E8BDF483
S1134D98ADE8BDF0ECAF4D00ADECBDF2ADF04400B4
S1134DA80061F8ECF34D00A6ECADF2125130480066
S1134DB800B6F0ADF446F061E8ECA04D008DE87C57
S1134DC8FF98568DE97CFF9857A856BDF2A840462F
S1134DD8F271FF7177F361D8EC124E00ADF0BDE8C3
S1134DE8F1982EC9F00100EC9040008DE87CFF9802
S1134DF8588DE97CFF9859A858BDF0A84046F07131
S1134E08FF7177F161C8EC5F4E00884FD161F8EC0F
S1134E18DC4700F1982EEC9B4300ADF6A1BDF2C926
S1134E28E81027ADF61489D161E8EC214900C9F0EE
S1134E380000EC524900E1984E984FECFB4700AD56
S1134E48EAA1BDECA84044FFFF61E8ECF34D00ADD6
S1134E58E8BDF0ECC54D00F1982EEC614200ADE8D8
S1134E68BDF0EC5249003035B4B816ECC73A00C965
S1134E78F626B4ECF94800F1982EC9E80600EC2BA4
S1134E883D0061EFC1C3C561CF2024A82EB816A880
S1134E9830B818AEF8042400BDF004F2FFB800AD31
S1134EA8F004F6FFB802FC819B00A81ABDECB80018
S1134EB8A81CBDEAB802A81EBDE8B804F19DF4A870
S1134EC820BDF0A822BDF28DEC980E8801980F8DB4
S1134ED8EA9810880398118DE89812880598138821
S1134EE8069814880798158DF098008DF198018D0F
S1134EF8F298028DF398038DF498048DF498058D37
S1134F08F498068DF49807511E9808FCBD99008DF5
S1134F18EC9800880F98018DEA9802881198038DFF
S1134F28E89804881398058DF0980E8DF1980F8DE4
S1134F38F298108DF398118DF498128DF598138DBD
S1134F48F698148DF798158DF098068DF198078DBD
S1134F58F298088DF398098DF4980A8DF5980B8DBD
S1134F68F6980C8DF7980DFCBC91008DF0980E8D79
S1134F78F1980F8DF298108DF398118DF498128D85
S1134F88F598138DF698148DF7981588149DEC8868
S1134F98159DED8DEC9DF68DED9DF7102461EFC404
S1134FA8C2C061CFD761EFC1C3C561CF203CA84A55
S1134FB8BDECA84616ABBDF044010061E3ECE6661F
S1134FC800A84816ABBDF244010061E3ECEC6600AE
S1134FD8ADF044040061E8EC075000A846BDF0AD0C
S1134FE8F244040061E8ECF66600EAF0AA026149BA
S1134FF80261F8ECF66600C9F05CB4ECF66600AD44
S1135008F244040061F8ECEC660044020061E8EC48
S11350187C5000ADF044020061E8ECE66600DAEC8E
S1135028ADF0780000A84616AC02780200A846162F
S1135038AC04780400A84616AC06780600A8461600
S1135048AC08780800A84616AC0A780A00A84616E0
S1135058AC0C780C00A848BDF0A846BDF2EAF016DE
S11350688A025E02480200FAF28A035E03480300D9
S1135078ECF26600ADF044020061F8ECEC6600A8BE
S11350884616AC04B83AA84804040016ABBDF2A806
S113509846040600168B981AA846040700168B982F
S11350A81BA846040800168B981CA8460409001679
S11350B88B981DA846040A00168B981EA846040B54
S11350C800168B981FA846040C00168B9820A84637
S11350D8040D00168B9821A848040600168B981214
S11350E8A848040700168B9813A848040800168BD0
S11350F89814A848040900168B9815A848040A00AF
S1135108168B9816A848040B00168B9817A8480401
S11351180C00168B9818A848040D00168B9819A82B
S11351283A26F2BDF0BDE844000071FF61C8EC3FC7
S11351385100F626F0BDE8ADE8443F0071FF61F385
S1135148EC0E5B00ADF044000071FF61E3EC2C56FB
S11351580088129800881398018814980288159872
S11351680388169804881798058818980688199843
S1135178078DE89808FCD797008DF098328DF19840
S1135188338DF298348DF398358DF498368DF598DF
S1135198378DF698388DF79839E1980AF1980B9875
S11351A80C980D980E980F98109811880A980088F2
S11351B80B9801880C9802880D9803880E98048827
S11351C80F98058810980688119807FCBD99008DDA
S11351D8F098228DF198238DF298248DF398258DDB
S11351E8F498268DF598278DF698288DF7982951E7
S11351F8FF982A982B982C982D982E982F983098A9
S1135208318DF076882A610E9DF2E4F08822768D3D
S1135218F2614E61D8EC25520088119DF0882B76F6
S11352288823610E9DF3E4EA8823768DF3614E6149
S1135238D8EC3F5200F4EA8DF3768DF0610E9DF0C0
S1135248E4F14BF361D8EC545200F4F18DEA6BF1BC
S11352589DEA8DF09DF3882C768824610E9DF4E4F4
S1135268F18824768DF4614E61D8EC785200F4F11B
S11352788DF4768DEA610E9DEAE4F04BF461D8EC86
S11352888D5200F4F08DF16BF09DF18DEA9DF48858
S11352982D768825610E9DF5E4F08825768DF561D7
S11352A84E61D8ECB15200F4F08DF5768DF1610EB3
S11352B89DF1E4EA4BF561D8ECC65200F4EA8DF0AE
S11352C86BEA9DF08DF19DF5882E768826610E9DFA
S11352D8F6E4F18826768DF6614E61D8ECEA520040
S11352E8F4F18DF6768DF0610E9DF0E4EA4BF661EB
S11352F8D8ECFF5200F4EA8DF16BEA9DF18DF09D34
S1135308F6882F768827610E9DF7E4F08827768D36
S1135318F7614E61D8EC235300F4F08DF7768DF1E4
S1135328610E9DF1E4EA4BF761D8EC385300F4EAD6
S11353388DF06BEA9DF08DF19DF7883076882861B1
S11353480E9DE8E4F18828768DE8614E61D8EC5C1E
S11353585300F4F18DE8768DF0610E9DF0E4EA4B8C
S1135368E861D8EC715300F4EA8DF16BEA9DF18D94
S1135378F09DE88831768829610E768DF1610E9D5D
S1135388E988125BF2982288135BF3982388145BEC
S1135398F4982488155BF5982588165BF698268872
S11353A8175BF7982788185BE8982888195BE998A9
S11353B829F4F48DF49DF59DF69DF79DE89DE99DEE
S11353C8EA9DEB8822768DF4612E980AE4F14BF479
S11353D861F3ECE253008DF59DF18823768DF56138
S11353E82E980BE4F04BF561F3ECF75300F4F08DD1
S11353F8F176880B612E9DF1E4F2880B768DF161CC
S11354084E61F3EC115400F4F28DF06BF29DF08DC3
S1135418F1980B8824768DF6612E980CE4F14BF6FE
S113542861F3EC305400F4F18DF076880C612E9D14
S1135438F0E4F2880C768DF0614E61F3EC4A540086
S1135448F4F28DF16BF29DF18DF0980C8825768D30
S1135458F7612E980DE4F04BF761F3EC695400F40E
S1135468F08DF176880D612E9DF1E4F2880D768D2C
S1135478F1614E61F3EC835400F4F28DF06BF29D0C
S1135488F08DF1980D8826768DE8612E980EE4F15A
S11354984BE861F3ECA25400F4F18DF076880E61C8
S11354A82E9DF0E4F2880E768DF0614E61F3ECBC2B
S11354B85400F4F28DF16BF29DF18DF0980E88276B
S11354C8768DE9612E980FE4F04BE961F3ECDB5437
S11354D800F4F08DF176880F612E9DF1E4F2880FC7
S11354E8768DF1614E61F3ECF55400F4F28DF06BB6
S11354F8F29DF08DF1980F8828768DEA612E981028
S1135508E4F14BEA61F3EC145500F4F18DF076887C
S113551810612E9DF0E4F28810768DF0614E61F3EF
S1135528EC2E5500F4F28DF16BF29DF18DF098108C
S11355388829768DEB612E98118DF1768811612E6C
S11355489811882276880A616E9DF0882376880BE4
S1135558616E9DF1882476880C616E9DF2882576AB
S1135568880D616E9DF3882676880E616E9DF48899
S11355782776880F616E9DF58828768810616E9D60
S1135588F68829768811616E9DF78DF098008DF163
S113559898018DF298028DF398038DF498048DF593
S11355A898058DF698068DF79807513F9808FCD70B
S11355B897008DF0980A8DF1980B8DF2980C8DF365
S11355C8980D8DF4980E8DF5980F8DF698108DF72B
S11355D898118DF098228DF198238DF298248DF3EB
S11355E898258DF498268DF598278DF698288DF7AB
S11355F8982988326BF0981288336BF198138834A1
S11356086BF2981488356BF3981588366BF49816F2
S113561888376BF5981788386BF6981888396BF7BC
S1135628EC455B0044000061F8EC475B00A83A06CF
S1135638E8B83A881A9800881B9801881C98028848
S11356481D9803881E9804881F9805882098068842
S11356582198078DE89808FCD797008DF098328D2B
S1135668F198338DF298348DF398358DF498368DFE
S1135678F598378DF698388DF79839E1980AF198A6
S11356880B980C980D980E980F98109811880A98F2
S113569800880B9801880C9802880D9803880E9846
S11356A804880F98058810980688119807FCBD99F6
S11356B8008DF098228DF198238DF298248DF3981B
S11356C8258DF498268DF598278DF698288DF798CA
S11356D82951FF982A982B982C982D982E982F9812
S11356E83098318DF076882A610E9DF2E4F0882294
S11356F8768DF2614E61D8EC07570088119DF088C9
S11357082B768823610E9DF3E4EA8823768DF36172
S11357184E61D8EC215700F4EA8DF3768DF0610ED2
S11357289DF0E4F14BF361D8EC365700F4F18DEABF
S11357386BF19DEA8DF09DF3882C768824610E9D8B
S1135748F4E4F18824768DF4614E61D8EC5A57005C
S1135758F4F18DF4768DEA610E9DEAE4F04BF46180
S1135768D8EC6F5700F4F08DF16BF09DF18DEA9D44
S1135778F4882D768825610E9DF5E4F08825768DCC
S1135788F5614E61D8EC935700F4F08DF5768DF100
S1135798610E9DF1E4EA4BF561D8ECA85700F4EAF0
S11357A88DF06BEA9DF08DF19DF5882E7688266143
S11357B80E9DF6E4F18826768DF6614E61D8ECCC20
S11357C85700F4F18DF6768DF0610E9DF0E4EA4B06
S11357D8F661D8ECE15700F4EA8DF16BEA9DF18D9E
S11357E8F09DF6882F768827610E9DF7E4F08827C8
S11357F8768DF7614E61D8EC055800F4F08DF77694
S11358088DF1610E9DF1E4EA4BF761D8EC1A58006A
S1135818F4EA8DF06BEA9DF08DF19DF78830768877
S113582828610E9DE8E4F18828768DE8614E61D8F8
S1135838EC3E5800F4F18DE8768DF0610E9DF0E4AD
S1135848EA4BE861D8EC535800F4EA8DF16BEA9D11
S1135858F18DF09DE88831768829610E768DF161A5
S11358680E9DE9881A5BF29822881B5BF3982388BB
S11358781C5BF49824881D5BF59825881E5BF698B4
S113588826881F5BF7982788205BE8982888215B7F
S1135898E99829F4F48DF49DF59DF69DF79DE89D0E
S11358A8E99DEA9DEB8822768DF4612E980AE4F14D
S11358B84BF461F3ECC458008DF59DF18823768D83
S11358C8F5612E980BE4F04BF561F3ECD95800F42C
S11358D8F08DF176880B612E9DF1E4F2880B768DBC
S11358E8F1614E61F3ECF35800F4F28DF06BF29D24
S11358F8F08DF1980B8824768DF6612E980CE4F1DE
S11359084BF661F3EC125900F4F18DF076880C61D2
S11359182E9DF0E4F2880C768DF0614E61F3EC2C48
S11359285900F4F28DF16BF29DF18DF0980C8825F5
S1135938768DF7612E980DE4F04BF761F3EC4B5933
S113594800F4F08DF176880D612E9DF1E4F2880D56
S1135958768DF1614E61F3EC655900F4F28DF06BCC
S1135968F29DF08DF1980D8826768DE8612E980EBB
S1135978E4F14BE861F3EC845900F4F18DF0768896
S11359880E612E9DF0E4F2880E768DF0614E61F37F
S1135998EC9E5900F4F28DF16BF29DF18DF0980EA6
S11359A88827768DE9612E980FE4F04BE961F3ECD2
S11359B8BD5900F4F08DF176880F612E9DF1E4F263
S11359C8880F768DF1614E61F3ECD75900F4F28DAE
S11359D8F06BF29DF08DF1980F8828768DEA612E90
S11359E89810E4F14BEA61F3ECF65900F4F18DF008
S11359F8768810612E9DF0E4F28810768DF0614E61
S1135A0861F3EC105A00F4F28DF16BF29DF18DF014
S1135A1898108829768DEB612E98118DF17688116E
S1135A28612E9811882276880A616E9DF088237603
S1135A38880B616E9DF1882476880C616E9DF288CE
S1135A482576880D616E9DF3882676880E616E9D95
S1135A58F4882776880F616E9DF58828768810610A
S1135A686E9DF68829768811616E9DF78DF09800F1
S1135A788DF198018DF298028DF398038DF49804B2
S1135A888DF598058DF698068DF79807513F980877
S1135A98FCD797008DF0980A8DF1980B8DF2980C2D
S1135AA88DF3980D8DF4980E8DF5980F8DF698104A
S1135AB88DF798118DF098228DF198238DF2982402
S1135AC88DF398258DF498268DF598278DF69828CA
S1135AD88DF7982988326BF0981A88336BF1981BE4
S1135AE888346BF2981C88356BF3981D88366BF4F0
S1135AF8981E88376BF5981F88386BF69820883974
S1135B086BF7EC305B00A83A46F271FF7177F361EA
S1135B18F3EC365B00ADF2B83AF1981A981B981C6E
S1135B28981D981E981F98209821EC475B00F198BF
S1135B38129813981498159816981798189819A8DD
S1135B4846BDF2A6F2A6F2FAF2ABBDF0A84816AC2E
S1135B580246F061F8EC2C6400ADF044000061F8F2
S1135B68ECE55C00881A768812612E9DF0E4E888DA
S1135B7812768DF0614E61F3EC865B00F4E8881BC5
S1135B88768813612E9DF1E4E98813768DF1614ED0
S1135B9861F3ECA05B00F4E98DE8768DF1612E9D4C
S1135BA8E8E4EA4BF161F3ECB55B00F4EA8DE96BE8
S1135BB8EA9DE98DE89DF1881C768814612E9DF292
S1135BC8E4E88814768DF2614E61F3ECD95B00F455
S1135BD8E88DE9768DF2612E9DE9E4EA4BF261F3F2
S1135BE8ECEE5B00F4EA8DE86BEA9DE88DE99DF242
S1135BF8881D768815612E9DF3E4E98815768DF362
S1135C08614E61F3EC125C00F4E98DE8768DF36182
S1135C182E9DE8E4EA4BF361F3EC275C00F4EA8D8B
S1135C28E96BEA9DE98DE89DF3881E768816612E56
S1135C389DF4E4E88816768DF4614E61F3EC4B5CD0
S1135C4800F4E88DE9768DF4612E9DE9E4EA4BF4DD
S1135C5861F3EC605C00F4EA8DE86BEA9DE88DE999
S1135C689DF4881F768817612E9DF5E4E9881776D8
S1135C788DF5614E61F3EC845C00F4E98DE8768D72
S1135C88F5612E9DE8E4EA4BF561F3EC995C00F4C8
S1135C98EA8DE96BEA9DE98DE89DF58820768818F8
S1135CA8612E9DF6E4E88818768DF6614E61F3EC72
S1135CB8BD5C00F4E88DE9768DF6612E9DE9E4EA91
S1135CC84BF661F3ECD25C00F4EA8DE86BEA9DE8EC
S1135CD88DE99DF68821768819EC5A5E008812763B
S1135CE8881A612E9DF0E4E8881A768DF0614E6179
S1135CF8F3ECFF5C00F4E8881376881B612E9DF1B1
S1135D08E4E9881B768DF1614E61F3EC195D00F4CA
S1135D18E98DE8768DF1612E9DE8E4EA4BF161F3B3
S1135D28EC2E5D00F4EA8DE96BEA9DE98DE89DF1BE
